{
  "contractName": "GameContract",
  "abi": [
    {
      "inputs": [],
      "stateMutability": "nonpayable",
      "type": "constructor"
    },
    {
      "anonymous": false,
      "inputs": [
        {
          "indexed": true,
          "internalType": "address",
          "name": "submittedby",
          "type": "address"
        },
        {
          "indexed": false,
          "internalType": "uint256",
          "name": "refundedAmount",
          "type": "uint256"
        }
      ],
      "name": "gameCanceled",
      "type": "event"
    },
    {
      "anonymous": false,
      "inputs": [
        {
          "indexed": true,
          "internalType": "address",
          "name": "_playerOne",
          "type": "address"
        },
        {
          "indexed": true,
          "internalType": "address",
          "name": "_playerTwo",
          "type": "address"
        }
      ],
      "name": "newGameCreatedEvent",
      "type": "event"
    },
    {
      "anonymous": false,
      "inputs": [
        {
          "indexed": true,
          "internalType": "address",
          "name": "submittedby",
          "type": "address"
        },
        {
          "indexed": true,
          "internalType": "address",
          "name": "otherPlayer",
          "type": "address"
        },
        {
          "indexed": true,
          "internalType": "string",
          "name": "prevState",
          "type": "string"
        },
        {
          "components": [
            {
              "internalType": "address",
              "name": "playerOne",
              "type": "address"
            },
            {
              "internalType": "address",
              "name": "playerTwo",
              "type": "address"
            },
            {
              "internalType": "enum GameContract.gameState",
              "name": "gState",
              "type": "uint8"
            },
            {
              "internalType": "string",
              "name": "currentGameBoard",
              "type": "string"
            },
            {
              "internalType": "address",
              "name": "lastMover",
              "type": "address"
            },
            {
              "components": [
                {
                  "internalType": "uint256",
                  "name": "totalTime",
                  "type": "uint256"
                },
                {
                  "internalType": "uint256",
                  "name": "timeoutTime",
                  "type": "uint256"
                },
                {
                  "internalType": "uint256",
                  "name": "wageSize",
                  "type": "uint256"
                }
              ],
              "internalType": "struct GameContract.gameSettings",
              "name": "settings",
              "type": "tuple"
            },
            {
              "internalType": "uint256",
              "name": "gameBalance",
              "type": "uint256"
            },
            {
              "internalType": "bool",
              "name": "player2accepted",
              "type": "bool"
            },
            {
              "internalType": "uint256",
              "name": "totalGameTime",
              "type": "uint256"
            },
            {
              "internalType": "uint256",
              "name": "p1Time",
              "type": "uint256"
            },
            {
              "internalType": "uint256",
              "name": "p2Time",
              "type": "uint256"
            },
            {
              "internalType": "uint256[3]",
              "name": "materialState",
              "type": "uint256[3]"
            },
            {
              "internalType": "uint256",
              "name": "lastMoveTime",
              "type": "uint256"
            }
          ],
          "indexed": false,
          "internalType": "struct GameContract.gameData",
          "name": "current",
          "type": "tuple"
        }
      ],
      "name": "newMoveInGame",
      "type": "event"
    },
    {
      "anonymous": false,
      "inputs": [
        {
          "indexed": true,
          "internalType": "address",
          "name": "_player1",
          "type": "address"
        },
        {
          "indexed": true,
          "internalType": "address",
          "name": "_player2",
          "type": "address"
        },
        {
          "indexed": false,
          "internalType": "bool",
          "name": "_accepted",
          "type": "bool"
        }
      ],
      "name": "player2Accepted",
      "type": "event"
    },
    {
      "anonymous": false,
      "inputs": [
        {
          "indexed": true,
          "internalType": "address",
          "name": "submittedby",
          "type": "address"
        },
        {
          "indexed": true,
          "internalType": "address",
          "name": "otherPlayer",
          "type": "address"
        },
        {
          "indexed": false,
          "internalType": "address",
          "name": "OtherPlayerNotLastMovedThatResigned",
          "type": "address"
        }
      ],
      "name": "playerResigned",
      "type": "event"
    },
    {
      "inputs": [
        {
          "internalType": "uint256",
          "name": "",
          "type": "uint256"
        }
      ],
      "name": "games",
      "outputs": [
        {
          "internalType": "address",
          "name": "playerOne",
          "type": "address"
        },
        {
          "internalType": "address",
          "name": "playerTwo",
          "type": "address"
        },
        {
          "internalType": "enum GameContract.gameState",
          "name": "gState",
          "type": "uint8"
        },
        {
          "internalType": "string",
          "name": "currentGameBoard",
          "type": "string"
        },
        {
          "internalType": "address",
          "name": "lastMover",
          "type": "address"
        },
        {
          "components": [
            {
              "internalType": "uint256",
              "name": "totalTime",
              "type": "uint256"
            },
            {
              "internalType": "uint256",
              "name": "timeoutTime",
              "type": "uint256"
            },
            {
              "internalType": "uint256",
              "name": "wageSize",
              "type": "uint256"
            }
          ],
          "internalType": "struct GameContract.gameSettings",
          "name": "settings",
          "type": "tuple"
        },
        {
          "internalType": "uint256",
          "name": "gameBalance",
          "type": "uint256"
        },
        {
          "internalType": "bool",
          "name": "player2accepted",
          "type": "bool"
        },
        {
          "internalType": "uint256",
          "name": "totalGameTime",
          "type": "uint256"
        },
        {
          "internalType": "uint256",
          "name": "p1Time",
          "type": "uint256"
        },
        {
          "internalType": "uint256",
          "name": "p2Time",
          "type": "uint256"
        },
        {
          "internalType": "uint256",
          "name": "lastMoveTime",
          "type": "uint256"
        }
      ],
      "stateMutability": "view",
      "type": "function",
      "constant": true
    },
    {
      "inputs": [
        {
          "internalType": "address",
          "name": "_newOwner",
          "type": "address"
        }
      ],
      "name": "setNewOwner",
      "outputs": [],
      "stateMutability": "nonpayable",
      "type": "function"
    },
    {
      "inputs": [
        {
          "internalType": "address",
          "name": "_playerTwo",
          "type": "address"
        },
        {
          "internalType": "uint16",
          "name": "_totalTime",
          "type": "uint16"
        },
        {
          "internalType": "uint256",
          "name": "_timeoutTime",
          "type": "uint256"
        },
        {
          "internalType": "uint256",
          "name": "_wageSize",
          "type": "uint256"
        },
        {
          "internalType": "string",
          "name": "_currentGameBoard",
          "type": "string"
        }
      ],
      "name": "initializeGame",
      "outputs": [
        {
          "internalType": "uint256",
          "name": "justCreatedGameId",
          "type": "uint256"
        }
      ],
      "stateMutability": "payable",
      "type": "function",
      "payable": true
    },
    {
      "inputs": [],
      "name": "getLastGameId",
      "outputs": [
        {
          "internalType": "uint256",
          "name": "",
          "type": "uint256"
        }
      ],
      "stateMutability": "view",
      "type": "function",
      "constant": true
    },
    {
      "inputs": [
        {
          "internalType": "uint256",
          "name": "gId",
          "type": "uint256"
        }
      ],
      "name": "getGame",
      "outputs": [
        {
          "components": [
            {
              "internalType": "address",
              "name": "playerOne",
              "type": "address"
            },
            {
              "internalType": "address",
              "name": "playerTwo",
              "type": "address"
            },
            {
              "internalType": "enum GameContract.gameState",
              "name": "gState",
              "type": "uint8"
            },
            {
              "internalType": "string",
              "name": "currentGameBoard",
              "type": "string"
            },
            {
              "internalType": "address",
              "name": "lastMover",
              "type": "address"
            },
            {
              "components": [
                {
                  "internalType": "uint256",
                  "name": "totalTime",
                  "type": "uint256"
                },
                {
                  "internalType": "uint256",
                  "name": "timeoutTime",
                  "type": "uint256"
                },
                {
                  "internalType": "uint256",
                  "name": "wageSize",
                  "type": "uint256"
                }
              ],
              "internalType": "struct GameContract.gameSettings",
              "name": "settings",
              "type": "tuple"
            },
            {
              "internalType": "uint256",
              "name": "gameBalance",
              "type": "uint256"
            },
            {
              "internalType": "bool",
              "name": "player2accepted",
              "type": "bool"
            },
            {
              "internalType": "uint256",
              "name": "totalGameTime",
              "type": "uint256"
            },
            {
              "internalType": "uint256",
              "name": "p1Time",
              "type": "uint256"
            },
            {
              "internalType": "uint256",
              "name": "p2Time",
              "type": "uint256"
            },
            {
              "internalType": "uint256[3]",
              "name": "materialState",
              "type": "uint256[3]"
            },
            {
              "internalType": "uint256",
              "name": "lastMoveTime",
              "type": "uint256"
            }
          ],
          "internalType": "struct GameContract.gameData",
          "name": "",
          "type": "tuple"
        }
      ],
      "stateMutability": "view",
      "type": "function",
      "constant": true
    },
    {
      "inputs": [],
      "name": "checkAndReturnCurrentGame",
      "outputs": [
        {
          "components": [
            {
              "internalType": "address",
              "name": "playerOne",
              "type": "address"
            },
            {
              "internalType": "address",
              "name": "playerTwo",
              "type": "address"
            },
            {
              "internalType": "enum GameContract.gameState",
              "name": "gState",
              "type": "uint8"
            },
            {
              "internalType": "string",
              "name": "currentGameBoard",
              "type": "string"
            },
            {
              "internalType": "address",
              "name": "lastMover",
              "type": "address"
            },
            {
              "components": [
                {
                  "internalType": "uint256",
                  "name": "totalTime",
                  "type": "uint256"
                },
                {
                  "internalType": "uint256",
                  "name": "timeoutTime",
                  "type": "uint256"
                },
                {
                  "internalType": "uint256",
                  "name": "wageSize",
                  "type": "uint256"
                }
              ],
              "internalType": "struct GameContract.gameSettings",
              "name": "settings",
              "type": "tuple"
            },
            {
              "internalType": "uint256",
              "name": "gameBalance",
              "type": "uint256"
            },
            {
              "internalType": "bool",
              "name": "player2accepted",
              "type": "bool"
            },
            {
              "internalType": "uint256",
              "name": "totalGameTime",
              "type": "uint256"
            },
            {
              "internalType": "uint256",
              "name": "p1Time",
              "type": "uint256"
            },
            {
              "internalType": "uint256",
              "name": "p2Time",
              "type": "uint256"
            },
            {
              "internalType": "uint256[3]",
              "name": "materialState",
              "type": "uint256[3]"
            },
            {
              "internalType": "uint256",
              "name": "lastMoveTime",
              "type": "uint256"
            }
          ],
          "internalType": "struct GameContract.gameData",
          "name": "game",
          "type": "tuple"
        }
      ],
      "stateMutability": "view",
      "type": "function",
      "constant": true
    },
    {
      "inputs": [],
      "name": "cancelGame",
      "outputs": [],
      "stateMutability": "payable",
      "type": "function",
      "payable": true
    },
    {
      "inputs": [],
      "name": "timeOutforAccept",
      "outputs": [],
      "stateMutability": "nonpayable",
      "type": "function"
    },
    {
      "inputs": [
        {
          "internalType": "bool",
          "name": "_accepted",
          "type": "bool"
        }
      ],
      "name": "playerTwoAccepted",
      "outputs": [],
      "stateMutability": "payable",
      "type": "function",
      "payable": true
    },
    {
      "inputs": [
        {
          "internalType": "string",
          "name": "_submittedMove",
          "type": "string"
        },
        {
          "internalType": "uint256[3]",
          "name": "_material",
          "type": "uint256[3]"
        }
      ],
      "name": "submitMove",
      "outputs": [],
      "stateMutability": "nonpayable",
      "type": "function"
    },
    {
      "inputs": [],
      "name": "resignGame",
      "outputs": [],
      "stateMutability": "nonpayable",
      "type": "function"
    },
    {
      "inputs": [],
      "name": "playerTimedOut",
      "outputs": [],
      "stateMutability": "nonpayable",
      "type": "function"
    }
  ],
  "bytecode": "0x608060405234801561001057600080fd5b5033600160006101000a81548173ffffffffffffffffffffffffffffffffffffffff021916908373ffffffffffffffffffffffffffffffffffffffff1602179055507349a3e9f02e8b0a6076f8568361926d54d17730cb600260006101000a81548173ffffffffffffffffffffffffffffffffffffffff021916908373ffffffffffffffffffffffffffffffffffffffff1602179055506001600381905550613c62806100be6000396000f3fe6080604052600436106100a75760003560e01c80638c79a38c116100645780638c79a38c14610194578063a2f77bcc146101b0578063a35b6ec7146101ed578063d84c1ac914610218578063ebe5e5d814610222578063f5a1f5b41461024b576100a7565b80630800cb7e146100ac578063117a5b90146100c357806314da0bc51461010b5780634ce3e372146101225780635c0c3bb4146101525780637ab2942b14610169575b600080fd5b3480156100b857600080fd5b506100c1610274565b005b3480156100cf57600080fd5b506100ea60048036038101906100e59190612edc565b610499565b6040516101029c9b9a999897969594939291906136d2565b60405180910390f35b34801561011757600080fd5b50610120610633565b005b61013c60048036038101906101379190612dd0565b610635565b6040516101499190613894565b60405180910390f35b34801561015e57600080fd5b50610167610a52565b005b34801561017557600080fd5b5061017e610a54565b60405161018b9190613850565b60405180910390f35b6101ae60048036038101906101a99190612e5f565b610d54565b005b3480156101bc57600080fd5b506101d760048036038101906101d29190612edc565b6111e6565b6040516101e49190613850565b60405180910390f35b3480156101f957600080fd5b506102026114a9565b60405161020f9190613894565b60405180910390f35b6102206114b6565b005b34801561022e57600080fd5b5061024960048036038101906102449190612e88565b6119b9565b005b34801561025757600080fd5b50610272600480360381019061026d9190612da7565b611e2b565b005b600060046000600560003373ffffffffffffffffffffffffffffffffffffffff1673ffffffffffffffffffffffffffffffffffffffff1681526020019081526020016000205481526020019081526020016000209050610312600560003373ffffffffffffffffffffffffffffffffffffffff1673ffffffffffffffffffffffffffffffffffffffff16815260200190815260200160002054611fac565b15610496576000600560008360000160009054906101000a900473ffffffffffffffffffffffffffffffffffffffff1673ffffffffffffffffffffffffffffffffffffffff1673ffffffffffffffffffffffffffffffffffffffff168152602001908152602001600020819055506000600560008360010160009054906101000a900473ffffffffffffffffffffffffffffffffffffffff1673ffffffffffffffffffffffffffffffffffffffff1673ffffffffffffffffffffffffffffffffffffffff16815260200190815260200160002081905550610431600560003373ffffffffffffffffffffffffffffffffffffffff1673ffffffffffffffffffffffffffffffffffffffff16815260200190815260200160002054612339565b73ffffffffffffffffffffffffffffffffffffffff163373ffffffffffffffffffffffffffffffffffffffff167f2ebf0de5f8a94f0cb6835b17c86eb1fff68d7f0bb4857bfb28953adad5b7d44a3360405161048d91906136b7565b60405180910390a35b50565b60046020528060005260406000206000915090508060000160009054906101000a900473ffffffffffffffffffffffffffffffffffffffff16908060010160009054906101000a900473ffffffffffffffffffffffffffffffffffffffff16908060010160149054906101000a900460ff1690806002018054600181600116156101000203166002900480601f0160208091040260200160405190810160405280929190818152602001828054600181600116156101000203166002900480156105a45780601f10610579576101008083540402835291602001916105a4565b820191906000526020600020905b81548152906001019060200180831161058757829003601f168201915b5050505050908060030160009054906101000a900473ffffffffffffffffffffffffffffffffffffffff1690806004016040518060600160405290816000820154815260200160018201548152602001600282015481525050908060070154908060080160009054906101000a900460ff169080600901549080600a01549080600b01549080600f015490508c565b565b6000604051806101a001604052803373ffffffffffffffffffffffffffffffffffffffff1681526020018773ffffffffffffffffffffffffffffffffffffffff1681526020016001600481111561068857fe5b8152602001838152602001600073ffffffffffffffffffffffffffffffffffffffff16815260200160405180606001604052808861ffff168152602001878152602001868152508152602001348152602001600015158152602001610258815260200161012c815260200161012c81526020016040518060600160405280600181526020016002815260200160038152508152602001600081525060046000600354815260200190815260200160002060008201518160000160006101000a81548173ffffffffffffffffffffffffffffffffffffffff021916908373ffffffffffffffffffffffffffffffffffffffff16021790555060208201518160010160006101000a81548173ffffffffffffffffffffffffffffffffffffffff021916908373ffffffffffffffffffffffffffffffffffffffff16021790555060408201518160010160146101000a81548160ff021916908360048111156107ea57fe5b0217905550606082015181600201908051906020019061080b929190612a70565b5060808201518160030160006101000a81548173ffffffffffffffffffffffffffffffffffffffff021916908373ffffffffffffffffffffffffffffffffffffffff16021790555060a082015181600401600082015181600001556020820151816001015560408201518160020155505060c0820151816007015560e08201518160080160006101000a81548160ff021916908315150217905550610100820151816009015561012082015181600a015561014082015181600b015561016082015181600c019060036108df929190612afe565b5061018082015181600f01559050506108f73361268f565b801561090857506109078661268f565b5b610947576040517f08c379a000000000000000000000000000000000000000000000000000000000815260040161093e90613810565b60405180910390fd5b600354600560003373ffffffffffffffffffffffffffffffffffffffff1673ffffffffffffffffffffffffffffffffffffffff16815260200190815260200160002081905550600354600560008873ffffffffffffffffffffffffffffffffffffffff1673ffffffffffffffffffffffffffffffffffffffff1681526020019081526020016000208190555060035490508573ffffffffffffffffffffffffffffffffffffffff163373ffffffffffffffffffffffffffffffffffffffff167f924d7492e89e2320415cf3dc9b3c1844a2ff30bca5eb7c40c2aa288c916b394960405160405180910390a3600360008154809291906001019190505550600354905095945050505050565b565b610a5c612b3e565b60046000600560003373ffffffffffffffffffffffffffffffffffffffff1673ffffffffffffffffffffffffffffffffffffffff168152602001908152602001600020548152602001908152602001600020604051806101a00160405290816000820160009054906101000a900473ffffffffffffffffffffffffffffffffffffffff1673ffffffffffffffffffffffffffffffffffffffff1673ffffffffffffffffffffffffffffffffffffffff1681526020016001820160009054906101000a900473ffffffffffffffffffffffffffffffffffffffff1673ffffffffffffffffffffffffffffffffffffffff1673ffffffffffffffffffffffffffffffffffffffff1681526020016001820160149054906101000a900460ff166004811115610b8457fe5b6004811115610b8f57fe5b8152602001600282018054600181600116156101000203166002900480601f016020809104026020016040519081016040528092919081815260200182805460018160011615610100020316600290048015610c2c5780601f10610c0157610100808354040283529160200191610c2c565b820191906000526020600020905b815481529060010190602001808311610c0f57829003601f168201915b505050505081526020016003820160009054906101000a900473ffffffffffffffffffffffffffffffffffffffff1673ffffffffffffffffffffffffffffffffffffffff1673ffffffffffffffffffffffffffffffffffffffff1681526020016004820160405180606001604052908160008201548152602001600182015481526020016002820154815250508152602001600782015481526020016008820160009054906101000a900460ff1615151515815260200160098201548152602001600a8201548152602001600b8201548152602001600c8201600380602002604051908101604052809291908260038015610d3c576020028201915b815481526020019060010190808311610d28575b50505050508152602001600f82015481525050905090565b8061101957600060046000600560003373ffffffffffffffffffffffffffffffffffffffff1673ffffffffffffffffffffffffffffffffffffffff16815260200190815260200160002054815260200190815260200160002090503373ffffffffffffffffffffffffffffffffffffffff168160010160009054906101000a900473ffffffffffffffffffffffffffffffffffffffff1673ffffffffffffffffffffffffffffffffffffffff1614610e0b57600080fd5b60008160080160006101000a81548160ff02191690831515021790555060048160010160146101000a81548160ff02191690836004811115610e4957fe5b02179055506000600560008360000160009054906101000a900473ffffffffffffffffffffffffffffffffffffffff1673ffffffffffffffffffffffffffffffffffffffff1673ffffffffffffffffffffffffffffffffffffffff168152602001908152602001600020819055506000600560008360010160009054906101000a900473ffffffffffffffffffffffffffffffffffffffff1673ffffffffffffffffffffffffffffffffffffffff1673ffffffffffffffffffffffffffffffffffffffff168152602001908152602001600020819055506000600560003373ffffffffffffffffffffffffffffffffffffffff1673ffffffffffffffffffffffffffffffffffffffff168152602001908152602001600020819055508060010160009054906101000a900473ffffffffffffffffffffffffffffffffffffffff1673ffffffffffffffffffffffffffffffffffffffff168160000160009054906101000a900473ffffffffffffffffffffffffffffffffffffffff1673ffffffffffffffffffffffffffffffffffffffff167f8f46d051ff9b2597fea8c60146bef33969de64edef522f8e1e927f117cb408b6600060405161100b9190613795565b60405180910390a3506111e3565b600060046000600560003373ffffffffffffffffffffffffffffffffffffffff1673ffffffffffffffffffffffffffffffffffffffff16815260200190815260200160002054815260200190815260200160002090508060040160020154341461108257600080fd5b3373ffffffffffffffffffffffffffffffffffffffff168160010160009054906101000a900473ffffffffffffffffffffffffffffffffffffffff1673ffffffffffffffffffffffffffffffffffffffff16146110de57600080fd5b60018160080160006101000a81548160ff02191690831515021790555060028160010160146101000a81548160ff0219169083600481111561111c57fe5b02179055503481600701600082825401925050819055508060010160009054906101000a900473ffffffffffffffffffffffffffffffffffffffff1673ffffffffffffffffffffffffffffffffffffffff168160000160009054906101000a900473ffffffffffffffffffffffffffffffffffffffff1673ffffffffffffffffffffffffffffffffffffffff167f8f46d051ff9b2597fea8c60146bef33969de64edef522f8e1e927f117cb408b660016040516111d99190613795565b60405180910390a3505b50565b6111ee612b3e565b60046000838152602001908152602001600020604051806101a00160405290816000820160009054906101000a900473ffffffffffffffffffffffffffffffffffffffff1673ffffffffffffffffffffffffffffffffffffffff1673ffffffffffffffffffffffffffffffffffffffff1681526020016001820160009054906101000a900473ffffffffffffffffffffffffffffffffffffffff1673ffffffffffffffffffffffffffffffffffffffff1673ffffffffffffffffffffffffffffffffffffffff1681526020016001820160149054906101000a900460ff1660048111156112d757fe5b60048111156112e257fe5b8152602001600282018054600181600116156101000203166002900480601f01602080910402602001604051908101604052809291908181526020018280546001816001161561010002031660029004801561137f5780601f106113545761010080835404028352916020019161137f565b820191906000526020600020905b81548152906001019060200180831161136257829003601f168201915b505050505081526020016003820160009054906101000a900473ffffffffffffffffffffffffffffffffffffffff1673ffffffffffffffffffffffffffffffffffffffff1673ffffffffffffffffffffffffffffffffffffffff1681526020016004820160405180606001604052908160008201548152602001600182015481526020016002820154815250508152602001600782015481526020016008820160009054906101000a900460ff1615151515815260200160098201548152602001600a8201548152602001600b8201548152602001600c820160038060200260405190810160405280929190826003801561148f576020028201915b81548152602001906001019080831161147b575b50505050508152602001600f820154815250509050919050565b6000600160035403905090565b600060046000600560003373ffffffffffffffffffffffffffffffffffffffff1673ffffffffffffffffffffffffffffffffffffffff168152602001908152602001600020548152602001908152602001600020604051806101a00160405290816000820160009054906101000a900473ffffffffffffffffffffffffffffffffffffffff1673ffffffffffffffffffffffffffffffffffffffff1673ffffffffffffffffffffffffffffffffffffffff1681526020016001820160009054906101000a900473ffffffffffffffffffffffffffffffffffffffff1673ffffffffffffffffffffffffffffffffffffffff1673ffffffffffffffffffffffffffffffffffffffff1681526020016001820160149054906101000a900460ff1660048111156115e057fe5b60048111156115eb57fe5b8152602001600282018054600181600116156101000203166002900480601f0160208091040260200160405190810160405280929190818152602001828054600181600116156101000203166002900480156116885780601f1061165d57610100808354040283529160200191611688565b820191906000526020600020905b81548152906001019060200180831161166b57829003601f168201915b505050505081526020016003820160009054906101000a900473ffffffffffffffffffffffffffffffffffffffff1673ffffffffffffffffffffffffffffffffffffffff1673ffffffffffffffffffffffffffffffffffffffff1681526020016004820160405180606001604052908160008201548152602001600182015481526020016002820154815250508152602001600782015481526020016008820160009054906101000a900460ff1615151515815260200160098201548152602001600a8201548152602001600b8201548152602001600c8201600380602002604051908101604052809291908260038015611798576020028201915b815481526020019060010190808311611784575b50505050508152602001600f8201548152505090508060e001511580156117c65750428160a0015160200151105b80156118015750806000015173ffffffffffffffffffffffffffffffffffffffff163373ffffffffffffffffffffffffffffffffffffffff16145b156119b657600060056000836000015173ffffffffffffffffffffffffffffffffffffffff1673ffffffffffffffffffffffffffffffffffffffff16815260200190815260200160002081905550600060056000836020015173ffffffffffffffffffffffffffffffffffffffff1673ffffffffffffffffffffffffffffffffffffffff16815260200190815260200160002081905550600060638260a0015160400151816118ac57fe5b048260a001516040015103905060003373ffffffffffffffffffffffffffffffffffffffff16826040516118df906136a2565b60006040518083038185875af1925050503d806000811461191c576040519150601f19603f3d011682016040523d82523d6000602084013e611921565b606091505b5050905080611965576040517f08c379a000000000000000000000000000000000000000000000000000000000815260040161195c906137d0565b60405180910390fd5b3373ffffffffffffffffffffffffffffffffffffffff167f38658d3cef5cc44cbe180db715b3888e2a3b59e21b5ed1193b79a8c33dd292c6836040516119ab9190613894565b60405180910390a250505b50565b600082905060046000600560003373ffffffffffffffffffffffffffffffffffffffff1673ffffffffffffffffffffffffffffffffffffffff16815260200190815260200160002054815260200190815260200160002060080160009054906101000a900460ff16611a60576040517f08c379a0000000000000000000000000000000000000000000000000000000008152600401611a5790613830565b60405180910390fd5b611aa8600560003373ffffffffffffffffffffffffffffffffffffffff1673ffffffffffffffffffffffffffffffffffffffff16815260200190815260200160002054611fac565b611ab157600080fd5b600060046000600560003373ffffffffffffffffffffffffffffffffffffffff1673ffffffffffffffffffffffffffffffffffffffff16815260200190815260200160002054815260200190815260200160002090506000816002018054600181600116156101000203166002900480601f016020809104026020016040519081016040528092919081815260200182805460018160011615610100020316600290048015611ba15780601f10611b7657610100808354040283529160200191611ba1565b820191906000526020600020905b815481529060010190602001808311611b8457829003601f168201915b505050505090506000611bf2600560003373ffffffffffffffffffffffffffffffffffffffff1673ffffffffffffffffffffffffffffffffffffffff16815260200190815260200160002054612339565b9050338360030160006101000a81548173ffffffffffffffffffffffffffffffffffffffff021916908373ffffffffffffffffffffffffffffffffffffffff16021790555083836002019080519060200190611c4f929190612a70565b508483600c01906003611c63929190612afe565b5060008084600f01541115611d4a57600084600f0154420390508460010160009054906101000a900473ffffffffffffffffffffffffffffffffffffffff1673ffffffffffffffffffffffffffffffffffffffff168373ffffffffffffffffffffffffffffffffffffffff161415611d055784600a0154811115611cf057600085600a0181905550611d00565b8085600a01540385600a01819055505b611d35565b84600b0154811115611d2057600085600b0181905550611d34565b8085600b01540385600b0181905550600191505b5b84600b015485600a0154018560090181905550505b4284600f0181905550611da68460070154856009015486600c01600380602002604051908101604052809291908260038015611d9b576020028201915b815481526020019060010190808311611d87575b505050505084612a2e565b5082604051611db5919061368b565b60405180910390208273ffffffffffffffffffffffffffffffffffffffff163373ffffffffffffffffffffffffffffffffffffffff167f92d4fb8d1c880d2eb913a6cde7fd31ea5eda36c48332d0172cd1802c22e457c787604051611e1a9190613872565b60405180910390a450505050505050565b600160009054906101000a900473ffffffffffffffffffffffffffffffffffffffff1673ffffffffffffffffffffffffffffffffffffffff163373ffffffffffffffffffffffffffffffffffffffff161480611ed45750600260009054906101000a900473ffffffffffffffffffffffffffffffffffffffff1673ffffffffffffffffffffffffffffffffffffffff163373ffffffffffffffffffffffffffffffffffffffff16145b80611f2a575060008054906101000a900473ffffffffffffffffffffffffffffffffffffffff1673ffffffffffffffffffffffffffffffffffffffff163373ffffffffffffffffffffffffffffffffffffffff16145b611f69576040517f08c379a0000000000000000000000000000000000000000000000000000000008152600401611f60906137f0565b60405180910390fd5b806000806101000a81548173ffffffffffffffffffffffffffffffffffffffff021916908373ffffffffffffffffffffffffffffffffffffffff16021790555050565b60008060046000848152602001908152602001600020604051806101a00160405290816000820160009054906101000a900473ffffffffffffffffffffffffffffffffffffffff1673ffffffffffffffffffffffffffffffffffffffff1673ffffffffffffffffffffffffffffffffffffffff1681526020016001820160009054906101000a900473ffffffffffffffffffffffffffffffffffffffff1673ffffffffffffffffffffffffffffffffffffffff1673ffffffffffffffffffffffffffffffffffffffff1681526020016001820160149054906101000a900460ff16600481111561209857fe5b60048111156120a357fe5b8152602001600282018054600181600116156101000203166002900480601f0160208091040260200160405190810160405280929190818152602001828054600181600116156101000203166002900480156121405780601f1061211557610100808354040283529160200191612140565b820191906000526020600020905b81548152906001019060200180831161212357829003601f168201915b505050505081526020016003820160009054906101000a900473ffffffffffffffffffffffffffffffffffffffff1673ffffffffffffffffffffffffffffffffffffffff1673ffffffffffffffffffffffffffffffffffffffff1681526020016004820160405180606001604052908160008201548152602001600182015481526020016002820154815250508152602001600782015481526020016008820160009054906101000a900460ff1615151515815260200160098201548152602001600a8201548152602001600b8201548152602001600c8201600380602002604051908101604052809291908260038015612250576020028201915b81548152602001906001019080831161223c575b50505050508152602001600f82015481525050905060006002600481111561227457fe5b8260400151600481111561228457fe5b14806122aa57506001600481111561229857fe5b826040015160048111156122a857fe5b145b90506000826080015173ffffffffffffffffffffffffffffffffffffffff163373ffffffffffffffffffffffffffffffffffffffff16141590508180156122ee5750805b61232d576040517f08c379a0000000000000000000000000000000000000000000000000000000008152600401612324906137b0565b60405180910390fd5b60019350505050919050565b60008060046000848152602001908152602001600020604051806101a00160405290816000820160009054906101000a900473ffffffffffffffffffffffffffffffffffffffff1673ffffffffffffffffffffffffffffffffffffffff1673ffffffffffffffffffffffffffffffffffffffff1681526020016001820160009054906101000a900473ffffffffffffffffffffffffffffffffffffffff1673ffffffffffffffffffffffffffffffffffffffff1673ffffffffffffffffffffffffffffffffffffffff1681526020016001820160149054906101000a900460ff16600481111561242557fe5b600481111561243057fe5b8152602001600282018054600181600116156101000203166002900480601f0160208091040260200160405190810160405280929190818152602001828054600181600116156101000203166002900480156124cd5780601f106124a2576101008083540402835291602001916124cd565b820191906000526020600020905b8154815290600101906020018083116124b057829003601f168201915b505050505081526020016003820160009054906101000a900473ffffffffffffffffffffffffffffffffffffffff1673ffffffffffffffffffffffffffffffffffffffff1673ffffffffffffffffffffffffffffffffffffffff1681526020016004820160405180606001604052908160008201548152602001600182015481526020016002820154815250508152602001600782015481526020016008820160009054906101000a900460ff1615151515815260200160098201548152602001600a8201548152602001600b8201548152602001600c82016003806020026040519081016040528092919082600380156125dd576020028201915b8154815260200190600101908083116125c9575b50505050508152602001600f82015481525050905082600560003373ffffffffffffffffffffffffffffffffffffffff1673ffffffffffffffffffffffffffffffffffffffff168152602001908152602001600020541461263d57600080fd5b3373ffffffffffffffffffffffffffffffffffffffff16816000015173ffffffffffffffffffffffffffffffffffffffff1614156126815780602001519150612689565b806000015191505b50919050565b60008060046000600560008673ffffffffffffffffffffffffffffffffffffffff1673ffffffffffffffffffffffffffffffffffffffff168152602001908152602001600020548152602001908152602001600020604051806101a00160405290816000820160009054906101000a900473ffffffffffffffffffffffffffffffffffffffff1673ffffffffffffffffffffffffffffffffffffffff1673ffffffffffffffffffffffffffffffffffffffff1681526020016001820160009054906101000a900473ffffffffffffffffffffffffffffffffffffffff1673ffffffffffffffffffffffffffffffffffffffff1673ffffffffffffffffffffffffffffffffffffffff1681526020016001820160149054906101000a900460ff1660048111156127ba57fe5b60048111156127c557fe5b8152602001600282018054600181600116156101000203166002900480601f0160208091040260200160405190810160405280929190818152602001828054600181600116156101000203166002900480156128625780601f1061283757610100808354040283529160200191612862565b820191906000526020600020905b81548152906001019060200180831161284557829003601f168201915b505050505081526020016003820160009054906101000a900473ffffffffffffffffffffffffffffffffffffffff1673ffffffffffffffffffffffffffffffffffffffff1673ffffffffffffffffffffffffffffffffffffffff1681526020016004820160405180606001604052908160008201548152602001600182015481526020016002820154815250508152602001600782015481526020016008820160009054906101000a900460ff1615151515815260200160098201548152602001600a8201548152602001600b8201548152602001600c8201600380602002604051908101604052809291908260038015612972576020028201915b81548152602001906001019080831161295e575b50505050508152602001600f8201548152505090506003600481111561299457fe5b816040015160048111156129a457fe5b14806129ca5750600060048111156129b857fe5b816040015160048111156129c857fe5b145b80612a1457506000600560008573ffffffffffffffffffffffffffffffffffffffff1673ffffffffffffffffffffffffffffffffffffffff16815260200190815260200160002054145b15612a23576001915050612a29565b60009150505b919050565b600082600260038110612a3d57fe5b6020020151838360038110612a4e57fe5b602002015181612a5a57fe5b04848681612a6457fe5b04029050949350505050565b828054600181600116156101000203166002900490600052602060002090601f016020900481019282612aa65760008555612aed565b82601f10612abf57805160ff1916838001178555612aed565b82800160010185558215612aed579182015b82811115612aec578251825591602001919060010190612ad1565b5b509050612afa9190612c01565b5090565b8260038101928215612b2d579160200282015b82811115612b2c578251825591602001919060010190612b11565b5b509050612b3a9190612c01565b5090565b604051806101a00160405280600073ffffffffffffffffffffffffffffffffffffffff168152602001600073ffffffffffffffffffffffffffffffffffffffff16815260200160006004811115612b9157fe5b815260200160608152602001600073ffffffffffffffffffffffffffffffffffffffff168152602001612bc2612c1e565b815260200160008152602001600015158152602001600081526020016000815260200160008152602001612bf4612c3f565b8152602001600081525090565b5b80821115612c1a576000816000905550600101612c02565b5090565b60405180606001604052806000815260200160008152602001600081525090565b6040518060600160405280600390602082028036833780820191505090505090565b6000612c74612c6f846138e0565b6138af565b90508082856020860282011115612c8a57600080fd5b60005b85811015612cba5781612ca08882612d92565b845260208401935060208301925050600181019050612c8d565b5050509392505050565b6000612cd7612cd284613906565b6138af565b905082815260208101848484011115612cef57600080fd5b612cfa848285613ad2565b509392505050565b600081359050612d1181613bd0565b92915050565b600082601f830112612d2857600080fd5b6003612d35848285612c61565b91505092915050565b600081359050612d4d81613be7565b92915050565b600082601f830112612d6457600080fd5b8135612d74848260208601612cc4565b91505092915050565b600081359050612d8c81613bfe565b92915050565b600081359050612da181613c15565b92915050565b600060208284031215612db957600080fd5b6000612dc784828501612d02565b91505092915050565b600080600080600060a08688031215612de857600080fd5b6000612df688828901612d02565b9550506020612e0788828901612d7d565b9450506040612e1888828901612d92565b9350506060612e2988828901612d92565b925050608086013567ffffffffffffffff811115612e4657600080fd5b612e5288828901612d53565b9150509295509295909350565b600060208284031215612e7157600080fd5b6000612e7f84828501612d3e565b91505092915050565b60008060808385031215612e9b57600080fd5b600083013567ffffffffffffffff811115612eb557600080fd5b612ec185828601612d53565b9250506020612ed285828601612d17565b9150509250929050565b600060208284031215612eee57600080fd5b6000612efc84828501612d92565b91505092915050565b6000612f11838361366d565b60208301905092915050565b612f2681613a8a565b82525050565b612f3581613a21565b82525050565b612f4481613a21565b82525050565b612f538161395f565b612f5d818461399a565b9250612f6882613936565b8060005b83811015612f99578151612f808782612f05565b9650612f8b83613980565b925050600181019050612f6c565b505050505050565b612faa8161396a565b612fb4818461399a565b9250612fbf82613940565b8060005b83811015612ff757612fd482613b7e565b612fde8782612f05565b9650612fe98361398d565b925050600181019050612fc3565b505050505050565b61300881613a33565b82525050565b61301781613a33565b82525050565b61302681613a9c565b82525050565b61303581613a9c565b82525050565b600061304682613975565b61305081856139b0565b9350613060818560208601613ae1565b61306981613b91565b840191505092915050565b600061307f82613975565b61308981856139c1565b9350613099818560208601613ae1565b6130a281613b91565b840191505092915050565b60006130b882613975565b6130c281856139d2565b93506130d2818560208601613ae1565b80840191505092915050565b6000815460018116600081146130fb576001811461312157613165565b607f600283041661310c81876139b0565b955060ff198316865260208601935050613165565b6002820461312f81876139b0565b955061313a8561394a565b60005b8281101561315c5781548189015260018201915060208101905061313d565b80880195505050505b505092915050565b600061317a6018836139c1565b91507f47616d652053746174653a20556e617661696c61626c652e00000000000000006000830152602082019050919050565b60006131ba600e836139c1565b91507f526566756e64206661696c65642e0000000000000000000000000000000000006000830152602082019050919050565b60006131fa600c836139c1565b91507f4e6f7420616e204f776e657200000000000000000000000000000000000000006000830152602082019050919050565b600061323a602a836139c1565b91507f4f6e65206f662074686520706c61796572732068617320612067616d6520696e60008301527f2070726f67726573732e000000000000000000000000000000000000000000006020830152604082019050919050565b60006132a0601b836139c1565b91507f506c617965723220646964206e6f7420616363657074207965742e00000000006000830152602082019050919050565b60006132e06000836139a5565b9150600082019050919050565b6000610220830160008301516133066000860182612f2c565b5060208301516133196020860182612f2c565b50604083015161332c604086018261301d565b5060608301518482036060860152613344828261303b565b91505060808301516133596080860182612f2c565b5060a083015161336c60a0860182613584565b5060c083015161338061010086018261366d565b5060e0830151613394610120860182612fff565b506101008301516133a961014086018261366d565b506101208301516133be61016086018261366d565b506101408301516133d361018086018261366d565b506101608301516133e86101a0860182612f4a565b506101808301516133fd61020086018261366d565b508091505092915050565b60006102208301600080840154905061342081613b14565b61342d6000870182612f2c565b506001840154905061343e81613b14565b61344b6020870182612f2c565b5061345581613b62565b613462604087018261301d565b5060028401858303606087015261347983826130de565b9250506003840154905061348c81613b14565b6134996080870182612f2c565b50600484016134ab60a0870182613608565b50600784015490506134bc81613b48565b6134ca61010087018261366d565b50600884015490506134db81613b2e565b6134e9610120870182612fff565b50600984015490506134fa81613b48565b61350861014087018261366d565b50600a840154905061351981613b48565b61352761016087018261366d565b50600b840154905061353881613b48565b61354661018087018261366d565b50600c84016135596101a0870182612fa1565b50600f840154905061356a81613b48565b61357861020087018261366d565b50819250505092915050565b60608201600082015161359a600085018261366d565b5060208201516135ad602085018261366d565b5060408201516135c0604085018261366d565b50505050565b6060820160008201516135dc600085018261366d565b5060208201516135ef602085018261366d565b506040820151613602604085018261366d565b50505050565b60608201600080830154905061361d81613b48565b61362a600086018261366d565b506001830154905061363b81613b48565b613648602086018261366d565b506002830154905061365981613b48565b613666604086018261366d565b5050505050565b61367681613a80565b82525050565b61368581613a80565b82525050565b600061369782846130ad565b915081905092915050565b60006136ad826132d3565b9150819050919050565b60006020820190506136cc6000830184612f1d565b92915050565b60006101c0820190506136e8600083018f612f3b565b6136f5602083018e612f3b565b613702604083018d61302c565b8181036060830152613714818c613074565b9050613723608083018b612f3b565b61373060a083018a6135c6565b61373e61010083018961367c565b61374c61012083018861300e565b61375a61014083018761367c565b61376861016083018661367c565b61377661018083018561367c565b6137846101a083018461367c565b9d9c50505050505050505050505050565b60006020820190506137aa600083018461300e565b92915050565b600060208201905081810360008301526137c98161316d565b9050919050565b600060208201905081810360008301526137e9816131ad565b9050919050565b60006020820190508181036000830152613809816131ed565b9050919050565b600060208201905081810360008301526138298161322d565b9050919050565b6000602082019050818103600083015261384981613293565b9050919050565b6000602082019050818103600083015261386a81846132ed565b905092915050565b6000602082019050818103600083015261388c8184613408565b905092915050565b60006020820190506138a9600083018461367c565b92915050565b6000604051905081810181811067ffffffffffffffff821117156138d6576138d5613b7c565b5b8060405250919050565b600067ffffffffffffffff8211156138fb576138fa613b7c565b5b602082029050919050565b600067ffffffffffffffff82111561392157613920613b7c565b5b601f19601f8301169050602081019050919050565b6000819050919050565b6000819050919050565b60008190508160005260206000209050919050565b600060039050919050565b600060039050919050565b600081519050919050565b6000602082019050919050565b6000600182019050919050565b600081905092915050565b600081905092915050565b600082825260208201905092915050565b600082825260208201905092915050565b600081905092915050565b600073ffffffffffffffffffffffffffffffffffffffff82169050919050565b600060ff82169050919050565b600060ff82169050919050565b6000819050919050565b6000613a2c82613a60565b9050919050565b60008115159050919050565b6000819050613a4d82613bbc565b919050565b600061ffff82169050919050565b600073ffffffffffffffffffffffffffffffffffffffff82169050919050565b6000819050919050565b6000613a9582613aae565b9050919050565b6000613aa782613a3f565b9050919050565b6000613ab982613ac0565b9050919050565b6000613acb82613a60565b9050919050565b82818337600083830152505050565b60005b83811015613aff578082015181840152602081019050613ae4565b83811115613b0e576000848401525b50505050565b6000613b27613b2283613ba2565b6139dd565b9050919050565b6000613b41613b3c83613ba2565b6139fd565b9050919050565b6000613b5b613b5683613ba2565b613a17565b9050919050565b6000613b75613b7083613baf565b613a0a565b9050919050565bfe5b6000613b8a8254613b48565b9050919050565b6000601f19601f8301169050919050565b60008160001c9050919050565b60008160a01c9050919050565b60058110613bcd57613bcc613b7c565b5b50565b613bd981613a21565b8114613be457600080fd5b50565b613bf081613a33565b8114613bfb57600080fd5b50565b613c0781613a52565b8114613c1257600080fd5b50565b613c1e81613a80565b8114613c2957600080fd5b5056fea264697066735822122026d904106493959c61469421a741b38f72ac6ace89671b32065b8761834c9bc164736f6c63430007060033",
  "immutableReferences": {},
  "source": "// SPDX-License-Identifier: MIT\n//pragma solidity >=0.4.22 <0.9.0;\npragma solidity >=0.7.0;\npragma experimental ABIEncoderV2;\n\ncontract GameContract {\n\n  address owner3;\n  address owner;\n  address owner2;\n  uint gameId;\n  \n//////// Constructor \n//compiler requires public\n  constructor() {\n    owner= msg.sender;\n    owner2= address(0x49A3e9f02E8b0a6076f8568361926D54d17730Cb);\n    gameId=1;\n  }\n\n   function setNewOwner(address _newOwner) isOwner external {\n     owner3= _newOwner;\n  }\n/////// Constructor END\n  \n  enum gameState {NoAssignedState, Staged, InProgress, Ended, Rejected }\n  \n  struct gameSettings {\n    uint totalTime;\n    uint timeoutTime;\n    uint wageSize; \n  }\n\n\n\n  struct gameData {\n    address playerOne;\n    address playerTwo;\n    gameState gState;\n    string currentGameBoard;\n    address lastMover;\n    gameSettings settings;\n    uint gameBalance;\n    bool player2accepted;\n    uint totalGameTime;\n    uint p1Time;\n    uint p2Time;\n    uint[3] materialState;\n    uint lastMoveTime;\n  }\n  \n  mapping (uint => gameData) public games; \n  mapping (address => uint) myLastGame;\n\n///////////BulkHudiStart\n\n  event newGameCreatedEvent(address indexed _playerOne, address indexed _playerTwo);\n\n////// Modifiers Start \n  modifier isOwner() {\n    require (msg.sender == owner|| msg.sender == owner2 || msg.sender == owner3, \"Not an Owner\");\n    _; \n  }\n\n  function otherPlayer(uint _gameId) view internal returns (address other) {\n    gameData memory thisGame = games[_gameId];\n    require(myLastGame[msg.sender]== _gameId);\n    if (thisGame.playerOne == msg.sender){\n      other= thisGame.playerTwo;\n    } else {\n      other= thisGame.playerOne;\n    }\n  }  \n\n  function onMoveStateCheck(uint _gameid ) internal view returns(bool) {\n    //do not need it, do I?\n    gameData memory game=games[_gameid];\n    bool g= (  game.gState == gameState.InProgress || game.gState == gameState.Staged  );\n    bool notLastMover = !(msg.sender == game.lastMover); \n    require( g && notLastMover , \"Game State: Unavailable.\" );\n    return true;\n  }\n\n  // function player2NotInAGame(uint _gameid) internal view returns (bool) {\n  //   gameData memory game = games[_gameId];\n  //   require(myLastGame[game.playerTwo] == 0, \"Player Two already in a game\");\n  //   return true;\n  // } \n\n  function noOtherGameOnCreate(address player) internal view returns(bool) {\n    gameData memory lastPlayerGame = games[myLastGame[player]]; \n\n    if( (lastPlayerGame.gState == gameState.Ended) || (lastPlayerGame.gState == gameState.NoAssignedState) || myLastGame[player] == 0 ){\n      return true;\n    } else {\n      return false;\n    }\n  }\n////// Modifiers END\n  function initializeGame(address _playerTwo,\n                          uint16 _totalTime,\n                          uint _timeoutTime,\n                          uint _wageSize,\n                          string memory _currentGameBoard\n                      ) public payable returns(uint justCreatedGameId) {\n    \n  \n    games[gameId]= gameData({\n                            playerOne: msg.sender,\n                            playerTwo: _playerTwo,\n                            gState: gameState.Staged,\n                            currentGameBoard:_currentGameBoard,\n                            lastMover: address(0),\n                            settings: gameSettings ({\n                                              totalTime: _totalTime,\n                                              timeoutTime: _timeoutTime,\n                                              wageSize:  _wageSize }),\n                            gameBalance: msg.value, \n                            player2accepted: false,\n                            totalGameTime: 600,\n                            p1Time: 300,\n                            p2Time: 300,\n                            materialState: [uint(1),uint(2),uint(3)],\n                            lastMoveTime:0   \n                            });\n//playerTwo is always white\n\n    require((noOtherGameOnCreate(msg.sender) && noOtherGameOnCreate(_playerTwo)), \"One of the players has a game in progress.\");\n    myLastGame[msg.sender]= gameId;\n    myLastGame[_playerTwo]= gameId;\n    \n    justCreatedGameId = gameId;\n  \n    emit newGameCreatedEvent(msg.sender,_playerTwo);\n    gameId++;\n\n    return gameId;\n  }\n\n  function getLastGameId() public view returns(uint) {\n    return gameId-1; \n  }\n\n  function getGame(uint gId) public view returns(gameData memory )  {\n      return games[gId];\n  }\n \n  function checkAndReturnCurrentGame() public view returns (gameData memory game) {\n    game= games[myLastGame[msg.sender]];\n   }\n\n    event gameCanceled(address indexed submittedby, uint refundedAmount);\n\n\n   function cancelGame() public payable {\n     gameData memory game = games[myLastGame[msg.sender]];\n     if((! game.player2accepted) && (game.settings.timeoutTime < block.timestamp) && (msg.sender == game.playerOne)) {\n      myLastGame[game.playerOne]= 0;\n      myLastGame[game.playerTwo]= 0; \n      uint refundAmount = game.settings.wageSize - (game.settings.wageSize / 99); \n      // a proper gas risk approch would be cool\n      // case: player2 accept on player1 cancel? unlikely - possible?\n      // a game balance mapping would be cool\n      (bool success, ) = msg.sender.call{value:refundAmount}(\"\");\n      require(success, \"Refund failed.\");  \n\n      emit gameCanceled(msg.sender, refundAmount);  \n    }\n   }\n  \n  event player2Accepted(address indexed _player1, address indexed _player2, bool _accepted);\n  \n  function timeOutforAccept() public {}\n\n  function playerTwoAccepted(bool _accepted) public payable  {\n    if (! _accepted) {\n      gameData storage game =  games[myLastGame[msg.sender]];\n      require(game.playerTwo == msg.sender);\n      game.player2accepted = false;\n      game.gState = gameState.Rejected;\n      //or cancel? w\\ no refund?\n      myLastGame[game.playerOne]= 0;\n      myLastGame[game.playerTwo]= 0;\n      //uint tenpercent = \n      myLastGame[msg.sender] = 0; \n      //(bool success,) = msg.sender.call.value(//%palyer1deposit/gascost)()\n      //norefund for now.\n      emit player2Accepted(game.playerOne, game.playerTwo, false);\n    } else {\n      gameData storage game = games[myLastGame[msg.sender]];\n      require(msg.value == game.settings.wageSize);\n      require(game.playerTwo == msg.sender);\n      game.player2accepted = true;\n      game.gState = gameState.InProgress;\n      game.gameBalance += msg.value;\n\n      emit player2Accepted(game.playerOne, game.playerTwo, true);\n    }\n  }\n  \n  function claculateStreamFlowRate(uint _availableBudget, \n                                uint _totalTimeRemaining,\n                                uint[3] memory _materialShare,\n                                uint p01Switch )\n                                internal pure returns( uint rawFlowRate) {\nrawFlowRate= (_availableBudget / _totalTimeRemaining) * (_materialShare[p01Switch]/_materialShare[2]);\n                                }\n  \n  event newMoveInGame(address indexed submittedby, address indexed otherPlayer, string indexed prevState, gameData current);\n\n  function submitMove(string memory _submittedMove, uint[3] memory _material) public {\n\n    string memory submitted = _submittedMove;\n    require(games[myLastGame[msg.sender]].player2accepted, \"Player2 did not accept yet.\");\n    require(onMoveStateCheck(myLastGame[msg.sender]));\n    \n    gameData storage game= games[myLastGame[msg.sender]]; \n    \n    string memory prevState= string(game.currentGameBoard);\n    address other = otherPlayer(myLastGame[msg.sender]); \n    game.lastMover= msg.sender;\n    game.currentGameBoard = submitted; \n      \n    game.materialState = _material;\n    uint playerSwitch= 0;\n\n    if( game.lastMoveTime > 0) {\n      \n      uint timeDif = block.timestamp - game.lastMoveTime;\n\n      if(other == game.playerTwo) {\n      //  this is player1\n        if (timeDif > game.p1Time) { \n          game.p1Time = 0;\n        } else {\n          game.p1Time = game.p1Time - timeDif;\n        }\n      \n    } else {\n      // this is player2\n      if (timeDif > game.p2Time) { \n          game.p2Time = 0;\n        } else {\n          game.p2Time = game.p2Time - timeDif;\n          playerSwitch= 1;\n        }\n    }\n    //  game.totalGameTime = game.totalGameTime - timeDif;\n        game.totalGameTime = game.p1Time + game.p2Time;\n    } \n    \n     \n    // update remaining total gametime\n   \n    //update last move time\n    game.lastMoveTime = block.timestamp; \n    claculateStreamFlowRate(game.gameBalance, game.totalGameTime, game.materialState, playerSwitch);\n    \n    emit newMoveInGame( msg.sender, other, string(prevState), game );\n  \n    \n    \n    // emit move event\n    \n\n  ///calculate stream flowrate\n    \n  \n  /// starts / modifies stream \n\n\n  /// stop stream on low gamebalance\n  \n  }\n\n\nevent playerResigned(address indexed submittedby, address indexed otherPlayer, address OtherPlayerNotLastMovedThatResigned);\n\n  function resignGame() public {\n    gameData storage game = games[myLastGame[msg.sender]];\n    \n    if ( onMoveStateCheck(myLastGame[msg.sender]) ) {\n\n      myLastGame[game.playerOne]= 0;\n      myLastGame[game.playerTwo] = 0;\n      //reverse order\n      emit playerResigned(msg.sender, otherPlayer(myLastGame[msg.sender]), msg.sender);    \n      \n    }\n  \n  }\n\n  function playerTimedOut() public {\n    //case: playerrefuses to move, time elapses, adversary \n    //      needs to be able to claim victory if no streaming. if supefluid streaming - avoid defaulting penalty\n  }\n\n///////////BulkHudiEnd\n\n// function calculateMaterialFenSplit(string memory rawFen) internal pure returns (int8[3] memory materialAdvantage){\n//   //// can't really do this myself in solidity atm\n// }\n\n\n}\n",
  "sourcePath": "/home/pbdesk2/Desktop/github/ChessWager/contracts/GameContract.sol",
  "compiler": {
    "name": "solc",
    "version": "0.7.6+commit.7338295f.Emscripten.clang"
  },
  "schemaVersion": "3.4.3",
  "updatedAt": "2021-10-02T17:54:19.003Z",
  "networkType": "ethereum",
  "devdoc": {
    "kind": "dev",
    "methods": {},
    "version": 1
  },
  "userdoc": {
    "kind": "user",
    "methods": {},
    "version": 1
  }
}