{
  "contractName": "GameContract",
  "abi": [
    {
      "inputs": [],
      "stateMutability": "nonpayable",
      "type": "constructor"
    },
    {
      "anonymous": false,
      "inputs": [
        {
          "indexed": true,
          "internalType": "address",
          "name": "submittedby",
          "type": "address"
        },
        {
          "indexed": false,
          "internalType": "uint256",
          "name": "refundedAmount",
          "type": "uint256"
        }
      ],
      "name": "gameCanceled",
      "type": "event"
    },
    {
      "anonymous": false,
      "inputs": [
        {
          "indexed": true,
          "internalType": "address",
          "name": "_playerOne",
          "type": "address"
        },
        {
          "indexed": true,
          "internalType": "address",
          "name": "_playerTwo",
          "type": "address"
        }
      ],
      "name": "newGameCreatedEvent",
      "type": "event"
    },
    {
      "anonymous": false,
      "inputs": [
        {
          "indexed": true,
          "internalType": "address",
          "name": "submittedby",
          "type": "address"
        },
        {
          "indexed": true,
          "internalType": "address",
          "name": "otherPlayer",
          "type": "address"
        },
        {
          "indexed": true,
          "internalType": "string",
          "name": "prevState",
          "type": "string"
        },
        {
          "components": [
            {
              "internalType": "address",
              "name": "playerOne",
              "type": "address"
            },
            {
              "internalType": "address",
              "name": "playerTwo",
              "type": "address"
            },
            {
              "internalType": "enum GameContract.gameState",
              "name": "gState",
              "type": "uint8"
            },
            {
              "internalType": "string",
              "name": "currentGameBoard",
              "type": "string"
            },
            {
              "internalType": "address",
              "name": "lastMover",
              "type": "address"
            },
            {
              "components": [
                {
                  "internalType": "uint256",
                  "name": "totalTime",
                  "type": "uint256"
                },
                {
                  "internalType": "uint256",
                  "name": "timeoutTime",
                  "type": "uint256"
                },
                {
                  "internalType": "uint256",
                  "name": "wageSize",
                  "type": "uint256"
                }
              ],
              "internalType": "struct GameContract.gameSettings",
              "name": "settings",
              "type": "tuple"
            },
            {
              "internalType": "uint256",
              "name": "gameBalance",
              "type": "uint256"
            },
            {
              "internalType": "bool",
              "name": "player2accepted",
              "type": "bool"
            },
            {
              "internalType": "uint256",
              "name": "totalGameTime",
              "type": "uint256"
            },
            {
              "internalType": "uint256",
              "name": "p1Time",
              "type": "uint256"
            },
            {
              "internalType": "uint256",
              "name": "p2Time",
              "type": "uint256"
            },
            {
              "internalType": "uint256[3]",
              "name": "materialState",
              "type": "uint256[3]"
            }
          ],
          "indexed": false,
          "internalType": "struct GameContract.gameData",
          "name": "current",
          "type": "tuple"
        }
      ],
      "name": "newMoveInGame",
      "type": "event"
    },
    {
      "anonymous": false,
      "inputs": [
        {
          "indexed": true,
          "internalType": "address",
          "name": "_player1",
          "type": "address"
        },
        {
          "indexed": true,
          "internalType": "address",
          "name": "_player2",
          "type": "address"
        },
        {
          "indexed": false,
          "internalType": "bool",
          "name": "_accepted",
          "type": "bool"
        }
      ],
      "name": "player2Accepted",
      "type": "event"
    },
    {
      "anonymous": false,
      "inputs": [
        {
          "indexed": true,
          "internalType": "address",
          "name": "submittedby",
          "type": "address"
        },
        {
          "indexed": true,
          "internalType": "address",
          "name": "otherPlayer",
          "type": "address"
        },
        {
          "indexed": false,
          "internalType": "address",
          "name": "OtherPlayerNotLastMovedThatResigned",
          "type": "address"
        }
      ],
      "name": "playerResigned",
      "type": "event"
    },
    {
      "inputs": [
        {
          "internalType": "uint256",
          "name": "",
          "type": "uint256"
        }
      ],
      "name": "games",
      "outputs": [
        {
          "internalType": "address",
          "name": "playerOne",
          "type": "address"
        },
        {
          "internalType": "address",
          "name": "playerTwo",
          "type": "address"
        },
        {
          "internalType": "enum GameContract.gameState",
          "name": "gState",
          "type": "uint8"
        },
        {
          "internalType": "string",
          "name": "currentGameBoard",
          "type": "string"
        },
        {
          "internalType": "address",
          "name": "lastMover",
          "type": "address"
        },
        {
          "components": [
            {
              "internalType": "uint256",
              "name": "totalTime",
              "type": "uint256"
            },
            {
              "internalType": "uint256",
              "name": "timeoutTime",
              "type": "uint256"
            },
            {
              "internalType": "uint256",
              "name": "wageSize",
              "type": "uint256"
            }
          ],
          "internalType": "struct GameContract.gameSettings",
          "name": "settings",
          "type": "tuple"
        },
        {
          "internalType": "uint256",
          "name": "gameBalance",
          "type": "uint256"
        },
        {
          "internalType": "bool",
          "name": "player2accepted",
          "type": "bool"
        },
        {
          "internalType": "uint256",
          "name": "totalGameTime",
          "type": "uint256"
        },
        {
          "internalType": "uint256",
          "name": "p1Time",
          "type": "uint256"
        },
        {
          "internalType": "uint256",
          "name": "p2Time",
          "type": "uint256"
        }
      ],
      "stateMutability": "view",
      "type": "function",
      "constant": true
    },
    {
      "inputs": [
        {
          "internalType": "address",
          "name": "_newOwner",
          "type": "address"
        }
      ],
      "name": "setNewOwner",
      "outputs": [],
      "stateMutability": "nonpayable",
      "type": "function"
    },
    {
      "inputs": [
        {
          "internalType": "address",
          "name": "_playerTwo",
          "type": "address"
        },
        {
          "internalType": "uint16",
          "name": "_totalTime",
          "type": "uint16"
        },
        {
          "internalType": "uint256",
          "name": "_timeoutTime",
          "type": "uint256"
        },
        {
          "internalType": "uint256",
          "name": "_wageSize",
          "type": "uint256"
        },
        {
          "internalType": "string",
          "name": "_currentGameBoard",
          "type": "string"
        }
      ],
      "name": "initializeGame",
      "outputs": [
        {
          "internalType": "uint256",
          "name": "justCreatedGameId",
          "type": "uint256"
        }
      ],
      "stateMutability": "payable",
      "type": "function",
      "payable": true
    },
    {
      "inputs": [],
      "name": "getLastGameId",
      "outputs": [
        {
          "internalType": "uint256",
          "name": "",
          "type": "uint256"
        }
      ],
      "stateMutability": "view",
      "type": "function",
      "constant": true
    },
    {
      "inputs": [
        {
          "internalType": "uint256",
          "name": "gId",
          "type": "uint256"
        }
      ],
      "name": "getGame",
      "outputs": [
        {
          "components": [
            {
              "internalType": "address",
              "name": "playerOne",
              "type": "address"
            },
            {
              "internalType": "address",
              "name": "playerTwo",
              "type": "address"
            },
            {
              "internalType": "enum GameContract.gameState",
              "name": "gState",
              "type": "uint8"
            },
            {
              "internalType": "string",
              "name": "currentGameBoard",
              "type": "string"
            },
            {
              "internalType": "address",
              "name": "lastMover",
              "type": "address"
            },
            {
              "components": [
                {
                  "internalType": "uint256",
                  "name": "totalTime",
                  "type": "uint256"
                },
                {
                  "internalType": "uint256",
                  "name": "timeoutTime",
                  "type": "uint256"
                },
                {
                  "internalType": "uint256",
                  "name": "wageSize",
                  "type": "uint256"
                }
              ],
              "internalType": "struct GameContract.gameSettings",
              "name": "settings",
              "type": "tuple"
            },
            {
              "internalType": "uint256",
              "name": "gameBalance",
              "type": "uint256"
            },
            {
              "internalType": "bool",
              "name": "player2accepted",
              "type": "bool"
            },
            {
              "internalType": "uint256",
              "name": "totalGameTime",
              "type": "uint256"
            },
            {
              "internalType": "uint256",
              "name": "p1Time",
              "type": "uint256"
            },
            {
              "internalType": "uint256",
              "name": "p2Time",
              "type": "uint256"
            },
            {
              "internalType": "uint256[3]",
              "name": "materialState",
              "type": "uint256[3]"
            }
          ],
          "internalType": "struct GameContract.gameData",
          "name": "",
          "type": "tuple"
        }
      ],
      "stateMutability": "view",
      "type": "function",
      "constant": true
    },
    {
      "inputs": [],
      "name": "checkAndReturnCurrentGame",
      "outputs": [
        {
          "components": [
            {
              "internalType": "address",
              "name": "playerOne",
              "type": "address"
            },
            {
              "internalType": "address",
              "name": "playerTwo",
              "type": "address"
            },
            {
              "internalType": "enum GameContract.gameState",
              "name": "gState",
              "type": "uint8"
            },
            {
              "internalType": "string",
              "name": "currentGameBoard",
              "type": "string"
            },
            {
              "internalType": "address",
              "name": "lastMover",
              "type": "address"
            },
            {
              "components": [
                {
                  "internalType": "uint256",
                  "name": "totalTime",
                  "type": "uint256"
                },
                {
                  "internalType": "uint256",
                  "name": "timeoutTime",
                  "type": "uint256"
                },
                {
                  "internalType": "uint256",
                  "name": "wageSize",
                  "type": "uint256"
                }
              ],
              "internalType": "struct GameContract.gameSettings",
              "name": "settings",
              "type": "tuple"
            },
            {
              "internalType": "uint256",
              "name": "gameBalance",
              "type": "uint256"
            },
            {
              "internalType": "bool",
              "name": "player2accepted",
              "type": "bool"
            },
            {
              "internalType": "uint256",
              "name": "totalGameTime",
              "type": "uint256"
            },
            {
              "internalType": "uint256",
              "name": "p1Time",
              "type": "uint256"
            },
            {
              "internalType": "uint256",
              "name": "p2Time",
              "type": "uint256"
            },
            {
              "internalType": "uint256[3]",
              "name": "materialState",
              "type": "uint256[3]"
            }
          ],
          "internalType": "struct GameContract.gameData",
          "name": "game",
          "type": "tuple"
        }
      ],
      "stateMutability": "view",
      "type": "function",
      "constant": true
    },
    {
      "inputs": [],
      "name": "cancelGame",
      "outputs": [],
      "stateMutability": "payable",
      "type": "function",
      "payable": true
    },
    {
      "inputs": [],
      "name": "timeOutforAccept",
      "outputs": [],
      "stateMutability": "nonpayable",
      "type": "function"
    },
    {
      "inputs": [
        {
          "internalType": "bool",
          "name": "_accepted",
          "type": "bool"
        }
      ],
      "name": "playerTwoAccepted",
      "outputs": [],
      "stateMutability": "payable",
      "type": "function",
      "payable": true
    },
    {
      "inputs": [
        {
          "internalType": "string",
          "name": "_submittedMove",
          "type": "string"
        },
        {
          "internalType": "uint256[3]",
          "name": "_material",
          "type": "uint256[3]"
        }
      ],
      "name": "submitMove",
      "outputs": [],
      "stateMutability": "nonpayable",
      "type": "function"
    },
    {
      "inputs": [],
      "name": "resignGame",
      "outputs": [],
      "stateMutability": "nonpayable",
      "type": "function"
    }
  ],
  "bytecode": "0x608060405234801561001057600080fd5b5033600160006101000a81548173ffffffffffffffffffffffffffffffffffffffff021916908373ffffffffffffffffffffffffffffffffffffffff1602179055507349a3e9f02e8b0a6076f8568361926d54d17730cb600260006101000a81548173ffffffffffffffffffffffffffffffffffffffff021916908373ffffffffffffffffffffffffffffffffffffffff1602179055506001600381905550613a24806100be6000396000f3fe60806040526004361061009c5760003560e01c80638c79a38c116100645780638c79a38c14610171578063a2f77bcc1461018d578063a35b6ec7146101ca578063d84c1ac9146101f5578063ebe5e5d8146101ff578063f5a1f5b4146102285761009c565b80630800cb7e146100a1578063117a5b90146100b85780634ce3e372146100ff5780635c0c3bb41461012f5780637ab2942b14610146575b600080fd5b3480156100ad57600080fd5b506100b6610251565b005b3480156100c457600080fd5b506100df60048036038101906100da9190612ce1565b610476565b6040516100f69b9a999897969594939291906134a3565b60405180910390f35b61011960048036038101906101149190612bd5565b61060a565b6040516101269190613656565b60405180910390f35b34801561013b57600080fd5b50610144610a23565b005b34801561015257600080fd5b5061015b610a25565b6040516101689190613612565b60405180910390f35b61018b60048036038101906101869190612c64565b610d1b565b005b34801561019957600080fd5b506101b460048036038101906101af9190612ce1565b6111ad565b6040516101c19190613612565b60405180910390f35b3480156101d657600080fd5b506101df611466565b6040516101ec9190613656565b60405180910390f35b6101fd611473565b005b34801561020b57600080fd5b5061022660048036038101906102219190612c8d565b61196c565b005b34801561023457600080fd5b5061024f600480360381019061024a9190612bac565b611c97565b005b600060046000600560003373ffffffffffffffffffffffffffffffffffffffff1673ffffffffffffffffffffffffffffffffffffffff16815260200190815260200160002054815260200190815260200160002090506102ef600560003373ffffffffffffffffffffffffffffffffffffffff1673ffffffffffffffffffffffffffffffffffffffff16815260200190815260200160002054611e18565b15610473576000600560008360000160009054906101000a900473ffffffffffffffffffffffffffffffffffffffff1673ffffffffffffffffffffffffffffffffffffffff1673ffffffffffffffffffffffffffffffffffffffff168152602001908152602001600020819055506000600560008360010160009054906101000a900473ffffffffffffffffffffffffffffffffffffffff1673ffffffffffffffffffffffffffffffffffffffff1673ffffffffffffffffffffffffffffffffffffffff1681526020019081526020016000208190555061040e600560003373ffffffffffffffffffffffffffffffffffffffff1673ffffffffffffffffffffffffffffffffffffffff1681526020019081526020016000205461219b565b73ffffffffffffffffffffffffffffffffffffffff163373ffffffffffffffffffffffffffffffffffffffff167f2ebf0de5f8a94f0cb6835b17c86eb1fff68d7f0bb4857bfb28953adad5b7d44a3360405161046a9190613488565b60405180910390a35b50565b60046020528060005260406000206000915090508060000160009054906101000a900473ffffffffffffffffffffffffffffffffffffffff16908060010160009054906101000a900473ffffffffffffffffffffffffffffffffffffffff16908060010160149054906101000a900460ff1690806002018054600181600116156101000203166002900480601f0160208091040260200160405190810160405280929190818152602001828054600181600116156101000203166002900480156105815780601f1061055657610100808354040283529160200191610581565b820191906000526020600020905b81548152906001019060200180831161056457829003601f168201915b5050505050908060030160009054906101000a900473ffffffffffffffffffffffffffffffffffffffff1690806004016040518060600160405290816000820154815260200160018201548152602001600282015481525050908060070154908060080160009054906101000a900460ff169080600901549080600a01549080600b015490508b565b60006040518061018001604052803373ffffffffffffffffffffffffffffffffffffffff1681526020018773ffffffffffffffffffffffffffffffffffffffff1681526020016001600481111561065d57fe5b8152602001838152602001600073ffffffffffffffffffffffffffffffffffffffff16815260200160405180606001604052808861ffff168152602001603c8802420181526020018681525081526020013481526020016000151581526020016002870261ffff1681526020018661ffff1681526020018661ffff16815260200160405180606001604052806001815260200160028152602001600381525081525060046000600354815260200190815260200160002060008201518160000160006101000a81548173ffffffffffffffffffffffffffffffffffffffff021916908373ffffffffffffffffffffffffffffffffffffffff16021790555060208201518160010160006101000a81548173ffffffffffffffffffffffffffffffffffffffff021916908373ffffffffffffffffffffffffffffffffffffffff16021790555060408201518160010160146101000a81548160ff021916908360048111156107c657fe5b021790555060608201518160020190805190602001906107e792919061287c565b5060808201518160030160006101000a81548173ffffffffffffffffffffffffffffffffffffffff021916908373ffffffffffffffffffffffffffffffffffffffff16021790555060a082015181600401600082015181600001556020820151816001015560408201518160020155505060c0820151816007015560e08201518160080160006101000a81548160ff021916908315150217905550610100820151816009015561012082015181600a015561014082015181600b015561016082015181600c019060036108bb92919061290a565b509050506108c8336124e7565b80156108d957506108d8866124e7565b5b610918576040517f08c379a000000000000000000000000000000000000000000000000000000000815260040161090f906135d2565b60405180910390fd5b600354600560003373ffffffffffffffffffffffffffffffffffffffff1673ffffffffffffffffffffffffffffffffffffffff16815260200190815260200160002081905550600354600560008873ffffffffffffffffffffffffffffffffffffffff1673ffffffffffffffffffffffffffffffffffffffff1681526020019081526020016000208190555060035490508573ffffffffffffffffffffffffffffffffffffffff163373ffffffffffffffffffffffffffffffffffffffff167f924d7492e89e2320415cf3dc9b3c1844a2ff30bca5eb7c40c2aa288c916b394960405160405180910390a3600360008154809291906001019190505550600354905095945050505050565b565b610a2d61294a565b60046000600560003373ffffffffffffffffffffffffffffffffffffffff1673ffffffffffffffffffffffffffffffffffffffff168152602001908152602001600020548152602001908152602001600020604051806101800160405290816000820160009054906101000a900473ffffffffffffffffffffffffffffffffffffffff1673ffffffffffffffffffffffffffffffffffffffff1673ffffffffffffffffffffffffffffffffffffffff1681526020016001820160009054906101000a900473ffffffffffffffffffffffffffffffffffffffff1673ffffffffffffffffffffffffffffffffffffffff1673ffffffffffffffffffffffffffffffffffffffff1681526020016001820160149054906101000a900460ff166004811115610b5557fe5b6004811115610b6057fe5b8152602001600282018054600181600116156101000203166002900480601f016020809104026020016040519081016040528092919081815260200182805460018160011615610100020316600290048015610bfd5780601f10610bd257610100808354040283529160200191610bfd565b820191906000526020600020905b815481529060010190602001808311610be057829003601f168201915b505050505081526020016003820160009054906101000a900473ffffffffffffffffffffffffffffffffffffffff1673ffffffffffffffffffffffffffffffffffffffff1673ffffffffffffffffffffffffffffffffffffffff1681526020016004820160405180606001604052908160008201548152602001600182015481526020016002820154815250508152602001600782015481526020016008820160009054906101000a900460ff1615151515815260200160098201548152602001600a8201548152602001600b8201548152602001600c8201600380602002604051908101604052809291908260038015610d0d576020028201915b815481526020019060010190808311610cf9575b505050505081525050905090565b80610fe057600060046000600560003373ffffffffffffffffffffffffffffffffffffffff1673ffffffffffffffffffffffffffffffffffffffff16815260200190815260200160002054815260200190815260200160002090503373ffffffffffffffffffffffffffffffffffffffff168160010160009054906101000a900473ffffffffffffffffffffffffffffffffffffffff1673ffffffffffffffffffffffffffffffffffffffff1614610dd257600080fd5b60008160080160006101000a81548160ff02191690831515021790555060048160010160146101000a81548160ff02191690836004811115610e1057fe5b02179055506000600560008360000160009054906101000a900473ffffffffffffffffffffffffffffffffffffffff1673ffffffffffffffffffffffffffffffffffffffff1673ffffffffffffffffffffffffffffffffffffffff168152602001908152602001600020819055506000600560008360010160009054906101000a900473ffffffffffffffffffffffffffffffffffffffff1673ffffffffffffffffffffffffffffffffffffffff1673ffffffffffffffffffffffffffffffffffffffff168152602001908152602001600020819055506000600560003373ffffffffffffffffffffffffffffffffffffffff1673ffffffffffffffffffffffffffffffffffffffff168152602001908152602001600020819055508060010160009054906101000a900473ffffffffffffffffffffffffffffffffffffffff1673ffffffffffffffffffffffffffffffffffffffff168160000160009054906101000a900473ffffffffffffffffffffffffffffffffffffffff1673ffffffffffffffffffffffffffffffffffffffff167f8f46d051ff9b2597fea8c60146bef33969de64edef522f8e1e927f117cb408b66000604051610fd29190613557565b60405180910390a3506111aa565b600060046000600560003373ffffffffffffffffffffffffffffffffffffffff1673ffffffffffffffffffffffffffffffffffffffff16815260200190815260200160002054815260200190815260200160002090508060040160020154341461104957600080fd5b3373ffffffffffffffffffffffffffffffffffffffff168160010160009054906101000a900473ffffffffffffffffffffffffffffffffffffffff1673ffffffffffffffffffffffffffffffffffffffff16146110a557600080fd5b60018160080160006101000a81548160ff02191690831515021790555060028160010160146101000a81548160ff021916908360048111156110e357fe5b02179055503481600701600082825401925050819055508060010160009054906101000a900473ffffffffffffffffffffffffffffffffffffffff1673ffffffffffffffffffffffffffffffffffffffff168160000160009054906101000a900473ffffffffffffffffffffffffffffffffffffffff1673ffffffffffffffffffffffffffffffffffffffff167f8f46d051ff9b2597fea8c60146bef33969de64edef522f8e1e927f117cb408b660016040516111a09190613557565b60405180910390a3505b50565b6111b561294a565b60046000838152602001908152602001600020604051806101800160405290816000820160009054906101000a900473ffffffffffffffffffffffffffffffffffffffff1673ffffffffffffffffffffffffffffffffffffffff1673ffffffffffffffffffffffffffffffffffffffff1681526020016001820160009054906101000a900473ffffffffffffffffffffffffffffffffffffffff1673ffffffffffffffffffffffffffffffffffffffff1673ffffffffffffffffffffffffffffffffffffffff1681526020016001820160149054906101000a900460ff16600481111561129e57fe5b60048111156112a957fe5b8152602001600282018054600181600116156101000203166002900480601f0160208091040260200160405190810160405280929190818152602001828054600181600116156101000203166002900480156113465780601f1061131b57610100808354040283529160200191611346565b820191906000526020600020905b81548152906001019060200180831161132957829003601f168201915b505050505081526020016003820160009054906101000a900473ffffffffffffffffffffffffffffffffffffffff1673ffffffffffffffffffffffffffffffffffffffff1673ffffffffffffffffffffffffffffffffffffffff1681526020016004820160405180606001604052908160008201548152602001600182015481526020016002820154815250508152602001600782015481526020016008820160009054906101000a900460ff1615151515815260200160098201548152602001600a8201548152602001600b8201548152602001600c8201600380602002604051908101604052809291908260038015611456576020028201915b815481526020019060010190808311611442575b5050505050815250509050919050565b6000600160035403905090565b600060046000600560003373ffffffffffffffffffffffffffffffffffffffff1673ffffffffffffffffffffffffffffffffffffffff168152602001908152602001600020548152602001908152602001600020604051806101800160405290816000820160009054906101000a900473ffffffffffffffffffffffffffffffffffffffff1673ffffffffffffffffffffffffffffffffffffffff1673ffffffffffffffffffffffffffffffffffffffff1681526020016001820160009054906101000a900473ffffffffffffffffffffffffffffffffffffffff1673ffffffffffffffffffffffffffffffffffffffff1673ffffffffffffffffffffffffffffffffffffffff1681526020016001820160149054906101000a900460ff16600481111561159d57fe5b60048111156115a857fe5b8152602001600282018054600181600116156101000203166002900480601f0160208091040260200160405190810160405280929190818152602001828054600181600116156101000203166002900480156116455780601f1061161a57610100808354040283529160200191611645565b820191906000526020600020905b81548152906001019060200180831161162857829003601f168201915b505050505081526020016003820160009054906101000a900473ffffffffffffffffffffffffffffffffffffffff1673ffffffffffffffffffffffffffffffffffffffff1673ffffffffffffffffffffffffffffffffffffffff1681526020016004820160405180606001604052908160008201548152602001600182015481526020016002820154815250508152602001600782015481526020016008820160009054906101000a900460ff1615151515815260200160098201548152602001600a8201548152602001600b8201548152602001600c8201600380602002604051908101604052809291908260038015611755576020028201915b815481526020019060010190808311611741575b50505050508152505090508060e001511580156117795750428160a0015160200151105b80156117b45750806000015173ffffffffffffffffffffffffffffffffffffffff163373ffffffffffffffffffffffffffffffffffffffff16145b1561196957600060056000836000015173ffffffffffffffffffffffffffffffffffffffff1673ffffffffffffffffffffffffffffffffffffffff16815260200190815260200160002081905550600060056000836020015173ffffffffffffffffffffffffffffffffffffffff1673ffffffffffffffffffffffffffffffffffffffff16815260200190815260200160002081905550600060638260a00151604001518161185f57fe5b048260a001516040015103905060003373ffffffffffffffffffffffffffffffffffffffff168260405161189290613473565b60006040518083038185875af1925050503d80600081146118cf576040519150601f19603f3d011682016040523d82523d6000602084013e6118d4565b606091505b5050905080611918576040517f08c379a000000000000000000000000000000000000000000000000000000000815260040161190f90613592565b60405180910390fd5b3373ffffffffffffffffffffffffffffffffffffffff167f38658d3cef5cc44cbe180db715b3888e2a3b59e21b5ed1193b79a8c33dd292c68360405161195e9190613656565b60405180910390a250505b50565b600082905060046000600560003373ffffffffffffffffffffffffffffffffffffffff1673ffffffffffffffffffffffffffffffffffffffff16815260200190815260200160002054815260200190815260200160002060080160009054906101000a900460ff16611a13576040517f08c379a0000000000000000000000000000000000000000000000000000000008152600401611a0a906135f2565b60405180910390fd5b600060046000600560003373ffffffffffffffffffffffffffffffffffffffff1673ffffffffffffffffffffffffffffffffffffffff16815260200190815260200160002054815260200190815260200160002090506000816002018054600181600116156101000203166002900480601f016020809104026020016040519081016040528092919081815260200182805460018160011615610100020316600290048015611b035780601f10611ad857610100808354040283529160200191611b03565b820191906000526020600020905b815481529060010190602001808311611ae657829003601f168201915b50505050509050611b52600560003373ffffffffffffffffffffffffffffffffffffffff1673ffffffffffffffffffffffffffffffffffffffff16815260200190815260200160002054611e18565b15611bb457338260030160006101000a81548173ffffffffffffffffffffffffffffffffffffffff021916908373ffffffffffffffffffffffffffffffffffffffff16021790555082826002019080519060200190611bb292919061287c565b505b6000611bfe600560003373ffffffffffffffffffffffffffffffffffffffff1673ffffffffffffffffffffffffffffffffffffffff1681526020019081526020016000205461219b565b90508483600c01906003611c1392919061290a565b5081604051611c22919061345c565b60405180910390208173ffffffffffffffffffffffffffffffffffffffff163373ffffffffffffffffffffffffffffffffffffffff167f6116cd2a9290423fb79d54bad0e3730742992b4a7415fca04932a1df043dee4b86604051611c879190613634565b60405180910390a4505050505050565b600160009054906101000a900473ffffffffffffffffffffffffffffffffffffffff1673ffffffffffffffffffffffffffffffffffffffff163373ffffffffffffffffffffffffffffffffffffffff161480611d405750600260009054906101000a900473ffffffffffffffffffffffffffffffffffffffff1673ffffffffffffffffffffffffffffffffffffffff163373ffffffffffffffffffffffffffffffffffffffff16145b80611d96575060008054906101000a900473ffffffffffffffffffffffffffffffffffffffff1673ffffffffffffffffffffffffffffffffffffffff163373ffffffffffffffffffffffffffffffffffffffff16145b611dd5576040517f08c379a0000000000000000000000000000000000000000000000000000000008152600401611dcc906135b2565b60405180910390fd5b806000806101000a81548173ffffffffffffffffffffffffffffffffffffffff021916908373ffffffffffffffffffffffffffffffffffffffff16021790555050565b60008060046000848152602001908152602001600020604051806101800160405290816000820160009054906101000a900473ffffffffffffffffffffffffffffffffffffffff1673ffffffffffffffffffffffffffffffffffffffff1673ffffffffffffffffffffffffffffffffffffffff1681526020016001820160009054906101000a900473ffffffffffffffffffffffffffffffffffffffff1673ffffffffffffffffffffffffffffffffffffffff1673ffffffffffffffffffffffffffffffffffffffff1681526020016001820160149054906101000a900460ff166004811115611f0457fe5b6004811115611f0f57fe5b8152602001600282018054600181600116156101000203166002900480601f016020809104026020016040519081016040528092919081815260200182805460018160011615610100020316600290048015611fac5780601f10611f8157610100808354040283529160200191611fac565b820191906000526020600020905b815481529060010190602001808311611f8f57829003601f168201915b505050505081526020016003820160009054906101000a900473ffffffffffffffffffffffffffffffffffffffff1673ffffffffffffffffffffffffffffffffffffffff1673ffffffffffffffffffffffffffffffffffffffff1681526020016004820160405180606001604052908160008201548152602001600182015481526020016002820154815250508152602001600782015481526020016008820160009054906101000a900460ff1615151515815260200160098201548152602001600a8201548152602001600b8201548152602001600c82016003806020026040519081016040528092919082600380156120bc576020028201915b8154815260200190600101908083116120a8575b50505050508152505090506000600260048111156120d657fe5b826040015160048111156120e657fe5b148061210c5750600160048111156120fa57fe5b8260400151600481111561210a57fe5b145b90506000826080015173ffffffffffffffffffffffffffffffffffffffff163373ffffffffffffffffffffffffffffffffffffffff16141590508180156121505750805b61218f576040517f08c379a000000000000000000000000000000000000000000000000000000000815260040161218690613572565b60405180910390fd5b60019350505050919050565b60008060046000848152602001908152602001600020604051806101800160405290816000820160009054906101000a900473ffffffffffffffffffffffffffffffffffffffff1673ffffffffffffffffffffffffffffffffffffffff1673ffffffffffffffffffffffffffffffffffffffff1681526020016001820160009054906101000a900473ffffffffffffffffffffffffffffffffffffffff1673ffffffffffffffffffffffffffffffffffffffff1673ffffffffffffffffffffffffffffffffffffffff1681526020016001820160149054906101000a900460ff16600481111561228757fe5b600481111561229257fe5b8152602001600282018054600181600116156101000203166002900480601f01602080910402602001604051908101604052809291908181526020018280546001816001161561010002031660029004801561232f5780601f106123045761010080835404028352916020019161232f565b820191906000526020600020905b81548152906001019060200180831161231257829003601f168201915b505050505081526020016003820160009054906101000a900473ffffffffffffffffffffffffffffffffffffffff1673ffffffffffffffffffffffffffffffffffffffff1673ffffffffffffffffffffffffffffffffffffffff1681526020016004820160405180606001604052908160008201548152602001600182015481526020016002820154815250508152602001600782015481526020016008820160009054906101000a900460ff1615151515815260200160098201548152602001600a8201548152602001600b8201548152602001600c820160038060200260405190810160405280929190826003801561243f576020028201915b81548152602001906001019080831161242b575b505050505081525050905082600560003373ffffffffffffffffffffffffffffffffffffffff1673ffffffffffffffffffffffffffffffffffffffff168152602001908152602001600020541461249557600080fd5b3373ffffffffffffffffffffffffffffffffffffffff16816000015173ffffffffffffffffffffffffffffffffffffffff1614156124d957806020015191506124e1565b806000015191505b50919050565b60008060046000600560008673ffffffffffffffffffffffffffffffffffffffff1673ffffffffffffffffffffffffffffffffffffffff168152602001908152602001600020548152602001908152602001600020604051806101800160405290816000820160009054906101000a900473ffffffffffffffffffffffffffffffffffffffff1673ffffffffffffffffffffffffffffffffffffffff1673ffffffffffffffffffffffffffffffffffffffff1681526020016001820160009054906101000a900473ffffffffffffffffffffffffffffffffffffffff1673ffffffffffffffffffffffffffffffffffffffff1673ffffffffffffffffffffffffffffffffffffffff1681526020016001820160149054906101000a900460ff16600481111561261257fe5b600481111561261d57fe5b8152602001600282018054600181600116156101000203166002900480601f0160208091040260200160405190810160405280929190818152602001828054600181600116156101000203166002900480156126ba5780601f1061268f576101008083540402835291602001916126ba565b820191906000526020600020905b81548152906001019060200180831161269d57829003601f168201915b505050505081526020016003820160009054906101000a900473ffffffffffffffffffffffffffffffffffffffff1673ffffffffffffffffffffffffffffffffffffffff1673ffffffffffffffffffffffffffffffffffffffff1681526020016004820160405180606001604052908160008201548152602001600182015481526020016002820154815250508152602001600782015481526020016008820160009054906101000a900460ff1615151515815260200160098201548152602001600a8201548152602001600b8201548152602001600c82016003806020026040519081016040528092919082600380156127ca576020028201915b8154815260200190600101908083116127b6575b5050505050815250509050600360048111156127e257fe5b816040015160048111156127f257fe5b148061281857506000600481111561280657fe5b8160400151600481111561281657fe5b145b8061286257506000600560008573ffffffffffffffffffffffffffffffffffffffff1673ffffffffffffffffffffffffffffffffffffffff16815260200190815260200160002054145b15612871576001915050612877565b60009150505b919050565b828054600181600116156101000203166002900490600052602060002090601f0160209004810192826128b257600085556128f9565b82601f106128cb57805160ff19168380011785556128f9565b828001600101855582156128f9579182015b828111156128f85782518255916020019190600101906128dd565b5b5090506129069190612a06565b5090565b8260038101928215612939579160200282015b8281111561293857825182559160200191906001019061291d565b5b5090506129469190612a06565b5090565b604051806101800160405280600073ffffffffffffffffffffffffffffffffffffffff168152602001600073ffffffffffffffffffffffffffffffffffffffff1681526020016000600481111561299d57fe5b815260200160608152602001600073ffffffffffffffffffffffffffffffffffffffff1681526020016129ce612a23565b815260200160008152602001600015158152602001600081526020016000815260200160008152602001612a00612a44565b81525090565b5b80821115612a1f576000816000905550600101612a07565b5090565b60405180606001604052806000815260200160008152602001600081525090565b6040518060600160405280600390602082028036833780820191505090505090565b6000612a79612a74846136a2565b613671565b90508082856020860282011115612a8f57600080fd5b60005b85811015612abf5781612aa58882612b97565b845260208401935060208301925050600181019050612a92565b5050509392505050565b6000612adc612ad7846136c8565b613671565b905082815260208101848484011115612af457600080fd5b612aff848285613894565b509392505050565b600081359050612b1681613992565b92915050565b600082601f830112612b2d57600080fd5b6003612b3a848285612a66565b91505092915050565b600081359050612b52816139a9565b92915050565b600082601f830112612b6957600080fd5b8135612b79848260208601612ac9565b91505092915050565b600081359050612b91816139c0565b92915050565b600081359050612ba6816139d7565b92915050565b600060208284031215612bbe57600080fd5b6000612bcc84828501612b07565b91505092915050565b600080600080600060a08688031215612bed57600080fd5b6000612bfb88828901612b07565b9550506020612c0c88828901612b82565b9450506040612c1d88828901612b97565b9350506060612c2e88828901612b97565b925050608086013567ffffffffffffffff811115612c4b57600080fd5b612c5788828901612b58565b9150509295509295909350565b600060208284031215612c7657600080fd5b6000612c8484828501612b43565b91505092915050565b60008060808385031215612ca057600080fd5b600083013567ffffffffffffffff811115612cba57600080fd5b612cc685828601612b58565b9250506020612cd785828601612b1c565b9150509250929050565b600060208284031215612cf357600080fd5b6000612d0184828501612b97565b91505092915050565b6000612d16838361343e565b60208301905092915050565b612d2b8161384c565b82525050565b612d3a816137e3565b82525050565b612d49816137e3565b82525050565b612d5881613721565b612d62818461375c565b9250612d6d826136f8565b8060005b83811015612d9e578151612d858782612d0a565b9650612d9083613742565b925050600181019050612d71565b505050505050565b612daf8161372c565b612db9818461375c565b9250612dc482613702565b8060005b83811015612dfc57612dd982613940565b612de38782612d0a565b9650612dee8361374f565b925050600181019050612dc8565b505050505050565b612e0d816137f5565b82525050565b612e1c816137f5565b82525050565b612e2b8161385e565b82525050565b612e3a8161385e565b82525050565b6000612e4b82613737565b612e558185613772565b9350612e658185602086016138a3565b612e6e81613953565b840191505092915050565b6000612e8482613737565b612e8e8185613783565b9350612e9e8185602086016138a3565b612ea781613953565b840191505092915050565b6000612ebd82613737565b612ec78185613794565b9350612ed78185602086016138a3565b80840191505092915050565b600081546001811660008114612f005760018114612f2657612f6a565b607f6002830416612f118187613772565b955060ff198316865260208601935050612f6a565b60028204612f348187613772565b9550612f3f8561370c565b60005b82811015612f6157815481890152600182019150602081019050612f42565b80880195505050505b505092915050565b6000612f7f601883613783565b91507f47616d652053746174653a20556e617661696c61626c652e00000000000000006000830152602082019050919050565b6000612fbf600e83613783565b91507f526566756e64206661696c65642e0000000000000000000000000000000000006000830152602082019050919050565b6000612fff600c83613783565b91507f4e6f7420616e204f776e657200000000000000000000000000000000000000006000830152602082019050919050565b600061303f602a83613783565b91507f4f6e65206f662074686520706c61796572732068617320612067616d6520696e60008301527f2070726f67726573732e000000000000000000000000000000000000000000006020830152604082019050919050565b60006130a5601b83613783565b91507f506c617965723220646964206e6f7420616363657074207965742e00000000006000830152602082019050919050565b60006130e5600083613767565b9150600082019050919050565b60006102008301600083015161310b6000860182612d31565b50602083015161311e6020860182612d31565b5060408301516131316040860182612e22565b50606083015184820360608601526131498282612e40565b915050608083015161315e6080860182612d31565b5060a083015161317160a0860182613355565b5060c083015161318561010086018261343e565b5060e0830151613199610120860182612e04565b506101008301516131ae61014086018261343e565b506101208301516131c361016086018261343e565b506101408301516131d861018086018261343e565b506101608301516131ed6101a0860182612d4f565b508091505092915050565b600061020083016000808401549050613210816138d6565b61321d6000870182612d31565b506001840154905061322e816138d6565b61323b6020870182612d31565b5061324581613924565b6132526040870182612e22565b506002840185830360608701526132698382612ee3565b9250506003840154905061327c816138d6565b6132896080870182612d31565b506004840161329b60a08701826133d9565b50600784015490506132ac8161390a565b6132ba61010087018261343e565b50600884015490506132cb816138f0565b6132d9610120870182612e04565b50600984015490506132ea8161390a565b6132f861014087018261343e565b50600a84015490506133098161390a565b61331761016087018261343e565b50600b84015490506133288161390a565b61333661018087018261343e565b50600c84016133496101a0870182612da6565b50819250505092915050565b60608201600082015161336b600085018261343e565b50602082015161337e602085018261343e565b506040820151613391604085018261343e565b50505050565b6060820160008201516133ad600085018261343e565b5060208201516133c0602085018261343e565b5060408201516133d3604085018261343e565b50505050565b6060820160008083015490506133ee8161390a565b6133fb600086018261343e565b506001830154905061340c8161390a565b613419602086018261343e565b506002830154905061342a8161390a565b613437604086018261343e565b5050505050565b61344781613842565b82525050565b61345681613842565b82525050565b60006134688284612eb2565b915081905092915050565b600061347e826130d8565b9150819050919050565b600060208201905061349d6000830184612d22565b92915050565b60006101a0820190506134b9600083018e612d40565b6134c6602083018d612d40565b6134d3604083018c612e31565b81810360608301526134e5818b612e79565b90506134f4608083018a612d40565b61350160a0830189613397565b61350f61010083018861344d565b61351d610120830187612e13565b61352b61014083018661344d565b61353961016083018561344d565b61354761018083018461344d565b9c9b505050505050505050505050565b600060208201905061356c6000830184612e13565b92915050565b6000602082019050818103600083015261358b81612f72565b9050919050565b600060208201905081810360008301526135ab81612fb2565b9050919050565b600060208201905081810360008301526135cb81612ff2565b9050919050565b600060208201905081810360008301526135eb81613032565b9050919050565b6000602082019050818103600083015261360b81613098565b9050919050565b6000602082019050818103600083015261362c81846130f2565b905092915050565b6000602082019050818103600083015261364e81846131f8565b905092915050565b600060208201905061366b600083018461344d565b92915050565b6000604051905081810181811067ffffffffffffffff821117156136985761369761393e565b5b8060405250919050565b600067ffffffffffffffff8211156136bd576136bc61393e565b5b602082029050919050565b600067ffffffffffffffff8211156136e3576136e261393e565b5b601f19601f8301169050602081019050919050565b6000819050919050565b6000819050919050565b60008190508160005260206000209050919050565b600060039050919050565b600060039050919050565b600081519050919050565b6000602082019050919050565b6000600182019050919050565b600081905092915050565b600081905092915050565b600082825260208201905092915050565b600082825260208201905092915050565b600081905092915050565b600073ffffffffffffffffffffffffffffffffffffffff82169050919050565b600060ff82169050919050565b600060ff82169050919050565b6000819050919050565b60006137ee82613822565b9050919050565b60008115159050919050565b600081905061380f8261397e565b919050565b600061ffff82169050919050565b600073ffffffffffffffffffffffffffffffffffffffff82169050919050565b6000819050919050565b600061385782613870565b9050919050565b600061386982613801565b9050919050565b600061387b82613882565b9050919050565b600061388d82613822565b9050919050565b82818337600083830152505050565b60005b838110156138c15780820151818401526020810190506138a6565b838111156138d0576000848401525b50505050565b60006138e96138e483613964565b61379f565b9050919050565b60006139036138fe83613964565b6137bf565b9050919050565b600061391d61391883613964565b6137d9565b9050919050565b600061393761393283613971565b6137cc565b9050919050565bfe5b600061394c825461390a565b9050919050565b6000601f19601f8301169050919050565b60008160001c9050919050565b60008160a01c9050919050565b6005811061398f5761398e61393e565b5b50565b61399b816137e3565b81146139a657600080fd5b50565b6139b2816137f5565b81146139bd57600080fd5b50565b6139c981613814565b81146139d457600080fd5b50565b6139e081613842565b81146139eb57600080fd5b5056fea26469706673582212204e67598dc12c1296392964ce32901499e44fa677072d077812f620d9fe99710a64736f6c63430007060033",
  "immutableReferences": {},
  "source": "// SPDX-License-Identifier: MIT\n//pragma solidity >=0.4.22 <0.9.0;\npragma solidity >=0.7.0;\npragma experimental ABIEncoderV2;\n\ncontract GameContract {\n\n  address owner3;\n  address owner;\n  address owner2;\n  uint gameId;\n  \n//////// Constructor \n//compiler requires public\n  constructor() {\n    owner= msg.sender;\n    owner2= address(0x49A3e9f02E8b0a6076f8568361926D54d17730Cb);\n    gameId=1;\n  }\n\n   function setNewOwner(address _newOwner) isOwner external {\n     owner3= _newOwner;\n  }\n/////// Constructor END\n  \n  enum gameState {NoAssignedState, Staged, InProgress, Ended, Rejected }\n  \n  struct gameSettings {\n    uint totalTime;\n    uint timeoutTime;\n    uint wageSize; \n  }\n\n\n\n  struct gameData {\n    address playerOne;\n    address playerTwo;\n    gameState gState;\n    string currentGameBoard;\n    address lastMover;\n    gameSettings settings;\n    uint gameBalance;\n    bool player2accepted;\n    uint totalGameTime;\n    uint p1Time;\n    uint p2Time;\n    uint[3] materialState;\n  }\n  \n  mapping (uint => gameData) public games; \n  mapping (address => uint) myLastGame;\n\n///////////BulkHudiStart\n\n  event newGameCreatedEvent(address indexed _playerOne, address indexed _playerTwo);\n\n////// Modifiers Start \n  modifier isOwner() {\n    require (msg.sender == owner|| msg.sender == owner2 || msg.sender == owner3, \"Not an Owner\");\n    _; \n  }\n\n  function otherPlayer(uint _gameId) view internal returns (address other) {\n    gameData memory thisGame = games[_gameId];\n    require(myLastGame[msg.sender]== _gameId);\n    if (thisGame.playerOne == msg.sender){\n      other= thisGame.playerTwo;\n    } else {\n      other= thisGame.playerOne;\n    }\n  }  \n\n  function onMoveStateCheck(uint _gameid ) internal view returns(bool) {\n    //do not need it, do I?\n    gameData memory game=games[_gameid];\n    bool g= (  game.gState == gameState.InProgress || game.gState == gameState.Staged  );\n    bool notLastMover = !(msg.sender == game.lastMover); \n    require( g && notLastMover , \"Game State: Unavailable.\" );\n    return true;\n  }\n\n  // function player2NotInAGame(uint _gameid) internal view returns (bool) {\n  //   gameData memory game = games[_gameId];\n  //   require(myLastGame[game.playerTwo] == 0, \"Player Two already in a game\");\n  //   return true;\n  // } \n\n  function noOtherGameOnCreate(address player) internal view returns(bool) {\n    gameData memory lastPlayerGame = games[myLastGame[player]]; \n\n    if( (lastPlayerGame.gState == gameState.Ended) || (lastPlayerGame.gState == gameState.NoAssignedState) || myLastGame[player] == 0 ){\n      return true;\n    } else {\n      return false;\n    }\n  }\n////// Modifiers END\n  function initializeGame(address _playerTwo,\n                          uint16 _totalTime,\n                          uint _timeoutTime,\n                          uint _wageSize,\n                          string memory _currentGameBoard\n                      ) public payable returns(uint justCreatedGameId) {\n    \n  \n    games[gameId]= gameData({\n                            playerOne: msg.sender,\n                            playerTwo: _playerTwo,\n                            gState: gameState.Staged,\n                            currentGameBoard:_currentGameBoard,\n                            lastMover: address(0),\n                            settings: gameSettings ({\n                                              totalTime: _totalTime,\n                                              timeoutTime:  block.timestamp + _timeoutTime * 1 minutes,\n                                              wageSize:  _wageSize }),\n                            gameBalance: msg.value,\n                            player2accepted: false,\n                            totalGameTime: _totalTime *2,\n                            p1Time: _totalTime,\n                            p2Time: _totalTime,\n                            materialState: [uint(1),uint(2),uint(3)]           \n                            });\n//playerTwo is always white\n\n    require((noOtherGameOnCreate(msg.sender) && noOtherGameOnCreate(_playerTwo)), \"One of the players has a game in progress.\");\n    myLastGame[msg.sender]= gameId;\n    myLastGame[_playerTwo]= gameId;\n    \n    justCreatedGameId = gameId;\n  \n    emit newGameCreatedEvent(msg.sender,_playerTwo);\n    gameId++;\n\n    return gameId;\n  }\n\n  function getLastGameId() public view returns(uint) {\n    return gameId-1; \n  }\n\n  function getGame(uint gId) public view returns(gameData memory )  {\n      return games[gId];\n  }\n \n  function checkAndReturnCurrentGame() public view returns (gameData memory game) {\n    game= games[myLastGame[msg.sender]];\n   }\n\n    event gameCanceled(address indexed submittedby, uint refundedAmount);\n\n\n   function cancelGame() public payable {\n     gameData memory game = games[myLastGame[msg.sender]];\n     if((! game.player2accepted) && (game.settings.timeoutTime < block.timestamp) && (msg.sender == game.playerOne)) {\n      myLastGame[game.playerOne]= 0;\n      myLastGame[game.playerTwo]= 0; \n      uint refundAmount = game.settings.wageSize - (game.settings.wageSize / 99); \n      // a proper gas risk approch would be cool\n      // case: player2 accept on player1 cancel? unlikely - possible?\n      // a game balance mapping would be cool\n      (bool success, ) = msg.sender.call{value:refundAmount}(\"\");\n      require(success, \"Refund failed.\");  \n\n      emit gameCanceled(msg.sender, refundAmount);  \n    }\n   }\n  \n  event player2Accepted(address indexed _player1, address indexed _player2, bool _accepted);\n  \n  function timeOutforAccept() public {}\n\n  function playerTwoAccepted(bool _accepted) public payable  {\n    if (! _accepted) {\n      gameData storage game =  games[myLastGame[msg.sender]];\n      require(game.playerTwo == msg.sender);\n      game.player2accepted = false;\n      game.gState = gameState.Rejected;\n      //or cancel? w\\ no refund?\n      myLastGame[game.playerOne]= 0;\n      myLastGame[game.playerTwo]= 0;\n      //uint tenpercent = \n      myLastGame[msg.sender] = 0; \n      //(bool success,) = msg.sender.call.value(//%palyer1deposit/gascost)()\n      //norefund for now.\n      emit player2Accepted(game.playerOne, game.playerTwo, false);\n    } else {\n      gameData storage game = games[myLastGame[msg.sender]];\n      require(msg.value == game.settings.wageSize);\n      require(game.playerTwo == msg.sender);\n      game.player2accepted = true;\n      game.gState = gameState.InProgress;\n      game.gameBalance += msg.value;\n\n      emit player2Accepted(game.playerOne, game.playerTwo, true);\n    }\n  }\n  \n  \n  \n  event newMoveInGame(address indexed submittedby, address indexed otherPlayer, string indexed prevState, gameData current);\n\n  function submitMove(string memory _submittedMove, uint[3] memory _material) public {\n\n    string memory submitted = _submittedMove;\n    require(games[myLastGame[msg.sender]].player2accepted, \"Player2 did not accept yet.\");\n    gameData storage game= games[myLastGame[msg.sender]]; \n    \n    string memory prevState= string(game.currentGameBoard);\n    if(onMoveStateCheck(myLastGame[msg.sender])) {\n      game.lastMover= msg.sender;\n      game.currentGameBoard = submitted; \n    }\n    address other = otherPlayer(myLastGame[msg.sender]); \n\n    game.materialState = _material;\n\n\n\n    emit newMoveInGame( msg.sender, other, string(prevState), game );\n  }\n\n\nevent playerResigned(address indexed submittedby, address indexed otherPlayer, address OtherPlayerNotLastMovedThatResigned);\n\n  function resignGame() public {\n    gameData storage game = games[myLastGame[msg.sender]];\n    \n    if ( onMoveStateCheck(myLastGame[msg.sender]) ) {\n\n      myLastGame[game.playerOne]= 0;\n      myLastGame[game.playerTwo] = 0;\n      //reverse order\n      emit playerResigned(msg.sender, otherPlayer(myLastGame[msg.sender]), msg.sender);    \n      \n    }\n  \n  }\n\n///////////BulkHudiEnd\n\n// function calculateMaterialFenSplit(string memory rawFen) internal pure returns (int8[3] memory materialAdvantage){\n//   //// can't really do this myself in solidity atm\n// }\n\n\n\n\n\n\n\n\n}\n",
  "sourcePath": "/home/pbdesk2/Desktop/github/ChessWager/contracts/GameContract.sol",
  "compiler": {
    "name": "solc",
    "version": "0.7.6+commit.7338295f.Emscripten.clang"
  },
  "schemaVersion": "3.4.3",
  "updatedAt": "2021-09-30T18:12:01.600Z",
  "networkType": "ethereum",
  "devdoc": {
    "kind": "dev",
    "methods": {},
    "version": 1
  },
  "userdoc": {
    "kind": "user",
    "methods": {},
    "version": 1
  }
}