{
  "contractName": "GameContract",
  "abi": [
    {
      "inputs": [],
      "stateMutability": "nonpayable",
      "type": "constructor"
    },
    {
      "anonymous": false,
      "inputs": [
        {
          "indexed": true,
          "internalType": "address",
          "name": "submittedby",
          "type": "address"
        },
        {
          "indexed": false,
          "internalType": "uint256",
          "name": "refundedAmount",
          "type": "uint256"
        }
      ],
      "name": "gameCanceled",
      "type": "event"
    },
    {
      "anonymous": false,
      "inputs": [
        {
          "indexed": true,
          "internalType": "address",
          "name": "_playerOne",
          "type": "address"
        },
        {
          "indexed": true,
          "internalType": "address",
          "name": "_playerTwo",
          "type": "address"
        }
      ],
      "name": "newGameCreatedEvent",
      "type": "event"
    },
    {
      "anonymous": false,
      "inputs": [
        {
          "indexed": true,
          "internalType": "address",
          "name": "submittedby",
          "type": "address"
        },
        {
          "indexed": true,
          "internalType": "address",
          "name": "otherPlayer",
          "type": "address"
        },
        {
          "indexed": true,
          "internalType": "string",
          "name": "prevState",
          "type": "string"
        },
        {
          "components": [
            {
              "internalType": "address",
              "name": "playerOne",
              "type": "address"
            },
            {
              "internalType": "address",
              "name": "playerTwo",
              "type": "address"
            },
            {
              "internalType": "enum GameContract.gameState",
              "name": "gState",
              "type": "uint8"
            },
            {
              "internalType": "string",
              "name": "currentGameBoard",
              "type": "string"
            },
            {
              "internalType": "address",
              "name": "lastMover",
              "type": "address"
            },
            {
              "components": [
                {
                  "internalType": "uint256",
                  "name": "totalTime",
                  "type": "uint256"
                },
                {
                  "internalType": "uint256",
                  "name": "timeoutTime",
                  "type": "uint256"
                },
                {
                  "internalType": "uint256",
                  "name": "wageSize",
                  "type": "uint256"
                }
              ],
              "internalType": "struct GameContract.gameSettings",
              "name": "settings",
              "type": "tuple"
            },
            {
              "internalType": "uint256",
              "name": "gameBalance",
              "type": "uint256"
            },
            {
              "internalType": "bool",
              "name": "player2accepted",
              "type": "bool"
            },
            {
              "internalType": "uint256",
              "name": "totalGameTime",
              "type": "uint256"
            },
            {
              "internalType": "uint256",
              "name": "p1Time",
              "type": "uint256"
            },
            {
              "internalType": "uint256",
              "name": "p2Time",
              "type": "uint256"
            },
            {
              "internalType": "uint8[3]",
              "name": "materialG",
              "type": "uint8[3]"
            }
          ],
          "indexed": false,
          "internalType": "struct GameContract.gameData",
          "name": "current",
          "type": "tuple"
        }
      ],
      "name": "newMoveInGame",
      "type": "event"
    },
    {
      "anonymous": false,
      "inputs": [
        {
          "indexed": true,
          "internalType": "address",
          "name": "_player1",
          "type": "address"
        },
        {
          "indexed": true,
          "internalType": "address",
          "name": "_player2",
          "type": "address"
        },
        {
          "indexed": false,
          "internalType": "bool",
          "name": "_accepted",
          "type": "bool"
        }
      ],
      "name": "player2Accepted",
      "type": "event"
    },
    {
      "anonymous": false,
      "inputs": [
        {
          "indexed": true,
          "internalType": "address",
          "name": "submittedby",
          "type": "address"
        },
        {
          "indexed": true,
          "internalType": "address",
          "name": "otherPlayer",
          "type": "address"
        },
        {
          "indexed": false,
          "internalType": "address",
          "name": "OtherPlayerNotLastMovedThatResigned",
          "type": "address"
        }
      ],
      "name": "playerResigned",
      "type": "event"
    },
    {
      "inputs": [
        {
          "internalType": "uint256",
          "name": "",
          "type": "uint256"
        }
      ],
      "name": "games",
      "outputs": [
        {
          "internalType": "address",
          "name": "playerOne",
          "type": "address"
        },
        {
          "internalType": "address",
          "name": "playerTwo",
          "type": "address"
        },
        {
          "internalType": "enum GameContract.gameState",
          "name": "gState",
          "type": "uint8"
        },
        {
          "internalType": "string",
          "name": "currentGameBoard",
          "type": "string"
        },
        {
          "internalType": "address",
          "name": "lastMover",
          "type": "address"
        },
        {
          "components": [
            {
              "internalType": "uint256",
              "name": "totalTime",
              "type": "uint256"
            },
            {
              "internalType": "uint256",
              "name": "timeoutTime",
              "type": "uint256"
            },
            {
              "internalType": "uint256",
              "name": "wageSize",
              "type": "uint256"
            }
          ],
          "internalType": "struct GameContract.gameSettings",
          "name": "settings",
          "type": "tuple"
        },
        {
          "internalType": "uint256",
          "name": "gameBalance",
          "type": "uint256"
        },
        {
          "internalType": "bool",
          "name": "player2accepted",
          "type": "bool"
        },
        {
          "internalType": "uint256",
          "name": "totalGameTime",
          "type": "uint256"
        },
        {
          "internalType": "uint256",
          "name": "p1Time",
          "type": "uint256"
        },
        {
          "internalType": "uint256",
          "name": "p2Time",
          "type": "uint256"
        }
      ],
      "stateMutability": "view",
      "type": "function",
      "constant": true
    },
    {
      "inputs": [
        {
          "internalType": "address",
          "name": "_newOwner",
          "type": "address"
        }
      ],
      "name": "setNewOwner",
      "outputs": [],
      "stateMutability": "nonpayable",
      "type": "function"
    },
    {
      "inputs": [
        {
          "internalType": "address",
          "name": "_playerTwo",
          "type": "address"
        },
        {
          "internalType": "uint16",
          "name": "_totalTime",
          "type": "uint16"
        },
        {
          "internalType": "uint256",
          "name": "_timeoutTime",
          "type": "uint256"
        },
        {
          "internalType": "uint256",
          "name": "_wageSize",
          "type": "uint256"
        },
        {
          "internalType": "string",
          "name": "_currentGameBoard",
          "type": "string"
        }
      ],
      "name": "initializeGame",
      "outputs": [
        {
          "internalType": "uint256",
          "name": "justCreatedGameId",
          "type": "uint256"
        }
      ],
      "stateMutability": "payable",
      "type": "function",
      "payable": true
    },
    {
      "inputs": [],
      "name": "getLastGameId",
      "outputs": [
        {
          "internalType": "uint256",
          "name": "",
          "type": "uint256"
        }
      ],
      "stateMutability": "view",
      "type": "function",
      "constant": true
    },
    {
      "inputs": [
        {
          "internalType": "uint256",
          "name": "gId",
          "type": "uint256"
        }
      ],
      "name": "getGame",
      "outputs": [
        {
          "components": [
            {
              "internalType": "address",
              "name": "playerOne",
              "type": "address"
            },
            {
              "internalType": "address",
              "name": "playerTwo",
              "type": "address"
            },
            {
              "internalType": "enum GameContract.gameState",
              "name": "gState",
              "type": "uint8"
            },
            {
              "internalType": "string",
              "name": "currentGameBoard",
              "type": "string"
            },
            {
              "internalType": "address",
              "name": "lastMover",
              "type": "address"
            },
            {
              "components": [
                {
                  "internalType": "uint256",
                  "name": "totalTime",
                  "type": "uint256"
                },
                {
                  "internalType": "uint256",
                  "name": "timeoutTime",
                  "type": "uint256"
                },
                {
                  "internalType": "uint256",
                  "name": "wageSize",
                  "type": "uint256"
                }
              ],
              "internalType": "struct GameContract.gameSettings",
              "name": "settings",
              "type": "tuple"
            },
            {
              "internalType": "uint256",
              "name": "gameBalance",
              "type": "uint256"
            },
            {
              "internalType": "bool",
              "name": "player2accepted",
              "type": "bool"
            },
            {
              "internalType": "uint256",
              "name": "totalGameTime",
              "type": "uint256"
            },
            {
              "internalType": "uint256",
              "name": "p1Time",
              "type": "uint256"
            },
            {
              "internalType": "uint256",
              "name": "p2Time",
              "type": "uint256"
            },
            {
              "internalType": "uint8[3]",
              "name": "materialG",
              "type": "uint8[3]"
            }
          ],
          "internalType": "struct GameContract.gameData",
          "name": "",
          "type": "tuple"
        }
      ],
      "stateMutability": "view",
      "type": "function",
      "constant": true
    },
    {
      "inputs": [],
      "name": "checkAndReturnCurrentGame",
      "outputs": [
        {
          "components": [
            {
              "internalType": "address",
              "name": "playerOne",
              "type": "address"
            },
            {
              "internalType": "address",
              "name": "playerTwo",
              "type": "address"
            },
            {
              "internalType": "enum GameContract.gameState",
              "name": "gState",
              "type": "uint8"
            },
            {
              "internalType": "string",
              "name": "currentGameBoard",
              "type": "string"
            },
            {
              "internalType": "address",
              "name": "lastMover",
              "type": "address"
            },
            {
              "components": [
                {
                  "internalType": "uint256",
                  "name": "totalTime",
                  "type": "uint256"
                },
                {
                  "internalType": "uint256",
                  "name": "timeoutTime",
                  "type": "uint256"
                },
                {
                  "internalType": "uint256",
                  "name": "wageSize",
                  "type": "uint256"
                }
              ],
              "internalType": "struct GameContract.gameSettings",
              "name": "settings",
              "type": "tuple"
            },
            {
              "internalType": "uint256",
              "name": "gameBalance",
              "type": "uint256"
            },
            {
              "internalType": "bool",
              "name": "player2accepted",
              "type": "bool"
            },
            {
              "internalType": "uint256",
              "name": "totalGameTime",
              "type": "uint256"
            },
            {
              "internalType": "uint256",
              "name": "p1Time",
              "type": "uint256"
            },
            {
              "internalType": "uint256",
              "name": "p2Time",
              "type": "uint256"
            },
            {
              "internalType": "uint8[3]",
              "name": "materialG",
              "type": "uint8[3]"
            }
          ],
          "internalType": "struct GameContract.gameData",
          "name": "game",
          "type": "tuple"
        }
      ],
      "stateMutability": "view",
      "type": "function",
      "constant": true
    },
    {
      "inputs": [],
      "name": "cancelGame",
      "outputs": [],
      "stateMutability": "payable",
      "type": "function",
      "payable": true
    },
    {
      "inputs": [],
      "name": "timeOutforAccept",
      "outputs": [],
      "stateMutability": "nonpayable",
      "type": "function"
    },
    {
      "inputs": [
        {
          "internalType": "bool",
          "name": "_accepted",
          "type": "bool"
        }
      ],
      "name": "playerTwoAccepted",
      "outputs": [],
      "stateMutability": "payable",
      "type": "function",
      "payable": true
    },
    {
      "inputs": [
        {
          "internalType": "string",
          "name": "_submittedMove",
          "type": "string"
        },
        {
          "internalType": "uint8[3]",
          "name": "_material",
          "type": "uint8[3]"
        }
      ],
      "name": "submitMove",
      "outputs": [],
      "stateMutability": "nonpayable",
      "type": "function"
    },
    {
      "inputs": [],
      "name": "resignGame",
      "outputs": [],
      "stateMutability": "nonpayable",
      "type": "function"
    }
  ],
  "bytecode": "0x608060405234801561001057600080fd5b5033600160006101000a81548173ffffffffffffffffffffffffffffffffffffffff021916908373ffffffffffffffffffffffffffffffffffffffff1602179055507349a3e9f02e8b0a6076f8568361926d54d17730cb600260006101000a81548173ffffffffffffffffffffffffffffffffffffffff021916908373ffffffffffffffffffffffffffffffffffffffff1602179055506001600381905550614828806100be6000396000f3fe60806040526004361061009c5760003560e01c80638c79a38c116100645780638c79a38c14610171578063a2f77bcc1461018d578063a35b6ec7146101ca578063ab35168e146101f5578063d84c1ac91461021e578063f5a1f5b4146102285761009c565b80630800cb7e146100a1578063117a5b90146100b85780634ce3e372146100ff5780635c0c3bb41461012f5780637ab2942b14610146575b600080fd5b3480156100ad57600080fd5b506100b6610251565b005b3480156100c457600080fd5b506100df60048036038101906100da9190612e3f565b610476565b6040516100f69b9a99989796959493929190613dd0565b60405180910390f35b61011960048036038101906101149190612d33565b61060a565b6040516101269190613f83565b60405180910390f35b34801561013b57600080fd5b50610144610a2e565b005b34801561015257600080fd5b5061015b610a30565b6040516101689190613f3f565b60405180910390f35b61018b60048036038101906101869190612dc2565b610d4c565b005b34801561019957600080fd5b506101b460048036038101906101af9190612e3f565b6111de565b6040516101c19190613f3f565b60405180910390f35b3480156101d657600080fd5b506101df6114bd565b6040516101ec9190613f83565b60405180910390f35b34801561020157600080fd5b5061021c60048036038101906102179190612deb565b6114ca565b005b6102266117f5565b005b34801561023457600080fd5b5061024f600480360381019061024a9190612d0a565b611d14565b005b600060046000600560003373ffffffffffffffffffffffffffffffffffffffff1673ffffffffffffffffffffffffffffffffffffffff16815260200190815260200160002054815260200190815260200160002090506102ef600560003373ffffffffffffffffffffffffffffffffffffffff1673ffffffffffffffffffffffffffffffffffffffff16815260200190815260200160002054611e95565b15610473576000600560008360000160009054906101000a900473ffffffffffffffffffffffffffffffffffffffff1673ffffffffffffffffffffffffffffffffffffffff1673ffffffffffffffffffffffffffffffffffffffff168152602001908152602001600020819055506000600560008360010160009054906101000a900473ffffffffffffffffffffffffffffffffffffffff1673ffffffffffffffffffffffffffffffffffffffff1673ffffffffffffffffffffffffffffffffffffffff1681526020019081526020016000208190555061040e600560003373ffffffffffffffffffffffffffffffffffffffff1673ffffffffffffffffffffffffffffffffffffffff1681526020019081526020016000205461223e565b73ffffffffffffffffffffffffffffffffffffffff163373ffffffffffffffffffffffffffffffffffffffff167f2ebf0de5f8a94f0cb6835b17c86eb1fff68d7f0bb4857bfb28953adad5b7d44a3360405161046a9190613db5565b60405180910390a35b50565b60046020528060005260406000206000915090508060000160009054906101000a900473ffffffffffffffffffffffffffffffffffffffff16908060010160009054906101000a900473ffffffffffffffffffffffffffffffffffffffff16908060010160149054906101000a900460ff1690806002018054600181600116156101000203166002900480601f0160208091040260200160405190810160405280929190818152602001828054600181600116156101000203166002900480156105815780601f1061055657610100808354040283529160200191610581565b820191906000526020600020905b81548152906001019060200180831161056457829003601f168201915b5050505050908060030160009054906101000a900473ffffffffffffffffffffffffffffffffffffffff1690806004016040518060600160405290816000820154815260200160018201548152602001600282015481525050908060070154908060080160009054906101000a900460ff169080600901549080600a01549080600b015490508b565b6000806040518061018001604052803373ffffffffffffffffffffffffffffffffffffffff1681526020018873ffffffffffffffffffffffffffffffffffffffff1681526020016001600481111561065e57fe5b8152602001848152602001600073ffffffffffffffffffffffffffffffffffffffff16815260200160405180606001604052808961ffff168152602001603c8902420181526020018781525081526020013481526020016000151581526020016002880261ffff1681526020018761ffff1681526020018761ffff1681526020016040518060600160405280602760ff168152602001602760ff168152602001604e60ff1681525081525060046000600354815260200190815260200160002060008201518160000160006101000a81548173ffffffffffffffffffffffffffffffffffffffff021916908373ffffffffffffffffffffffffffffffffffffffff16021790555060208201518160010160006101000a81548173ffffffffffffffffffffffffffffffffffffffff021916908373ffffffffffffffffffffffffffffffffffffffff16021790555060408201518160010160146101000a81548160ff021916908360048111156107d057fe5b021790555060608201518160020190805190602001906107f192919061296b565b5060808201518160030160006101000a81548173ffffffffffffffffffffffffffffffffffffffff021916908373ffffffffffffffffffffffffffffffffffffffff16021790555060a082015181600401600082015181600001556020820151816001015560408201518160020155505060c0820151816007015560e08201518160080160006101000a81548160ff021916908315150217905550610100820151816009015561012082015181600a015561014082015181600b015561016082015181600c019060036108c59291906129f9565b509050506108d2336125b0565b80156108e357506108e2876125b0565b5b610922576040517f08c379a000000000000000000000000000000000000000000000000000000000815260040161091990613eff565b60405180910390fd5b600354600560003373ffffffffffffffffffffffffffffffffffffffff1673ffffffffffffffffffffffffffffffffffffffff16815260200190815260200160002081905550600354600560008973ffffffffffffffffffffffffffffffffffffffff1673ffffffffffffffffffffffffffffffffffffffff1681526020019081526020016000208190555060035491508673ffffffffffffffffffffffffffffffffffffffff163373ffffffffffffffffffffffffffffffffffffffff167f924d7492e89e2320415cf3dc9b3c1844a2ff30bca5eb7c40c2aa288c916b394960405160405180910390a360036000815480929190600101919050555060035491505095945050505050565b565b610a38612a93565b60046000600560003373ffffffffffffffffffffffffffffffffffffffff1673ffffffffffffffffffffffffffffffffffffffff168152602001908152602001600020548152602001908152602001600020604051806101800160405290816000820160009054906101000a900473ffffffffffffffffffffffffffffffffffffffff1673ffffffffffffffffffffffffffffffffffffffff1673ffffffffffffffffffffffffffffffffffffffff1681526020016001820160009054906101000a900473ffffffffffffffffffffffffffffffffffffffff1673ffffffffffffffffffffffffffffffffffffffff1673ffffffffffffffffffffffffffffffffffffffff1681526020016001820160149054906101000a900460ff166004811115610b6057fe5b6004811115610b6b57fe5b8152602001600282018054600181600116156101000203166002900480601f016020809104026020016040519081016040528092919081815260200182805460018160011615610100020316600290048015610c085780601f10610bdd57610100808354040283529160200191610c08565b820191906000526020600020905b815481529060010190602001808311610beb57829003601f168201915b505050505081526020016003820160009054906101000a900473ffffffffffffffffffffffffffffffffffffffff1673ffffffffffffffffffffffffffffffffffffffff1673ffffffffffffffffffffffffffffffffffffffff1681526020016004820160405180606001604052908160008201548152602001600182015481526020016002820154815250508152602001600782015481526020016008820160009054906101000a900460ff1615151515815260200160098201548152602001600a8201548152602001600b8201548152602001600c8201600380602002604051908101604052809291908260038015610d3e576020028201916000905b82829054906101000a900460ff1660ff1681526020019060010190602082600001049283019260010382029150808411610d075790505b505050505081525050905090565b8061101157600060046000600560003373ffffffffffffffffffffffffffffffffffffffff1673ffffffffffffffffffffffffffffffffffffffff16815260200190815260200160002054815260200190815260200160002090503373ffffffffffffffffffffffffffffffffffffffff168160010160009054906101000a900473ffffffffffffffffffffffffffffffffffffffff1673ffffffffffffffffffffffffffffffffffffffff1614610e0357600080fd5b60008160080160006101000a81548160ff02191690831515021790555060048160010160146101000a81548160ff02191690836004811115610e4157fe5b02179055506000600560008360000160009054906101000a900473ffffffffffffffffffffffffffffffffffffffff1673ffffffffffffffffffffffffffffffffffffffff1673ffffffffffffffffffffffffffffffffffffffff168152602001908152602001600020819055506000600560008360010160009054906101000a900473ffffffffffffffffffffffffffffffffffffffff1673ffffffffffffffffffffffffffffffffffffffff1673ffffffffffffffffffffffffffffffffffffffff168152602001908152602001600020819055506000600560003373ffffffffffffffffffffffffffffffffffffffff1673ffffffffffffffffffffffffffffffffffffffff168152602001908152602001600020819055508060010160009054906101000a900473ffffffffffffffffffffffffffffffffffffffff1673ffffffffffffffffffffffffffffffffffffffff168160000160009054906101000a900473ffffffffffffffffffffffffffffffffffffffff1673ffffffffffffffffffffffffffffffffffffffff167f8f46d051ff9b2597fea8c60146bef33969de64edef522f8e1e927f117cb408b660006040516110039190613e84565b60405180910390a3506111db565b600060046000600560003373ffffffffffffffffffffffffffffffffffffffff1673ffffffffffffffffffffffffffffffffffffffff16815260200190815260200160002054815260200190815260200160002090508060040160020154341461107a57600080fd5b3373ffffffffffffffffffffffffffffffffffffffff168160010160009054906101000a900473ffffffffffffffffffffffffffffffffffffffff1673ffffffffffffffffffffffffffffffffffffffff16146110d657600080fd5b60018160080160006101000a81548160ff02191690831515021790555060028160010160146101000a81548160ff0219169083600481111561111457fe5b02179055503481600701600082825401925050819055508060010160009054906101000a900473ffffffffffffffffffffffffffffffffffffffff1673ffffffffffffffffffffffffffffffffffffffff168160000160009054906101000a900473ffffffffffffffffffffffffffffffffffffffff1673ffffffffffffffffffffffffffffffffffffffff167f8f46d051ff9b2597fea8c60146bef33969de64edef522f8e1e927f117cb408b660016040516111d19190613e84565b60405180910390a3505b50565b6111e6612a93565b60046000838152602001908152602001600020604051806101800160405290816000820160009054906101000a900473ffffffffffffffffffffffffffffffffffffffff1673ffffffffffffffffffffffffffffffffffffffff1673ffffffffffffffffffffffffffffffffffffffff1681526020016001820160009054906101000a900473ffffffffffffffffffffffffffffffffffffffff1673ffffffffffffffffffffffffffffffffffffffff1673ffffffffffffffffffffffffffffffffffffffff1681526020016001820160149054906101000a900460ff1660048111156112cf57fe5b60048111156112da57fe5b8152602001600282018054600181600116156101000203166002900480601f0160208091040260200160405190810160405280929190818152602001828054600181600116156101000203166002900480156113775780601f1061134c57610100808354040283529160200191611377565b820191906000526020600020905b81548152906001019060200180831161135a57829003601f168201915b505050505081526020016003820160009054906101000a900473ffffffffffffffffffffffffffffffffffffffff1673ffffffffffffffffffffffffffffffffffffffff1673ffffffffffffffffffffffffffffffffffffffff1681526020016004820160405180606001604052908160008201548152602001600182015481526020016002820154815250508152602001600782015481526020016008820160009054906101000a900460ff1615151515815260200160098201548152602001600a8201548152602001600b8201548152602001600c82016003806020026040519081016040528092919082600380156114ad576020028201916000905b82829054906101000a900460ff1660ff16815260200190600101906020826000010492830192600103820291508084116114765790505b5050505050815250509050919050565b6000600160035403905090565b600082905060046000600560003373ffffffffffffffffffffffffffffffffffffffff1673ffffffffffffffffffffffffffffffffffffffff16815260200190815260200160002054815260200190815260200160002060080160009054906101000a900460ff16611571576040517f08c379a000000000000000000000000000000000000000000000000000000000815260040161156890613f1f565b60405180910390fd5b600060046000600560003373ffffffffffffffffffffffffffffffffffffffff1673ffffffffffffffffffffffffffffffffffffffff16815260200190815260200160002054815260200190815260200160002090506000816002018054600181600116156101000203166002900480601f0160208091040260200160405190810160405280929190818152602001828054600181600116156101000203166002900480156116615780601f1061163657610100808354040283529160200191611661565b820191906000526020600020905b81548152906001019060200180831161164457829003601f168201915b505050505090506116b0600560003373ffffffffffffffffffffffffffffffffffffffff1673ffffffffffffffffffffffffffffffffffffffff16815260200190815260200160002054611e95565b1561171257338260030160006101000a81548173ffffffffffffffffffffffffffffffffffffffff021916908373ffffffffffffffffffffffffffffffffffffffff1602179055508282600201908051906020019061171092919061296b565b505b600061175c600560003373ffffffffffffffffffffffffffffffffffffffff1673ffffffffffffffffffffffffffffffffffffffff1681526020019081526020016000205461223e565b90508483600c019060036117719291906129f9565b50816040516117809190613d89565b60405180910390208173ffffffffffffffffffffffffffffffffffffffff163373ffffffffffffffffffffffffffffffffffffffff167fd1e88d8a162ba03d28cf0e268bcfebfe6d51c2f088cbeae224a28fea79bab637866040516117e59190613f61565b60405180910390a4505050505050565b600060046000600560003373ffffffffffffffffffffffffffffffffffffffff1673ffffffffffffffffffffffffffffffffffffffff168152602001908152602001600020548152602001908152602001600020604051806101800160405290816000820160009054906101000a900473ffffffffffffffffffffffffffffffffffffffff1673ffffffffffffffffffffffffffffffffffffffff1673ffffffffffffffffffffffffffffffffffffffff1681526020016001820160009054906101000a900473ffffffffffffffffffffffffffffffffffffffff1673ffffffffffffffffffffffffffffffffffffffff1673ffffffffffffffffffffffffffffffffffffffff1681526020016001820160149054906101000a900460ff16600481111561191f57fe5b600481111561192a57fe5b8152602001600282018054600181600116156101000203166002900480601f0160208091040260200160405190810160405280929190818152602001828054600181600116156101000203166002900480156119c75780601f1061199c576101008083540402835291602001916119c7565b820191906000526020600020905b8154815290600101906020018083116119aa57829003601f168201915b505050505081526020016003820160009054906101000a900473ffffffffffffffffffffffffffffffffffffffff1673ffffffffffffffffffffffffffffffffffffffff1673ffffffffffffffffffffffffffffffffffffffff1681526020016004820160405180606001604052908160008201548152602001600182015481526020016002820154815250508152602001600782015481526020016008820160009054906101000a900460ff1615151515815260200160098201548152602001600a8201548152602001600b8201548152602001600c8201600380602002604051908101604052809291908260038015611afd576020028201916000905b82829054906101000a900460ff1660ff1681526020019060010190602082600001049283019260010382029150808411611ac65790505b50505050508152505090508060e00151158015611b215750428160a0015160200151105b8015611b5c5750806000015173ffffffffffffffffffffffffffffffffffffffff163373ffffffffffffffffffffffffffffffffffffffff16145b15611d1157600060056000836000015173ffffffffffffffffffffffffffffffffffffffff1673ffffffffffffffffffffffffffffffffffffffff16815260200190815260200160002081905550600060056000836020015173ffffffffffffffffffffffffffffffffffffffff1673ffffffffffffffffffffffffffffffffffffffff16815260200190815260200160002081905550600060638260a001516040015181611c0757fe5b048260a001516040015103905060003373ffffffffffffffffffffffffffffffffffffffff1682604051611c3a90613da0565b60006040518083038185875af1925050503d8060008114611c77576040519150601f19603f3d011682016040523d82523d6000602084013e611c7c565b606091505b5050905080611cc0576040517f08c379a0000000000000000000000000000000000000000000000000000000008152600401611cb790613ebf565b60405180910390fd5b3373ffffffffffffffffffffffffffffffffffffffff167f38658d3cef5cc44cbe180db715b3888e2a3b59e21b5ed1193b79a8c33dd292c683604051611d069190613f83565b60405180910390a250505b50565b600160009054906101000a900473ffffffffffffffffffffffffffffffffffffffff1673ffffffffffffffffffffffffffffffffffffffff163373ffffffffffffffffffffffffffffffffffffffff161480611dbd5750600260009054906101000a900473ffffffffffffffffffffffffffffffffffffffff1673ffffffffffffffffffffffffffffffffffffffff163373ffffffffffffffffffffffffffffffffffffffff16145b80611e13575060008054906101000a900473ffffffffffffffffffffffffffffffffffffffff1673ffffffffffffffffffffffffffffffffffffffff163373ffffffffffffffffffffffffffffffffffffffff16145b611e52576040517f08c379a0000000000000000000000000000000000000000000000000000000008152600401611e4990613edf565b60405180910390fd5b806000806101000a81548173ffffffffffffffffffffffffffffffffffffffff021916908373ffffffffffffffffffffffffffffffffffffffff16021790555050565b60008060046000848152602001908152602001600020604051806101800160405290816000820160009054906101000a900473ffffffffffffffffffffffffffffffffffffffff1673ffffffffffffffffffffffffffffffffffffffff1673ffffffffffffffffffffffffffffffffffffffff1681526020016001820160009054906101000a900473ffffffffffffffffffffffffffffffffffffffff1673ffffffffffffffffffffffffffffffffffffffff1673ffffffffffffffffffffffffffffffffffffffff1681526020016001820160149054906101000a900460ff166004811115611f8157fe5b6004811115611f8c57fe5b8152602001600282018054600181600116156101000203166002900480601f0160208091040260200160405190810160405280929190818152602001828054600181600116156101000203166002900480156120295780601f10611ffe57610100808354040283529160200191612029565b820191906000526020600020905b81548152906001019060200180831161200c57829003601f168201915b505050505081526020016003820160009054906101000a900473ffffffffffffffffffffffffffffffffffffffff1673ffffffffffffffffffffffffffffffffffffffff1673ffffffffffffffffffffffffffffffffffffffff1681526020016004820160405180606001604052908160008201548152602001600182015481526020016002820154815250508152602001600782015481526020016008820160009054906101000a900460ff1615151515815260200160098201548152602001600a8201548152602001600b8201548152602001600c820160038060200260405190810160405280929190826003801561215f576020028201916000905b82829054906101000a900460ff1660ff16815260200190600101906020826000010492830192600103820291508084116121285790505b505050505081525050905060006002600481111561217957fe5b8260400151600481111561218957fe5b14806121af57506001600481111561219d57fe5b826040015160048111156121ad57fe5b145b90506000826080015173ffffffffffffffffffffffffffffffffffffffff163373ffffffffffffffffffffffffffffffffffffffff16141590508180156121f35750805b612232576040517f08c379a000000000000000000000000000000000000000000000000000000000815260040161222990613e9f565b60405180910390fd5b60019350505050919050565b60008060046000848152602001908152602001600020604051806101800160405290816000820160009054906101000a900473ffffffffffffffffffffffffffffffffffffffff1673ffffffffffffffffffffffffffffffffffffffff1673ffffffffffffffffffffffffffffffffffffffff1681526020016001820160009054906101000a900473ffffffffffffffffffffffffffffffffffffffff1673ffffffffffffffffffffffffffffffffffffffff1673ffffffffffffffffffffffffffffffffffffffff1681526020016001820160149054906101000a900460ff16600481111561232a57fe5b600481111561233557fe5b8152602001600282018054600181600116156101000203166002900480601f0160208091040260200160405190810160405280929190818152602001828054600181600116156101000203166002900480156123d25780601f106123a7576101008083540402835291602001916123d2565b820191906000526020600020905b8154815290600101906020018083116123b557829003601f168201915b505050505081526020016003820160009054906101000a900473ffffffffffffffffffffffffffffffffffffffff1673ffffffffffffffffffffffffffffffffffffffff1673ffffffffffffffffffffffffffffffffffffffff1681526020016004820160405180606001604052908160008201548152602001600182015481526020016002820154815250508152602001600782015481526020016008820160009054906101000a900460ff1615151515815260200160098201548152602001600a8201548152602001600b8201548152602001600c8201600380602002604051908101604052809291908260038015612508576020028201916000905b82829054906101000a900460ff1660ff16815260200190600101906020826000010492830192600103820291508084116124d15790505b505050505081525050905082600560003373ffffffffffffffffffffffffffffffffffffffff1673ffffffffffffffffffffffffffffffffffffffff168152602001908152602001600020541461255e57600080fd5b3373ffffffffffffffffffffffffffffffffffffffff16816000015173ffffffffffffffffffffffffffffffffffffffff1614156125a257806020015191506125aa565b806000015191505b50919050565b60008060046000600560008673ffffffffffffffffffffffffffffffffffffffff1673ffffffffffffffffffffffffffffffffffffffff168152602001908152602001600020548152602001908152602001600020604051806101800160405290816000820160009054906101000a900473ffffffffffffffffffffffffffffffffffffffff1673ffffffffffffffffffffffffffffffffffffffff1673ffffffffffffffffffffffffffffffffffffffff1681526020016001820160009054906101000a900473ffffffffffffffffffffffffffffffffffffffff1673ffffffffffffffffffffffffffffffffffffffff1673ffffffffffffffffffffffffffffffffffffffff1681526020016001820160149054906101000a900460ff1660048111156126db57fe5b60048111156126e657fe5b8152602001600282018054600181600116156101000203166002900480601f0160208091040260200160405190810160405280929190818152602001828054600181600116156101000203166002900480156127835780601f1061275857610100808354040283529160200191612783565b820191906000526020600020905b81548152906001019060200180831161276657829003601f168201915b505050505081526020016003820160009054906101000a900473ffffffffffffffffffffffffffffffffffffffff1673ffffffffffffffffffffffffffffffffffffffff1673ffffffffffffffffffffffffffffffffffffffff1681526020016004820160405180606001604052908160008201548152602001600182015481526020016002820154815250508152602001600782015481526020016008820160009054906101000a900460ff1615151515815260200160098201548152602001600a8201548152602001600b8201548152602001600c82016003806020026040519081016040528092919082600380156128b9576020028201916000905b82829054906101000a900460ff1660ff16815260200190600101906020826000010492830192600103820291508084116128825790505b5050505050815250509050600360048111156128d157fe5b816040015160048111156128e157fe5b14806129075750600060048111156128f557fe5b8160400151600481111561290557fe5b145b8061295157506000600560008573ffffffffffffffffffffffffffffffffffffffff1673ffffffffffffffffffffffffffffffffffffffff16815260200190815260200160002054145b15612960576001915050612966565b60009150505b919050565b828054600181600116156101000203166002900490600052602060002090601f0160209004810192826129a157600085556129e8565b82601f106129ba57805160ff19168380011785556129e8565b828001600101855582156129e8579182015b828111156129e75782518255916020019190600101906129cc565b5b5090506129f59190612b4f565b5090565b826003601f01602090048101928215612a825791602002820160005b83821115612a5357835183826101000a81548160ff021916908360ff1602179055509260200192600101602081600001049283019260010302612a15565b8015612a805782816101000a81549060ff0219169055600101602081600001049283019260010302612a53565b505b509050612a8f9190612b4f565b5090565b604051806101800160405280600073ffffffffffffffffffffffffffffffffffffffff168152602001600073ffffffffffffffffffffffffffffffffffffffff16815260200160006004811115612ae657fe5b815260200160608152602001600073ffffffffffffffffffffffffffffffffffffffff168152602001612b17612b6c565b815260200160008152602001600015158152602001600081526020016000815260200160008152602001612b49612b8d565b81525090565b5b80821115612b68576000816000905550600101612b50565b5090565b60405180606001604052806000815260200160008152602001600081525090565b6040518060600160405280600390602082028036833780820191505090505090565b6000612bc2612bbd84613fcf565b613f9e565b90508082856020860282011115612bd857600080fd5b60005b85811015612c085781612bee8882612cf5565b845260208401935060208301925050600181019050612bdb565b5050509392505050565b6000612c25612c2084613ff5565b613f9e565b905082815260208101848484011115612c3d57600080fd5b612c488482856141ce565b509392505050565b600081359050612c5f8161477f565b92915050565b600082601f830112612c7657600080fd5b6003612c83848285612baf565b91505092915050565b600081359050612c9b81614796565b92915050565b600082601f830112612cb257600080fd5b8135612cc2848260208601612c12565b91505092915050565b600081359050612cda816147ad565b92915050565b600081359050612cef816147c4565b92915050565b600081359050612d04816147db565b92915050565b600060208284031215612d1c57600080fd5b6000612d2a84828501612c50565b91505092915050565b600080600080600060a08688031215612d4b57600080fd5b6000612d5988828901612c50565b9550506020612d6a88828901612ccb565b9450506040612d7b88828901612ce0565b9350506060612d8c88828901612ce0565b925050608086013567ffffffffffffffff811115612da957600080fd5b612db588828901612ca1565b9150509295509295909350565b600060208284031215612dd457600080fd5b6000612de284828501612c8c565b91505092915050565b60008060808385031215612dfe57600080fd5b600083013567ffffffffffffffff811115612e1857600080fd5b612e2485828601612ca1565b9250506020612e3585828601612c65565b9150509250929050565b600060208284031215612e5157600080fd5b6000612e5f84828501612ce0565b91505092915050565b6000612e748383613d7a565b60208301905092915050565b612e8981614186565b82525050565b612e9881614110565b82525050565b612ea781614110565b82525050565b612eb68161404e565b612ec0818461407c565b9250612ecb82614025565b8060005b83811015612efc578151612ee38782612e68565b9650612eee8361406f565b925050600181019050612ecf565b505050505050565b612f0d81614059565b612f17818461407c565b925082612f238361402f565b6000801561324f575b8360016020038201101561324e578154612f4e87612f498361425e565b613d7a565b602087019650612f6687612f618361437c565b613d7a565b602087019650612f7e87612f79836144b4565b613d7a565b602087019650612f9687612f9183614502565b613d7a565b602087019650612fae87612fa98361451c565b613d7a565b602087019650612fc687612fc183614536565b613d7a565b602087019650612fde87612fd983614550565b613d7a565b602087019650612ff687612ff18361456a565b613d7a565b60208701965061300e8761300983614584565b613d7a565b602087019650613026876130218361459e565b613d7a565b60208701965061303e8761303983614278565b613d7a565b6020870196506130568761305183614292565b613d7a565b60208701965061306e87613069836142ac565b613d7a565b60208701965061308687613081836142c6565b613d7a565b60208701965061309e87613099836142e0565b613d7a565b6020870196506130b6876130b1836142fa565b613d7a565b6020870196506130ce876130c983614314565b613d7a565b6020870196506130e6876130e18361432e565b613d7a565b6020870196506130fe876130f983614348565b613d7a565b6020870196506131168761311183614362565b613d7a565b60208701965061312e87613129836143b0565b613d7a565b60208701965061314687613141836143ca565b613d7a565b60208701965061315e87613159836143e4565b613d7a565b60208701965061317687613171836143fe565b613d7a565b60208701965061318e8761318983614418565b613d7a565b6020870196506131a6876131a183614432565b613d7a565b6020870196506131be876131b98361444c565b613d7a565b6020870196506131d6876131d183614466565b613d7a565b6020870196506131ee876131e983614480565b613d7a565b602087019650613206876132018361449a565b613d7a565b60208701965061321e87613219836144ce565b613d7a565b60208701965061323687613231836144e8565b613d7a565b60208701965060018301925050602081019050612f2c565b5b60011561371a57815460011561327e576132718761326c8361425e565b613d7a565b6020870196506001820191505b6001156132a457613297876132928361437c565b613d7a565b6020870196506001820191505b6001156132ca576132bd876132b8836144b4565b613d7a565b6020870196506001820191505b6000156132f0576132e3876132de83614502565b613d7a565b6020870196506001820191505b60001561331657613309876133048361451c565b613d7a565b6020870196506001820191505b60001561333c5761332f8761332a83614536565b613d7a565b6020870196506001820191505b600015613362576133558761335083614550565b613d7a565b6020870196506001820191505b6000156133885761337b876133768361456a565b613d7a565b6020870196506001820191505b6000156133ae576133a18761339c83614584565b613d7a565b6020870196506001820191505b6000156133d4576133c7876133c28361459e565b613d7a565b6020870196506001820191505b6000156133fa576133ed876133e883614278565b613d7a565b6020870196506001820191505b600015613420576134138761340e83614292565b613d7a565b6020870196506001820191505b6000156134465761343987613434836142ac565b613d7a565b6020870196506001820191505b60001561346c5761345f8761345a836142c6565b613d7a565b6020870196506001820191505b6000156134925761348587613480836142e0565b613d7a565b6020870196506001820191505b6000156134b8576134ab876134a6836142fa565b613d7a565b6020870196506001820191505b6000156134de576134d1876134cc83614314565b613d7a565b6020870196506001820191505b600015613504576134f7876134f28361432e565b613d7a565b6020870196506001820191505b60001561352a5761351d8761351883614348565b613d7a565b6020870196506001820191505b600015613550576135438761353e83614362565b613d7a565b6020870196506001820191505b6000156135765761356987613564836143b0565b613d7a565b6020870196506001820191505b60001561359c5761358f8761358a836143ca565b613d7a565b6020870196506001820191505b6000156135c2576135b5876135b0836143e4565b613d7a565b6020870196506001820191505b6000156135e8576135db876135d6836143fe565b613d7a565b6020870196506001820191505b60001561360e57613601876135fc83614418565b613d7a565b6020870196506001820191505b600015613634576136278761362283614432565b613d7a565b6020870196506001820191505b60001561365a5761364d876136488361444c565b613d7a565b6020870196506001820191505b600015613680576136738761366e83614466565b613d7a565b6020870196506001820191505b6000156136a6576136998761369483614480565b613d7a565b6020870196506001820191505b6000156136cc576136bf876136ba8361449a565b613d7a565b6020870196506001820191505b6000156136f2576136e5876136e0836144ce565b613d7a565b6020870196506001820191505b6000156137185761370b87613706836144e8565b613d7a565b6020870196506001820191505b505b505050505050565b61372b81614122565b82525050565b61373a81614122565b82525050565b61374981614198565b82525050565b61375881614198565b82525050565b600061376982614064565b6137738185614092565b93506137838185602086016141dd565b61378c816145ba565b840191505092915050565b60006137a282614064565b6137ac81856140a3565b93506137bc8185602086016141dd565b6137c5816145ba565b840191505092915050565b60006137db82614064565b6137e581856140b4565b93506137f58185602086016141dd565b80840191505092915050565b60008154600181166000811461381e576001811461384457613888565b607f600283041661382f8187614092565b955060ff198316865260208601935050613888565b600282046138528187614092565b955061385d85614039565b60005b8281101561387f57815481890152600182019150602081019050613860565b80880195505050505b505092915050565b600061389d6018836140a3565b91507f47616d652053746174653a20556e617661696c61626c652e00000000000000006000830152602082019050919050565b60006138dd600e836140a3565b91507f526566756e64206661696c65642e0000000000000000000000000000000000006000830152602082019050919050565b600061391d600c836140a3565b91507f4e6f7420616e204f776e657200000000000000000000000000000000000000006000830152602082019050919050565b600061395d602a836140a3565b91507f4f6e65206f662074686520706c61796572732068617320612067616d6520696e60008301527f2070726f67726573732e000000000000000000000000000000000000000000006020830152604082019050919050565b60006139c3601b836140a3565b91507f506c617965723220646964206e6f7420616363657074207965742e00000000006000830152602082019050919050565b6000613a03600083614087565b9150600082019050919050565b600061020083016000830151613a296000860182612e8f565b506020830151613a3c6020860182612e8f565b506040830151613a4f6040860182613740565b5060608301518482036060860152613a67828261375e565b9150506080830151613a7c6080860182612e8f565b5060a0830151613a8f60a0860182613c73565b5060c0830151613aa3610100860182613d5c565b5060e0830151613ab7610120860182613722565b50610100830151613acc610140860182613d5c565b50610120830151613ae1610160860182613d5c565b50610140830151613af6610180860182613d5c565b50610160830151613b0b6101a0860182612ead565b508091505092915050565b600061020083016000808401549050613b2e81614210565b613b3b6000870182612e8f565b5060018401549050613b4c81614210565b613b596020870182612e8f565b50613b6381614396565b613b706040870182613740565b50600284018583036060870152613b878382613801565b92505060038401549050613b9a81614210565b613ba76080870182612e8f565b5060048401613bb960a0870182613cf7565b5060078401549050613bca81614244565b613bd8610100870182613d5c565b5060088401549050613be98161422a565b613bf7610120870182613722565b5060098401549050613c0881614244565b613c16610140870182613d5c565b50600a8401549050613c2781614244565b613c35610160870182613d5c565b50600b8401549050613c4681614244565b613c54610180870182613d5c565b50600c8401613c676101a0870182612f04565b50819250505092915050565b606082016000820151613c896000850182613d5c565b506020820151613c9c6020850182613d5c565b506040820151613caf6040850182613d5c565b50505050565b606082016000820151613ccb6000850182613d5c565b506020820151613cde6020850182613d5c565b506040820151613cf16040850182613d5c565b50505050565b606082016000808301549050613d0c81614244565b613d196000860182613d5c565b5060018301549050613d2a81614244565b613d376020860182613d5c565b5060028301549050613d4881614244565b613d556040860182613d5c565b5050505050565b613d658161416f565b82525050565b613d748161416f565b82525050565b613d8381614179565b82525050565b6000613d9582846137d0565b915081905092915050565b6000613dab826139f6565b9150819050919050565b6000602082019050613dca6000830184612e80565b92915050565b60006101a082019050613de6600083018e612e9e565b613df3602083018d612e9e565b613e00604083018c61374f565b8181036060830152613e12818b613797565b9050613e21608083018a612e9e565b613e2e60a0830189613cb5565b613e3c610100830188613d6b565b613e4a610120830187613731565b613e58610140830186613d6b565b613e66610160830185613d6b565b613e74610180830184613d6b565b9c9b505050505050505050505050565b6000602082019050613e996000830184613731565b92915050565b60006020820190508181036000830152613eb881613890565b9050919050565b60006020820190508181036000830152613ed8816138d0565b9050919050565b60006020820190508181036000830152613ef881613910565b9050919050565b60006020820190508181036000830152613f1881613950565b9050919050565b60006020820190508181036000830152613f38816139b6565b9050919050565b60006020820190508181036000830152613f598184613a10565b905092915050565b60006020820190508181036000830152613f7b8184613b16565b905092915050565b6000602082019050613f986000830184613d6b565b92915050565b6000604051905081810181811067ffffffffffffffff82111715613fc557613fc46145b8565b5b8060405250919050565b600067ffffffffffffffff821115613fea57613fe96145b8565b5b602082029050919050565b600067ffffffffffffffff8211156140105761400f6145b8565b5b601f19601f8301169050602081019050919050565b6000819050919050565b6000819050919050565b60008190508160005260206000209050919050565b600060039050919050565b600060039050919050565b600081519050919050565b6000602082019050919050565b600081905092915050565b600081905092915050565b600082825260208201905092915050565b600082825260208201905092915050565b600081905092915050565b600073ffffffffffffffffffffffffffffffffffffffff82169050919050565b600060ff82169050919050565b600060ff82169050919050565b6000819050919050565b600060ff82169050919050565b600061411b8261414f565b9050919050565b60008115159050919050565b600081905061413c8261476b565b919050565b600061ffff82169050919050565b600073ffffffffffffffffffffffffffffffffffffffff82169050919050565b6000819050919050565b600060ff82169050919050565b6000614191826141aa565b9050919050565b60006141a38261412e565b9050919050565b60006141b5826141bc565b9050919050565b60006141c78261414f565b9050919050565b82818337600083830152505050565b60005b838110156141fb5780820151818401526020810190506141e0565b8381111561420a576000848401525b50505050565b600061422361421e836145cb565b6140bf565b9050919050565b600061423d614238836145cb565b6140df565b9050919050565b6000614257614252836145cb565b6140f9565b9050919050565b600061427161426c836145cb565b614103565b9050919050565b600061428b61428683614737565b614103565b9050919050565b60006142a56142a083614744565b614103565b9050919050565b60006142bf6142ba8361475e565b614103565b9050919050565b60006142d96142d4836145d8565b614103565b9050919050565b60006142f36142ee836145e5565b614103565b9050919050565b600061430d614308836145f2565b614103565b9050919050565b6000614327614322836145ff565b614103565b9050919050565b600061434161433c8361460c565b614103565b9050919050565b600061435b61435683614619565b614103565b9050919050565b600061437561437083614626565b614103565b9050919050565b600061438f61438a83614751565b614103565b9050919050565b60006143a96143a483614633565b6140ec565b9050919050565b60006143c36143be83614633565b614103565b9050919050565b60006143dd6143d883614640565b614103565b9050919050565b60006143f76143f28361465a565b614103565b9050919050565b600061441161440c83614667565b614103565b9050919050565b600061442b61442683614674565b614103565b9050919050565b600061444561444083614681565b614103565b9050919050565b600061445f61445a8361468e565b614103565b9050919050565b60006144796144748361469b565b614103565b9050919050565b600061449361448e836146a8565b614103565b9050919050565b60006144ad6144a8836146b5565b614103565b9050919050565b60006144c76144c28361464d565b614103565b9050919050565b60006144e16144dc836146c2565b614103565b9050919050565b60006144fb6144f6836146cf565b614103565b9050919050565b6000614515614510836146dc565b614103565b9050919050565b600061452f61452a836146e9565b614103565b9050919050565b6000614549614544836146f6565b614103565b9050919050565b600061456361455e83614703565b614103565b9050919050565b600061457d61457883614710565b614103565b9050919050565b60006145976145928361471d565b614103565b9050919050565b60006145b16145ac8361472a565b614103565b9050919050565bfe5b6000601f19601f8301169050919050565b60008160001c9050919050565b60008160681c9050919050565b60008160701c9050919050565b60008160781c9050919050565b60008160801c9050919050565b60008160881c9050919050565b60008160901c9050919050565b60008160981c9050919050565b60008160a01c9050919050565b60008160a81c9050919050565b60008160101c9050919050565b60008160b01c9050919050565b60008160b81c9050919050565b60008160c01c9050919050565b60008160c81c9050919050565b60008160d01c9050919050565b60008160d81c9050919050565b60008160e01c9050919050565b60008160e81c9050919050565b60008160f01c9050919050565b60008160f81c9050919050565b60008160181c9050919050565b60008160201c9050919050565b60008160281c9050919050565b60008160301c9050919050565b60008160381c9050919050565b60008160401c9050919050565b60008160481c9050919050565b60008160501c9050919050565b60008160581c9050919050565b60008160081c9050919050565b60008160601c9050919050565b6005811061477c5761477b6145b8565b5b50565b61478881614110565b811461479357600080fd5b50565b61479f81614122565b81146147aa57600080fd5b50565b6147b681614141565b81146147c157600080fd5b50565b6147cd8161416f565b81146147d857600080fd5b50565b6147e481614179565b81146147ef57600080fd5b5056fea26469706673582212205c774da8ab167e0258f7828a8f230256b4cdc139815ca835db963497f731f93464736f6c63430007060033",
  "immutableReferences": {},
  "source": "// SPDX-License-Identifier: MIT\n//pragma solidity >=0.4.22 <0.9.0;\npragma solidity >=0.7.0;\npragma experimental ABIEncoderV2;\n\ncontract GameContract {\n\n  address owner3;\n  address owner;\n  address owner2;\n  uint gameId;\n  \n//////// Constructor \n//compiler requires public\n  constructor() {\n    owner= msg.sender;\n    owner2= address(0x49A3e9f02E8b0a6076f8568361926D54d17730Cb);\n    gameId=1;\n  }\n\n   function setNewOwner(address _newOwner) isOwner external {\n     owner3= _newOwner;\n  }\n/////// Constructor END\n  \n  enum gameState {NoAssignedState, Staged, InProgress, Ended, Rejected }\n  \n  struct gameSettings {\n    uint totalTime;\n    uint timeoutTime;\n    uint wageSize; \n  }\n\n  struct gameData {\n    address playerOne;\n    address playerTwo;\n    gameState gState;\n    string currentGameBoard;\n    address lastMover;\n    gameSettings settings;\n    uint gameBalance;\n    bool player2accepted;\n    uint totalGameTime;\n    uint p1Time;\n    uint p2Time;\n    uint8[3] materialG;\n  }\n  \n  mapping (uint => gameData) public games; \n  mapping (address => uint) myLastGame;\n\n///////////BulkHudiStart\n\n  event newGameCreatedEvent(address indexed _playerOne, address indexed _playerTwo);\n\n////// Modifiers Start \n  modifier isOwner() {\n    require (msg.sender == owner|| msg.sender == owner2 || msg.sender == owner3, \"Not an Owner\");\n    _; \n  }\n\n  function otherPlayer(uint _gameId) view internal returns (address other) {\n    gameData memory thisGame = games[_gameId];\n    require(myLastGame[msg.sender]== _gameId);\n    if (thisGame.playerOne == msg.sender){\n      other= thisGame.playerTwo;\n    } else {\n      other= thisGame.playerOne;\n    }\n  }  \n\n  function onMoveStateCheck(uint _gameid ) internal view returns(bool) {\n    //do not need it, do I?\n    gameData memory game=games[_gameid];\n    bool g= (  game.gState == gameState.InProgress || game.gState == gameState.Staged  );\n    bool notLastMover = !(msg.sender == game.lastMover); \n    require( g && notLastMover , \"Game State: Unavailable.\" );\n    return true;\n  }\n\n  // function player2NotInAGame(uint _gameid) internal view returns (bool) {\n  //   gameData memory game = games[_gameId];\n  //   require(myLastGame[game.playerTwo] == 0, \"Player Two already in a game\");\n  //   return true;\n  // } \n\n  function noOtherGameOnCreate(address player) internal view returns(bool) {\n    gameData memory lastPlayerGame = games[myLastGame[player]]; \n\n    if( (lastPlayerGame.gState == gameState.Ended) || (lastPlayerGame.gState == gameState.NoAssignedState) || myLastGame[player] == 0 ){\n      return true;\n    } else {\n      return false;\n    }\n  }\n////// Modifiers END\n  function initializeGame(address _playerTwo,\n                          uint16 _totalTime,\n                          uint _timeoutTime,\n                          uint _wageSize,\n                          string memory _currentGameBoard\n                      ) public payable returns(uint justCreatedGameId) {\n    bool openGame;\n  \n    games[gameId]= gameData({\n                            playerOne: msg.sender,\n                            playerTwo: _playerTwo,\n                            gState: gameState.Staged,\n                            currentGameBoard:_currentGameBoard,\n                            lastMover: address(0),\n                            settings: gameSettings ({\n                                              totalTime: _totalTime,\n                                              timeoutTime:  block.timestamp + _timeoutTime * 1 minutes,\n                                              wageSize:  _wageSize }),\n                            gameBalance: msg.value,\n                            player2accepted: false,\n                            totalGameTime: _totalTime *2,\n                            p1Time: _totalTime,\n                            p2Time: _totalTime,\n                            materialG: [39,39,78]\n                            });\n//playerTwo is always white\n\n    require((noOtherGameOnCreate(msg.sender) && noOtherGameOnCreate(_playerTwo)), \"One of the players has a game in progress.\");\n    myLastGame[msg.sender]= gameId;\n    myLastGame[_playerTwo]= gameId;\n    \n    justCreatedGameId = gameId;\n  \n    emit newGameCreatedEvent(msg.sender,_playerTwo);\n    gameId++;\n\n    return gameId;\n  }\n\n  function getLastGameId() public view returns(uint) {\n    return gameId-1; \n  }\n\n  function getGame(uint gId) public view returns(gameData memory )  {\n      return games[gId];\n  }\n \n  function checkAndReturnCurrentGame() public view returns (gameData memory game) {\n    game= games[myLastGame[msg.sender]];\n   }\n\n    event gameCanceled(address indexed submittedby, uint refundedAmount);\n\n\n   function cancelGame() public payable {\n     gameData memory game = games[myLastGame[msg.sender]];\n     if((! game.player2accepted) && (game.settings.timeoutTime < block.timestamp) && (msg.sender == game.playerOne)) {\n      myLastGame[game.playerOne]= 0;\n      myLastGame[game.playerTwo]= 0; \n      uint refundAmount = game.settings.wageSize - (game.settings.wageSize / 99); \n      // a proper gas risk approch would be cool\n      // case: player2 accept on player1 cancel? unlikely - possible?\n      // a game balance mapping would be cool\n      (bool success, ) = msg.sender.call{value:refundAmount}(\"\");\n      require(success, \"Refund failed.\");  \n\n      emit gameCanceled(msg.sender, refundAmount);  \n    }\n   }\n  \n  event player2Accepted(address indexed _player1, address indexed _player2, bool _accepted);\n  \n  function timeOutforAccept() public {}\n\n  function playerTwoAccepted(bool _accepted) public payable  {\n    if (! _accepted) {\n      gameData storage game =  games[myLastGame[msg.sender]];\n      require(game.playerTwo == msg.sender);\n      game.player2accepted = false;\n      game.gState = gameState.Rejected;\n      //or cancel? w\\ no refund?\n      myLastGame[game.playerOne]= 0;\n      myLastGame[game.playerTwo]= 0;\n      //uint tenpercent = \n      myLastGame[msg.sender] = 0; \n      //(bool success,) = msg.sender.call.value(//%palyer1deposit/gascost)()\n      //norefund for now.\n      emit player2Accepted(game.playerOne, game.playerTwo, false);\n    } else {\n      gameData storage game = games[myLastGame[msg.sender]];\n      require(msg.value == game.settings.wageSize);\n      require(game.playerTwo == msg.sender);\n      game.player2accepted = true;\n      game.gState = gameState.InProgress;\n      game.gameBalance += msg.value;\n\n      emit player2Accepted(game.playerOne, game.playerTwo, true);\n    }\n  }\n  \n  \n  \n  event newMoveInGame(address indexed submittedby, address indexed otherPlayer, string indexed prevState, gameData current);\n\n  function submitMove(string memory _submittedMove, uint8[3] memory _material) public {\n\n    string memory submitted = _submittedMove;\n    require(games[myLastGame[msg.sender]].player2accepted, \"Player2 did not accept yet.\");\n    gameData storage game= games[myLastGame[msg.sender]]; \n    \n    string memory prevState= string(game.currentGameBoard);\n    if(onMoveStateCheck(myLastGame[msg.sender])) {\n      game.lastMover= msg.sender;\n      game.currentGameBoard = submitted; \n    }\n    address other = otherPlayer(myLastGame[msg.sender]); \n\n    game.materialG = _material;\n\n\n\n    emit newMoveInGame( msg.sender, other, string(prevState), game );\n  }\n\n\nevent playerResigned(address indexed submittedby, address indexed otherPlayer, address OtherPlayerNotLastMovedThatResigned);\n\n  function resignGame() public {\n    gameData storage game = games[myLastGame[msg.sender]];\n    \n    if ( onMoveStateCheck(myLastGame[msg.sender]) ) {\n\n      myLastGame[game.playerOne]= 0;\n      myLastGame[game.playerTwo] = 0;\n      //reverse order\n      emit playerResigned(msg.sender, otherPlayer(myLastGame[msg.sender]), msg.sender);    \n      \n    }\n  \n  }\n\n///////////BulkHudiEnd\n\nfunction calculateMaterialFenSplit(string memory rawFen) internal pure returns (int8[3] memory materialAdvantage){\n  //// can't really do this myself in solidity atm\n}\n\n\n\n\n\n\n\n\n}\n",
  "sourcePath": "/home/pbdesk2/Desktop/github/ChessWager/contracts/GameContract.sol",
  "compiler": {
    "name": "solc",
    "version": "0.7.6+commit.7338295f.Emscripten.clang"
  },
  "schemaVersion": "3.4.3",
  "updatedAt": "2021-09-30T16:11:21.478Z",
  "networkType": "ethereum",
  "devdoc": {
    "kind": "dev",
    "methods": {},
    "version": 1
  },
  "userdoc": {
    "kind": "user",
    "methods": {},
    "version": 1
  }
}