{
  "contractName": "GameContract",
  "abi": [
    {
      "inputs": [],
      "stateMutability": "nonpayable",
      "type": "constructor"
    },
    {
      "anonymous": false,
      "inputs": [
        {
          "indexed": true,
          "internalType": "address",
          "name": "submittedby",
          "type": "address"
        },
        {
          "indexed": false,
          "internalType": "uint256",
          "name": "refundedAmount",
          "type": "uint256"
        }
      ],
      "name": "gameCanceled",
      "type": "event"
    },
    {
      "anonymous": false,
      "inputs": [
        {
          "indexed": true,
          "internalType": "address",
          "name": "_playerOne",
          "type": "address"
        },
        {
          "indexed": true,
          "internalType": "address",
          "name": "_playerTwo",
          "type": "address"
        }
      ],
      "name": "newGameCreatedEvent",
      "type": "event"
    },
    {
      "anonymous": false,
      "inputs": [
        {
          "indexed": true,
          "internalType": "address",
          "name": "submittedby",
          "type": "address"
        },
        {
          "indexed": true,
          "internalType": "address",
          "name": "otherPlayer",
          "type": "address"
        },
        {
          "indexed": true,
          "internalType": "string",
          "name": "prevState",
          "type": "string"
        },
        {
          "components": [
            {
              "internalType": "address",
              "name": "playerOne",
              "type": "address"
            },
            {
              "internalType": "address",
              "name": "playerTwo",
              "type": "address"
            },
            {
              "internalType": "enum GameContract.gameState",
              "name": "gState",
              "type": "uint8"
            },
            {
              "internalType": "string",
              "name": "currentGameBoard",
              "type": "string"
            },
            {
              "internalType": "address",
              "name": "lastMover",
              "type": "address"
            },
            {
              "components": [
                {
                  "internalType": "uint16",
                  "name": "startsAt",
                  "type": "uint16"
                },
                {
                  "internalType": "bool",
                  "name": "openInvite",
                  "type": "bool"
                },
                {
                  "internalType": "uint256",
                  "name": "totalTime",
                  "type": "uint256"
                },
                {
                  "internalType": "uint256",
                  "name": "timeoutTime",
                  "type": "uint256"
                },
                {
                  "internalType": "uint256",
                  "name": "wageSize",
                  "type": "uint256"
                },
                {
                  "internalType": "uint8",
                  "name": "p1color",
                  "type": "uint8"
                },
                {
                  "internalType": "uint8",
                  "name": "p2color",
                  "type": "uint8"
                }
              ],
              "internalType": "struct GameContract.gameSettings",
              "name": "settings",
              "type": "tuple"
            },
            {
              "internalType": "uint256",
              "name": "gameBalance",
              "type": "uint256"
            },
            {
              "internalType": "bool",
              "name": "player2accepted",
              "type": "bool"
            }
          ],
          "indexed": false,
          "internalType": "struct GameContract.gameData",
          "name": "current",
          "type": "tuple"
        }
      ],
      "name": "newMoveInGame",
      "type": "event"
    },
    {
      "anonymous": false,
      "inputs": [
        {
          "indexed": true,
          "internalType": "address",
          "name": "_player1",
          "type": "address"
        },
        {
          "indexed": true,
          "internalType": "address",
          "name": "_player2",
          "type": "address"
        },
        {
          "indexed": false,
          "internalType": "bool",
          "name": "_accepted",
          "type": "bool"
        }
      ],
      "name": "player2Accepted",
      "type": "event"
    },
    {
      "anonymous": false,
      "inputs": [
        {
          "indexed": true,
          "internalType": "address",
          "name": "submittedby",
          "type": "address"
        },
        {
          "indexed": true,
          "internalType": "address",
          "name": "otherPlayer",
          "type": "address"
        },
        {
          "indexed": false,
          "internalType": "address",
          "name": "OtherPlayerNotLastMovedThatResigned",
          "type": "address"
        }
      ],
      "name": "playerResigned",
      "type": "event"
    },
    {
      "inputs": [
        {
          "internalType": "uint256",
          "name": "",
          "type": "uint256"
        }
      ],
      "name": "games",
      "outputs": [
        {
          "internalType": "address",
          "name": "playerOne",
          "type": "address"
        },
        {
          "internalType": "address",
          "name": "playerTwo",
          "type": "address"
        },
        {
          "internalType": "enum GameContract.gameState",
          "name": "gState",
          "type": "uint8"
        },
        {
          "internalType": "string",
          "name": "currentGameBoard",
          "type": "string"
        },
        {
          "internalType": "address",
          "name": "lastMover",
          "type": "address"
        },
        {
          "components": [
            {
              "internalType": "uint16",
              "name": "startsAt",
              "type": "uint16"
            },
            {
              "internalType": "bool",
              "name": "openInvite",
              "type": "bool"
            },
            {
              "internalType": "uint256",
              "name": "totalTime",
              "type": "uint256"
            },
            {
              "internalType": "uint256",
              "name": "timeoutTime",
              "type": "uint256"
            },
            {
              "internalType": "uint256",
              "name": "wageSize",
              "type": "uint256"
            },
            {
              "internalType": "uint8",
              "name": "p1color",
              "type": "uint8"
            },
            {
              "internalType": "uint8",
              "name": "p2color",
              "type": "uint8"
            }
          ],
          "internalType": "struct GameContract.gameSettings",
          "name": "settings",
          "type": "tuple"
        },
        {
          "internalType": "uint256",
          "name": "gameBalance",
          "type": "uint256"
        },
        {
          "internalType": "bool",
          "name": "player2accepted",
          "type": "bool"
        }
      ],
      "stateMutability": "view",
      "type": "function",
      "constant": true
    },
    {
      "inputs": [
        {
          "internalType": "address",
          "name": "_newOwner",
          "type": "address"
        }
      ],
      "name": "setNewOwner",
      "outputs": [],
      "stateMutability": "nonpayable",
      "type": "function"
    },
    {
      "inputs": [
        {
          "internalType": "address",
          "name": "_playerTwo",
          "type": "address"
        },
        {
          "internalType": "uint16",
          "name": "_startsAt",
          "type": "uint16"
        },
        {
          "internalType": "uint16",
          "name": "_totalTime",
          "type": "uint16"
        },
        {
          "internalType": "uint256",
          "name": "_timeoutTime",
          "type": "uint256"
        },
        {
          "internalType": "uint256",
          "name": "_wageSize",
          "type": "uint256"
        },
        {
          "internalType": "string",
          "name": "_currentGameBoard",
          "type": "string"
        },
        {
          "internalType": "uint8",
          "name": "_p1color",
          "type": "uint8"
        },
        {
          "internalType": "uint8",
          "name": "_p2color",
          "type": "uint8"
        }
      ],
      "name": "initializeGame",
      "outputs": [
        {
          "internalType": "uint256",
          "name": "justCreatedGameId",
          "type": "uint256"
        }
      ],
      "stateMutability": "payable",
      "type": "function",
      "payable": true
    },
    {
      "inputs": [],
      "name": "getLastGameId",
      "outputs": [
        {
          "internalType": "uint256",
          "name": "",
          "type": "uint256"
        }
      ],
      "stateMutability": "view",
      "type": "function",
      "constant": true
    },
    {
      "inputs": [
        {
          "internalType": "uint256",
          "name": "gId",
          "type": "uint256"
        }
      ],
      "name": "getGame",
      "outputs": [
        {
          "components": [
            {
              "internalType": "address",
              "name": "playerOne",
              "type": "address"
            },
            {
              "internalType": "address",
              "name": "playerTwo",
              "type": "address"
            },
            {
              "internalType": "enum GameContract.gameState",
              "name": "gState",
              "type": "uint8"
            },
            {
              "internalType": "string",
              "name": "currentGameBoard",
              "type": "string"
            },
            {
              "internalType": "address",
              "name": "lastMover",
              "type": "address"
            },
            {
              "components": [
                {
                  "internalType": "uint16",
                  "name": "startsAt",
                  "type": "uint16"
                },
                {
                  "internalType": "bool",
                  "name": "openInvite",
                  "type": "bool"
                },
                {
                  "internalType": "uint256",
                  "name": "totalTime",
                  "type": "uint256"
                },
                {
                  "internalType": "uint256",
                  "name": "timeoutTime",
                  "type": "uint256"
                },
                {
                  "internalType": "uint256",
                  "name": "wageSize",
                  "type": "uint256"
                },
                {
                  "internalType": "uint8",
                  "name": "p1color",
                  "type": "uint8"
                },
                {
                  "internalType": "uint8",
                  "name": "p2color",
                  "type": "uint8"
                }
              ],
              "internalType": "struct GameContract.gameSettings",
              "name": "settings",
              "type": "tuple"
            },
            {
              "internalType": "uint256",
              "name": "gameBalance",
              "type": "uint256"
            },
            {
              "internalType": "bool",
              "name": "player2accepted",
              "type": "bool"
            }
          ],
          "internalType": "struct GameContract.gameData",
          "name": "",
          "type": "tuple"
        }
      ],
      "stateMutability": "view",
      "type": "function",
      "constant": true
    },
    {
      "inputs": [],
      "name": "checkAndReturnCurrentGame",
      "outputs": [
        {
          "components": [
            {
              "internalType": "address",
              "name": "playerOne",
              "type": "address"
            },
            {
              "internalType": "address",
              "name": "playerTwo",
              "type": "address"
            },
            {
              "internalType": "enum GameContract.gameState",
              "name": "gState",
              "type": "uint8"
            },
            {
              "internalType": "string",
              "name": "currentGameBoard",
              "type": "string"
            },
            {
              "internalType": "address",
              "name": "lastMover",
              "type": "address"
            },
            {
              "components": [
                {
                  "internalType": "uint16",
                  "name": "startsAt",
                  "type": "uint16"
                },
                {
                  "internalType": "bool",
                  "name": "openInvite",
                  "type": "bool"
                },
                {
                  "internalType": "uint256",
                  "name": "totalTime",
                  "type": "uint256"
                },
                {
                  "internalType": "uint256",
                  "name": "timeoutTime",
                  "type": "uint256"
                },
                {
                  "internalType": "uint256",
                  "name": "wageSize",
                  "type": "uint256"
                },
                {
                  "internalType": "uint8",
                  "name": "p1color",
                  "type": "uint8"
                },
                {
                  "internalType": "uint8",
                  "name": "p2color",
                  "type": "uint8"
                }
              ],
              "internalType": "struct GameContract.gameSettings",
              "name": "settings",
              "type": "tuple"
            },
            {
              "internalType": "uint256",
              "name": "gameBalance",
              "type": "uint256"
            },
            {
              "internalType": "bool",
              "name": "player2accepted",
              "type": "bool"
            }
          ],
          "internalType": "struct GameContract.gameData",
          "name": "game",
          "type": "tuple"
        }
      ],
      "stateMutability": "view",
      "type": "function",
      "constant": true
    },
    {
      "inputs": [],
      "name": "cancelGame",
      "outputs": [],
      "stateMutability": "payable",
      "type": "function",
      "payable": true
    },
    {
      "inputs": [],
      "name": "timeOutforAccept",
      "outputs": [],
      "stateMutability": "nonpayable",
      "type": "function"
    },
    {
      "inputs": [
        {
          "internalType": "bool",
          "name": "_accepted",
          "type": "bool"
        }
      ],
      "name": "playerTwoAccepted",
      "outputs": [],
      "stateMutability": "payable",
      "type": "function",
      "payable": true
    },
    {
      "inputs": [
        {
          "internalType": "string",
          "name": "_submittedMove",
          "type": "string"
        }
      ],
      "name": "submitMove",
      "outputs": [],
      "stateMutability": "nonpayable",
      "type": "function"
    },
    {
      "inputs": [],
      "name": "resignGame",
      "outputs": [],
      "stateMutability": "nonpayable",
      "type": "function"
    }
  ],
  "bytecode": "0x608060405234801561001057600080fd5b5033600160006101000a81548173ffffffffffffffffffffffffffffffffffffffff021916908373ffffffffffffffffffffffffffffffffffffffff1602179055507349a3e9f02e8b0a6076f8568361926d54d17730cb600260006101000a81548173ffffffffffffffffffffffffffffffffffffffff021916908373ffffffffffffffffffffffffffffffffffffffff16021790555060016003819055506139fd806100be6000396000f3fe60806040526004361061009c5760003560e01c80637ab2942b116100645780637ab2942b1461016c5780638c79a38c14610197578063a2f77bcc146101b3578063a35b6ec7146101f0578063d84c1ac91461021b578063f5a1f5b4146102255761009c565b80630800cb7e146100a1578063117a5b90146100b85780631ea8c3be146100fc5780635c0c3bb4146101255780636e1d3ba61461013c575b600080fd5b3480156100ad57600080fd5b506100b661024e565b005b3480156100c457600080fd5b506100df60048036038101906100da9190612d1f565b610473565b6040516100f3989796959493929190613470565b60405180910390f35b34801561010857600080fd5b50610123600480360381019061011e9190612cde565b61066a565b005b34801561013157600080fd5b5061013a610980565b005b61015660048036038101906101519190612beb565b610982565b60405161016391906135f6565b60405180910390f35b34801561017857600080fd5b50610181610dcb565b60405161018e91906135b2565b60405180910390f35b6101b160048036038101906101ac9190612cb5565b6110d3565b005b3480156101bf57600080fd5b506101da60048036038101906101d59190612d1f565b611565565b6040516101e791906135b2565b60405180910390f35b3480156101fc57600080fd5b50610205611830565b60405161021291906135f6565b60405180910390f35b61022361183d565b005b34801561023157600080fd5b5061024c60048036038101906102479190612bc2565b611d48565b005b600060046000600560003373ffffffffffffffffffffffffffffffffffffffff1673ffffffffffffffffffffffffffffffffffffffff16815260200190815260200160002054815260200190815260200160002090506102ec600560003373ffffffffffffffffffffffffffffffffffffffff1673ffffffffffffffffffffffffffffffffffffffff16815260200190815260200160002054611ec9565b15610470576000600560008360000160009054906101000a900473ffffffffffffffffffffffffffffffffffffffff1673ffffffffffffffffffffffffffffffffffffffff1673ffffffffffffffffffffffffffffffffffffffff168152602001908152602001600020819055506000600560008360010160009054906101000a900473ffffffffffffffffffffffffffffffffffffffff1673ffffffffffffffffffffffffffffffffffffffff1673ffffffffffffffffffffffffffffffffffffffff1681526020019081526020016000208190555061040b600560003373ffffffffffffffffffffffffffffffffffffffff1673ffffffffffffffffffffffffffffffffffffffff1681526020019081526020016000205461225e565b73ffffffffffffffffffffffffffffffffffffffff163373ffffffffffffffffffffffffffffffffffffffff167f2ebf0de5f8a94f0cb6835b17c86eb1fff68d7f0bb4857bfb28953adad5b7d44a336040516104679190613455565b60405180910390a35b50565b60046020528060005260406000206000915090508060000160009054906101000a900473ffffffffffffffffffffffffffffffffffffffff16908060010160009054906101000a900473ffffffffffffffffffffffffffffffffffffffff16908060010160149054906101000a900460ff1690806002018054600181600116156101000203166002900480601f01602080910402602001604051908101604052809291908181526020018280546001816001161561010002031660029004801561057e5780601f106105535761010080835404028352916020019161057e565b820191906000526020600020905b81548152906001019060200180831161056157829003601f168201915b5050505050908060030160009054906101000a900473ffffffffffffffffffffffffffffffffffffffff1690806004016040518060e00160405290816000820160009054906101000a900461ffff1661ffff1661ffff1681526020016000820160029054906101000a900460ff161515151581526020016001820154815260200160028201548152602001600382015481526020016004820160009054906101000a900460ff1660ff1660ff1681526020016004820160019054906101000a900460ff1660ff1660ff16815250509080600901549080600a0160009054906101000a900460ff16905088565b600081905060046000600560003373ffffffffffffffffffffffffffffffffffffffff1673ffffffffffffffffffffffffffffffffffffffff168152602001908152602001600020548152602001908152602001600020600a0160009054906101000a900460ff16610711576040517f08c379a000000000000000000000000000000000000000000000000000000000815260040161070890613592565b60405180910390fd5b600060046000600560003373ffffffffffffffffffffffffffffffffffffffff1673ffffffffffffffffffffffffffffffffffffffff16815260200190815260200160002054815260200190815260200160002090506000816002018054600181600116156101000203166002900480601f0160208091040260200160405190810160405280929190818152602001828054600181600116156101000203166002900480156108015780601f106107d657610100808354040283529160200191610801565b820191906000526020600020905b8154815290600101906020018083116107e457829003601f168201915b50505050509050610850600560003373ffffffffffffffffffffffffffffffffffffffff1673ffffffffffffffffffffffffffffffffffffffff16815260200190815260200160002054611ec9565b156108b257338260030160006101000a81548173ffffffffffffffffffffffffffffffffffffffff021916908373ffffffffffffffffffffffffffffffffffffffff160217905550828260020190805190602001906108b0929190612963565b505b60006108fc600560003373ffffffffffffffffffffffffffffffffffffffff1673ffffffffffffffffffffffffffffffffffffffff1681526020019081526020016000205461225e565b90508160405161090c9190613429565b60405180910390208173ffffffffffffffffffffffffffffffffffffffff163373ffffffffffffffffffffffffffffffffffffffff167fcc3ec9cef4ac1a84143185d2483ee137a865d645d58b64e50d2ac3df587c3bdb8660405161097191906135d4565b60405180910390a45050505050565b565b6000806040518061010001604052803373ffffffffffffffffffffffffffffffffffffffff1681526020018b73ffffffffffffffffffffffffffffffffffffffff168152602001600160048111156109d657fe5b8152602001868152602001600073ffffffffffffffffffffffffffffffffffffffff1681526020016040518060e001604052808c61ffff16815260200184151581526020018b61ffff168152602001603c8b02420181526020018981526020018760ff1681526020018660ff1681525081526020013481526020016000151581525060046000600354815260200190815260200160002060008201518160000160006101000a81548173ffffffffffffffffffffffffffffffffffffffff021916908373ffffffffffffffffffffffffffffffffffffffff16021790555060208201518160010160006101000a81548173ffffffffffffffffffffffffffffffffffffffff021916908373ffffffffffffffffffffffffffffffffffffffff16021790555060408201518160010160146101000a81548160ff02191690836004811115610b1f57fe5b02179055506060820151816002019080519060200190610b40929190612963565b5060808201518160030160006101000a81548173ffffffffffffffffffffffffffffffffffffffff021916908373ffffffffffffffffffffffffffffffffffffffff16021790555060a08201518160040160008201518160000160006101000a81548161ffff021916908361ffff16021790555060208201518160000160026101000a81548160ff02191690831515021790555060408201518160010155606082015181600201556080820151816003015560a08201518160040160006101000a81548160ff021916908360ff16021790555060c08201518160040160016101000a81548160ff021916908360ff160217905550505060c0820151816009015560e082015181600a0160006101000a81548160ff021916908315150217905550905050610c6c336125bc565b8015610c7d5750610c7c8a6125bc565b5b610cbc576040517f08c379a0000000000000000000000000000000000000000000000000000000008152600401610cb390613572565b60405180910390fd5b600354600560003373ffffffffffffffffffffffffffffffffffffffff1673ffffffffffffffffffffffffffffffffffffffff16815260200190815260200160002081905550600354600560008c73ffffffffffffffffffffffffffffffffffffffff1673ffffffffffffffffffffffffffffffffffffffff1681526020019081526020016000208190555060035491508973ffffffffffffffffffffffffffffffffffffffff163373ffffffffffffffffffffffffffffffffffffffff167f924d7492e89e2320415cf3dc9b3c1844a2ff30bca5eb7c40c2aa288c916b394960405160405180910390a360036000815480929190600101919050555060035491505098975050505050505050565b610dd36129f1565b60046000600560003373ffffffffffffffffffffffffffffffffffffffff1673ffffffffffffffffffffffffffffffffffffffff168152602001908152602001600020548152602001908152602001600020604051806101000160405290816000820160009054906101000a900473ffffffffffffffffffffffffffffffffffffffff1673ffffffffffffffffffffffffffffffffffffffff1673ffffffffffffffffffffffffffffffffffffffff1681526020016001820160009054906101000a900473ffffffffffffffffffffffffffffffffffffffff1673ffffffffffffffffffffffffffffffffffffffff1673ffffffffffffffffffffffffffffffffffffffff1681526020016001820160149054906101000a900460ff166004811115610efb57fe5b6004811115610f0657fe5b8152602001600282018054600181600116156101000203166002900480601f016020809104026020016040519081016040528092919081815260200182805460018160011615610100020316600290048015610fa35780601f10610f7857610100808354040283529160200191610fa3565b820191906000526020600020905b815481529060010190602001808311610f8657829003601f168201915b505050505081526020016003820160009054906101000a900473ffffffffffffffffffffffffffffffffffffffff1673ffffffffffffffffffffffffffffffffffffffff1673ffffffffffffffffffffffffffffffffffffffff168152602001600482016040518060e00160405290816000820160009054906101000a900461ffff1661ffff1661ffff1681526020016000820160029054906101000a900460ff161515151581526020016001820154815260200160028201548152602001600382015481526020016004820160009054906101000a900460ff1660ff1660ff1681526020016004820160019054906101000a900460ff1660ff1660ff1681525050815260200160098201548152602001600a820160009054906101000a900460ff161515151581525050905090565b8061139857600060046000600560003373ffffffffffffffffffffffffffffffffffffffff1673ffffffffffffffffffffffffffffffffffffffff16815260200190815260200160002054815260200190815260200160002090503373ffffffffffffffffffffffffffffffffffffffff168160010160009054906101000a900473ffffffffffffffffffffffffffffffffffffffff1673ffffffffffffffffffffffffffffffffffffffff161461118a57600080fd5b600081600a0160006101000a81548160ff02191690831515021790555060048160010160146101000a81548160ff021916908360048111156111c857fe5b02179055506000600560008360000160009054906101000a900473ffffffffffffffffffffffffffffffffffffffff1673ffffffffffffffffffffffffffffffffffffffff1673ffffffffffffffffffffffffffffffffffffffff168152602001908152602001600020819055506000600560008360010160009054906101000a900473ffffffffffffffffffffffffffffffffffffffff1673ffffffffffffffffffffffffffffffffffffffff1673ffffffffffffffffffffffffffffffffffffffff168152602001908152602001600020819055506000600560003373ffffffffffffffffffffffffffffffffffffffff1673ffffffffffffffffffffffffffffffffffffffff168152602001908152602001600020819055508060010160009054906101000a900473ffffffffffffffffffffffffffffffffffffffff1673ffffffffffffffffffffffffffffffffffffffff168160000160009054906101000a900473ffffffffffffffffffffffffffffffffffffffff1673ffffffffffffffffffffffffffffffffffffffff167f8f46d051ff9b2597fea8c60146bef33969de64edef522f8e1e927f117cb408b6600060405161138a91906134f7565b60405180910390a350611562565b600060046000600560003373ffffffffffffffffffffffffffffffffffffffff1673ffffffffffffffffffffffffffffffffffffffff16815260200190815260200160002054815260200190815260200160002090508060040160030154341461140157600080fd5b3373ffffffffffffffffffffffffffffffffffffffff168160010160009054906101000a900473ffffffffffffffffffffffffffffffffffffffff1673ffffffffffffffffffffffffffffffffffffffff161461145d57600080fd5b600181600a0160006101000a81548160ff02191690831515021790555060028160010160146101000a81548160ff0219169083600481111561149b57fe5b02179055503481600901600082825401925050819055508060010160009054906101000a900473ffffffffffffffffffffffffffffffffffffffff1673ffffffffffffffffffffffffffffffffffffffff168160000160009054906101000a900473ffffffffffffffffffffffffffffffffffffffff1673ffffffffffffffffffffffffffffffffffffffff167f8f46d051ff9b2597fea8c60146bef33969de64edef522f8e1e927f117cb408b6600160405161155891906134f7565b60405180910390a3505b50565b61156d6129f1565b60046000838152602001908152602001600020604051806101000160405290816000820160009054906101000a900473ffffffffffffffffffffffffffffffffffffffff1673ffffffffffffffffffffffffffffffffffffffff1673ffffffffffffffffffffffffffffffffffffffff1681526020016001820160009054906101000a900473ffffffffffffffffffffffffffffffffffffffff1673ffffffffffffffffffffffffffffffffffffffff1673ffffffffffffffffffffffffffffffffffffffff1681526020016001820160149054906101000a900460ff16600481111561165657fe5b600481111561166157fe5b8152602001600282018054600181600116156101000203166002900480601f0160208091040260200160405190810160405280929190818152602001828054600181600116156101000203166002900480156116fe5780601f106116d3576101008083540402835291602001916116fe565b820191906000526020600020905b8154815290600101906020018083116116e157829003601f168201915b505050505081526020016003820160009054906101000a900473ffffffffffffffffffffffffffffffffffffffff1673ffffffffffffffffffffffffffffffffffffffff1673ffffffffffffffffffffffffffffffffffffffff168152602001600482016040518060e00160405290816000820160009054906101000a900461ffff1661ffff1661ffff1681526020016000820160029054906101000a900460ff161515151581526020016001820154815260200160028201548152602001600382015481526020016004820160009054906101000a900460ff1660ff1660ff1681526020016004820160019054906101000a900460ff1660ff1660ff1681525050815260200160098201548152602001600a820160009054906101000a900460ff1615151515815250509050919050565b6000600160035403905090565b600060046000600560003373ffffffffffffffffffffffffffffffffffffffff1673ffffffffffffffffffffffffffffffffffffffff168152602001908152602001600020548152602001908152602001600020604051806101000160405290816000820160009054906101000a900473ffffffffffffffffffffffffffffffffffffffff1673ffffffffffffffffffffffffffffffffffffffff1673ffffffffffffffffffffffffffffffffffffffff1681526020016001820160009054906101000a900473ffffffffffffffffffffffffffffffffffffffff1673ffffffffffffffffffffffffffffffffffffffff1673ffffffffffffffffffffffffffffffffffffffff1681526020016001820160149054906101000a900460ff16600481111561196757fe5b600481111561197257fe5b8152602001600282018054600181600116156101000203166002900480601f016020809104026020016040519081016040528092919081815260200182805460018160011615610100020316600290048015611a0f5780601f106119e457610100808354040283529160200191611a0f565b820191906000526020600020905b8154815290600101906020018083116119f257829003601f168201915b505050505081526020016003820160009054906101000a900473ffffffffffffffffffffffffffffffffffffffff1673ffffffffffffffffffffffffffffffffffffffff1673ffffffffffffffffffffffffffffffffffffffff168152602001600482016040518060e00160405290816000820160009054906101000a900461ffff1661ffff1661ffff1681526020016000820160029054906101000a900460ff161515151581526020016001820154815260200160028201548152602001600382015481526020016004820160009054906101000a900460ff1660ff1660ff1681526020016004820160019054906101000a900460ff1660ff1660ff1681525050815260200160098201548152602001600a820160009054906101000a900460ff16151515158152505090508060e00151158015611b555750428160a0015160600151105b8015611b905750806000015173ffffffffffffffffffffffffffffffffffffffff163373ffffffffffffffffffffffffffffffffffffffff16145b15611d4557600060056000836000015173ffffffffffffffffffffffffffffffffffffffff1673ffffffffffffffffffffffffffffffffffffffff16815260200190815260200160002081905550600060056000836020015173ffffffffffffffffffffffffffffffffffffffff1673ffffffffffffffffffffffffffffffffffffffff16815260200190815260200160002081905550600060638260a001516080015181611c3b57fe5b048260a001516080015103905060003373ffffffffffffffffffffffffffffffffffffffff1682604051611c6e90613440565b60006040518083038185875af1925050503d8060008114611cab576040519150601f19603f3d011682016040523d82523d6000602084013e611cb0565b606091505b5050905080611cf4576040517f08c379a0000000000000000000000000000000000000000000000000000000008152600401611ceb90613532565b60405180910390fd5b3373ffffffffffffffffffffffffffffffffffffffff167f38658d3cef5cc44cbe180db715b3888e2a3b59e21b5ed1193b79a8c33dd292c683604051611d3a91906135f6565b60405180910390a250505b50565b600160009054906101000a900473ffffffffffffffffffffffffffffffffffffffff1673ffffffffffffffffffffffffffffffffffffffff163373ffffffffffffffffffffffffffffffffffffffff161480611df15750600260009054906101000a900473ffffffffffffffffffffffffffffffffffffffff1673ffffffffffffffffffffffffffffffffffffffff163373ffffffffffffffffffffffffffffffffffffffff16145b80611e47575060008054906101000a900473ffffffffffffffffffffffffffffffffffffffff1673ffffffffffffffffffffffffffffffffffffffff163373ffffffffffffffffffffffffffffffffffffffff16145b611e86576040517f08c379a0000000000000000000000000000000000000000000000000000000008152600401611e7d90613552565b60405180910390fd5b806000806101000a81548173ffffffffffffffffffffffffffffffffffffffff021916908373ffffffffffffffffffffffffffffffffffffffff16021790555050565b60008060046000848152602001908152602001600020604051806101000160405290816000820160009054906101000a900473ffffffffffffffffffffffffffffffffffffffff1673ffffffffffffffffffffffffffffffffffffffff1673ffffffffffffffffffffffffffffffffffffffff1681526020016001820160009054906101000a900473ffffffffffffffffffffffffffffffffffffffff1673ffffffffffffffffffffffffffffffffffffffff1673ffffffffffffffffffffffffffffffffffffffff1681526020016001820160149054906101000a900460ff166004811115611fb557fe5b6004811115611fc057fe5b8152602001600282018054600181600116156101000203166002900480601f01602080910402602001604051908101604052809291908181526020018280546001816001161561010002031660029004801561205d5780601f106120325761010080835404028352916020019161205d565b820191906000526020600020905b81548152906001019060200180831161204057829003601f168201915b505050505081526020016003820160009054906101000a900473ffffffffffffffffffffffffffffffffffffffff1673ffffffffffffffffffffffffffffffffffffffff1673ffffffffffffffffffffffffffffffffffffffff168152602001600482016040518060e00160405290816000820160009054906101000a900461ffff1661ffff1661ffff1681526020016000820160029054906101000a900460ff161515151581526020016001820154815260200160028201548152602001600382015481526020016004820160009054906101000a900460ff1660ff1660ff1681526020016004820160019054906101000a900460ff1660ff1660ff1681525050815260200160098201548152602001600a820160009054906101000a900460ff161515151581525050905060006002600481111561219957fe5b826040015160048111156121a957fe5b14806121cf5750600160048111156121bd57fe5b826040015160048111156121cd57fe5b145b90506000826080015173ffffffffffffffffffffffffffffffffffffffff163373ffffffffffffffffffffffffffffffffffffffff16141590508180156122135750805b612252576040517f08c379a000000000000000000000000000000000000000000000000000000000815260040161224990613512565b60405180910390fd5b60019350505050919050565b60008060046000848152602001908152602001600020604051806101000160405290816000820160009054906101000a900473ffffffffffffffffffffffffffffffffffffffff1673ffffffffffffffffffffffffffffffffffffffff1673ffffffffffffffffffffffffffffffffffffffff1681526020016001820160009054906101000a900473ffffffffffffffffffffffffffffffffffffffff1673ffffffffffffffffffffffffffffffffffffffff1673ffffffffffffffffffffffffffffffffffffffff1681526020016001820160149054906101000a900460ff16600481111561234a57fe5b600481111561235557fe5b8152602001600282018054600181600116156101000203166002900480601f0160208091040260200160405190810160405280929190818152602001828054600181600116156101000203166002900480156123f25780601f106123c7576101008083540402835291602001916123f2565b820191906000526020600020905b8154815290600101906020018083116123d557829003601f168201915b505050505081526020016003820160009054906101000a900473ffffffffffffffffffffffffffffffffffffffff1673ffffffffffffffffffffffffffffffffffffffff1673ffffffffffffffffffffffffffffffffffffffff168152602001600482016040518060e00160405290816000820160009054906101000a900461ffff1661ffff1661ffff1681526020016000820160029054906101000a900460ff161515151581526020016001820154815260200160028201548152602001600382015481526020016004820160009054906101000a900460ff1660ff1660ff1681526020016004820160019054906101000a900460ff1660ff1660ff1681525050815260200160098201548152602001600a820160009054906101000a900460ff161515151581525050905082600560003373ffffffffffffffffffffffffffffffffffffffff1673ffffffffffffffffffffffffffffffffffffffff168152602001908152602001600020541461256a57600080fd5b3373ffffffffffffffffffffffffffffffffffffffff16816000015173ffffffffffffffffffffffffffffffffffffffff1614156125ae57806020015191506125b6565b806000015191505b50919050565b60008060046000600560008673ffffffffffffffffffffffffffffffffffffffff1673ffffffffffffffffffffffffffffffffffffffff168152602001908152602001600020548152602001908152602001600020604051806101000160405290816000820160009054906101000a900473ffffffffffffffffffffffffffffffffffffffff1673ffffffffffffffffffffffffffffffffffffffff1673ffffffffffffffffffffffffffffffffffffffff1681526020016001820160009054906101000a900473ffffffffffffffffffffffffffffffffffffffff1673ffffffffffffffffffffffffffffffffffffffff1673ffffffffffffffffffffffffffffffffffffffff1681526020016001820160149054906101000a900460ff1660048111156126e757fe5b60048111156126f257fe5b8152602001600282018054600181600116156101000203166002900480601f01602080910402602001604051908101604052809291908181526020018280546001816001161561010002031660029004801561278f5780601f106127645761010080835404028352916020019161278f565b820191906000526020600020905b81548152906001019060200180831161277257829003601f168201915b505050505081526020016003820160009054906101000a900473ffffffffffffffffffffffffffffffffffffffff1673ffffffffffffffffffffffffffffffffffffffff1673ffffffffffffffffffffffffffffffffffffffff168152602001600482016040518060e00160405290816000820160009054906101000a900461ffff1661ffff1661ffff1681526020016000820160029054906101000a900460ff161515151581526020016001820154815260200160028201548152602001600382015481526020016004820160009054906101000a900460ff1660ff1660ff1681526020016004820160019054906101000a900460ff1660ff1660ff1681525050815260200160098201548152602001600a820160009054906101000a900460ff1615151515815250509050600360048111156128c957fe5b816040015160048111156128d957fe5b14806128ff5750600060048111156128ed57fe5b816040015160048111156128fd57fe5b145b8061294957506000600560008573ffffffffffffffffffffffffffffffffffffffff1673ffffffffffffffffffffffffffffffffffffffff16815260200190815260200160002054145b1561295857600191505061295e565b60009150505b919050565b828054600181600116156101000203166002900490600052602060002090601f01602090048101928261299957600085556129e0565b82601f106129b257805160ff19168380011785556129e0565b828001600101855582156129e0579182015b828111156129df5782518255916020019190600101906129c4565b5b5090506129ed9190612a8b565b5090565b604051806101000160405280600073ffffffffffffffffffffffffffffffffffffffff168152602001600073ffffffffffffffffffffffffffffffffffffffff16815260200160006004811115612a4457fe5b815260200160608152602001600073ffffffffffffffffffffffffffffffffffffffff168152602001612a75612aa8565b8152602001600081526020016000151581525090565b5b80821115612aa4576000816000905550600101612a8c565b5090565b6040518060e00160405280600061ffff168152602001600015158152602001600081526020016000815260200160008152602001600060ff168152602001600060ff1681525090565b6000612b04612aff84613642565b613611565b905082815260208101848484011115612b1c57600080fd5b612b278482856137e7565b509392505050565b600081359050612b3e81613954565b92915050565b600081359050612b538161396b565b92915050565b600082601f830112612b6a57600080fd5b8135612b7a848260208601612af1565b91505092915050565b600081359050612b9281613982565b92915050565b600081359050612ba781613999565b92915050565b600081359050612bbc816139b0565b92915050565b600060208284031215612bd457600080fd5b6000612be284828501612b2f565b91505092915050565b600080600080600080600080610100898b031215612c0857600080fd5b6000612c168b828c01612b2f565b9850506020612c278b828c01612b83565b9750506040612c388b828c01612b83565b9650506060612c498b828c01612b98565b9550506080612c5a8b828c01612b98565b94505060a089013567ffffffffffffffff811115612c7757600080fd5b612c838b828c01612b59565b93505060c0612c948b828c01612bad565b92505060e0612ca58b828c01612bad565b9150509295985092959890939650565b600060208284031215612cc757600080fd5b6000612cd584828501612b44565b91505092915050565b600060208284031215612cf057600080fd5b600082013567ffffffffffffffff811115612d0a57600080fd5b612d1684828501612b59565b91505092915050565b600060208284031215612d3157600080fd5b6000612d3f84828501612b98565b91505092915050565b612d518161379f565b82525050565b612d6081613729565b82525050565b612d6f81613729565b82525050565b612d7e8161373b565b82525050565b612d8d8161373b565b82525050565b612d9c816137b1565b82525050565b612dab816137b1565b82525050565b6000612dbc82613687565b612dc6818561369d565b9350612dd68185602086016137f6565b612ddf816138fb565b840191505092915050565b6000612df582613687565b612dff81856136ae565b9350612e0f8185602086016137f6565b612e18816138fb565b840191505092915050565b6000612e2e82613687565b612e3881856136bf565b9350612e488185602086016137f6565b80840191505092915050565b600081546001811660008114612e715760018114612e9757612edb565b607f6002830416612e82818761369d565b955060ff198316865260208601935050612edb565b60028204612ea5818761369d565b9550612eb085613672565b60005b82811015612ed257815481890152600182019150602081019050612eb3565b80880195505050505b505092915050565b6000612ef06018836136ae565b91507f47616d652053746174653a20556e617661696c61626c652e00000000000000006000830152602082019050919050565b6000612f30600e836136ae565b91507f526566756e64206661696c65642e0000000000000000000000000000000000006000830152602082019050919050565b6000612f70600c836136ae565b91507f4e6f7420616e204f776e657200000000000000000000000000000000000000006000830152602082019050919050565b6000612fb0602a836136ae565b91507f4f6e65206f662074686520706c61796572732068617320612067616d6520696e60008301527f2070726f67726573732e000000000000000000000000000000000000000000006020830152604082019050919050565b6000613016601b836136ae565b91507f506c617965723220646964206e6f7420616363657074207965742e00000000006000830152602082019050919050565b6000613056600083613692565b9150600082019050919050565b60006101c08301600083015161307c6000860182612d57565b50602083015161308f6020860182612d57565b5060408301516130a26040860182612d93565b50606083015184820360608601526130ba8282612db1565b91505060808301516130cf6080860182612d57565b5060a08301516130e260a0860182613202565b5060c08301516130f66101808601826133fc565b5060e083015161310a6101a0860182612d75565b508091505092915050565b60006101c08301600080840154905061312d81613829565b61313a6000870182612d57565b506001840154905061314b81613829565b6131586020870182612d57565b50613162816138c5565b61316f6040870182612d93565b506002840185830360608701526131868382612e54565b9250506003840154905061319981613829565b6131a66080870182612d57565b50600484016131b860a087018261331e565b50600984015490506131c981613877565b6131d76101808701826133fc565b50600a84015490506131e881613843565b6131f66101a0870182612d75565b50819250505092915050565b60e08201600082015161321860008501826133ed565b50602082015161322b6020850182612d75565b50604082015161323e60408501826133fc565b50606082015161325160608501826133fc565b50608082015161326460808501826133fc565b5060a082015161327760a085018261341a565b5060c082015161328a60c085018261341a565b50505050565b60e0820160008201516132a660008501826133ed565b5060208201516132b96020850182612d75565b5060408201516132cc60408501826133fc565b5060608201516132df60608501826133fc565b5060808201516132f260808501826133fc565b5060a082015161330560a085018261341a565b5060c082015161331860c085018261341a565b50505050565b60e0820160008083015490506133338161385d565b61334060008601826133ed565b5061334a816138df565b6133576020860182612d75565b506001830154905061336881613877565b61337560408601826133fc565b506002830154905061338681613877565b61339360608601826133fc565b50600383015490506133a481613877565b6133b160808601826133fc565b50600483015490506133c281613891565b6133cf60a086018261341a565b506133d9816138ab565b6133e660c086018261341a565b5050505050565b6133f68161375a565b82525050565b61340581613788565b82525050565b61341481613788565b82525050565b61342381613792565b82525050565b60006134358284612e23565b915081905092915050565b600061344b82613049565b9150819050919050565b600060208201905061346a6000830184612d48565b92915050565b60006101c082019050613486600083018b612d66565b613493602083018a612d66565b6134a06040830189612da2565b81810360608301526134b28188612dea565b90506134c16080830187612d66565b6134ce60a0830186613290565b6134dc61018083018561340b565b6134ea6101a0830184612d84565b9998505050505050505050565b600060208201905061350c6000830184612d84565b92915050565b6000602082019050818103600083015261352b81612ee3565b9050919050565b6000602082019050818103600083015261354b81612f23565b9050919050565b6000602082019050818103600083015261356b81612f63565b9050919050565b6000602082019050818103600083015261358b81612fa3565b9050919050565b600060208201905081810360008301526135ab81613009565b9050919050565b600060208201905081810360008301526135cc8184613063565b905092915050565b600060208201905081810360008301526135ee8184613115565b905092915050565b600060208201905061360b600083018461340b565b92915050565b6000604051905081810181811067ffffffffffffffff82111715613638576136376138f9565b5b8060405250919050565b600067ffffffffffffffff82111561365d5761365c6138f9565b5b601f19601f8301169050602081019050919050565b60008190508160005260206000209050919050565b600081519050919050565b600081905092915050565b600082825260208201905092915050565b600082825260208201905092915050565b600081905092915050565b600073ffffffffffffffffffffffffffffffffffffffff82169050919050565b600060ff82169050919050565b600060ff82169050919050565b600061ffff82169050919050565b6000819050919050565b600060ff82169050919050565b600061373482613768565b9050919050565b60008115159050919050565b600081905061375582613940565b919050565b600061ffff82169050919050565b600073ffffffffffffffffffffffffffffffffffffffff82169050919050565b6000819050919050565b600060ff82169050919050565b60006137aa826137c3565b9050919050565b60006137bc82613747565b9050919050565b60006137ce826137d5565b9050919050565b60006137e082613768565b9050919050565b82818337600083830152505050565b60005b838110156138145780820151818401526020810190506137f9565b83811115613823576000848401525b50505050565b600061383c6138378361390c565b6136ca565b9050919050565b60006138566138518361390c565b6136ea565b9050919050565b600061387061386b8361390c565b613704565b9050919050565b600061388a6138858361390c565b613712565b9050919050565b60006138a461389f8361390c565b61371c565b9050919050565b60006138be6138b983613933565b61371c565b9050919050565b60006138d86138d383613919565b6136f7565b9050919050565b60006138f26138ed83613926565b6136ea565b9050919050565bfe5b6000601f19601f8301169050919050565b60008160001c9050919050565b60008160a01c9050919050565b60008160101c9050919050565b60008160081c9050919050565b60058110613951576139506138f9565b5b50565b61395d81613729565b811461396857600080fd5b50565b6139748161373b565b811461397f57600080fd5b50565b61398b8161375a565b811461399657600080fd5b50565b6139a281613788565b81146139ad57600080fd5b50565b6139b981613792565b81146139c457600080fd5b5056fea2646970667358221220e4f90ae62d3294b0d8216adc6a5778540a0040ec160e89115b6c05457ae8a55c64736f6c63430007060033",
  "immutableReferences": {},
  "source": "// SPDX-License-Identifier: MIT\n//pragma solidity >=0.4.22 <0.9.0;\npragma solidity >=0.7.0;\npragma experimental ABIEncoderV2;\n\ncontract GameContract {\n\n  address owner3;\n  address owner;\n  address owner2;\n  uint gameId;\n  \n//////// Constructor \n//compiler requires public\n  constructor() {\n    owner= msg.sender;\n    owner2= address(0x49A3e9f02E8b0a6076f8568361926D54d17730Cb);\n    gameId=1;\n  }\n\n   function setNewOwner(address _newOwner) isOwner external {\n     owner3= _newOwner;\n  }\n/////// Constructor END\n  \n  enum gameState {NoAssignedState, Staged, InProgress, Ended, Rejected }\n  \n  struct gameSettings {\n    uint16 startsAt;\n    bool openInvite;\n    uint totalTime;\n    uint timeoutTime;\n    uint wageSize;\n    uint8 p1color;\n    uint8 p2color; \n  }\n\n  struct gameData {\n    address playerOne;\n    address playerTwo;\n    gameState gState;\n    string currentGameBoard;\n    address lastMover;\n    gameSettings settings;\n    uint gameBalance;\n    bool player2accepted;\n  }\n  \n  mapping (uint => gameData) public games; \n  mapping (address => uint) myLastGame;\n  address[32] gameOwners;\n  address[32] gamePlayers;\n\n  event newGameCreatedEvent(address indexed _playerOne, address indexed _playerTwo);\n\n////// Modifiers Start \n  modifier isOwner() {\n    require (msg.sender == owner|| msg.sender == owner2 || msg.sender == owner3, \"Not an Owner\");\n    _; \n  }\n\n  function otherPlayer(uint _gameId) view internal returns (address other) {\n    gameData memory thisGame = games[_gameId];\n    require(myLastGame[msg.sender]== _gameId);\n    if (thisGame.playerOne == msg.sender){\n      other= thisGame.playerTwo;\n    } else {\n      other= thisGame.playerOne;\n    }\n  }  \n\n  function onMoveStateCheck(uint _gameid ) internal view returns(bool) {\n    //do not need it, do I?\n    gameData memory game=games[_gameid];\n    bool g= (  game.gState == gameState.InProgress || game.gState == gameState.Staged  );\n    bool notLastMover = !(msg.sender == game.lastMover); \n    require( g && notLastMover , \"Game State: Unavailable.\" );\n    return true;\n  }\n\n  // function player2NotInAGame(uint _gameid) internal view returns (bool) {\n  //   gameData memory game = games[_gameId];\n  //   require(myLastGame[game.playerTwo] == 0, \"Player Two already in a game\");\n  //   return true;\n  // } \n\n  function noOtherGameOnCreate(address player) internal view returns(bool) {\n    gameData memory lastPlayerGame = games[myLastGame[player]]; \n\n    if( (lastPlayerGame.gState == gameState.Ended) || (lastPlayerGame.gState == gameState.NoAssignedState) || myLastGame[player] == 0 ){\n      return true;\n    } else {\n      return false;\n    }\n  }\n////// Modifiers END\n  function initializeGame(address _playerTwo,\n                          uint16 _startsAt,\n                          uint16 _totalTime,\n                          uint _timeoutTime,\n                          uint _wageSize,\n                          string memory _currentGameBoard,\n                          uint8 _p1color ,\n                          uint8 _p2color) public payable returns(uint justCreatedGameId) {\n    bool openGame;\n  \n    games[gameId]= gameData({\n                            playerOne: msg.sender,\n                            playerTwo: _playerTwo,\n                            gState: gameState.Staged,\n                            currentGameBoard:_currentGameBoard,\n                            lastMover: address(0),\n                            settings: gameSettings ({ startsAt: _startsAt,\n                                              openInvite: openGame,\n                                              totalTime: _totalTime,\n                                              timeoutTime:  block.timestamp + _timeoutTime * 1 minutes,\n                                              wageSize:  _wageSize, \n                                              p1color: _p1color,\n                                              p2color: _p2color}),\n                            gameBalance: msg.value,\n                            player2accepted: false\n                            });\n//playerTwo is always white\n\n    require((noOtherGameOnCreate(msg.sender) && noOtherGameOnCreate(_playerTwo)), \"One of the players has a game in progress.\");\n    myLastGame[msg.sender]= gameId;\n    myLastGame[_playerTwo]= gameId;\n    \n    justCreatedGameId = gameId;\n  \n    emit newGameCreatedEvent(msg.sender,_playerTwo);\n    gameId++;\n\n    return gameId;\n  }\n\n  function getLastGameId() public view returns(uint) {\n    return gameId-1; \n  }\n\n  function getGame(uint gId) public view returns(gameData memory )  {\n      return games[gId];\n  }\n \n  function checkAndReturnCurrentGame() public view returns (gameData memory game) {\n    game= games[myLastGame[msg.sender]];\n   }\n\n    event gameCanceled(address indexed submittedby, uint refundedAmount);\n\n\n   function cancelGame() public payable {\n     gameData memory game = games[myLastGame[msg.sender]];\n     if((! game.player2accepted) && (game.settings.timeoutTime < block.timestamp) && (msg.sender == game.playerOne)) {\n      myLastGame[game.playerOne]= 0;\n      myLastGame[game.playerTwo]= 0; \n      uint refundAmount = game.settings.wageSize - (game.settings.wageSize / 99); \n      //case: player2 accept on player1 cancel? unlikely - possible?\n      (bool success, ) = msg.sender.call{value:refundAmount}(\"\");\n      require(success, \"Refund failed.\");  \n\n      emit gameCanceled(msg.sender, refundAmount);  \n    }\n   }\n  \n  event player2Accepted(address indexed _player1, address indexed _player2, bool _accepted);\n  \n  function timeOutforAccept() public {}\n\n  function playerTwoAccepted(bool _accepted) public payable  {\n    if (! _accepted) {\n      gameData storage game =  games[myLastGame[msg.sender]];\n      require(game.playerTwo == msg.sender);\n      game.player2accepted = false;\n      game.gState = gameState.Rejected;\n      //or cancel? w\\ no refund?\n      myLastGame[game.playerOne]= 0;\n      myLastGame[game.playerTwo]= 0;\n      //uint tenpercent = \n      myLastGame[msg.sender] = 0; \n      //(bool success,) = msg.sender.call.value(//%palyer1deposit/gascost)()\n      //norefund for now.\n      emit player2Accepted(game.playerOne, game.playerTwo, false);\n    } else {\n      gameData storage game = games[myLastGame[msg.sender]];\n      require(msg.value == game.settings.wageSize);\n      require(game.playerTwo == msg.sender);\n      game.player2accepted = true;\n      game.gState = gameState.InProgress;\n      game.gameBalance += msg.value;\n\n      emit player2Accepted(game.playerOne, game.playerTwo, true);\n    }\n  }\n  \n  \n  \n  event newMoveInGame(address indexed submittedby, address indexed otherPlayer, string indexed prevState, gameData current);\n\n  function submitMove(string memory _submittedMove) public {\n    string memory submitted = _submittedMove;\n    require(games[myLastGame[msg.sender]].player2accepted, \"Player2 did not accept yet.\");\n    gameData storage game= games[myLastGame[msg.sender]]; \n    \n    string memory prevState= string(game.currentGameBoard);\n    if(onMoveStateCheck(myLastGame[msg.sender])) {\n      game.lastMover= msg.sender;\n      game.currentGameBoard = submitted; \n    }\n    address other = otherPlayer(myLastGame[msg.sender]); \n    emit newMoveInGame( msg.sender, other, string(prevState), game );\n  }\n\n\nevent playerResigned(address indexed submittedby, address indexed otherPlayer, address OtherPlayerNotLastMovedThatResigned);\n\n  function resignGame() public {\n    gameData storage game = games[myLastGame[msg.sender]];\n    \n    if ( onMoveStateCheck(myLastGame[msg.sender]) ) {\n\n      myLastGame[game.playerOne]= 0;\n      myLastGame[game.playerTwo] = 0;\n      //reverse order\n      emit playerResigned(msg.sender, otherPlayer(myLastGame[msg.sender]), msg.sender);    \n      \n     \n    }\n  \n  }\n\n}\n",
  "sourcePath": "/home/pbdesk2/Desktop/github/ChessWager/contracts/GameContract.sol",
  "compiler": {
    "name": "solc",
    "version": "0.7.6+commit.7338295f.Emscripten.clang"
  },
  "schemaVersion": "3.4.3",
  "updatedAt": "2021-09-29T15:43:35.856Z",
  "networkType": "ethereum",
  "devdoc": {
    "kind": "dev",
    "methods": {},
    "version": 1
  },
  "userdoc": {
    "kind": "user",
    "methods": {},
    "version": 1
  }
}