{
  "contractName": "GameContract",
  "abi": [
    {
      "inputs": [],
      "stateMutability": "nonpayable",
      "type": "constructor"
    },
    {
      "anonymous": false,
      "inputs": [
        {
          "indexed": true,
          "internalType": "address",
          "name": "_playerOne",
          "type": "address"
        },
        {
          "indexed": true,
          "internalType": "address",
          "name": "_playerTwo",
          "type": "address"
        }
      ],
      "name": "newGameCreatedEvent",
      "type": "event"
    },
    {
      "anonymous": false,
      "inputs": [
        {
          "indexed": true,
          "internalType": "address",
          "name": "submittedby",
          "type": "address"
        },
        {
          "indexed": true,
          "internalType": "address",
          "name": "otherPlayer",
          "type": "address"
        },
        {
          "indexed": true,
          "internalType": "string",
          "name": "prevState",
          "type": "string"
        },
        {
          "components": [
            {
              "internalType": "address",
              "name": "playerOne",
              "type": "address"
            },
            {
              "internalType": "address",
              "name": "playerTwo",
              "type": "address"
            },
            {
              "internalType": "enum GameContract.gameState",
              "name": "gState",
              "type": "uint8"
            },
            {
              "internalType": "string",
              "name": "currentGameBoard",
              "type": "string"
            },
            {
              "internalType": "address",
              "name": "lastMover",
              "type": "address"
            },
            {
              "components": [
                {
                  "internalType": "uint16",
                  "name": "startsAt",
                  "type": "uint16"
                },
                {
                  "internalType": "bool",
                  "name": "openInvite",
                  "type": "bool"
                },
                {
                  "internalType": "uint16",
                  "name": "totalTime",
                  "type": "uint16"
                },
                {
                  "internalType": "uint16",
                  "name": "timeoutTime",
                  "type": "uint16"
                },
                {
                  "internalType": "uint256",
                  "name": "wageSize",
                  "type": "uint256"
                }
              ],
              "internalType": "struct GameContract.gameSettings",
              "name": "settings",
              "type": "tuple"
            },
            {
              "internalType": "uint256",
              "name": "gameBalance",
              "type": "uint256"
            },
            {
              "internalType": "bool",
              "name": "player2accepted",
              "type": "bool"
            }
          ],
          "indexed": false,
          "internalType": "struct GameContract.gameData",
          "name": "current",
          "type": "tuple"
        }
      ],
      "name": "newMoveInGame",
      "type": "event"
    },
    {
      "anonymous": false,
      "inputs": [
        {
          "indexed": true,
          "internalType": "address",
          "name": "_player1",
          "type": "address"
        },
        {
          "indexed": true,
          "internalType": "address",
          "name": "_player2",
          "type": "address"
        },
        {
          "indexed": false,
          "internalType": "bool",
          "name": "_accepted",
          "type": "bool"
        }
      ],
      "name": "player2Accepted",
      "type": "event"
    },
    {
      "inputs": [
        {
          "internalType": "uint256",
          "name": "",
          "type": "uint256"
        }
      ],
      "name": "games",
      "outputs": [
        {
          "internalType": "address",
          "name": "playerOne",
          "type": "address"
        },
        {
          "internalType": "address",
          "name": "playerTwo",
          "type": "address"
        },
        {
          "internalType": "enum GameContract.gameState",
          "name": "gState",
          "type": "uint8"
        },
        {
          "internalType": "string",
          "name": "currentGameBoard",
          "type": "string"
        },
        {
          "internalType": "address",
          "name": "lastMover",
          "type": "address"
        },
        {
          "components": [
            {
              "internalType": "uint16",
              "name": "startsAt",
              "type": "uint16"
            },
            {
              "internalType": "bool",
              "name": "openInvite",
              "type": "bool"
            },
            {
              "internalType": "uint16",
              "name": "totalTime",
              "type": "uint16"
            },
            {
              "internalType": "uint16",
              "name": "timeoutTime",
              "type": "uint16"
            },
            {
              "internalType": "uint256",
              "name": "wageSize",
              "type": "uint256"
            }
          ],
          "internalType": "struct GameContract.gameSettings",
          "name": "settings",
          "type": "tuple"
        },
        {
          "internalType": "uint256",
          "name": "gameBalance",
          "type": "uint256"
        },
        {
          "internalType": "bool",
          "name": "player2accepted",
          "type": "bool"
        }
      ],
      "stateMutability": "view",
      "type": "function",
      "constant": true
    },
    {
      "inputs": [
        {
          "internalType": "address",
          "name": "_newOwner",
          "type": "address"
        }
      ],
      "name": "setNewOwner",
      "outputs": [],
      "stateMutability": "nonpayable",
      "type": "function"
    },
    {
      "inputs": [
        {
          "internalType": "address",
          "name": "_playerTwo",
          "type": "address"
        },
        {
          "internalType": "uint16",
          "name": "_startsAt",
          "type": "uint16"
        },
        {
          "internalType": "uint16",
          "name": "_totalTime",
          "type": "uint16"
        },
        {
          "internalType": "uint16",
          "name": "_timeoutTime",
          "type": "uint16"
        },
        {
          "internalType": "uint256",
          "name": "_wageSize",
          "type": "uint256"
        }
      ],
      "name": "initializeGame",
      "outputs": [
        {
          "internalType": "uint256",
          "name": "justCreatedGameId",
          "type": "uint256"
        }
      ],
      "stateMutability": "payable",
      "type": "function",
      "payable": true
    },
    {
      "inputs": [],
      "name": "getLastGameId",
      "outputs": [
        {
          "internalType": "uint256",
          "name": "",
          "type": "uint256"
        }
      ],
      "stateMutability": "view",
      "type": "function",
      "constant": true
    },
    {
      "inputs": [
        {
          "internalType": "uint256",
          "name": "gId",
          "type": "uint256"
        }
      ],
      "name": "getGame",
      "outputs": [
        {
          "components": [
            {
              "internalType": "address",
              "name": "playerOne",
              "type": "address"
            },
            {
              "internalType": "address",
              "name": "playerTwo",
              "type": "address"
            },
            {
              "internalType": "enum GameContract.gameState",
              "name": "gState",
              "type": "uint8"
            },
            {
              "internalType": "string",
              "name": "currentGameBoard",
              "type": "string"
            },
            {
              "internalType": "address",
              "name": "lastMover",
              "type": "address"
            },
            {
              "components": [
                {
                  "internalType": "uint16",
                  "name": "startsAt",
                  "type": "uint16"
                },
                {
                  "internalType": "bool",
                  "name": "openInvite",
                  "type": "bool"
                },
                {
                  "internalType": "uint16",
                  "name": "totalTime",
                  "type": "uint16"
                },
                {
                  "internalType": "uint16",
                  "name": "timeoutTime",
                  "type": "uint16"
                },
                {
                  "internalType": "uint256",
                  "name": "wageSize",
                  "type": "uint256"
                }
              ],
              "internalType": "struct GameContract.gameSettings",
              "name": "settings",
              "type": "tuple"
            },
            {
              "internalType": "uint256",
              "name": "gameBalance",
              "type": "uint256"
            },
            {
              "internalType": "bool",
              "name": "player2accepted",
              "type": "bool"
            }
          ],
          "internalType": "struct GameContract.gameData",
          "name": "",
          "type": "tuple"
        }
      ],
      "stateMutability": "view",
      "type": "function",
      "constant": true
    },
    {
      "inputs": [],
      "name": "checkAndReturnCurrentGame",
      "outputs": [
        {
          "components": [
            {
              "internalType": "address",
              "name": "playerOne",
              "type": "address"
            },
            {
              "internalType": "address",
              "name": "playerTwo",
              "type": "address"
            },
            {
              "internalType": "enum GameContract.gameState",
              "name": "gState",
              "type": "uint8"
            },
            {
              "internalType": "string",
              "name": "currentGameBoard",
              "type": "string"
            },
            {
              "internalType": "address",
              "name": "lastMover",
              "type": "address"
            },
            {
              "components": [
                {
                  "internalType": "uint16",
                  "name": "startsAt",
                  "type": "uint16"
                },
                {
                  "internalType": "bool",
                  "name": "openInvite",
                  "type": "bool"
                },
                {
                  "internalType": "uint16",
                  "name": "totalTime",
                  "type": "uint16"
                },
                {
                  "internalType": "uint16",
                  "name": "timeoutTime",
                  "type": "uint16"
                },
                {
                  "internalType": "uint256",
                  "name": "wageSize",
                  "type": "uint256"
                }
              ],
              "internalType": "struct GameContract.gameSettings",
              "name": "settings",
              "type": "tuple"
            },
            {
              "internalType": "uint256",
              "name": "gameBalance",
              "type": "uint256"
            },
            {
              "internalType": "bool",
              "name": "player2accepted",
              "type": "bool"
            }
          ],
          "internalType": "struct GameContract.gameData",
          "name": "game",
          "type": "tuple"
        }
      ],
      "stateMutability": "view",
      "type": "function",
      "constant": true
    },
    {
      "inputs": [],
      "name": "timeOutforAccept",
      "outputs": [],
      "stateMutability": "nonpayable",
      "type": "function"
    },
    {
      "inputs": [
        {
          "internalType": "bool",
          "name": "_accepted",
          "type": "bool"
        }
      ],
      "name": "playerTwoAccepted",
      "outputs": [],
      "stateMutability": "payable",
      "type": "function",
      "payable": true
    },
    {
      "inputs": [
        {
          "internalType": "string",
          "name": "_submittedMove",
          "type": "string"
        }
      ],
      "name": "submitMove",
      "outputs": [],
      "stateMutability": "nonpayable",
      "type": "function"
    }
  ],
  "bytecode": "0x608060405234801561001057600080fd5b5033600160006101000a81548173ffffffffffffffffffffffffffffffffffffffff021916908373ffffffffffffffffffffffffffffffffffffffff1602179055507349a3e9f02e8b0a6076f8568361926d54d17730cb600260006101000a81548173ffffffffffffffffffffffffffffffffffffffff021916908373ffffffffffffffffffffffffffffffffffffffff1602179055506001600381905550612ee3806100be6000396000f3fe6080604052600436106100865760003560e01c8063817bfe7611610059578063817bfe761461013a5780638c79a38c1461016a578063a2f77bcc14610186578063a35b6ec7146101c3578063f5a1f5b4146101ee57610086565b8063117a5b901461008b5780631ea8c3be146100cf5780635c0c3bb4146100f85780637ab2942b1461010f575b600080fd5b34801561009757600080fd5b506100b260048036038101906100ad91906123f6565b610217565b6040516100c69897969594939291906129d0565b60405180910390f35b3480156100db57600080fd5b506100f660048036038101906100f191906123b5565b610400565b005b34801561010457600080fd5b5061010d610674565b005b34801561011b57600080fd5b50610124610676565b6040516101319190612ad2565b60405180910390f35b610154600480360381019061014f9190612315565b610970565b6040516101619190612b16565b60405180910390f35b610184600480360381019061017f919061238c565b610dab565b005b34801561019257600080fd5b506101ad60048036038101906101a891906123f6565b61123d565b6040516101ba9190612ad2565b60405180910390f35b3480156101cf57600080fd5b506101d86114fa565b6040516101e59190612b16565b60405180910390f35b3480156101fa57600080fd5b50610215600480360381019061021091906122ec565b611507565b005b60046020528060005260406000206000915090508060000160009054906101000a900473ffffffffffffffffffffffffffffffffffffffff16908060010160009054906101000a900473ffffffffffffffffffffffffffffffffffffffff16908060010160149054906101000a900460ff1690806002018054600181600116156101000203166002900480601f0160208091040260200160405190810160405280929190818152602001828054600181600116156101000203166002900480156103225780601f106102f757610100808354040283529160200191610322565b820191906000526020600020905b81548152906001019060200180831161030557829003601f168201915b5050505050908060030160009054906101000a900473ffffffffffffffffffffffffffffffffffffffff1690806004016040518060a00160405290816000820160009054906101000a900461ffff1661ffff1661ffff1681526020016000820160029054906101000a900460ff161515151581526020016000820160039054906101000a900461ffff1661ffff1661ffff1681526020016000820160059054906101000a900461ffff1661ffff1661ffff168152602001600182015481525050908060060154908060070160009054906101000a900460ff16905088565b6000819050600060046000600560003373ffffffffffffffffffffffffffffffffffffffff1673ffffffffffffffffffffffffffffffffffffffff16815260200190815260200160002054815260200190815260200160002090506000816002018054600181600116156101000203166002900480601f0160208091040260200160405190810160405280929190818152602001828054600181600116156101000203166002900480156104f55780601f106104ca576101008083540402835291602001916104f5565b820191906000526020600020905b8154815290600101906020018083116104d857829003601f168201915b50505050509050610544600560003373ffffffffffffffffffffffffffffffffffffffff1673ffffffffffffffffffffffffffffffffffffffff16815260200190815260200160002054611688565b156105a657338260030160006101000a81548173ffffffffffffffffffffffffffffffffffffffff021916908373ffffffffffffffffffffffffffffffffffffffff160217905550828260020190805190602001906105a49291906120ae565b505b60006105f0600560003373ffffffffffffffffffffffffffffffffffffffff1673ffffffffffffffffffffffffffffffffffffffff16815260200190815260200160002054611a0f565b90508160405161060091906129b9565b60405180910390208173ffffffffffffffffffffffffffffffffffffffff163373ffffffffffffffffffffffffffffffffffffffff167fbb1deda17dc269c1c7e63c946c63e7d381881d46df8fb72522d57b0fc6bc2bff866040516106659190612af4565b60405180910390a45050505050565b565b61067e61213c565b60046000600560003373ffffffffffffffffffffffffffffffffffffffff1673ffffffffffffffffffffffffffffffffffffffff168152602001908152602001600020548152602001908152602001600020604051806101000160405290816000820160009054906101000a900473ffffffffffffffffffffffffffffffffffffffff1673ffffffffffffffffffffffffffffffffffffffff1673ffffffffffffffffffffffffffffffffffffffff1681526020016001820160009054906101000a900473ffffffffffffffffffffffffffffffffffffffff1673ffffffffffffffffffffffffffffffffffffffff1673ffffffffffffffffffffffffffffffffffffffff1681526020016001820160149054906101000a900460ff1660048111156107a657fe5b60048111156107b157fe5b8152602001600282018054600181600116156101000203166002900480601f01602080910402602001604051908101604052809291908181526020018280546001816001161561010002031660029004801561084e5780601f106108235761010080835404028352916020019161084e565b820191906000526020600020905b81548152906001019060200180831161083157829003601f168201915b505050505081526020016003820160009054906101000a900473ffffffffffffffffffffffffffffffffffffffff1673ffffffffffffffffffffffffffffffffffffffff1673ffffffffffffffffffffffffffffffffffffffff168152602001600482016040518060a00160405290816000820160009054906101000a900461ffff1661ffff1661ffff1681526020016000820160029054906101000a900460ff161515151581526020016000820160039054906101000a900461ffff1661ffff1661ffff1681526020016000820160059054906101000a900461ffff1661ffff1661ffff1681526020016001820154815250508152602001600682015481526020016007820160009054906101000a900460ff161515151581525050905090565b6000806040518061010001604052803373ffffffffffffffffffffffffffffffffffffffff1681526020018873ffffffffffffffffffffffffffffffffffffffff168152602001600160048111156109c457fe5b81526020016040518060600160405280602b8152602001612e83602b91398152602001600073ffffffffffffffffffffffffffffffffffffffff1681526020016040518060a001604052808961ffff16815260200184151581526020018861ffff1681526020018761ffff1681526020018681525081526020013481526020016000151581525060046000600354815260200190815260200160002060008201518160000160006101000a81548173ffffffffffffffffffffffffffffffffffffffff021916908373ffffffffffffffffffffffffffffffffffffffff16021790555060208201518160010160006101000a81548173ffffffffffffffffffffffffffffffffffffffff021916908373ffffffffffffffffffffffffffffffffffffffff16021790555060408201518160010160146101000a81548160ff02191690836004811115610b1257fe5b02179055506060820151816002019080519060200190610b339291906120ae565b5060808201518160030160006101000a81548173ffffffffffffffffffffffffffffffffffffffff021916908373ffffffffffffffffffffffffffffffffffffffff16021790555060a08201518160040160008201518160000160006101000a81548161ffff021916908361ffff16021790555060208201518160000160026101000a81548160ff02191690831515021790555060408201518160000160036101000a81548161ffff021916908361ffff16021790555060608201518160000160056101000a81548161ffff021916908361ffff16021790555060808201518160010155505060c0820151816006015560e08201518160070160006101000a81548160ff021916908315150217905550905050610c4f33611d5f565b8015610c605750610c5f87611d5f565b5b610c9f576040517f08c379a0000000000000000000000000000000000000000000000000000000008152600401610c9690612ab2565b60405180910390fd5b600354600560003373ffffffffffffffffffffffffffffffffffffffff1673ffffffffffffffffffffffffffffffffffffffff16815260200190815260200160002081905550600354600560008973ffffffffffffffffffffffffffffffffffffffff1673ffffffffffffffffffffffffffffffffffffffff1681526020019081526020016000208190555060035491508673ffffffffffffffffffffffffffffffffffffffff163373ffffffffffffffffffffffffffffffffffffffff167f924d7492e89e2320415cf3dc9b3c1844a2ff30bca5eb7c40c2aa288c916b394960405160405180910390a360036000815480929190600101919050555060035491505095945050505050565b8061107057600060046000600560003373ffffffffffffffffffffffffffffffffffffffff1673ffffffffffffffffffffffffffffffffffffffff16815260200190815260200160002054815260200190815260200160002090503373ffffffffffffffffffffffffffffffffffffffff168160010160009054906101000a900473ffffffffffffffffffffffffffffffffffffffff1673ffffffffffffffffffffffffffffffffffffffff1614610e6257600080fd5b60008160070160006101000a81548160ff02191690831515021790555060048160010160146101000a81548160ff02191690836004811115610ea057fe5b02179055506000600560008360000160009054906101000a900473ffffffffffffffffffffffffffffffffffffffff1673ffffffffffffffffffffffffffffffffffffffff1673ffffffffffffffffffffffffffffffffffffffff168152602001908152602001600020819055506000600560008360010160009054906101000a900473ffffffffffffffffffffffffffffffffffffffff1673ffffffffffffffffffffffffffffffffffffffff1673ffffffffffffffffffffffffffffffffffffffff168152602001908152602001600020819055506000600560003373ffffffffffffffffffffffffffffffffffffffff1673ffffffffffffffffffffffffffffffffffffffff168152602001908152602001600020819055508060010160009054906101000a900473ffffffffffffffffffffffffffffffffffffffff1673ffffffffffffffffffffffffffffffffffffffff168160000160009054906101000a900473ffffffffffffffffffffffffffffffffffffffff1673ffffffffffffffffffffffffffffffffffffffff167f8f46d051ff9b2597fea8c60146bef33969de64edef522f8e1e927f117cb408b660006040516110629190612a57565b60405180910390a35061123a565b600060046000600560003373ffffffffffffffffffffffffffffffffffffffff1673ffffffffffffffffffffffffffffffffffffffff1681526020019081526020016000205481526020019081526020016000209050806004016001015434146110d957600080fd5b3373ffffffffffffffffffffffffffffffffffffffff168160010160009054906101000a900473ffffffffffffffffffffffffffffffffffffffff1673ffffffffffffffffffffffffffffffffffffffff161461113557600080fd5b60018160070160006101000a81548160ff02191690831515021790555060028160010160146101000a81548160ff0219169083600481111561117357fe5b02179055503481600601600082825401925050819055508060010160009054906101000a900473ffffffffffffffffffffffffffffffffffffffff1673ffffffffffffffffffffffffffffffffffffffff168160000160009054906101000a900473ffffffffffffffffffffffffffffffffffffffff1673ffffffffffffffffffffffffffffffffffffffff167f8f46d051ff9b2597fea8c60146bef33969de64edef522f8e1e927f117cb408b660016040516112309190612a57565b60405180910390a3505b50565b61124561213c565b60046000838152602001908152602001600020604051806101000160405290816000820160009054906101000a900473ffffffffffffffffffffffffffffffffffffffff1673ffffffffffffffffffffffffffffffffffffffff1673ffffffffffffffffffffffffffffffffffffffff1681526020016001820160009054906101000a900473ffffffffffffffffffffffffffffffffffffffff1673ffffffffffffffffffffffffffffffffffffffff1673ffffffffffffffffffffffffffffffffffffffff1681526020016001820160149054906101000a900460ff16600481111561132e57fe5b600481111561133957fe5b8152602001600282018054600181600116156101000203166002900480601f0160208091040260200160405190810160405280929190818152602001828054600181600116156101000203166002900480156113d65780601f106113ab576101008083540402835291602001916113d6565b820191906000526020600020905b8154815290600101906020018083116113b957829003601f168201915b505050505081526020016003820160009054906101000a900473ffffffffffffffffffffffffffffffffffffffff1673ffffffffffffffffffffffffffffffffffffffff1673ffffffffffffffffffffffffffffffffffffffff168152602001600482016040518060a00160405290816000820160009054906101000a900461ffff1661ffff1661ffff1681526020016000820160029054906101000a900460ff161515151581526020016000820160039054906101000a900461ffff1661ffff1661ffff1681526020016000820160059054906101000a900461ffff1661ffff1661ffff1681526020016001820154815250508152602001600682015481526020016007820160009054906101000a900460ff1615151515815250509050919050565b6000600160035403905090565b600160009054906101000a900473ffffffffffffffffffffffffffffffffffffffff1673ffffffffffffffffffffffffffffffffffffffff163373ffffffffffffffffffffffffffffffffffffffff1614806115b05750600260009054906101000a900473ffffffffffffffffffffffffffffffffffffffff1673ffffffffffffffffffffffffffffffffffffffff163373ffffffffffffffffffffffffffffffffffffffff16145b80611606575060008054906101000a900473ffffffffffffffffffffffffffffffffffffffff1673ffffffffffffffffffffffffffffffffffffffff163373ffffffffffffffffffffffffffffffffffffffff16145b611645576040517f08c379a000000000000000000000000000000000000000000000000000000000815260040161163c90612a92565b60405180910390fd5b806000806101000a81548173ffffffffffffffffffffffffffffffffffffffff021916908373ffffffffffffffffffffffffffffffffffffffff16021790555050565b60008060046000848152602001908152602001600020604051806101000160405290816000820160009054906101000a900473ffffffffffffffffffffffffffffffffffffffff1673ffffffffffffffffffffffffffffffffffffffff1673ffffffffffffffffffffffffffffffffffffffff1681526020016001820160009054906101000a900473ffffffffffffffffffffffffffffffffffffffff1673ffffffffffffffffffffffffffffffffffffffff1673ffffffffffffffffffffffffffffffffffffffff1681526020016001820160149054906101000a900460ff16600481111561177457fe5b600481111561177f57fe5b8152602001600282018054600181600116156101000203166002900480601f01602080910402602001604051908101604052809291908181526020018280546001816001161561010002031660029004801561181c5780601f106117f15761010080835404028352916020019161181c565b820191906000526020600020905b8154815290600101906020018083116117ff57829003601f168201915b505050505081526020016003820160009054906101000a900473ffffffffffffffffffffffffffffffffffffffff1673ffffffffffffffffffffffffffffffffffffffff1673ffffffffffffffffffffffffffffffffffffffff168152602001600482016040518060a00160405290816000820160009054906101000a900461ffff1661ffff1661ffff1681526020016000820160029054906101000a900460ff161515151581526020016000820160039054906101000a900461ffff1661ffff1661ffff1681526020016000820160059054906101000a900461ffff1661ffff1661ffff1681526020016001820154815250508152602001600682015481526020016007820160009054906101000a900460ff161515151581525050905060006002600481111561194a57fe5b8260400151600481111561195a57fe5b148061198057506001600481111561196e57fe5b8260400151600481111561197e57fe5b145b90506000826080015173ffffffffffffffffffffffffffffffffffffffff163373ffffffffffffffffffffffffffffffffffffffff16141590508180156119c45750805b611a03576040517f08c379a00000000000000000000000000000000000000000000000000000000081526004016119fa90612a72565b60405180910390fd5b60019350505050919050565b60008060046000848152602001908152602001600020604051806101000160405290816000820160009054906101000a900473ffffffffffffffffffffffffffffffffffffffff1673ffffffffffffffffffffffffffffffffffffffff1673ffffffffffffffffffffffffffffffffffffffff1681526020016001820160009054906101000a900473ffffffffffffffffffffffffffffffffffffffff1673ffffffffffffffffffffffffffffffffffffffff1673ffffffffffffffffffffffffffffffffffffffff1681526020016001820160149054906101000a900460ff166004811115611afb57fe5b6004811115611b0657fe5b8152602001600282018054600181600116156101000203166002900480601f016020809104026020016040519081016040528092919081815260200182805460018160011615610100020316600290048015611ba35780601f10611b7857610100808354040283529160200191611ba3565b820191906000526020600020905b815481529060010190602001808311611b8657829003601f168201915b505050505081526020016003820160009054906101000a900473ffffffffffffffffffffffffffffffffffffffff1673ffffffffffffffffffffffffffffffffffffffff1673ffffffffffffffffffffffffffffffffffffffff168152602001600482016040518060a00160405290816000820160009054906101000a900461ffff1661ffff1661ffff1681526020016000820160029054906101000a900460ff161515151581526020016000820160039054906101000a900461ffff1661ffff1661ffff1681526020016000820160059054906101000a900461ffff1661ffff1661ffff1681526020016001820154815250508152602001600682015481526020016007820160009054906101000a900460ff161515151581525050905082600560003373ffffffffffffffffffffffffffffffffffffffff1673ffffffffffffffffffffffffffffffffffffffff1681526020019081526020016000205414611d0d57600080fd5b3373ffffffffffffffffffffffffffffffffffffffff16816000015173ffffffffffffffffffffffffffffffffffffffff161415611d515780602001519150611d59565b806000015191505b50919050565b60008060046000600560008673ffffffffffffffffffffffffffffffffffffffff1673ffffffffffffffffffffffffffffffffffffffff168152602001908152602001600020548152602001908152602001600020604051806101000160405290816000820160009054906101000a900473ffffffffffffffffffffffffffffffffffffffff1673ffffffffffffffffffffffffffffffffffffffff1673ffffffffffffffffffffffffffffffffffffffff1681526020016001820160009054906101000a900473ffffffffffffffffffffffffffffffffffffffff1673ffffffffffffffffffffffffffffffffffffffff1673ffffffffffffffffffffffffffffffffffffffff1681526020016001820160149054906101000a900460ff166004811115611e8a57fe5b6004811115611e9557fe5b8152602001600282018054600181600116156101000203166002900480601f016020809104026020016040519081016040528092919081815260200182805460018160011615610100020316600290048015611f325780601f10611f0757610100808354040283529160200191611f32565b820191906000526020600020905b815481529060010190602001808311611f1557829003601f168201915b505050505081526020016003820160009054906101000a900473ffffffffffffffffffffffffffffffffffffffff1673ffffffffffffffffffffffffffffffffffffffff1673ffffffffffffffffffffffffffffffffffffffff168152602001600482016040518060a00160405290816000820160009054906101000a900461ffff1661ffff1661ffff1681526020016000820160029054906101000a900460ff161515151581526020016000820160039054906101000a900461ffff1661ffff1661ffff1681526020016000820160059054906101000a900461ffff1661ffff1661ffff1681526020016001820154815250508152602001600682015481526020016007820160009054906101000a900460ff16151515158152505090506003600481111561205e57fe5b8160400151600481111561206e57fe5b148061209457506000600481111561208257fe5b8160400151600481111561209257fe5b145b156120a35760019150506120a9565b60009150505b919050565b828054600181600116156101000203166002900490600052602060002090601f0160209004810192826120e4576000855561212b565b82601f106120fd57805160ff191683800117855561212b565b8280016001018555821561212b579182015b8281111561212a57825182559160200191906001019061210f565b5b50905061213891906121d6565b5090565b604051806101000160405280600073ffffffffffffffffffffffffffffffffffffffff168152602001600073ffffffffffffffffffffffffffffffffffffffff1681526020016000600481111561218f57fe5b815260200160608152602001600073ffffffffffffffffffffffffffffffffffffffff1681526020016121c06121f3565b8152602001600081526020016000151581525090565b5b808211156121ef5760008160009055506001016121d7565b5090565b6040518060a00160405280600061ffff168152602001600015158152602001600061ffff168152602001600061ffff168152602001600081525090565b600061224361223e84612b62565b612b31565b90508281526020810184848401111561225b57600080fd5b612266848285612cac565b509392505050565b60008135905061227d81612e26565b92915050565b60008135905061229281612e3d565b92915050565b600082601f8301126122a957600080fd5b81356122b9848260208601612230565b91505092915050565b6000813590506122d181612e54565b92915050565b6000813590506122e681612e6b565b92915050565b6000602082840312156122fe57600080fd5b600061230c8482850161226e565b91505092915050565b600080600080600060a0868803121561232d57600080fd5b600061233b8882890161226e565b955050602061234c888289016122c2565b945050604061235d888289016122c2565b935050606061236e888289016122c2565b925050608061237f888289016122d7565b9150509295509295909350565b60006020828403121561239e57600080fd5b60006123ac84828501612283565b91505092915050565b6000602082840312156123c757600080fd5b600082013567ffffffffffffffff8111156123e157600080fd5b6123ed84828501612298565b91505092915050565b60006020828403121561240857600080fd5b6000612416848285016122d7565b91505092915050565b61242881612c31565b82525050565b61243781612c31565b82525050565b61244681612c43565b82525050565b61245581612c43565b82525050565b61246481612c9a565b82525050565b61247381612c9a565b82525050565b600061248482612ba7565b61248e8185612bb2565b935061249e818560208601612cbb565b6124a781612dc0565b840191505092915050565b60006124bd82612ba7565b6124c78185612bc3565b93506124d7818560208601612cbb565b6124e081612dc0565b840191505092915050565b60006124f682612ba7565b6125008185612bd4565b9350612510818560208601612cbb565b80840191505092915050565b600081546001811660008114612539576001811461255f576125a3565b607f600283041661254a8187612bb2565b955060ff1983168652602086019350506125a3565b6002820461256d8187612bb2565b955061257885612b92565b60005b8281101561259a5781548189015260018201915060208101905061257b565b80880195505050505b505092915050565b60006125b8601883612bc3565b91507f47616d652053746174653a20556e617661696c61626c652e00000000000000006000830152602082019050919050565b60006125f8600c83612bc3565b91507f4e6f7420616e204f776e657200000000000000000000000000000000000000006000830152602082019050919050565b6000612638602a83612bc3565b91507f4f6e65206f662074686520706c61796572732068617320612067616d6520696e60008301527f2070726f67726573732e000000000000000000000000000000000000000000006020830152604082019050919050565b6000610180830160008301516126aa600086018261241f565b5060208301516126bd602086018261241f565b5060408301516126d0604086018261245b565b50606083015184820360608601526126e88282612479565b91505060808301516126fd608086018261241f565b5060a083015161271060a0860182612830565b5060c083015161272461014086018261299b565b5060e083015161273861016086018261243d565b508091505092915050565b60006101808301600080840154905061275b81612cee565b612768600087018261241f565b506001840154905061277981612cee565b612786602087018261241f565b5061279081612d56565b61279d604087018261245b565b506002840185830360608701526127b4838261251c565b925050600384015490506127c781612cee565b6127d4608087018261241f565b50600484016127e660a0870182612900565b50600684015490506127f781612d3c565b61280561014087018261299b565b506007840154905061281681612d08565b61282461016087018261243d565b50819250505092915050565b60a082016000820151612846600085018261298c565b506020820151612859602085018261243d565b50604082015161286c604085018261298c565b50606082015161287f606085018261298c565b506080820151612892608085018261299b565b50505050565b60a0820160008201516128ae600085018261298c565b5060208201516128c1602085018261243d565b5060408201516128d4604085018261298c565b5060608201516128e7606085018261298c565b5060808201516128fa608085018261299b565b50505050565b60a08201600080830154905061291581612d22565b612922600086018261298c565b5061292c81612d70565b612939602086018261243d565b5061294381612d8a565b612950604086018261298c565b5061295a81612da4565b612967606086018261298c565b506001830154905061297881612d3c565b612985608086018261299b565b5050505050565b61299581612c62565b82525050565b6129a481612c90565b82525050565b6129b381612c90565b82525050565b60006129c582846124eb565b915081905092915050565b6000610180820190506129e6600083018b61242e565b6129f3602083018a61242e565b612a00604083018961246a565b8181036060830152612a1281886124b2565b9050612a21608083018761242e565b612a2e60a0830186612898565b612a3c6101408301856129aa565b612a4a61016083018461244c565b9998505050505050505050565b6000602082019050612a6c600083018461244c565b92915050565b60006020820190508181036000830152612a8b816125ab565b9050919050565b60006020820190508181036000830152612aab816125eb565b9050919050565b60006020820190508181036000830152612acb8161262b565b9050919050565b60006020820190508181036000830152612aec8184612691565b905092915050565b60006020820190508181036000830152612b0e8184612743565b905092915050565b6000602082019050612b2b60008301846129aa565b92915050565b6000604051905081810181811067ffffffffffffffff82111715612b5857612b57612dbe565b5b8060405250919050565b600067ffffffffffffffff821115612b7d57612b7c612dbe565b5b601f19601f8301169050602081019050919050565b60008190508160005260206000209050919050565b600081519050919050565b600082825260208201905092915050565b600082825260208201905092915050565b600081905092915050565b600073ffffffffffffffffffffffffffffffffffffffff82169050919050565b600060ff82169050919050565b600060ff82169050919050565b600061ffff82169050919050565b6000819050919050565b6000612c3c82612c70565b9050919050565b60008115159050919050565b6000819050612c5d82612e12565b919050565b600061ffff82169050919050565b600073ffffffffffffffffffffffffffffffffffffffff82169050919050565b6000819050919050565b6000612ca582612c4f565b9050919050565b82818337600083830152505050565b60005b83811015612cd9578082015181840152602081019050612cbe565b83811115612ce8576000848401525b50505050565b6000612d01612cfc83612dd1565b612bdf565b9050919050565b6000612d1b612d1683612dd1565b612bff565b9050919050565b6000612d35612d3083612dd1565b612c19565b9050919050565b6000612d4f612d4a83612dd1565b612c27565b9050919050565b6000612d69612d6483612dde565b612c0c565b9050919050565b6000612d83612d7e83612deb565b612bff565b9050919050565b6000612d9d612d9883612df8565b612c19565b9050919050565b6000612db7612db283612e05565b612c19565b9050919050565bfe5b6000601f19601f8301169050919050565b60008160001c9050919050565b60008160a01c9050919050565b60008160101c9050919050565b60008160181c9050919050565b60008160281c9050919050565b60058110612e2357612e22612dbe565b5b50565b612e2f81612c31565b8114612e3a57600080fd5b50565b612e4681612c43565b8114612e5157600080fd5b50565b612e5d81612c62565b8114612e6857600080fd5b50565b612e7481612c90565b8114612e7f57600080fd5b5056fe726e62716b626e722f70707070707070702f382f382f382f382f50505050505050502f524e42514b424e52a264697066735822122011adb87ccfb52a630a0a01fe13f01c57229b076db9803af99ecfd66410c32f2a64736f6c63430007060033",
  "immutableReferences": {},
  "source": "// SPDX-License-Identifier: MIT\n//pragma solidity >=0.4.22 <0.9.0;\npragma solidity >=0.7.0;\npragma experimental ABIEncoderV2;\n\ncontract GameContract {\n\n  address owner3;\n  address owner;\n  address owner2;\n  uint gameId;\n  \n//////// Constructor \n//compiler requires public\n  constructor() {\n    owner= msg.sender;\n    owner2= address(0x49A3e9f02E8b0a6076f8568361926D54d17730Cb);\n    gameId=1;\n  }\n\n   function setNewOwner(address _newOwner) isOwner external {\n     owner3= _newOwner;\n  }\n/////// Constructor END\n  \n  enum gameState {NoAssignedState, Staged, InProgress, Ended, Rejected }\n  \n  struct gameSettings {\n    uint16 startsAt;\n    bool openInvite;\n    uint16 totalTime;\n    uint16 timeoutTime;\n    uint wageSize; \n  }\n\n  struct gameData {\n    address playerOne;\n    address playerTwo;\n    gameState gState;\n    string currentGameBoard;\n    address lastMover;\n    gameSettings settings;\n    uint gameBalance;\n    bool player2accepted; \n  }\n  \n  mapping (uint => gameData) public games; \n  mapping (address => uint) myLastGame;\n  address[32] gameOwners;\n  address[32] gamePlayers;\n\n  event newGameCreatedEvent(address indexed _playerOne, address indexed _playerTwo);\n\n////// Modifiers Start \n  modifier isOwner() {\n    require (msg.sender == owner|| msg.sender == owner2 || msg.sender == owner3, \"Not an Owner\");\n    _; \n  }\n\n  function otherPlayer(uint _gameId) view internal returns (address other) {\n    gameData memory thisGame = games[_gameId];\n    require(myLastGame[msg.sender]== _gameId);\n    if (thisGame.playerOne == msg.sender){\n      other= thisGame.playerTwo;\n    } else {\n      other= thisGame.playerOne;\n    }\n  }  \n\n  function onMoveStateCheck(uint _gameid ) internal view returns(bool) {\n    //do not need it, do I?\n    gameData memory game=games[_gameid];\n    bool g= (  game.gState == gameState.InProgress || game.gState == gameState.Staged  );\n    bool notLastMover = msg.sender != game.lastMover; \n    require( g && notLastMover , \"Game State: Unavailable.\" );\n    return true;\n  }\n\n  function noOtherGameOnCreate(address player1) internal view returns(bool) {\n    gameData memory lastPlayer1Game = games[myLastGame[player1]]; \n\n    if( (lastPlayer1Game.gState == gameState.Ended) || (lastPlayer1Game.gState == gameState.NoAssignedState) ){\n      return true;\n    } else {\n      return false;\n    }\n  }\n////// Modifiers END\n  function initializeGame(address _playerTwo,\n                          uint16 _startsAt,\n                          uint16 _totalTime,\n                          uint16 _timeoutTime,\n                          uint _wageSize ) public payable returns(uint justCreatedGameId) {\n    bool openGame;\n  \n    games[gameId]= gameData({\n                            playerOne: msg.sender,\n                            playerTwo: _playerTwo,\n                            gState: gameState.Staged,\n                            currentGameBoard:\"rnbqkbnr/pppppppp/8/8/8/8/PPPPPPPP/RNBQKBNR\",\n                            lastMover: address(0),\n                            settings: gameSettings ({ startsAt: _startsAt,\n                                              openInvite: openGame,\n                                              totalTime: _totalTime,\n                                              timeoutTime: _timeoutTime,\n                                              wageSize:  _wageSize }),\n                            gameBalance: msg.value,\n                            player2accepted: false \n                            });\n\n    require((noOtherGameOnCreate(msg.sender) && noOtherGameOnCreate(_playerTwo)), \"One of the players has a game in progress.\");\n    myLastGame[msg.sender]= gameId;\n    myLastGame[_playerTwo]= gameId;\n    \n    justCreatedGameId = gameId;\n    \n    emit newGameCreatedEvent(msg.sender,_playerTwo);\n    gameId++;\n\n    return gameId;\n  }\n\n  function getLastGameId() public view returns(uint) {\n    return gameId-1; \n  }\n\n  function getGame(uint gId) public view returns(gameData memory )  {\n      return games[gId];\n  }\n \n  function checkAndReturnCurrentGame() public view returns (gameData memory game) {\n    game= games[myLastGame[msg.sender]];\n  //   if ( noOtherGameOnCreate(msg.sender)) {\n  //     return games[0];  //////??? why \n  //   } else {\n  //     game= games[myLastGame[msg.sender]];\n  //     return game;\n  //   }\n   }\n  \n  event player2Accepted(address indexed _player1, address indexed _player2, bool _accepted);\n  \n  function timeOutforAccept() public {}\n\n  function playerTwoAccepted(bool _accepted) public payable  {\n    if (! _accepted) {\n      gameData storage game =  games[myLastGame[msg.sender]];\n      require(game.playerTwo == msg.sender);\n      game.player2accepted = false;\n      game.gState = gameState.Rejected;\n      //or cancel? w\\ no refund?\n      myLastGame[game.playerOne]= 0;\n      myLastGame[game.playerTwo]= 0;\n      //uint tenpercent = \n      myLastGame[msg.sender] = 0; \n      //(bool success,) = msg.sender.call.value(//%palyer1deposit/gascost)()\n      //norefund for now.\n      emit player2Accepted(game.playerOne, game.playerTwo, false);\n    } else {\n      gameData storage game = games[myLastGame[msg.sender]];\n      require(msg.value == game.settings.wageSize);\n      require(game.playerTwo == msg.sender);\n      game.player2accepted = true;\n      game.gState = gameState.InProgress;\n      game.gameBalance += msg.value;\n\n      emit player2Accepted(game.playerOne, game.playerTwo, true);\n    }\n  }\n  \n  \n  \n  event newMoveInGame(address indexed submittedby, address indexed otherPlayer, string indexed prevState, gameData current);\n\n  function submitMove(string memory _submittedMove) public {\n    string memory submitted = _submittedMove;\n    gameData storage game= games[myLastGame[msg.sender]]; \n    string memory prevState= string(game.currentGameBoard);\n    if(onMoveStateCheck(myLastGame[msg.sender])) {\n      game.lastMover= msg.sender;\n      game.currentGameBoard = submitted; \n    }\n    address other = otherPlayer(myLastGame[msg.sender]); \n    emit newMoveInGame( msg.sender, other, string(prevState), game );\n  } \n}\n",
  "sourcePath": "/home/pbdesk2/Desktop/github/ChessWager/contracts/GameContract.sol",
  "compiler": {
    "name": "solc",
    "version": "0.7.6+commit.7338295f.Emscripten.clang"
  },
  "schemaVersion": "3.4.3",
  "updatedAt": "2021-09-24T14:57:24.529Z",
  "networkType": "ethereum",
  "devdoc": {
    "kind": "dev",
    "methods": {},
    "version": 1
  },
  "userdoc": {
    "kind": "user",
    "methods": {},
    "version": 1
  }
}