{
  "contractName": "GameContract",
  "abi": [
    {
      "inputs": [],
      "stateMutability": "nonpayable",
      "type": "constructor"
    },
    {
      "anonymous": false,
      "inputs": [
        {
          "indexed": true,
          "internalType": "address",
          "name": "submittedby",
          "type": "address"
        },
        {
          "indexed": false,
          "internalType": "uint256",
          "name": "refundedAmount",
          "type": "uint256"
        }
      ],
      "name": "gameCanceled",
      "type": "event"
    },
    {
      "anonymous": false,
      "inputs": [
        {
          "indexed": true,
          "internalType": "address",
          "name": "_playerOne",
          "type": "address"
        },
        {
          "indexed": true,
          "internalType": "address",
          "name": "_playerTwo",
          "type": "address"
        }
      ],
      "name": "newGameCreatedEvent",
      "type": "event"
    },
    {
      "anonymous": false,
      "inputs": [
        {
          "indexed": true,
          "internalType": "address",
          "name": "submittedby",
          "type": "address"
        },
        {
          "indexed": true,
          "internalType": "address",
          "name": "otherPlayer",
          "type": "address"
        },
        {
          "indexed": true,
          "internalType": "string",
          "name": "prevState",
          "type": "string"
        },
        {
          "components": [
            {
              "internalType": "address",
              "name": "playerOne",
              "type": "address"
            },
            {
              "internalType": "address",
              "name": "playerTwo",
              "type": "address"
            },
            {
              "internalType": "enum GameContract.gameState",
              "name": "gState",
              "type": "uint8"
            },
            {
              "internalType": "string",
              "name": "currentGameBoard",
              "type": "string"
            },
            {
              "internalType": "address",
              "name": "lastMover",
              "type": "address"
            },
            {
              "components": [
                {
                  "internalType": "uint256",
                  "name": "totalTime",
                  "type": "uint256"
                },
                {
                  "internalType": "uint256",
                  "name": "timeoutTime",
                  "type": "uint256"
                },
                {
                  "internalType": "uint256",
                  "name": "wageSize",
                  "type": "uint256"
                },
                {
                  "internalType": "uint256",
                  "name": "gameBalance",
                  "type": "uint256"
                }
              ],
              "internalType": "struct GameContract.gameSettings",
              "name": "settings",
              "type": "tuple"
            },
            {
              "internalType": "bool",
              "name": "player2accepted",
              "type": "bool"
            },
            {
              "internalType": "uint256",
              "name": "totalGameTime",
              "type": "uint256"
            },
            {
              "internalType": "uint256",
              "name": "p1Time",
              "type": "uint256"
            },
            {
              "internalType": "uint256",
              "name": "p2Time",
              "type": "uint256"
            },
            {
              "internalType": "uint256[5]",
              "name": "materialState",
              "type": "uint256[5]"
            },
            {
              "internalType": "uint256",
              "name": "lastMoveTime",
              "type": "uint256"
            },
            {
              "internalType": "address",
              "name": "firstToZero",
              "type": "address"
            }
          ],
          "indexed": false,
          "internalType": "struct GameContract.gameData",
          "name": "current",
          "type": "tuple"
        }
      ],
      "name": "newMoveInGame",
      "type": "event"
    },
    {
      "anonymous": false,
      "inputs": [
        {
          "indexed": true,
          "internalType": "address",
          "name": "_player1",
          "type": "address"
        },
        {
          "indexed": true,
          "internalType": "address",
          "name": "_player2",
          "type": "address"
        },
        {
          "indexed": false,
          "internalType": "bool",
          "name": "_accepted",
          "type": "bool"
        }
      ],
      "name": "player2Accepted",
      "type": "event"
    },
    {
      "anonymous": false,
      "inputs": [
        {
          "indexed": true,
          "internalType": "address",
          "name": "submittedby",
          "type": "address"
        },
        {
          "indexed": true,
          "internalType": "address",
          "name": "OtherPlayer",
          "type": "address"
        },
        {
          "indexed": false,
          "internalType": "address",
          "name": "PlayerNotLastMovedThatResigned",
          "type": "address"
        }
      ],
      "name": "playerResigned",
      "type": "event"
    },
    {
      "inputs": [
        {
          "internalType": "uint256",
          "name": "",
          "type": "uint256"
        }
      ],
      "name": "games",
      "outputs": [
        {
          "internalType": "address",
          "name": "playerOne",
          "type": "address"
        },
        {
          "internalType": "address",
          "name": "playerTwo",
          "type": "address"
        },
        {
          "internalType": "enum GameContract.gameState",
          "name": "gState",
          "type": "uint8"
        },
        {
          "internalType": "string",
          "name": "currentGameBoard",
          "type": "string"
        },
        {
          "internalType": "address",
          "name": "lastMover",
          "type": "address"
        },
        {
          "components": [
            {
              "internalType": "uint256",
              "name": "totalTime",
              "type": "uint256"
            },
            {
              "internalType": "uint256",
              "name": "timeoutTime",
              "type": "uint256"
            },
            {
              "internalType": "uint256",
              "name": "wageSize",
              "type": "uint256"
            },
            {
              "internalType": "uint256",
              "name": "gameBalance",
              "type": "uint256"
            }
          ],
          "internalType": "struct GameContract.gameSettings",
          "name": "settings",
          "type": "tuple"
        },
        {
          "internalType": "bool",
          "name": "player2accepted",
          "type": "bool"
        },
        {
          "internalType": "uint256",
          "name": "totalGameTime",
          "type": "uint256"
        },
        {
          "internalType": "uint256",
          "name": "p1Time",
          "type": "uint256"
        },
        {
          "internalType": "uint256",
          "name": "p2Time",
          "type": "uint256"
        },
        {
          "internalType": "uint256",
          "name": "lastMoveTime",
          "type": "uint256"
        },
        {
          "internalType": "address",
          "name": "firstToZero",
          "type": "address"
        }
      ],
      "stateMutability": "view",
      "type": "function",
      "constant": true
    },
    {
      "inputs": [
        {
          "internalType": "address",
          "name": "_playerTwo",
          "type": "address"
        },
        {
          "internalType": "uint16",
          "name": "_totalTime",
          "type": "uint16"
        },
        {
          "internalType": "uint256",
          "name": "_timeoutTime",
          "type": "uint256"
        },
        {
          "internalType": "uint256",
          "name": "_wageSize",
          "type": "uint256"
        },
        {
          "internalType": "string",
          "name": "_currentGameBoard",
          "type": "string"
        }
      ],
      "name": "initializeGame",
      "outputs": [
        {
          "internalType": "uint256",
          "name": "justCreatedGameId",
          "type": "uint256"
        }
      ],
      "stateMutability": "payable",
      "type": "function",
      "payable": true
    },
    {
      "inputs": [],
      "name": "getLastGameId",
      "outputs": [
        {
          "internalType": "uint256",
          "name": "",
          "type": "uint256"
        }
      ],
      "stateMutability": "view",
      "type": "function",
      "constant": true
    },
    {
      "inputs": [
        {
          "internalType": "uint256",
          "name": "gId",
          "type": "uint256"
        }
      ],
      "name": "getGame",
      "outputs": [
        {
          "components": [
            {
              "internalType": "address",
              "name": "playerOne",
              "type": "address"
            },
            {
              "internalType": "address",
              "name": "playerTwo",
              "type": "address"
            },
            {
              "internalType": "enum GameContract.gameState",
              "name": "gState",
              "type": "uint8"
            },
            {
              "internalType": "string",
              "name": "currentGameBoard",
              "type": "string"
            },
            {
              "internalType": "address",
              "name": "lastMover",
              "type": "address"
            },
            {
              "components": [
                {
                  "internalType": "uint256",
                  "name": "totalTime",
                  "type": "uint256"
                },
                {
                  "internalType": "uint256",
                  "name": "timeoutTime",
                  "type": "uint256"
                },
                {
                  "internalType": "uint256",
                  "name": "wageSize",
                  "type": "uint256"
                },
                {
                  "internalType": "uint256",
                  "name": "gameBalance",
                  "type": "uint256"
                }
              ],
              "internalType": "struct GameContract.gameSettings",
              "name": "settings",
              "type": "tuple"
            },
            {
              "internalType": "bool",
              "name": "player2accepted",
              "type": "bool"
            },
            {
              "internalType": "uint256",
              "name": "totalGameTime",
              "type": "uint256"
            },
            {
              "internalType": "uint256",
              "name": "p1Time",
              "type": "uint256"
            },
            {
              "internalType": "uint256",
              "name": "p2Time",
              "type": "uint256"
            },
            {
              "internalType": "uint256[5]",
              "name": "materialState",
              "type": "uint256[5]"
            },
            {
              "internalType": "uint256",
              "name": "lastMoveTime",
              "type": "uint256"
            },
            {
              "internalType": "address",
              "name": "firstToZero",
              "type": "address"
            }
          ],
          "internalType": "struct GameContract.gameData",
          "name": "",
          "type": "tuple"
        }
      ],
      "stateMutability": "view",
      "type": "function",
      "constant": true
    },
    {
      "inputs": [],
      "name": "checkAndReturnCurrentGame",
      "outputs": [
        {
          "components": [
            {
              "internalType": "address",
              "name": "playerOne",
              "type": "address"
            },
            {
              "internalType": "address",
              "name": "playerTwo",
              "type": "address"
            },
            {
              "internalType": "enum GameContract.gameState",
              "name": "gState",
              "type": "uint8"
            },
            {
              "internalType": "string",
              "name": "currentGameBoard",
              "type": "string"
            },
            {
              "internalType": "address",
              "name": "lastMover",
              "type": "address"
            },
            {
              "components": [
                {
                  "internalType": "uint256",
                  "name": "totalTime",
                  "type": "uint256"
                },
                {
                  "internalType": "uint256",
                  "name": "timeoutTime",
                  "type": "uint256"
                },
                {
                  "internalType": "uint256",
                  "name": "wageSize",
                  "type": "uint256"
                },
                {
                  "internalType": "uint256",
                  "name": "gameBalance",
                  "type": "uint256"
                }
              ],
              "internalType": "struct GameContract.gameSettings",
              "name": "settings",
              "type": "tuple"
            },
            {
              "internalType": "bool",
              "name": "player2accepted",
              "type": "bool"
            },
            {
              "internalType": "uint256",
              "name": "totalGameTime",
              "type": "uint256"
            },
            {
              "internalType": "uint256",
              "name": "p1Time",
              "type": "uint256"
            },
            {
              "internalType": "uint256",
              "name": "p2Time",
              "type": "uint256"
            },
            {
              "internalType": "uint256[5]",
              "name": "materialState",
              "type": "uint256[5]"
            },
            {
              "internalType": "uint256",
              "name": "lastMoveTime",
              "type": "uint256"
            },
            {
              "internalType": "address",
              "name": "firstToZero",
              "type": "address"
            }
          ],
          "internalType": "struct GameContract.gameData",
          "name": "game",
          "type": "tuple"
        }
      ],
      "stateMutability": "view",
      "type": "function",
      "constant": true
    },
    {
      "inputs": [],
      "name": "cancelGame",
      "outputs": [],
      "stateMutability": "payable",
      "type": "function",
      "payable": true
    },
    {
      "inputs": [
        {
          "internalType": "bool",
          "name": "_accepted",
          "type": "bool"
        }
      ],
      "name": "playerTwoAccepted",
      "outputs": [],
      "stateMutability": "payable",
      "type": "function",
      "payable": true
    },
    {
      "inputs": [
        {
          "internalType": "string",
          "name": "_submittedMove",
          "type": "string"
        },
        {
          "internalType": "uint256[5]",
          "name": "_material",
          "type": "uint256[5]"
        }
      ],
      "name": "submitMove",
      "outputs": [],
      "stateMutability": "nonpayable",
      "type": "function"
    },
    {
      "inputs": [],
      "name": "resignGame",
      "outputs": [],
      "stateMutability": "nonpayable",
      "type": "function"
    },
    {
      "inputs": [],
      "name": "otherPlayerTimedOut",
      "outputs": [],
      "stateMutability": "nonpayable",
      "type": "function"
    }
  ],
  "bytecode": "0x608060405234801561001057600080fd5b50336000806101000a81548173ffffffffffffffffffffffffffffffffffffffff021916908373ffffffffffffffffffffffffffffffffffffffff1602179055507349a3e9f02e8b0a6076f8568361926d54d17730cb600160006101000a81548173ffffffffffffffffffffffffffffffffffffffff021916908373ffffffffffffffffffffffffffffffffffffffff1602179055506001600281905550614a79806100bd6000396000f3fe6080604052600436106100915760003560e01c80637f584c89116100595780637f584c89146101675780638c79a38c14610190578063a2f77bcc146101ac578063a35b6ec7146101e9578063d84c1ac91461021457610091565b80630800cb7e14610096578063117a5b90146100ad57806313b8b50d146100f55780634ce3e3721461010c5780637ab2942b1461013c575b600080fd5b3480156100a257600080fd5b506100ab61021e565b005b3480156100b957600080fd5b506100d460048036038101906100cf91906137ab565b6104dd565b6040516100ec9c9b9a999897969594939291906139b7565b60405180910390f35b34801561010157600080fd5b5061010a610691565b005b61012660048036038101906101219190613c15565b6109b3565b6040516101339190613cac565b60405180910390f35b34801561014857600080fd5b50610151610e61565b60405161015e9190613f4a565b60405180910390f35b34801561017357600080fd5b5061018e60048036038101906101899190614022565b6111b5565b005b6101aa60048036038101906101a591906140aa565b611956565b005b3480156101b857600080fd5b506101d360048036038101906101ce91906137ab565b611e02565b6040516101e09190613f4a565b60405180910390f35b3480156101f557600080fd5b506101fe612119565b60405161020b9190613cac565b60405180910390f35b61021c61212f565b005b610266600660003373ffffffffffffffffffffffffffffffffffffffff1673ffffffffffffffffffffffffffffffffffffffff1681526020019081526020016000205461265b565b156104db576102bb6102b6600660003373ffffffffffffffffffffffffffffffffffffffff1673ffffffffffffffffffffffffffffffffffffffff16815260200190815260200160002054612a58565b612e02565b50600060056000600660003373ffffffffffffffffffffffffffffffffffffffff1673ffffffffffffffffffffffffffffffffffffffff1681526020019081526020016000205481526020019081526020016000206004016003015414156103f35760006006600061036b600660003373ffffffffffffffffffffffffffffffffffffffff1673ffffffffffffffffffffffffffffffffffffffff16815260200190815260200160002054612a58565b73ffffffffffffffffffffffffffffffffffffffff1673ffffffffffffffffffffffffffffffffffffffff168152602001908152602001600020819055506000600660003373ffffffffffffffffffffffffffffffffffffffff1673ffffffffffffffffffffffffffffffffffffffff1681526020019081526020016000208190555061042e565b6040517f08c379a000000000000000000000000000000000000000000000000000000000815260040161042590614123565b60405180910390fd5b610476600660003373ffffffffffffffffffffffffffffffffffffffff1673ffffffffffffffffffffffffffffffffffffffff16815260200190815260200160002054612a58565b73ffffffffffffffffffffffffffffffffffffffff163373ffffffffffffffffffffffffffffffffffffffff167f2ebf0de5f8a94f0cb6835b17c86eb1fff68d7f0bb4857bfb28953adad5b7d44a336040516104d29190614143565b60405180910390a35b565b60056020528060005260406000206000915090508060000160009054906101000a900473ffffffffffffffffffffffffffffffffffffffff16908060010160009054906101000a900473ffffffffffffffffffffffffffffffffffffffff16908060010160149054906101000a900460ff169080600201805461055f9061418d565b80601f016020809104026020016040519081016040528092919081815260200182805461058b9061418d565b80156105d85780601f106105ad576101008083540402835291602001916105d8565b820191906000526020600020905b8154815290600101906020018083116105bb57829003601f168201915b5050505050908060030160009054906101000a900473ffffffffffffffffffffffffffffffffffffffff169080600401604051806080016040529081600082015481526020016001820154815260200160028201548152602001600382015481525050908060080160009054906101000a900460ff169080600901549080600a01549080600b0154908060110154908060120160009054906101000a900473ffffffffffffffffffffffffffffffffffffffff1690508c565b60056000600660003373ffffffffffffffffffffffffffffffffffffffff1673ffffffffffffffffffffffffffffffffffffffff16815260200190815260200160002054815260200190815260200160002060120160009054906101000a900473ffffffffffffffffffffffffffffffffffffffff1673ffffffffffffffffffffffffffffffffffffffff16610765600660003373ffffffffffffffffffffffffffffffffffffffff1673ffffffffffffffffffffffffffffffffffffffff16815260200190815260200160002054612a58565b73ffffffffffffffffffffffffffffffffffffffff1614806108975750603c4261078f91906141ee565b60056000600660003373ffffffffffffffffffffffffffffffffffffffff1673ffffffffffffffffffffffffffffffffffffffff168152602001908152602001600020548152602001908152602001600020600401600101541080156108965750600073ffffffffffffffffffffffffffffffffffffffff1660056000600660003373ffffffffffffffffffffffffffffffffffffffff1673ffffffffffffffffffffffffffffffffffffffff16815260200190815260200160002054815260200190815260200160002060030160009054906101000a900473ffffffffffffffffffffffffffffffffffffffff1673ffffffffffffffffffffffffffffffffffffffff16145b5b6108d6576040517f08c379a00000000000000000000000000000000000000000000000000000000081526004016108cd90614290565b60405180910390fd5b6108df33612e02565b506000600660003373ffffffffffffffffffffffffffffffffffffffff1673ffffffffffffffffffffffffffffffffffffffff16815260200190815260200160002081905550600060066000610973600660003373ffffffffffffffffffffffffffffffffffffffff1673ffffffffffffffffffffffffffffffffffffffff16815260200190815260200160002054612a58565b73ffffffffffffffffffffffffffffffffffffffff1673ffffffffffffffffffffffffffffffffffffffff16815260200190815260200160002081905550565b6000604051806101a001604052803373ffffffffffffffffffffffffffffffffffffffff1681526020018773ffffffffffffffffffffffffffffffffffffffff16815260200160016004811115610a0d57610a0c613819565b5b8152602001838152602001600073ffffffffffffffffffffffffffffffffffffffff16815260200160405180608001604052808861ffff1681526020014288610a5691906141ee565b8152602001868152602001348152508152602001600015158152602001610258815260200161012c815260200161012c81526020016040518060a00160405280600181526020016001815260200160018152602001600181526020016001815250815260200160008152602001600073ffffffffffffffffffffffffffffffffffffffff1681525060056000600254815260200190815260200160002060008201518160000160006101000a81548173ffffffffffffffffffffffffffffffffffffffff021916908373ffffffffffffffffffffffffffffffffffffffff16021790555060208201518160010160006101000a81548173ffffffffffffffffffffffffffffffffffffffff021916908373ffffffffffffffffffffffffffffffffffffffff16021790555060408201518160010160146101000a81548160ff02191690836004811115610bac57610bab613819565b5b02179055506060820151816002019080519060200190610bcd929190613514565b5060808201518160030160006101000a81548173ffffffffffffffffffffffffffffffffffffffff021916908373ffffffffffffffffffffffffffffffffffffffff16021790555060a08201518160040160008201518160000155602082015181600101556040820151816002015560608201518160030155505060c08201518160080160006101000a81548160ff02191690831515021790555060e0820151816009015561010082015181600a015561012082015181600b015561014082015181600c01906005610ca092919061359a565b5061016082015181601101556101808201518160120160006101000a81548173ffffffffffffffffffffffffffffffffffffffff021916908373ffffffffffffffffffffffffffffffffffffffff160217905550905050610d0033612f3a565b8015610d115750610d1086612f3a565b5b610d50576040517f08c379a0000000000000000000000000000000000000000000000000000000008152600401610d4790614322565b60405180910390fd5b600254600660003373ffffffffffffffffffffffffffffffffffffffff1673ffffffffffffffffffffffffffffffffffffffff16815260200190815260200160002081905550600254600660008873ffffffffffffffffffffffffffffffffffffffff1673ffffffffffffffffffffffffffffffffffffffff1681526020019081526020016000208190555060025490508573ffffffffffffffffffffffffffffffffffffffff163373ffffffffffffffffffffffffffffffffffffffff167f924d7492e89e2320415cf3dc9b3c1844a2ff30bca5eb7c40c2aa288c916b394960405160405180910390a360026000815480929190610e4e90614342565b9190505550600254905095945050505050565b610e696135da565b60056000600660003373ffffffffffffffffffffffffffffffffffffffff1673ffffffffffffffffffffffffffffffffffffffff168152602001908152602001600020548152602001908152602001600020604051806101a00160405290816000820160009054906101000a900473ffffffffffffffffffffffffffffffffffffffff1673ffffffffffffffffffffffffffffffffffffffff1673ffffffffffffffffffffffffffffffffffffffff1681526020016001820160009054906101000a900473ffffffffffffffffffffffffffffffffffffffff1673ffffffffffffffffffffffffffffffffffffffff1673ffffffffffffffffffffffffffffffffffffffff1681526020016001820160149054906101000a900460ff166004811115610f9857610f97613819565b5b6004811115610faa57610fa9613819565b5b8152602001600282018054610fbe9061418d565b80601f0160208091040260200160405190810160405280929190818152602001828054610fea9061418d565b80156110375780601f1061100c57610100808354040283529160200191611037565b820191906000526020600020905b81548152906001019060200180831161101a57829003601f168201915b505050505081526020016003820160009054906101000a900473ffffffffffffffffffffffffffffffffffffffff1673ffffffffffffffffffffffffffffffffffffffff1673ffffffffffffffffffffffffffffffffffffffff1681526020016004820160405180608001604052908160008201548152602001600182015481526020016002820154815260200160038201548152505081526020016008820160009054906101000a900460ff1615151515815260200160098201548152602001600a8201548152602001600b8201548152602001600c8201600580602002604051908101604052809291908260058015611147576020028201915b815481526020019060010190808311611133575b50505050508152602001601182015481526020016012820160009054906101000a900473ffffffffffffffffffffffffffffffffffffffff1673ffffffffffffffffffffffffffffffffffffffff1673ffffffffffffffffffffffffffffffffffffffff1681525050905090565b600082905060056000600660003373ffffffffffffffffffffffffffffffffffffffff1673ffffffffffffffffffffffffffffffffffffffff16815260200190815260200160002054815260200190815260200160002060080160009054906101000a900460ff1661125c576040517f08c379a0000000000000000000000000000000000000000000000000000000008152600401611253906143d7565b60405180910390fd5b6112a4600660003373ffffffffffffffffffffffffffffffffffffffff1673ffffffffffffffffffffffffffffffffffffffff1681526020019081526020016000205461265b565b6112ad57600080fd5b600060056000600660003373ffffffffffffffffffffffffffffffffffffffff1673ffffffffffffffffffffffffffffffffffffffff168152602001908152602001600020548152602001908152602001600020905060008160020180546113149061418d565b80601f01602080910402602001604051908101604052809291908181526020018280546113409061418d565b801561138d5780601f106113625761010080835404028352916020019161138d565b820191906000526020600020905b81548152906001019060200180831161137057829003601f168201915b50505050509050836000600581106113a8576113a76143f7565b5b602002015182600c016000600581106113c4576113c36143f7565b5b0181905550836001600581106113dd576113dc6143f7565b5b602002015182600c016001600581106113f9576113f86143f7565b5b018190555083600260058110611412576114116143f7565b5b602002015182600c0160026005811061142e5761142d6143f7565b5b0181905550338260030160006101000a81548173ffffffffffffffffffffffffffffffffffffffff021916908373ffffffffffffffffffffffffffffffffffffffff1602179055508282600201908051906020019061148e929190613514565b50600082601101541115611884576114f18260040160030154836009015484600c016005806020026040519081016040528092919082600580156114e7576020028201915b8154815260200190600101908083116114d3575b5050505050613349565b508160010160009054906101000a900473ffffffffffffffffffffffffffffffffffffffff1673ffffffffffffffffffffffffffffffffffffffff16611575600660003373ffffffffffffffffffffffffffffffffffffffff1673ffffffffffffffffffffffffffffffffffffffff16815260200190815260200160002054612a58565b73ffffffffffffffffffffffffffffffffffffffff1614156116d45781600a01548260110154426115a69190614426565b111561162257600082600a01819055508160000160009054906101000a900473ffffffffffffffffffffffffffffffffffffffff168260120160006101000a81548173ffffffffffffffffffffffffffffffffffffffff021916908373ffffffffffffffffffffffffffffffffffffffff1602179055506116cf565b8160110154426116329190614426565b6003600160028110611647576116466143f7565b5b0154611653919061445a565b82600c01600360006002811061166c5761166b6143f7565b5b01546005811061167f5761167e6143f7565b5b015461168b91906141ee565b82600c016003600581106116a2576116a16143f7565b5b01819055508160110154426116b79190614426565b82600a01546116c69190614426565b82600a01819055505b611813565b81600b01548260110154426116e99190614426565b111561176557600082600b01819055508160010160009054906101000a900473ffffffffffffffffffffffffffffffffffffffff168260120160006101000a81548173ffffffffffffffffffffffffffffffffffffffff021916908373ffffffffffffffffffffffffffffffffffffffff160217905550611812565b8160110154426117759190614426565b600360016002811061178a576117896143f7565b5b0154611796919061445a565b82600c0160036000600281106117af576117ae6143f7565b5b0154600581106117c2576117c16143f7565b5b01546117ce91906141ee565b82600c016004600581106117e5576117e46143f7565b5b01819055508160110154426117fa9190614426565b82600b01546118099190614426565b82600b01819055505b5b81600b015482600a015461182791906141ee565b826009018190555060008260110154426118419190614426565b6003600160028110611856576118556143f7565b5b0154611862919061445a565b83600401600301546118749190614426565b9050808360040160030181905550505b4282601101819055508060405161189b91906144f0565b60405180910390206118eb600660003373ffffffffffffffffffffffffffffffffffffffff1673ffffffffffffffffffffffffffffffffffffffff16815260200190815260200160002054612a58565b73ffffffffffffffffffffffffffffffffffffffff163373ffffffffffffffffffffffffffffffffffffffff167fdecaea66a3e67282764fa2e98a4296b35db9e79bb392763c0f37f62b854357cd8560405161194791906148f4565b60405180910390a45050505050565b80611c2257600060056000600660003373ffffffffffffffffffffffffffffffffffffffff1673ffffffffffffffffffffffffffffffffffffffff16815260200190815260200160002054815260200190815260200160002090503373ffffffffffffffffffffffffffffffffffffffff168160010160009054906101000a900473ffffffffffffffffffffffffffffffffffffffff1673ffffffffffffffffffffffffffffffffffffffff1614611a0d57600080fd5b60008160080160006101000a81548160ff02191690831515021790555060048160010160146101000a81548160ff02191690836004811115611a5257611a51613819565b5b02179055506000600660008360000160009054906101000a900473ffffffffffffffffffffffffffffffffffffffff1673ffffffffffffffffffffffffffffffffffffffff1673ffffffffffffffffffffffffffffffffffffffff168152602001908152602001600020819055506000600660008360010160009054906101000a900473ffffffffffffffffffffffffffffffffffffffff1673ffffffffffffffffffffffffffffffffffffffff1673ffffffffffffffffffffffffffffffffffffffff168152602001908152602001600020819055506000600660003373ffffffffffffffffffffffffffffffffffffffff1673ffffffffffffffffffffffffffffffffffffffff168152602001908152602001600020819055508060010160009054906101000a900473ffffffffffffffffffffffffffffffffffffffff1673ffffffffffffffffffffffffffffffffffffffff168160000160009054906101000a900473ffffffffffffffffffffffffffffffffffffffff1673ffffffffffffffffffffffffffffffffffffffff167f8f46d051ff9b2597fea8c60146bef33969de64edef522f8e1e927f117cb408b66000604051611c149190614916565b60405180910390a350611dff565b600060056000600660003373ffffffffffffffffffffffffffffffffffffffff1673ffffffffffffffffffffffffffffffffffffffff168152602001908152602001600020548152602001908152602001600020905080600401600201543414611c8b57600080fd5b3373ffffffffffffffffffffffffffffffffffffffff168160010160009054906101000a900473ffffffffffffffffffffffffffffffffffffffff1673ffffffffffffffffffffffffffffffffffffffff1614611ce757600080fd5b60018160080160006101000a81548160ff02191690831515021790555060028160010160146101000a81548160ff02191690836004811115611d2c57611d2b613819565b5b021790555034816004016003016000828254611d4891906141ee565b925050819055508060010160009054906101000a900473ffffffffffffffffffffffffffffffffffffffff1673ffffffffffffffffffffffffffffffffffffffff168160000160009054906101000a900473ffffffffffffffffffffffffffffffffffffffff1673ffffffffffffffffffffffffffffffffffffffff167f8f46d051ff9b2597fea8c60146bef33969de64edef522f8e1e927f117cb408b66001604051611df59190614916565b60405180910390a3505b50565b611e0a6135da565b60056000838152602001908152602001600020604051806101a00160405290816000820160009054906101000a900473ffffffffffffffffffffffffffffffffffffffff1673ffffffffffffffffffffffffffffffffffffffff1673ffffffffffffffffffffffffffffffffffffffff1681526020016001820160009054906101000a900473ffffffffffffffffffffffffffffffffffffffff1673ffffffffffffffffffffffffffffffffffffffff1673ffffffffffffffffffffffffffffffffffffffff1681526020016001820160149054906101000a900460ff166004811115611efa57611ef9613819565b5b6004811115611f0c57611f0b613819565b5b8152602001600282018054611f209061418d565b80601f0160208091040260200160405190810160405280929190818152602001828054611f4c9061418d565b8015611f995780601f10611f6e57610100808354040283529160200191611f99565b820191906000526020600020905b815481529060010190602001808311611f7c57829003601f168201915b505050505081526020016003820160009054906101000a900473ffffffffffffffffffffffffffffffffffffffff1673ffffffffffffffffffffffffffffffffffffffff1673ffffffffffffffffffffffffffffffffffffffff1681526020016004820160405180608001604052908160008201548152602001600182015481526020016002820154815260200160038201548152505081526020016008820160009054906101000a900460ff1615151515815260200160098201548152602001600a8201548152602001600b8201548152602001600c82016005806020026040519081016040528092919082600580156120a9576020028201915b815481526020019060010190808311612095575b50505050508152602001601182015481526020016012820160009054906101000a900473ffffffffffffffffffffffffffffffffffffffff1673ffffffffffffffffffffffffffffffffffffffff1673ffffffffffffffffffffffffffffffffffffffff16815250509050919050565b6000600160025461212a9190614426565b905090565b600060056000600660003373ffffffffffffffffffffffffffffffffffffffff1673ffffffffffffffffffffffffffffffffffffffff168152602001908152602001600020548152602001908152602001600020604051806101a00160405290816000820160009054906101000a900473ffffffffffffffffffffffffffffffffffffffff1673ffffffffffffffffffffffffffffffffffffffff1673ffffffffffffffffffffffffffffffffffffffff1681526020016001820160009054906101000a900473ffffffffffffffffffffffffffffffffffffffff1673ffffffffffffffffffffffffffffffffffffffff1673ffffffffffffffffffffffffffffffffffffffff1681526020016001820160149054906101000a900460ff1660048111156122605761225f613819565b5b600481111561227257612271613819565b5b81526020016002820180546122869061418d565b80601f01602080910402602001604051908101604052809291908181526020018280546122b29061418d565b80156122ff5780601f106122d4576101008083540402835291602001916122ff565b820191906000526020600020905b8154815290600101906020018083116122e257829003601f168201915b505050505081526020016003820160009054906101000a900473ffffffffffffffffffffffffffffffffffffffff1673ffffffffffffffffffffffffffffffffffffffff1673ffffffffffffffffffffffffffffffffffffffff1681526020016004820160405180608001604052908160008201548152602001600182015481526020016002820154815260200160038201548152505081526020016008820160009054906101000a900460ff1615151515815260200160098201548152602001600a8201548152602001600b8201548152602001600c820160058060200260405190810160405280929190826005801561240f576020028201915b8154815260200190600101908083116123fb575b50505050508152602001601182015481526020016012820160009054906101000a900473ffffffffffffffffffffffffffffffffffffffff1673ffffffffffffffffffffffffffffffffffffffff1673ffffffffffffffffffffffffffffffffffffffff168152505090508060c001511580156124935750428160a0015160200151105b80156124ce5750806000015173ffffffffffffffffffffffffffffffffffffffff163373ffffffffffffffffffffffffffffffffffffffff16145b1561265857600060066000836000015173ffffffffffffffffffffffffffffffffffffffff1673ffffffffffffffffffffffffffffffffffffffff16815260200190815260200160002081905550600060066000836020015173ffffffffffffffffffffffffffffffffffffffff1673ffffffffffffffffffffffffffffffffffffffff16815260200190815260200160002081905550600060638260a001516040015161257c9190614960565b8260a001516040015161258f9190614426565b905060003373ffffffffffffffffffffffffffffffffffffffff16826040516125b7906149c2565b60006040518083038185875af1925050503d80600081146125f4576040519150601f19603f3d011682016040523d82523d6000602084013e6125f9565b606091505b505090508061260757600080fd5b3373ffffffffffffffffffffffffffffffffffffffff167f38658d3cef5cc44cbe180db715b3888e2a3b59e21b5ed1193b79a8c33dd292c68360405161264d9190613cac565b60405180910390a250505b50565b60008060056000848152602001908152602001600020604051806101a00160405290816000820160009054906101000a900473ffffffffffffffffffffffffffffffffffffffff1673ffffffffffffffffffffffffffffffffffffffff1673ffffffffffffffffffffffffffffffffffffffff1681526020016001820160009054906101000a900473ffffffffffffffffffffffffffffffffffffffff1673ffffffffffffffffffffffffffffffffffffffff1673ffffffffffffffffffffffffffffffffffffffff1681526020016001820160149054906101000a900460ff16600481111561274e5761274d613819565b5b60048111156127605761275f613819565b5b81526020016002820180546127749061418d565b80601f01602080910402602001604051908101604052809291908181526020018280546127a09061418d565b80156127ed5780601f106127c2576101008083540402835291602001916127ed565b820191906000526020600020905b8154815290600101906020018083116127d057829003601f168201915b505050505081526020016003820160009054906101000a900473ffffffffffffffffffffffffffffffffffffffff1673ffffffffffffffffffffffffffffffffffffffff1673ffffffffffffffffffffffffffffffffffffffff1681526020016004820160405180608001604052908160008201548152602001600182015481526020016002820154815260200160038201548152505081526020016008820160009054906101000a900460ff1615151515815260200160098201548152602001600a8201548152602001600b8201548152602001600c82016005806020026040519081016040528092919082600580156128fd576020028201915b8154815260200190600101908083116128e9575b50505050508152602001601182015481526020016012820160009054906101000a900473ffffffffffffffffffffffffffffffffffffffff1673ffffffffffffffffffffffffffffffffffffffff1673ffffffffffffffffffffffffffffffffffffffff1681525050905060006002600481111561297e5761297d613819565b5b8260400151600481111561299557612994613819565b5b14806129c95750600160048111156129b0576129af613819565b5b826040015160048111156129c7576129c6613819565b5b145b90506000826080015173ffffffffffffffffffffffffffffffffffffffff163373ffffffffffffffffffffffffffffffffffffffff1614159050818015612a0d5750805b612a4c576040517f08c379a0000000000000000000000000000000000000000000000000000000008152600401612a4390614a23565b60405180910390fd5b60019350505050919050565b60008060056000848152602001908152602001600020604051806101a00160405290816000820160009054906101000a900473ffffffffffffffffffffffffffffffffffffffff1673ffffffffffffffffffffffffffffffffffffffff1673ffffffffffffffffffffffffffffffffffffffff1681526020016001820160009054906101000a900473ffffffffffffffffffffffffffffffffffffffff1673ffffffffffffffffffffffffffffffffffffffff1673ffffffffffffffffffffffffffffffffffffffff1681526020016001820160149054906101000a900460ff166004811115612b4b57612b4a613819565b5b6004811115612b5d57612b5c613819565b5b8152602001600282018054612b719061418d565b80601f0160208091040260200160405190810160405280929190818152602001828054612b9d9061418d565b8015612bea5780601f10612bbf57610100808354040283529160200191612bea565b820191906000526020600020905b815481529060010190602001808311612bcd57829003601f168201915b505050505081526020016003820160009054906101000a900473ffffffffffffffffffffffffffffffffffffffff1673ffffffffffffffffffffffffffffffffffffffff1673ffffffffffffffffffffffffffffffffffffffff1681526020016004820160405180608001604052908160008201548152602001600182015481526020016002820154815260200160038201548152505081526020016008820160009054906101000a900460ff1615151515815260200160098201548152602001600a8201548152602001600b8201548152602001600c8201600580602002604051908101604052809291908260058015612cfa576020028201915b815481526020019060010190808311612ce6575b50505050508152602001601182015481526020016012820160009054906101000a900473ffffffffffffffffffffffffffffffffffffffff1673ffffffffffffffffffffffffffffffffffffffff1673ffffffffffffffffffffffffffffffffffffffff1681525050905082600660003373ffffffffffffffffffffffffffffffffffffffff1673ffffffffffffffffffffffffffffffffffffffff1681526020019081526020016000205414612db057600080fd5b3373ffffffffffffffffffffffffffffffffffffffff16816000015173ffffffffffffffffffffffffffffffffffffffff161415612df45780602001519150612dfc565b806000015191505b50919050565b60008060056000600660008673ffffffffffffffffffffffffffffffffffffffff1673ffffffffffffffffffffffffffffffffffffffff168152602001908152602001600020548152602001908152602001600020600401600301549050600060056000600660003373ffffffffffffffffffffffffffffffffffffffff1673ffffffffffffffffffffffffffffffffffffffff168152602001908152602001600020548152602001908152602001600020600401600301819055503373ffffffffffffffffffffffffffffffffffffffff1681604051612ee2906149c2565b60006040518083038185875af1925050503d8060008114612f1f576040519150601f19603f3d011682016040523d82523d6000602084013e612f24565b606091505b50508092505081612f3457600080fd5b50919050565b60008060056000600660008673ffffffffffffffffffffffffffffffffffffffff1673ffffffffffffffffffffffffffffffffffffffff168152602001908152602001600020548152602001908152602001600020604051806101a00160405290816000820160009054906101000a900473ffffffffffffffffffffffffffffffffffffffff1673ffffffffffffffffffffffffffffffffffffffff1673ffffffffffffffffffffffffffffffffffffffff1681526020016001820160009054906101000a900473ffffffffffffffffffffffffffffffffffffffff1673ffffffffffffffffffffffffffffffffffffffff1673ffffffffffffffffffffffffffffffffffffffff1681526020016001820160149054906101000a900460ff16600481111561306c5761306b613819565b5b600481111561307e5761307d613819565b5b81526020016002820180546130929061418d565b80601f01602080910402602001604051908101604052809291908181526020018280546130be9061418d565b801561310b5780601f106130e05761010080835404028352916020019161310b565b820191906000526020600020905b8154815290600101906020018083116130ee57829003601f168201915b505050505081526020016003820160009054906101000a900473ffffffffffffffffffffffffffffffffffffffff1673ffffffffffffffffffffffffffffffffffffffff1673ffffffffffffffffffffffffffffffffffffffff1681526020016004820160405180608001604052908160008201548152602001600182015481526020016002820154815260200160038201548152505081526020016008820160009054906101000a900460ff1615151515815260200160098201548152602001600a8201548152602001600b8201548152602001600c820160058060200260405190810160405280929190826005801561321b576020028201915b815481526020019060010190808311613207575b50505050508152602001601182015481526020016012820160009054906101000a900473ffffffffffffffffffffffffffffffffffffffff1673ffffffffffffffffffffffffffffffffffffffff1673ffffffffffffffffffffffffffffffffffffffff168152505090506003600481111561329a57613299613819565b5b816040015160048111156132b1576132b0613819565b5b14806132e55750600060048111156132cc576132cb613819565b5b816040015160048111156132e3576132e2613819565b5b145b8061332f57506000600660008573ffffffffffffffffffffffffffffffffffffffff1673ffffffffffffffffffffffffffffffffffffffff16815260200190815260200160002054145b1561333e576001915050613344565b60009150505b919050565b60008060056000600660003373ffffffffffffffffffffffffffffffffffffffff1673ffffffffffffffffffffffffffffffffffffffff16815260200190815260200160002054815260200190815260200160002060010160009054906101000a900473ffffffffffffffffffffffffffffffffffffffff1673ffffffffffffffffffffffffffffffffffffffff16613420600660003373ffffffffffffffffffffffffffffffffffffffff1673ffffffffffffffffffffffffffffffffffffffff16815260200190815260200160002054612a58565b73ffffffffffffffffffffffffffffffffffffffff161415613445576000905061344a565b600190505b6000606484600260058110613462576134616143f7565b5b6020020151613471919061445a565b6064858460058110613486576134856143f7565b5b6020020151613495919061445a565b61349f9190614960565b6064866064896134af919061445a565b6134b99190614960565b6134c3919061445a565b6134cd919061445a565b905060006003836134de91906141ee565b905060405180604001604052808281526020018381525060039060026135059291906136ba565b50600193505050509392505050565b8280546135209061418d565b90600052602060002090601f0160209004810192826135425760008555613589565b82601f1061355b57805160ff1916838001178555613589565b82800160010185558215613589579182015b8281111561358857825182559160200191906001019061356d565b5b50905061359691906136fa565b5090565b82600581019282156135c9579160200282015b828111156135c85782518255916020019190600101906135ad565b5b5090506135d691906136fa565b5090565b604051806101a00160405280600073ffffffffffffffffffffffffffffffffffffffff168152602001600073ffffffffffffffffffffffffffffffffffffffff1681526020016000600481111561363457613633613819565b5b815260200160608152602001600073ffffffffffffffffffffffffffffffffffffffff168152602001613665613717565b815260200160001515815260200160008152602001600081526020016000815260200161369061373f565b815260200160008152602001600073ffffffffffffffffffffffffffffffffffffffff1681525090565b82600281019282156136e9579160200282015b828111156136e85782518255916020019190600101906136cd565b5b5090506136f691906136fa565b5090565b5b808211156137135760008160009055506001016136fb565b5090565b6040518060800160405280600081526020016000815260200160008152602001600081525090565b6040518060a00160405280600590602082028036833780820191505090505090565b6000604051905090565b600080fd5b600080fd5b6000819050919050565b61378881613775565b811461379357600080fd5b50565b6000813590506137a58161377f565b92915050565b6000602082840312156137c1576137c061376b565b5b60006137cf84828501613796565b91505092915050565b600073ffffffffffffffffffffffffffffffffffffffff82169050919050565b6000613803826137d8565b9050919050565b613813816137f8565b82525050565b7f4e487b7100000000000000000000000000000000000000000000000000000000600052602160045260246000fd5b6005811061385957613858613819565b5b50565b600081905061386a82613848565b919050565b600061387a8261385c565b9050919050565b61388a8161386f565b82525050565b600081519050919050565b600082825260208201905092915050565b60005b838110156138ca5780820151818401526020810190506138af565b838111156138d9576000848401525b50505050565b6000601f19601f8301169050919050565b60006138fb82613890565b613905818561389b565b93506139158185602086016138ac565b61391e816138df565b840191505092915050565b61393281613775565b82525050565b60808201600082015161394e6000850182613929565b5060208201516139616020850182613929565b5060408201516139746040850182613929565b5060608201516139876060850182613929565b50505050565b60008115159050919050565b6139a28161398d565b82525050565b6139b181613775565b82525050565b60006101e0820190506139cd600083018f61380a565b6139da602083018e61380a565b6139e7604083018d613881565b81810360608301526139f9818c6138f0565b9050613a08608083018b61380a565b613a1560a083018a613938565b613a23610120830189613999565b613a316101408301886139a8565b613a3f6101608301876139a8565b613a4d6101808301866139a8565b613a5b6101a08301856139a8565b613a696101c083018461380a565b9d9c50505050505050505050505050565b613a83816137f8565b8114613a8e57600080fd5b50565b600081359050613aa081613a7a565b92915050565b600061ffff82169050919050565b613abd81613aa6565b8114613ac857600080fd5b50565b600081359050613ada81613ab4565b92915050565b600080fd5b600080fd5b7f4e487b7100000000000000000000000000000000000000000000000000000000600052604160045260246000fd5b613b22826138df565b810181811067ffffffffffffffff82111715613b4157613b40613aea565b5b80604052505050565b6000613b54613761565b9050613b608282613b19565b919050565b600067ffffffffffffffff821115613b8057613b7f613aea565b5b613b89826138df565b9050602081019050919050565b82818337600083830152505050565b6000613bb8613bb384613b65565b613b4a565b905082815260208101848484011115613bd457613bd3613ae5565b5b613bdf848285613b96565b509392505050565b600082601f830112613bfc57613bfb613ae0565b5b8135613c0c848260208601613ba5565b91505092915050565b600080600080600060a08688031215613c3157613c3061376b565b5b6000613c3f88828901613a91565b9550506020613c5088828901613acb565b9450506040613c6188828901613796565b9350506060613c7288828901613796565b925050608086013567ffffffffffffffff811115613c9357613c92613770565b5b613c9f88828901613be7565b9150509295509295909350565b6000602082019050613cc160008301846139a8565b92915050565b613cd0816137f8565b82525050565b613cdf8161386f565b82525050565b600082825260208201905092915050565b6000613d0182613890565b613d0b8185613ce5565b9350613d1b8185602086016138ac565b613d24816138df565b840191505092915050565b608082016000820151613d456000850182613929565b506020820151613d586020850182613929565b506040820151613d6b6040850182613929565b506060820151613d7e6060850182613929565b50505050565b613d8d8161398d565b82525050565b600060059050919050565b600081905092915050565b6000819050919050565b6000613dbf8383613929565b60208301905092915050565b6000602082019050919050565b613de181613d93565b613deb8184613d9e565b9250613df682613da9565b8060005b83811015613e27578151613e0e8782613db3565b9650613e1983613dcb565b925050600181019050613dfa565b505050505050565b600061028083016000830151613e486000860182613cc7565b506020830151613e5b6020860182613cc7565b506040830151613e6e6040860182613cd6565b5060608301518482036060860152613e868282613cf6565b9150506080830151613e9b6080860182613cc7565b5060a0830151613eae60a0860182613d2f565b5060c0830151613ec2610120860182613d84565b5060e0830151613ed6610140860182613929565b50610100830151613eeb610160860182613929565b50610120830151613f00610180860182613929565b50610140830151613f156101a0860182613dd8565b50610160830151613f2a610240860182613929565b50610180830151613f3f610260860182613cc7565b508091505092915050565b60006020820190508181036000830152613f648184613e2f565b905092915050565b600067ffffffffffffffff821115613f8757613f86613aea565b5b602082029050919050565b600080fd5b6000613faa613fa584613f6c565b613b4a565b90508060208402830185811115613fc457613fc3613f92565b5b835b81811015613fed5780613fd98882613796565b845260208401935050602081019050613fc6565b5050509392505050565b600082601f83011261400c5761400b613ae0565b5b6005614019848285613f97565b91505092915050565b60008060c083850312156140395761403861376b565b5b600083013567ffffffffffffffff81111561405757614056613770565b5b61406385828601613be7565b925050602061407485828601613ff7565b9150509250929050565b6140878161398d565b811461409257600080fd5b50565b6000813590506140a48161407e565b92915050565b6000602082840312156140c0576140bf61376b565b5b60006140ce84828501614095565b91505092915050565b7f536f6d657468696e672077656e742077726f6e672e0000000000000000000000600082015250565b600061410d60158361389b565b9150614118826140d7565b602082019050919050565b6000602082019050818103600083015261413c81614100565b9050919050565b6000602082019050614158600083018461380a565b92915050565b7f4e487b7100000000000000000000000000000000000000000000000000000000600052602260045260246000fd5b600060028204905060018216806141a557607f821691505b602082108114156141b9576141b861415e565b5b50919050565b7f4e487b7100000000000000000000000000000000000000000000000000000000600052601160045260246000fd5b60006141f982613775565b915061420483613775565b9250827fffffffffffffffffffffffffffffffffffffffffffffffffffffffffffffffff03821115614239576142386141bf565b5b828201905092915050565b7f41647665727361727920646964206e6f742074696d656f757420796574000000600082015250565b600061427a601d8361389b565b915061428582614244565b602082019050919050565b600060208201905081810360008301526142a98161426d565b9050919050565b7f4f6e65206f662074686520706c61796572732068617320612067616d6520696e60008201527f2070726f67726573732e00000000000000000000000000000000000000000000602082015250565b600061430c602a8361389b565b9150614317826142b0565b604082019050919050565b6000602082019050818103600083015261433b816142ff565b9050919050565b600061434d82613775565b91507fffffffffffffffffffffffffffffffffffffffffffffffffffffffffffffffff8214156143805761437f6141bf565b5b600182019050919050565b7f506c617965723220646964206e6f7420616363657074207965742e0000000000600082015250565b60006143c1601b8361389b565b91506143cc8261438b565b602082019050919050565b600060208201905081810360008301526143f0816143b4565b9050919050565b7f4e487b7100000000000000000000000000000000000000000000000000000000600052603260045260246000fd5b600061443182613775565b915061443c83613775565b92508282101561444f5761444e6141bf565b5b828203905092915050565b600061446582613775565b915061447083613775565b9250817fffffffffffffffffffffffffffffffffffffffffffffffffffffffffffffffff04831182151516156144a9576144a86141bf565b5b828202905092915050565b600081905092915050565b60006144ca82613890565b6144d481856144b4565b93506144e48185602086016138ac565b80840191505092915050565b60006144fc82846144bf565b915081905092915050565b60008160001c9050919050565b600073ffffffffffffffffffffffffffffffffffffffff82169050919050565b600061454761454283614507565b614514565b9050919050565b60008160a01c9050919050565b600060ff82169050919050565b600061457b6145768361454e565b61455b565b9050919050565b60008190508160005260206000209050919050565b600081546145a48161418d565b6145ae8186613ce5565b945060018216600081146145c957600181146145db5761460e565b60ff198316865260208601935061460e565b6145e485614582565b60005b83811015614606578154818901526001820191506020810190506145e7565b808801955050505b50505092915050565b6000819050919050565b600061463461462f83614507565b614617565b9050919050565b60808201600080830154905061465081614621565b61465d6000860182613929565b506001830154905061466e81614621565b61467b6020860182613929565b506002830154905061468c81614621565b6146996040860182613929565b50600383015490506146aa81614621565b6146b76060860182613929565b5050505050565b600060ff82169050919050565b60006146de6146d983614507565b6146be565b9050919050565b600060059050919050565b6000819050919050565b60006147068254614621565b9050919050565b6000600182019050919050565b614723816146e5565b61472d8184613d9e565b9250614738826146f0565b8060005b838110156147705761474d826146fa565b6147578782613db3565b96506147628361470d565b92505060018101905061473c565b505050505050565b60006102808301600080840154905061479081614534565b61479d6000870182613cc7565b50600184015490506147ae81614534565b6147bb6020870182613cc7565b506147c581614568565b6147d26040870182613cd6565b506002840185830360608701526147e98382614597565b925050600384015490506147fc81614534565b6148096080870182613cc7565b506004840161481b60a087018261463b565b506008840154905061482c816146cb565b61483a610120870182613d84565b506009840154905061484b81614621565b614859610140870182613929565b50600a840154905061486a81614621565b614878610160870182613929565b50600b840154905061488981614621565b614897610180870182613929565b50600c84016148aa6101a087018261471a565b50601184015490506148bb81614621565b6148c9610240870182613929565b50601284015490506148da81614534565b6148e8610260870182613cc7565b50819250505092915050565b6000602082019050818103600083015261490e8184614778565b905092915050565b600060208201905061492b6000830184613999565b92915050565b7f4e487b7100000000000000000000000000000000000000000000000000000000600052601260045260246000fd5b600061496b82613775565b915061497683613775565b92508261498657614985614931565b5b828204905092915050565b600081905092915050565b50565b60006149ac600083614991565b91506149b78261499c565b600082019050919050565b60006149cd8261499f565b9150819050919050565b7f47616d652053746174653a20556e617661696c61626c652e0000000000000000600082015250565b6000614a0d60188361389b565b9150614a18826149d7565b602082019050919050565b60006020820190508181036000830152614a3c81614a00565b905091905056fea2646970667358221220e0a0491c3579f3e491e88d1ac3a9071767c6ddfbf6c04ce3ed4faaaa0fd2df4964736f6c63430008090033",
  "immutableReferences": {},
  "source": "// SPDX-License-Identifier: MIT\n//pragma solidity >=0.4.22 <0.9.0;\npragma solidity >=0.8.0;\npragma experimental ABIEncoderV2;\n\ncontract GameContract {\n\n  //address owner3;\n  address owner;\n  address owner2;\n  uint gameId;\n  \n//////// Constructor \n//compiler requires public\n  constructor() {\n    owner= msg.sender;\n    owner2= address(0x49A3e9f02E8b0a6076f8568361926D54d17730Cb);\n    gameId=1;\n  }\n\n  //  function setNewOwner(address _newOwner) isOwner external {\n  //    owner3= _newOwner;\n  // }\n/////// Constructor END\n  uint[2] flowrate;\n\n  enum gameState {NoAssignedState, Staged, InProgress, Ended, Rejected }\n  \n  struct gameSettings {\n    uint totalTime;\n    uint timeoutTime;\n    uint wageSize; \n    uint gameBalance;\n  }\n\n\n\n  struct gameData {\n    address playerOne;\n    address playerTwo;\n    gameState gState;\n    string currentGameBoard;\n    address lastMover;\n    gameSettings settings;\n    \n    bool player2accepted;\n    uint totalGameTime;\n    uint p1Time;\n    uint p2Time;\n    uint[5] materialState;\n    uint lastMoveTime;\n    address firstToZero;\n  }\n  \n  mapping (uint => gameData) public games; \n  mapping (address => uint) myLastGame;\n\n///////////BulkHudiStart\n\n  event newGameCreatedEvent(address indexed _playerOne, address indexed _playerTwo);\n\n////// Modifiers Start \n  modifier isOwner() {\n    require (msg.sender == owner|| msg.sender == owner2 , \"Not an Owner\");\n    _; \n  }\n\n  function otherPlayer(uint _gameId) view internal returns (address othr) {\n    gameData memory thisGame = games[_gameId];\n    require(myLastGame[msg.sender]== _gameId);\n    if (thisGame.playerOne == msg.sender){\n      othr = thisGame.playerTwo;\n    } else {\n      othr= thisGame.playerOne;\n    }\n  }  \n\n  function onMoveStateCheck(uint _gameid ) internal view returns(bool) {\n    //do not need it, do I?\n    gameData memory game=games[_gameid];\n    bool g= (  game.gState == gameState.InProgress || game.gState == gameState.Staged  );\n    bool notLastMover = !(msg.sender == game.lastMover); \n    require( g && notLastMover , \"Game State: Unavailable.\" );\n    return true;\n  }\n\n  // function player2NotInAGame(uint _gameid) internal view returns (bool) {\n  //   gameData memory game = games[_gameId];\n  //   require(myLastGame[game.playerTwo] == 0, \"Player Two already in a game\");\n  //   return true;\n  // } \n\n  function noGameOnCreate(address player) internal view returns(bool) {\n    gameData memory lastPlayerGame = games[myLastGame[player]]; \n\n    if( (lastPlayerGame.gState == gameState.Ended) || (lastPlayerGame.gState == gameState.NoAssignedState) || myLastGame[player] == 0 ){\n      return true;\n    } else {\n      return false;\n    }\n  }\n////// Modifiers END\n  function initializeGame(address _playerTwo,\n                          uint16 _totalTime,\n                          uint _timeoutTime,\n                          uint _wageSize,\n                          string memory _currentGameBoard\n                      ) public payable returns(uint justCreatedGameId) {\n    \n  \n    games[gameId]= gameData({\n                            playerOne: msg.sender,\n                            playerTwo: _playerTwo,\n                            gState: gameState.Staged,\n                            currentGameBoard:_currentGameBoard,\n                            lastMover: address(0),\n                            settings: gameSettings ({\n                                              totalTime: _totalTime,\n                                              timeoutTime: _timeoutTime + block.timestamp,\n                                              wageSize:  _wageSize,\n                                              gameBalance: msg.value }), ///not decreasing\n                             \n                            player2accepted: false,\n                            totalGameTime: 600,\n                            p1Time: 300,\n                            p2Time: 300,\n                            materialState: [uint(1),uint(1),uint(1),uint(1),uint(1)],\n                            lastMoveTime:0,\n                            firstToZero: address(0)   \n                            });\n//playerTwo is always white\n\n    require((noGameOnCreate(msg.sender) && noGameOnCreate(_playerTwo)), \"One of the players has a game in progress.\");\n    myLastGame[msg.sender]= gameId;\n    myLastGame[_playerTwo]= gameId;\n    \n    justCreatedGameId = gameId;\n  \n    emit newGameCreatedEvent(msg.sender,_playerTwo);\n    gameId++;\n\n    return gameId;\n  }\n\n  function getLastGameId() public view returns(uint) {\n    return gameId-1; \n  }\n\n  function getGame(uint gId) public view returns(gameData memory )  {\n      return games[gId];\n  }\n \n  function checkAndReturnCurrentGame() public view returns (gameData memory game) {\n    game= games[myLastGame[msg.sender]];\n   }\n\n    event gameCanceled(address indexed submittedby, uint refundedAmount);\n\n\n   function cancelGame() public payable {\n     gameData memory game = games[myLastGame[msg.sender]];\n     if((! game.player2accepted) && (game.settings.timeoutTime < block.timestamp) && (msg.sender == game.playerOne)) {\n      myLastGame[game.playerOne]= 0;\n      myLastGame[game.playerTwo]= 0; \n      uint refundAmount = game.settings.wageSize - (game.settings.wageSize / 99); \n      // a proper gas risk approch would be cool\n      // case: player2 accept on player1 cancel? unlikely - possible?\n      // a game balance mapping would be cool\n      (bool success, ) = msg.sender.call{value:refundAmount}(\"\");\n      if(!success){\n        revert();\n      }\n        \n\n      emit gameCanceled(msg.sender, refundAmount);  \n    }\n   }\n\n     function payCallerGameBalance(address caller) private returns( bool success) {\n  \n    uint howmuch = games[myLastGame[caller]].settings.gameBalance;\n    games[myLastGame[msg.sender]].settings.gameBalance = 0;\n  \n    (success,) = msg.sender.call{value:howmuch}(\"\");\n      if (! success) {\n        revert();\n      }\n  }\n\n\n  \n  event player2Accepted(address indexed _player1, address indexed _player2, bool _accepted);\n  \n\n  function playerTwoAccepted(bool _accepted) public payable  {\n    if (! _accepted) {\n      gameData storage game =  games[myLastGame[msg.sender]];\n      require(game.playerTwo == msg.sender);\n      game.player2accepted = false;\n      game.gState = gameState.Rejected;\n\n      myLastGame[game.playerOne]= 0;\n      myLastGame[game.playerTwo]= 0;\n\n      myLastGame[msg.sender] = 0; \n\n      emit player2Accepted(game.playerOne, game.playerTwo, false);\n    } else {\n      gameData storage game = games[myLastGame[msg.sender]];\n      require(msg.value == game.settings.wageSize);\n      require(game.playerTwo == msg.sender);\n      game.player2accepted = true;\n      game.gState = gameState.InProgress;\n      game.settings.gameBalance += msg.value;\n\n      emit player2Accepted(game.playerOne, game.playerTwo, true);\n    }\n  }\n  \n  function claculateStreamFlowRate(uint _availableBudget, \n                                uint _totalTimeRemaining,\n                                uint[5] memory _materialShare)\n                                internal returns( bool calculated) {\n  uint p01Switch;\n\n  if (otherPlayer(myLastGame[msg.sender]) == games[myLastGame[msg.sender]].playerTwo) {\n    p01Switch = 0;\n  } else {\n    p01Switch = 1;\n  }\n  \n  uint rawFlowRate= (uint(_availableBudget)*100 / uint(_totalTimeRemaining)*100) * (uint(_materialShare[p01Switch])*100 / (uint(_materialShare[2])*100));\n\n  uint pswitch= p01Switch +3;\n  // uint[2] memory pswitchFlowRate = ;\n  // pswitchFlowRate.push(pswitch);\n  // pswitchFlowRate.push(rawFlowRate);\n  flowrate = [pswitch, rawFlowRate];\n\n  calculated= true;                              \n                           }\n  \n  event newMoveInGame(address indexed submittedby, address indexed otherPlayer, string indexed prevState, gameData current);\n\n  function submitMove(string memory _submittedMove, uint[5] memory _material) public {\n\n    string memory submitted = _submittedMove;\n    require(games[myLastGame[msg.sender]].player2accepted, \"Player2 did not accept yet.\");\n    require(onMoveStateCheck(myLastGame[msg.sender]));\n    \n    gameData storage game= games[myLastGame[msg.sender]]; \n    \n    string memory prevState= string(game.currentGameBoard); //????\n    game.materialState[0] = _material[0];\n    game.materialState[1]= _material[1];\n    game.materialState[2]=_material[2];  \n   \n    game.lastMover= msg.sender;\n    game.currentGameBoard = submitted; \n    //game.materialState = _material;\n    if( game.lastMoveTime > 0) {\n      \n    claculateStreamFlowRate(uint(game.settings.gameBalance), uint(game.totalGameTime), game.materialState);\n\n      if(otherPlayer(myLastGame[msg.sender]) == game.playerTwo) {\n      //  this is player1\n        if ((block.timestamp - game.lastMoveTime) > game.p1Time) { \n          game.p1Time = 0;\n          game.firstToZero = game.playerOne;\n          // pay other player on 0\n        } else {\n          game.materialState[3] = game.materialState[flowrate[0]] + (flowrate[1] *  (block.timestamp - game.lastMoveTime));\n          game.p1Time = game.p1Time - (block.timestamp - game.lastMoveTime);\n          \n        }\n      \n    } else {\n      // this is player2\n      if ((block.timestamp - game.lastMoveTime) > game.p2Time) { \n          game.p2Time = 0;\n          game.firstToZero = game.playerTwo;\n        } else {\n          game.materialState[4] = game.materialState[flowrate[0]] + (flowrate[1] *  (block.timestamp - game.lastMoveTime));\n          game.p2Time = game.p2Time - (block.timestamp - game.lastMoveTime);\n        }\n    }\n\n         game.totalGameTime = game.p1Time + game.p2Time;\n         \n    \n         //game.materialState[3] = game.materialState[flowrate[0]] + (flowrate[1] *  (block.timestamp - game.lastMoveTime));\n         uint g= uint(game.settings.gameBalance) - ( flowrate[1] *  (block.timestamp - game.lastMoveTime));\n         game.settings.gameBalance = g;\n         \n \n\n         \n    } \n    \n    game.lastMoveTime = block.timestamp; \n\n    \n\n\n    emit newMoveInGame( msg.sender, otherPlayer(myLastGame[msg.sender]), string(prevState), game );\n\n\n  ///calculate stream flowrate\n    \n  // claculateStreamFlowRate(game.settings.gameBalance, game.totalGameTime, game.materialState);\n  \n  /// starts / modifies stream \n\n  /// stop stream on low gamebalance\n  \n  }\n\n\n\n\nevent playerResigned(address indexed submittedby, address indexed OtherPlayer, address PlayerNotLastMovedThatResigned);\n\n  function resignGame() public {\n    \n    if ( onMoveStateCheck(myLastGame[msg.sender]) ) {\n\n      payCallerGameBalance(otherPlayer(myLastGame[msg.sender]));\n\n      if (games[myLastGame[msg.sender]].settings.gameBalance == 0) {\n        myLastGame[otherPlayer(myLastGame[msg.sender])] = 0;\n        myLastGame[msg.sender]= 0;\n      } else {\n        revert(\"Something went wrong.\");\n      }\n      emit playerResigned(msg.sender, otherPlayer(myLastGame[msg.sender]), msg.sender);   \n    }\n  \n  }\n\n  function otherPlayerTimedOut() public {\n      // covers edge cases\n      require( (otherPlayer(myLastGame[msg.sender]) == games[myLastGame[msg.sender]].firstToZero) ||  ( (games[myLastGame[msg.sender]].settings.timeoutTime < (block.timestamp + 60)) && (games[myLastGame[msg.sender]].lastMover == address(0)) ), \"Adversary did not timeout yet\");\n\n      payCallerGameBalance(msg.sender);\n\n      myLastGame[msg.sender] = 0;\n      myLastGame[otherPlayer(myLastGame[msg.sender])] = 0;\n\n  }\n}\n",
  "sourcePath": "/home/pbdesk2/Desktop/github/ChessWager/contracts/GameContract.sol",
  "compiler": {
    "name": "solc",
    "version": "0.8.9+commit.e5eed63a.Emscripten.clang"
  },
  "schemaVersion": "3.4.3",
  "updatedAt": "2021-10-08T22:56:10.385Z",
  "networkType": "ethereum",
  "devdoc": {
    "kind": "dev",
    "methods": {},
    "version": 1
  },
  "userdoc": {
    "kind": "user",
    "methods": {},
    "version": 1
  }
}