{
  "contractName": "GameContract",
  "abi": [
    {
      "inputs": [],
      "stateMutability": "nonpayable",
      "type": "constructor"
    },
    {
      "anonymous": false,
      "inputs": [
        {
          "indexed": true,
          "internalType": "address",
          "name": "_playerOne",
          "type": "address"
        },
        {
          "indexed": true,
          "internalType": "address",
          "name": "_playerTwo",
          "type": "address"
        }
      ],
      "name": "newGameCreatedEvent",
      "type": "event"
    },
    {
      "anonymous": false,
      "inputs": [
        {
          "indexed": true,
          "internalType": "address",
          "name": "submittedby",
          "type": "address"
        },
        {
          "indexed": true,
          "internalType": "address",
          "name": "otherPlayer",
          "type": "address"
        },
        {
          "indexed": true,
          "internalType": "string",
          "name": "prevState",
          "type": "string"
        },
        {
          "indexed": false,
          "internalType": "string",
          "name": "nextState",
          "type": "string"
        }
      ],
      "name": "newMoveInGame",
      "type": "event"
    },
    {
      "anonymous": false,
      "inputs": [
        {
          "indexed": true,
          "internalType": "address",
          "name": "_player1",
          "type": "address"
        },
        {
          "indexed": true,
          "internalType": "address",
          "name": "_player2",
          "type": "address"
        },
        {
          "indexed": false,
          "internalType": "bool",
          "name": "_accepted",
          "type": "bool"
        }
      ],
      "name": "player2Accepted",
      "type": "event"
    },
    {
      "inputs": [
        {
          "internalType": "uint256",
          "name": "",
          "type": "uint256"
        }
      ],
      "name": "games",
      "outputs": [
        {
          "internalType": "address",
          "name": "playerOne",
          "type": "address"
        },
        {
          "internalType": "address",
          "name": "playerTwo",
          "type": "address"
        },
        {
          "internalType": "enum GameContract.gameState",
          "name": "gState",
          "type": "uint8"
        },
        {
          "internalType": "string",
          "name": "currentGameBoard",
          "type": "string"
        },
        {
          "internalType": "address",
          "name": "lastMover",
          "type": "address"
        },
        {
          "components": [
            {
              "internalType": "uint16",
              "name": "startsAt",
              "type": "uint16"
            },
            {
              "internalType": "bool",
              "name": "openInvite",
              "type": "bool"
            },
            {
              "internalType": "uint16",
              "name": "totalTime",
              "type": "uint16"
            },
            {
              "internalType": "uint16",
              "name": "timeoutTime",
              "type": "uint16"
            },
            {
              "internalType": "uint256",
              "name": "wageSize",
              "type": "uint256"
            }
          ],
          "internalType": "struct GameContract.gameSettings",
          "name": "settings",
          "type": "tuple"
        },
        {
          "internalType": "uint256",
          "name": "gameBalance",
          "type": "uint256"
        },
        {
          "internalType": "bool",
          "name": "player2accepted",
          "type": "bool"
        }
      ],
      "stateMutability": "view",
      "type": "function",
      "constant": true
    },
    {
      "inputs": [
        {
          "internalType": "address",
          "name": "_newOwner",
          "type": "address"
        }
      ],
      "name": "setNewOwner",
      "outputs": [],
      "stateMutability": "nonpayable",
      "type": "function"
    },
    {
      "inputs": [
        {
          "internalType": "address",
          "name": "_playerTwo",
          "type": "address"
        },
        {
          "internalType": "uint16",
          "name": "_startsAt",
          "type": "uint16"
        },
        {
          "internalType": "uint16",
          "name": "_totalTime",
          "type": "uint16"
        },
        {
          "internalType": "uint16",
          "name": "_timeoutTime",
          "type": "uint16"
        },
        {
          "internalType": "uint256",
          "name": "_wageSize",
          "type": "uint256"
        }
      ],
      "name": "initializeGame",
      "outputs": [
        {
          "internalType": "uint256",
          "name": "justCreatedGameId",
          "type": "uint256"
        }
      ],
      "stateMutability": "payable",
      "type": "function",
      "payable": true
    },
    {
      "inputs": [],
      "name": "getLastGameId",
      "outputs": [
        {
          "internalType": "uint256",
          "name": "",
          "type": "uint256"
        }
      ],
      "stateMutability": "view",
      "type": "function",
      "constant": true
    },
    {
      "inputs": [
        {
          "internalType": "uint256",
          "name": "gId",
          "type": "uint256"
        }
      ],
      "name": "getGame",
      "outputs": [
        {
          "components": [
            {
              "internalType": "address",
              "name": "playerOne",
              "type": "address"
            },
            {
              "internalType": "address",
              "name": "playerTwo",
              "type": "address"
            },
            {
              "internalType": "enum GameContract.gameState",
              "name": "gState",
              "type": "uint8"
            },
            {
              "internalType": "string",
              "name": "currentGameBoard",
              "type": "string"
            },
            {
              "internalType": "address",
              "name": "lastMover",
              "type": "address"
            },
            {
              "components": [
                {
                  "internalType": "uint16",
                  "name": "startsAt",
                  "type": "uint16"
                },
                {
                  "internalType": "bool",
                  "name": "openInvite",
                  "type": "bool"
                },
                {
                  "internalType": "uint16",
                  "name": "totalTime",
                  "type": "uint16"
                },
                {
                  "internalType": "uint16",
                  "name": "timeoutTime",
                  "type": "uint16"
                },
                {
                  "internalType": "uint256",
                  "name": "wageSize",
                  "type": "uint256"
                }
              ],
              "internalType": "struct GameContract.gameSettings",
              "name": "settings",
              "type": "tuple"
            },
            {
              "internalType": "uint256",
              "name": "gameBalance",
              "type": "uint256"
            },
            {
              "internalType": "bool",
              "name": "player2accepted",
              "type": "bool"
            }
          ],
          "internalType": "struct GameContract.gameData",
          "name": "",
          "type": "tuple"
        }
      ],
      "stateMutability": "view",
      "type": "function",
      "constant": true
    },
    {
      "inputs": [],
      "name": "checkAndReturnCurrentGame",
      "outputs": [
        {
          "components": [
            {
              "internalType": "address",
              "name": "playerOne",
              "type": "address"
            },
            {
              "internalType": "address",
              "name": "playerTwo",
              "type": "address"
            },
            {
              "internalType": "enum GameContract.gameState",
              "name": "gState",
              "type": "uint8"
            },
            {
              "internalType": "string",
              "name": "currentGameBoard",
              "type": "string"
            },
            {
              "internalType": "address",
              "name": "lastMover",
              "type": "address"
            },
            {
              "components": [
                {
                  "internalType": "uint16",
                  "name": "startsAt",
                  "type": "uint16"
                },
                {
                  "internalType": "bool",
                  "name": "openInvite",
                  "type": "bool"
                },
                {
                  "internalType": "uint16",
                  "name": "totalTime",
                  "type": "uint16"
                },
                {
                  "internalType": "uint16",
                  "name": "timeoutTime",
                  "type": "uint16"
                },
                {
                  "internalType": "uint256",
                  "name": "wageSize",
                  "type": "uint256"
                }
              ],
              "internalType": "struct GameContract.gameSettings",
              "name": "settings",
              "type": "tuple"
            },
            {
              "internalType": "uint256",
              "name": "gameBalance",
              "type": "uint256"
            },
            {
              "internalType": "bool",
              "name": "player2accepted",
              "type": "bool"
            }
          ],
          "internalType": "struct GameContract.gameData",
          "name": "game",
          "type": "tuple"
        }
      ],
      "stateMutability": "view",
      "type": "function",
      "constant": true
    },
    {
      "inputs": [],
      "name": "timeOutforAccept",
      "outputs": [],
      "stateMutability": "nonpayable",
      "type": "function"
    },
    {
      "inputs": [
        {
          "internalType": "bool",
          "name": "_accepted",
          "type": "bool"
        }
      ],
      "name": "playerTwoAccepted",
      "outputs": [],
      "stateMutability": "payable",
      "type": "function",
      "payable": true
    },
    {
      "inputs": [
        {
          "internalType": "string",
          "name": "_submittedMove",
          "type": "string"
        }
      ],
      "name": "submitMove",
      "outputs": [],
      "stateMutability": "nonpayable",
      "type": "function"
    }
  ],
  "bytecode": "0x608060405234801561001057600080fd5b5033600160006101000a81548173ffffffffffffffffffffffffffffffffffffffff021916908373ffffffffffffffffffffffffffffffffffffffff1602179055507349a3e9f02e8b0a6076f8568361926d54d17730cb600260006101000a81548173ffffffffffffffffffffffffffffffffffffffff021916908373ffffffffffffffffffffffffffffffffffffffff1602179055506001600381905550612b2f806100be6000396000f3fe6080604052600436106100865760003560e01c8063817bfe7611610059578063817bfe761461013a5780638c79a38c1461016a578063a2f77bcc14610186578063a35b6ec7146101c3578063f5a1f5b4146101ee57610086565b8063117a5b901461008b5780631ea8c3be146100cf5780635c0c3bb4146100f85780637ab2942b1461010f575b600080fd5b34801561009757600080fd5b506100b260048036038101906100ad91906123ed565b610217565b6040516100c69897969594939291906127bf565b60405180910390f35b3480156100db57600080fd5b506100f660048036038101906100f191906123ac565b610400565b005b34801561010457600080fd5b5061010d610674565b005b34801561011b57600080fd5b50610124610676565b60405161013191906128e3565b60405180910390f35b610154600480360381019061014f919061230c565b610970565b6040516101619190612905565b60405180910390f35b610184600480360381019061017f9190612383565b610da2565b005b34801561019257600080fd5b506101ad60048036038101906101a891906123ed565b611234565b6040516101ba91906128e3565b60405180910390f35b3480156101cf57600080fd5b506101d86114f1565b6040516101e59190612905565b60405180910390f35b3480156101fa57600080fd5b50610215600480360381019061021091906122e3565b6114fe565b005b60046020528060005260406000206000915090508060000160009054906101000a900473ffffffffffffffffffffffffffffffffffffffff16908060010160009054906101000a900473ffffffffffffffffffffffffffffffffffffffff16908060010160149054906101000a900460ff1690806002018054600181600116156101000203166002900480601f0160208091040260200160405190810160405280929190818152602001828054600181600116156101000203166002900480156103225780601f106102f757610100808354040283529160200191610322565b820191906000526020600020905b81548152906001019060200180831161030557829003601f168201915b5050505050908060030160009054906101000a900473ffffffffffffffffffffffffffffffffffffffff1690806004016040518060a00160405290816000820160009054906101000a900461ffff1661ffff1661ffff1681526020016000820160029054906101000a900460ff161515151581526020016000820160039054906101000a900461ffff1661ffff1661ffff1681526020016000820160059054906101000a900461ffff1661ffff1661ffff168152602001600182015481525050908060060154908060070160009054906101000a900460ff16905088565b6000819050600060046000600560003373ffffffffffffffffffffffffffffffffffffffff1673ffffffffffffffffffffffffffffffffffffffff16815260200190815260200160002054815260200190815260200160002090506000816002018054600181600116156101000203166002900480601f0160208091040260200160405190810160405280929190818152602001828054600181600116156101000203166002900480156104f55780601f106104ca576101008083540402835291602001916104f5565b820191906000526020600020905b8154815290600101906020018083116104d857829003601f168201915b50505050509050610544600560003373ffffffffffffffffffffffffffffffffffffffff1673ffffffffffffffffffffffffffffffffffffffff1681526020019081526020016000205461167f565b156105a657338260030160006101000a81548173ffffffffffffffffffffffffffffffffffffffff021916908373ffffffffffffffffffffffffffffffffffffffff160217905550828260020190805190602001906105a49291906120a5565b505b60006105f0600560003373ffffffffffffffffffffffffffffffffffffffff1673ffffffffffffffffffffffffffffffffffffffff16815260200190815260200160002054611a06565b90508160405161060091906127a8565b60405180910390208173ffffffffffffffffffffffffffffffffffffffff163373ffffffffffffffffffffffffffffffffffffffff167f046a485b748179b1bfc2e20f325c7e3c2b74055cc6fd310465f7b0fed86a1005876040516106659190612861565b60405180910390a45050505050565b565b61067e612133565b60046000600560003373ffffffffffffffffffffffffffffffffffffffff1673ffffffffffffffffffffffffffffffffffffffff168152602001908152602001600020548152602001908152602001600020604051806101000160405290816000820160009054906101000a900473ffffffffffffffffffffffffffffffffffffffff1673ffffffffffffffffffffffffffffffffffffffff1673ffffffffffffffffffffffffffffffffffffffff1681526020016001820160009054906101000a900473ffffffffffffffffffffffffffffffffffffffff1673ffffffffffffffffffffffffffffffffffffffff1673ffffffffffffffffffffffffffffffffffffffff1681526020016001820160149054906101000a900460ff1660048111156107a657fe5b60048111156107b157fe5b8152602001600282018054600181600116156101000203166002900480601f01602080910402602001604051908101604052809291908181526020018280546001816001161561010002031660029004801561084e5780601f106108235761010080835404028352916020019161084e565b820191906000526020600020905b81548152906001019060200180831161083157829003601f168201915b505050505081526020016003820160009054906101000a900473ffffffffffffffffffffffffffffffffffffffff1673ffffffffffffffffffffffffffffffffffffffff1673ffffffffffffffffffffffffffffffffffffffff168152602001600482016040518060a00160405290816000820160009054906101000a900461ffff1661ffff1661ffff1681526020016000820160029054906101000a900460ff161515151581526020016000820160039054906101000a900461ffff1661ffff1661ffff1681526020016000820160059054906101000a900461ffff1661ffff1661ffff1681526020016001820154815250508152602001600682015481526020016007820160009054906101000a900460ff161515151581525050905090565b6000806040518061010001604052803373ffffffffffffffffffffffffffffffffffffffff1681526020018873ffffffffffffffffffffffffffffffffffffffff168152602001600160048111156109c457fe5b8152602001604051806020016040528060008152508152602001600073ffffffffffffffffffffffffffffffffffffffff1681526020016040518060a001604052808961ffff16815260200184151581526020018861ffff1681526020018761ffff1681526020018681525081526020013481526020016000151581525060046000600354815260200190815260200160002060008201518160000160006101000a81548173ffffffffffffffffffffffffffffffffffffffff021916908373ffffffffffffffffffffffffffffffffffffffff16021790555060208201518160010160006101000a81548173ffffffffffffffffffffffffffffffffffffffff021916908373ffffffffffffffffffffffffffffffffffffffff16021790555060408201518160010160146101000a81548160ff02191690836004811115610b0957fe5b02179055506060820151816002019080519060200190610b2a9291906120a5565b5060808201518160030160006101000a81548173ffffffffffffffffffffffffffffffffffffffff021916908373ffffffffffffffffffffffffffffffffffffffff16021790555060a08201518160040160008201518160000160006101000a81548161ffff021916908361ffff16021790555060208201518160000160026101000a81548160ff02191690831515021790555060408201518160000160036101000a81548161ffff021916908361ffff16021790555060608201518160000160056101000a81548161ffff021916908361ffff16021790555060808201518160010155505060c0820151816006015560e08201518160070160006101000a81548160ff021916908315150217905550905050610c4633611d56565b8015610c575750610c5687611d56565b5b610c96576040517f08c379a0000000000000000000000000000000000000000000000000000000008152600401610c8d906128c3565b60405180910390fd5b600354600560003373ffffffffffffffffffffffffffffffffffffffff1673ffffffffffffffffffffffffffffffffffffffff16815260200190815260200160002081905550600354600560008973ffffffffffffffffffffffffffffffffffffffff1673ffffffffffffffffffffffffffffffffffffffff1681526020019081526020016000208190555060035491508673ffffffffffffffffffffffffffffffffffffffff163373ffffffffffffffffffffffffffffffffffffffff167f924d7492e89e2320415cf3dc9b3c1844a2ff30bca5eb7c40c2aa288c916b394960405160405180910390a360036000815480929190600101919050555060035491505095945050505050565b8061106757600060046000600560003373ffffffffffffffffffffffffffffffffffffffff1673ffffffffffffffffffffffffffffffffffffffff16815260200190815260200160002054815260200190815260200160002090503373ffffffffffffffffffffffffffffffffffffffff168160010160009054906101000a900473ffffffffffffffffffffffffffffffffffffffff1673ffffffffffffffffffffffffffffffffffffffff1614610e5957600080fd5b60008160070160006101000a81548160ff02191690831515021790555060048160010160146101000a81548160ff02191690836004811115610e9757fe5b02179055506000600560008360000160009054906101000a900473ffffffffffffffffffffffffffffffffffffffff1673ffffffffffffffffffffffffffffffffffffffff1673ffffffffffffffffffffffffffffffffffffffff168152602001908152602001600020819055506000600560008360010160009054906101000a900473ffffffffffffffffffffffffffffffffffffffff1673ffffffffffffffffffffffffffffffffffffffff1673ffffffffffffffffffffffffffffffffffffffff168152602001908152602001600020819055506000600560003373ffffffffffffffffffffffffffffffffffffffff1673ffffffffffffffffffffffffffffffffffffffff168152602001908152602001600020819055508060010160009054906101000a900473ffffffffffffffffffffffffffffffffffffffff1673ffffffffffffffffffffffffffffffffffffffff168160000160009054906101000a900473ffffffffffffffffffffffffffffffffffffffff1673ffffffffffffffffffffffffffffffffffffffff167f8f46d051ff9b2597fea8c60146bef33969de64edef522f8e1e927f117cb408b660006040516110599190612846565b60405180910390a350611231565b600060046000600560003373ffffffffffffffffffffffffffffffffffffffff1673ffffffffffffffffffffffffffffffffffffffff1681526020019081526020016000205481526020019081526020016000209050806004016001015434146110d057600080fd5b3373ffffffffffffffffffffffffffffffffffffffff168160010160009054906101000a900473ffffffffffffffffffffffffffffffffffffffff1673ffffffffffffffffffffffffffffffffffffffff161461112c57600080fd5b60018160070160006101000a81548160ff02191690831515021790555060028160010160146101000a81548160ff0219169083600481111561116a57fe5b02179055503481600601600082825401925050819055508060010160009054906101000a900473ffffffffffffffffffffffffffffffffffffffff1673ffffffffffffffffffffffffffffffffffffffff168160000160009054906101000a900473ffffffffffffffffffffffffffffffffffffffff1673ffffffffffffffffffffffffffffffffffffffff167f8f46d051ff9b2597fea8c60146bef33969de64edef522f8e1e927f117cb408b660016040516112279190612846565b60405180910390a3505b50565b61123c612133565b60046000838152602001908152602001600020604051806101000160405290816000820160009054906101000a900473ffffffffffffffffffffffffffffffffffffffff1673ffffffffffffffffffffffffffffffffffffffff1673ffffffffffffffffffffffffffffffffffffffff1681526020016001820160009054906101000a900473ffffffffffffffffffffffffffffffffffffffff1673ffffffffffffffffffffffffffffffffffffffff1673ffffffffffffffffffffffffffffffffffffffff1681526020016001820160149054906101000a900460ff16600481111561132557fe5b600481111561133057fe5b8152602001600282018054600181600116156101000203166002900480601f0160208091040260200160405190810160405280929190818152602001828054600181600116156101000203166002900480156113cd5780601f106113a2576101008083540402835291602001916113cd565b820191906000526020600020905b8154815290600101906020018083116113b057829003601f168201915b505050505081526020016003820160009054906101000a900473ffffffffffffffffffffffffffffffffffffffff1673ffffffffffffffffffffffffffffffffffffffff1673ffffffffffffffffffffffffffffffffffffffff168152602001600482016040518060a00160405290816000820160009054906101000a900461ffff1661ffff1661ffff1681526020016000820160029054906101000a900460ff161515151581526020016000820160039054906101000a900461ffff1661ffff1661ffff1681526020016000820160059054906101000a900461ffff1661ffff1661ffff1681526020016001820154815250508152602001600682015481526020016007820160009054906101000a900460ff1615151515815250509050919050565b6000600160035403905090565b600160009054906101000a900473ffffffffffffffffffffffffffffffffffffffff1673ffffffffffffffffffffffffffffffffffffffff163373ffffffffffffffffffffffffffffffffffffffff1614806115a75750600260009054906101000a900473ffffffffffffffffffffffffffffffffffffffff1673ffffffffffffffffffffffffffffffffffffffff163373ffffffffffffffffffffffffffffffffffffffff16145b806115fd575060008054906101000a900473ffffffffffffffffffffffffffffffffffffffff1673ffffffffffffffffffffffffffffffffffffffff163373ffffffffffffffffffffffffffffffffffffffff16145b61163c576040517f08c379a0000000000000000000000000000000000000000000000000000000008152600401611633906128a3565b60405180910390fd5b806000806101000a81548173ffffffffffffffffffffffffffffffffffffffff021916908373ffffffffffffffffffffffffffffffffffffffff16021790555050565b60008060046000848152602001908152602001600020604051806101000160405290816000820160009054906101000a900473ffffffffffffffffffffffffffffffffffffffff1673ffffffffffffffffffffffffffffffffffffffff1673ffffffffffffffffffffffffffffffffffffffff1681526020016001820160009054906101000a900473ffffffffffffffffffffffffffffffffffffffff1673ffffffffffffffffffffffffffffffffffffffff1673ffffffffffffffffffffffffffffffffffffffff1681526020016001820160149054906101000a900460ff16600481111561176b57fe5b600481111561177657fe5b8152602001600282018054600181600116156101000203166002900480601f0160208091040260200160405190810160405280929190818152602001828054600181600116156101000203166002900480156118135780601f106117e857610100808354040283529160200191611813565b820191906000526020600020905b8154815290600101906020018083116117f657829003601f168201915b505050505081526020016003820160009054906101000a900473ffffffffffffffffffffffffffffffffffffffff1673ffffffffffffffffffffffffffffffffffffffff1673ffffffffffffffffffffffffffffffffffffffff168152602001600482016040518060a00160405290816000820160009054906101000a900461ffff1661ffff1661ffff1681526020016000820160029054906101000a900460ff161515151581526020016000820160039054906101000a900461ffff1661ffff1661ffff1681526020016000820160059054906101000a900461ffff1661ffff1661ffff1681526020016001820154815250508152602001600682015481526020016007820160009054906101000a900460ff161515151581525050905060006002600481111561194157fe5b8260400151600481111561195157fe5b148061197757506001600481111561196557fe5b8260400151600481111561197557fe5b145b90506000826080015173ffffffffffffffffffffffffffffffffffffffff163373ffffffffffffffffffffffffffffffffffffffff16141590508180156119bb5750805b6119fa576040517f08c379a00000000000000000000000000000000000000000000000000000000081526004016119f190612883565b60405180910390fd5b60019350505050919050565b60008060046000848152602001908152602001600020604051806101000160405290816000820160009054906101000a900473ffffffffffffffffffffffffffffffffffffffff1673ffffffffffffffffffffffffffffffffffffffff1673ffffffffffffffffffffffffffffffffffffffff1681526020016001820160009054906101000a900473ffffffffffffffffffffffffffffffffffffffff1673ffffffffffffffffffffffffffffffffffffffff1673ffffffffffffffffffffffffffffffffffffffff1681526020016001820160149054906101000a900460ff166004811115611af257fe5b6004811115611afd57fe5b8152602001600282018054600181600116156101000203166002900480601f016020809104026020016040519081016040528092919081815260200182805460018160011615610100020316600290048015611b9a5780601f10611b6f57610100808354040283529160200191611b9a565b820191906000526020600020905b815481529060010190602001808311611b7d57829003601f168201915b505050505081526020016003820160009054906101000a900473ffffffffffffffffffffffffffffffffffffffff1673ffffffffffffffffffffffffffffffffffffffff1673ffffffffffffffffffffffffffffffffffffffff168152602001600482016040518060a00160405290816000820160009054906101000a900461ffff1661ffff1661ffff1681526020016000820160029054906101000a900460ff161515151581526020016000820160039054906101000a900461ffff1661ffff1661ffff1681526020016000820160059054906101000a900461ffff1661ffff1661ffff1681526020016001820154815250508152602001600682015481526020016007820160009054906101000a900460ff161515151581525050905082600560003373ffffffffffffffffffffffffffffffffffffffff1673ffffffffffffffffffffffffffffffffffffffff1681526020019081526020016000205414611d0457600080fd5b3373ffffffffffffffffffffffffffffffffffffffff16816000015173ffffffffffffffffffffffffffffffffffffffff161415611d485780602001519150611d50565b806000015191505b50919050565b60008060046000600560008673ffffffffffffffffffffffffffffffffffffffff1673ffffffffffffffffffffffffffffffffffffffff168152602001908152602001600020548152602001908152602001600020604051806101000160405290816000820160009054906101000a900473ffffffffffffffffffffffffffffffffffffffff1673ffffffffffffffffffffffffffffffffffffffff1673ffffffffffffffffffffffffffffffffffffffff1681526020016001820160009054906101000a900473ffffffffffffffffffffffffffffffffffffffff1673ffffffffffffffffffffffffffffffffffffffff1673ffffffffffffffffffffffffffffffffffffffff1681526020016001820160149054906101000a900460ff166004811115611e8157fe5b6004811115611e8c57fe5b8152602001600282018054600181600116156101000203166002900480601f016020809104026020016040519081016040528092919081815260200182805460018160011615610100020316600290048015611f295780601f10611efe57610100808354040283529160200191611f29565b820191906000526020600020905b815481529060010190602001808311611f0c57829003601f168201915b505050505081526020016003820160009054906101000a900473ffffffffffffffffffffffffffffffffffffffff1673ffffffffffffffffffffffffffffffffffffffff1673ffffffffffffffffffffffffffffffffffffffff168152602001600482016040518060a00160405290816000820160009054906101000a900461ffff1661ffff1661ffff1681526020016000820160029054906101000a900460ff161515151581526020016000820160039054906101000a900461ffff1661ffff1661ffff1681526020016000820160059054906101000a900461ffff1661ffff1661ffff1681526020016001820154815250508152602001600682015481526020016007820160009054906101000a900460ff16151515158152505090506003600481111561205557fe5b8160400151600481111561206557fe5b148061208b57506000600481111561207957fe5b8160400151600481111561208957fe5b145b1561209a5760019150506120a0565b60009150505b919050565b828054600181600116156101000203166002900490600052602060002090601f0160209004810192826120db5760008555612122565b82601f106120f457805160ff1916838001178555612122565b82800160010185558215612122579182015b82811115612121578251825591602001919060010190612106565b5b50905061212f91906121cd565b5090565b604051806101000160405280600073ffffffffffffffffffffffffffffffffffffffff168152602001600073ffffffffffffffffffffffffffffffffffffffff1681526020016000600481111561218657fe5b815260200160608152602001600073ffffffffffffffffffffffffffffffffffffffff1681526020016121b76121ea565b8152602001600081526020016000151581525090565b5b808211156121e65760008160009055506001016121ce565b5090565b6040518060a00160405280600061ffff168152602001600015158152602001600061ffff168152602001600061ffff168152602001600081525090565b600061223a61223584612951565b612920565b90508281526020810184848401111561225257600080fd5b61225d848285612a34565b509392505050565b60008135905061227481612a9d565b92915050565b60008135905061228981612ab4565b92915050565b600082601f8301126122a057600080fd5b81356122b0848260208601612227565b91505092915050565b6000813590506122c881612acb565b92915050565b6000813590506122dd81612ae2565b92915050565b6000602082840312156122f557600080fd5b600061230384828501612265565b91505092915050565b600080600080600060a0868803121561232457600080fd5b600061233288828901612265565b9550506020612343888289016122b9565b9450506040612354888289016122b9565b9350506060612365888289016122b9565b9250506080612376888289016122ce565b9150509295509295909350565b60006020828403121561239557600080fd5b60006123a38482850161227a565b91505092915050565b6000602082840312156123be57600080fd5b600082013567ffffffffffffffff8111156123d857600080fd5b6123e48482850161228f565b91505092915050565b6000602082840312156123ff57600080fd5b600061240d848285016122ce565b91505092915050565b61241f816129b9565b82525050565b61242e816129b9565b82525050565b61243d816129cb565b82525050565b61244c816129cb565b82525050565b61245b81612a22565b82525050565b61246a81612a22565b82525050565b600061247b82612981565b612485818561298c565b9350612495818560208601612a43565b61249e81612a78565b840191505092915050565b60006124b482612981565b6124be818561299d565b93506124ce818560208601612a43565b6124d781612a78565b840191505092915050565b60006124ed82612981565b6124f781856129ae565b9350612507818560208601612a43565b80840191505092915050565b600061252060188361299d565b91507f47616d652053746174653a20556e617661696c61626c652e00000000000000006000830152602082019050919050565b6000612560600c8361299d565b91507f4e6f7420616e204f776e657200000000000000000000000000000000000000006000830152602082019050919050565b60006125a0602a8361299d565b91507f4f6e65206f662074686520706c61796572732068617320612067616d6520696e60008301527f2070726f67726573732e000000000000000000000000000000000000000000006020830152604082019050919050565b6000610180830160008301516126126000860182612416565b5060208301516126256020860182612416565b5060408301516126386040860182612452565b50606083015184820360608601526126508282612470565b91505060808301516126656080860182612416565b5060a083015161267860a08601826126ab565b5060c083015161268c61014086018261278a565b5060e08301516126a0610160860182612434565b508091505092915050565b60a0820160008201516126c1600085018261277b565b5060208201516126d46020850182612434565b5060408201516126e7604085018261277b565b5060608201516126fa606085018261277b565b50608082015161270d608085018261278a565b50505050565b60a082016000820151612729600085018261277b565b50602082015161273c6020850182612434565b50604082015161274f604085018261277b565b506060820151612762606085018261277b565b506080820151612775608085018261278a565b50505050565b612784816129ea565b82525050565b61279381612a18565b82525050565b6127a281612a18565b82525050565b60006127b482846124e2565b915081905092915050565b6000610180820190506127d5600083018b612425565b6127e2602083018a612425565b6127ef6040830189612461565b818103606083015261280181886124a9565b90506128106080830187612425565b61281d60a0830186612713565b61282b610140830185612799565b612839610160830184612443565b9998505050505050505050565b600060208201905061285b6000830184612443565b92915050565b6000602082019050818103600083015261287b81846124a9565b905092915050565b6000602082019050818103600083015261289c81612513565b9050919050565b600060208201905081810360008301526128bc81612553565b9050919050565b600060208201905081810360008301526128dc81612593565b9050919050565b600060208201905081810360008301526128fd81846125f9565b905092915050565b600060208201905061291a6000830184612799565b92915050565b6000604051905081810181811067ffffffffffffffff8211171561294757612946612a76565b5b8060405250919050565b600067ffffffffffffffff82111561296c5761296b612a76565b5b601f19601f8301169050602081019050919050565b600081519050919050565b600082825260208201905092915050565b600082825260208201905092915050565b600081905092915050565b60006129c4826129f8565b9050919050565b60008115159050919050565b60008190506129e582612a89565b919050565b600061ffff82169050919050565b600073ffffffffffffffffffffffffffffffffffffffff82169050919050565b6000819050919050565b6000612a2d826129d7565b9050919050565b82818337600083830152505050565b60005b83811015612a61578082015181840152602081019050612a46565b83811115612a70576000848401525b50505050565bfe5b6000601f19601f8301169050919050565b60058110612a9a57612a99612a76565b5b50565b612aa6816129b9565b8114612ab157600080fd5b50565b612abd816129cb565b8114612ac857600080fd5b50565b612ad4816129ea565b8114612adf57600080fd5b50565b612aeb81612a18565b8114612af657600080fd5b5056fea26469706673582212209539ac84bed39263c807aac32d3de1be96fb5e386b087425df5d27ea08c99f8864736f6c63430007060033",
  "immutableReferences": {},
  "source": "// SPDX-License-Identifier: MIT\n//pragma solidity >=0.4.22 <0.9.0;\npragma solidity >=0.7.0;\npragma experimental ABIEncoderV2;\n\ncontract GameContract {\n\n  address owner3;\n  address owner;\n  address owner2;\n  uint gameId;\n  \n//////// Constructor \n//compiler requires public\n  constructor() {\n    owner= msg.sender;\n    owner2= address(0x49A3e9f02E8b0a6076f8568361926D54d17730Cb);\n    gameId=1;\n  }\n\n   function setNewOwner(address _newOwner) isOwner external {\n     owner3= _newOwner;\n  }\n/////// Constructor END\n  \n  enum gameState {NoAssignedState, Staged, InProgress, Ended, Rejected }\n  \n  struct gameSettings {\n    uint16 startsAt;\n    bool openInvite;\n    uint16 totalTime;\n    uint16 timeoutTime;\n    uint wageSize; \n  }\n\n  struct gameData {\n    address playerOne;\n    address playerTwo;\n    gameState gState;\n    string currentGameBoard;\n    address lastMover;\n    gameSettings settings;\n    uint gameBalance;\n    bool player2accepted; \n  }\n  \n  mapping (uint => gameData) public games; \n  mapping (address => uint) myLastGame;\n  address[32] gameOwners;\n  address[32] gamePlayers;\n\n  event newGameCreatedEvent(address indexed _playerOne, address indexed _playerTwo);\n\n////// Modifiers Start \n  modifier isOwner() {\n    require (msg.sender == owner|| msg.sender == owner2 || msg.sender == owner3, \"Not an Owner\");\n    _; \n  }\n\n  function otherPlayer(uint _gameId) view internal returns (address other) {\n    gameData memory thisGame = games[_gameId];\n    require(myLastGame[msg.sender]== _gameId);\n    if (thisGame.playerOne == msg.sender){\n      other= thisGame.playerTwo;\n    } else {\n      other= thisGame.playerOne;\n    }\n  }  \n\n  function onMoveStateCheck(uint _gameid ) internal view returns(bool) {\n    //do not need it, do I?\n    gameData memory game=games[_gameid];\n    bool g= (  game.gState == gameState.InProgress || game.gState == gameState.Staged  );\n    bool notLastMover = msg.sender != game.lastMover; \n    require( g && notLastMover , \"Game State: Unavailable.\" );\n    return true;\n  }\n\n  function noOtherGameOnCreate(address player1) internal view returns(bool) {\n    gameData memory lastPlayer1Game = games[myLastGame[player1]]; \n\n    if( (lastPlayer1Game.gState == gameState.Ended) || (lastPlayer1Game.gState == gameState.NoAssignedState) ){\n      return true;\n    } else {\n      return false;\n    }\n  }\n////// Modifiers END\n  function initializeGame(address _playerTwo,\n                          uint16 _startsAt,\n                          uint16 _totalTime,\n                          uint16 _timeoutTime,\n                          uint _wageSize ) public payable returns(uint justCreatedGameId) {\n    bool openGame;\n  \n    games[gameId]= gameData({\n                            playerOne: msg.sender,\n                            playerTwo: _playerTwo,\n                            gState: gameState.Staged,\n                            currentGameBoard:\"\",\n                            lastMover: address(0),\n                            settings: gameSettings ({ startsAt: _startsAt,\n                                              openInvite: openGame,\n                                              totalTime: _totalTime,\n                                              timeoutTime: _timeoutTime,\n                                              wageSize:  _wageSize }),\n                            gameBalance: msg.value,\n                            player2accepted: false \n                            });\n\n    require((noOtherGameOnCreate(msg.sender) && noOtherGameOnCreate(_playerTwo)), \"One of the players has a game in progress.\");\n    myLastGame[msg.sender]= gameId;\n    myLastGame[_playerTwo]= gameId;\n    \n    justCreatedGameId = gameId;\n    \n    emit newGameCreatedEvent(msg.sender,_playerTwo);\n    gameId++;\n\n    return gameId;\n  }\n\n  function getLastGameId() public view returns(uint) {\n    return gameId-1; \n  }\n\n  function getGame(uint gId) public view returns(gameData memory )  {\n      return games[gId];\n  }\n \n  function checkAndReturnCurrentGame() public view returns (gameData memory game) {\n    game= games[myLastGame[msg.sender]];\n  //   if ( noOtherGameOnCreate(msg.sender)) {\n  //     return games[0];  //////??? why \n  //   } else {\n  //     game= games[myLastGame[msg.sender]];\n  //     return game;\n  //   }\n   }\n  \n  event player2Accepted(address indexed _player1, address indexed _player2, bool _accepted);\n  \n  function timeOutforAccept() public {}\n\n  function playerTwoAccepted(bool _accepted) public payable  {\n    if (! _accepted) {\n      gameData storage game =  games[myLastGame[msg.sender]];\n      require(game.playerTwo == msg.sender);\n      game.player2accepted = false;\n      game.gState = gameState.Rejected;\n      //or cancel? w\\ no refund?\n      myLastGame[game.playerOne]= 0;\n      myLastGame[game.playerTwo]= 0;\n      //uint tenpercent = \n      myLastGame[msg.sender] = 0; \n      //(bool success,) = msg.sender.call.value(//%palyer1deposit/gascost)()\n      //norefund for now.\n      emit player2Accepted(game.playerOne, game.playerTwo, false);\n    } else {\n      gameData storage game = games[myLastGame[msg.sender]];\n      require(msg.value == game.settings.wageSize);\n      require(game.playerTwo == msg.sender);\n      game.player2accepted = true;\n      game.gState = gameState.InProgress;\n      game.gameBalance += msg.value;\n\n      emit player2Accepted(game.playerOne, game.playerTwo, true);\n    }\n  }\n  \n  \n  \n  event newMoveInGame(address indexed submittedby, address indexed otherPlayer, string indexed prevState, string nextState);\n\n  function submitMove(string memory _submittedMove) public {\n    string memory submitted = _submittedMove;\n    gameData storage game= games[myLastGame[msg.sender]]; \n    string memory prevState= string(game.currentGameBoard);\n    if(onMoveStateCheck(myLastGame[msg.sender])) {\n      game.lastMover= msg.sender;\n      game.currentGameBoard = submitted; \n    }\n    address other = otherPlayer(myLastGame[msg.sender]); \n    emit newMoveInGame( msg.sender, other, string(prevState), string(submitted) );\n  } \n}\n",
  "sourcePath": "/home/pbdesk2/Desktop/github/consensys_final_project/contracts/GameContract.sol",
  "compiler": {
    "name": "solc",
    "version": "0.7.6+commit.7338295f.Emscripten.clang"
  },
  "schemaVersion": "3.4.3",
  "updatedAt": "2021-09-23T20:33:20.653Z",
  "networkType": "ethereum",
  "devdoc": {
    "kind": "dev",
    "methods": {},
    "version": 1
  },
  "userdoc": {
    "kind": "user",
    "methods": {},
    "version": 1
  }
}