{
  "contractName": "GameContract",
  "abi": [
    {
      "inputs": [],
      "stateMutability": "nonpayable",
      "type": "constructor"
    },
    {
      "anonymous": false,
      "inputs": [
        {
          "indexed": true,
          "internalType": "address",
          "name": "_playerOne",
          "type": "address"
        },
        {
          "indexed": true,
          "internalType": "address",
          "name": "_playerTwo",
          "type": "address"
        }
      ],
      "name": "newGameCreatedEvent",
      "type": "event"
    },
    {
      "anonymous": false,
      "inputs": [
        {
          "indexed": true,
          "internalType": "address",
          "name": "submittedby",
          "type": "address"
        },
        {
          "indexed": true,
          "internalType": "address",
          "name": "otherPlayer",
          "type": "address"
        },
        {
          "indexed": true,
          "internalType": "string",
          "name": "prevState",
          "type": "string"
        },
        {
          "components": [
            {
              "internalType": "address",
              "name": "playerOne",
              "type": "address"
            },
            {
              "internalType": "address",
              "name": "playerTwo",
              "type": "address"
            },
            {
              "internalType": "enum GameContract.gameState",
              "name": "gState",
              "type": "uint8"
            },
            {
              "internalType": "string",
              "name": "currentGameBoard",
              "type": "string"
            },
            {
              "internalType": "address",
              "name": "lastMover",
              "type": "address"
            },
            {
              "components": [
                {
                  "internalType": "uint16",
                  "name": "startsAt",
                  "type": "uint16"
                },
                {
                  "internalType": "bool",
                  "name": "openInvite",
                  "type": "bool"
                },
                {
                  "internalType": "uint16",
                  "name": "totalTime",
                  "type": "uint16"
                },
                {
                  "internalType": "uint16",
                  "name": "timeoutTime",
                  "type": "uint16"
                },
                {
                  "internalType": "uint256",
                  "name": "wageSize",
                  "type": "uint256"
                },
                {
                  "internalType": "uint8",
                  "name": "p1color",
                  "type": "uint8"
                },
                {
                  "internalType": "uint8",
                  "name": "p2color",
                  "type": "uint8"
                }
              ],
              "internalType": "struct GameContract.gameSettings",
              "name": "settings",
              "type": "tuple"
            },
            {
              "internalType": "uint256",
              "name": "gameBalance",
              "type": "uint256"
            },
            {
              "internalType": "bool",
              "name": "player2accepted",
              "type": "bool"
            }
          ],
          "indexed": false,
          "internalType": "struct GameContract.gameData",
          "name": "current",
          "type": "tuple"
        }
      ],
      "name": "newMoveInGame",
      "type": "event"
    },
    {
      "anonymous": false,
      "inputs": [
        {
          "indexed": true,
          "internalType": "address",
          "name": "_player1",
          "type": "address"
        },
        {
          "indexed": true,
          "internalType": "address",
          "name": "_player2",
          "type": "address"
        },
        {
          "indexed": false,
          "internalType": "bool",
          "name": "_accepted",
          "type": "bool"
        }
      ],
      "name": "player2Accepted",
      "type": "event"
    },
    {
      "anonymous": false,
      "inputs": [
        {
          "indexed": true,
          "internalType": "address",
          "name": "submittedby",
          "type": "address"
        },
        {
          "indexed": true,
          "internalType": "address",
          "name": "otherPlayer",
          "type": "address"
        },
        {
          "indexed": false,
          "internalType": "address",
          "name": "OtherPlayerNotLastMovedThatResigned",
          "type": "address"
        }
      ],
      "name": "playerResigned",
      "type": "event"
    },
    {
      "inputs": [
        {
          "internalType": "uint256",
          "name": "",
          "type": "uint256"
        }
      ],
      "name": "games",
      "outputs": [
        {
          "internalType": "address",
          "name": "playerOne",
          "type": "address"
        },
        {
          "internalType": "address",
          "name": "playerTwo",
          "type": "address"
        },
        {
          "internalType": "enum GameContract.gameState",
          "name": "gState",
          "type": "uint8"
        },
        {
          "internalType": "string",
          "name": "currentGameBoard",
          "type": "string"
        },
        {
          "internalType": "address",
          "name": "lastMover",
          "type": "address"
        },
        {
          "components": [
            {
              "internalType": "uint16",
              "name": "startsAt",
              "type": "uint16"
            },
            {
              "internalType": "bool",
              "name": "openInvite",
              "type": "bool"
            },
            {
              "internalType": "uint16",
              "name": "totalTime",
              "type": "uint16"
            },
            {
              "internalType": "uint16",
              "name": "timeoutTime",
              "type": "uint16"
            },
            {
              "internalType": "uint256",
              "name": "wageSize",
              "type": "uint256"
            },
            {
              "internalType": "uint8",
              "name": "p1color",
              "type": "uint8"
            },
            {
              "internalType": "uint8",
              "name": "p2color",
              "type": "uint8"
            }
          ],
          "internalType": "struct GameContract.gameSettings",
          "name": "settings",
          "type": "tuple"
        },
        {
          "internalType": "uint256",
          "name": "gameBalance",
          "type": "uint256"
        },
        {
          "internalType": "bool",
          "name": "player2accepted",
          "type": "bool"
        }
      ],
      "stateMutability": "view",
      "type": "function",
      "constant": true
    },
    {
      "inputs": [
        {
          "internalType": "address",
          "name": "_newOwner",
          "type": "address"
        }
      ],
      "name": "setNewOwner",
      "outputs": [],
      "stateMutability": "nonpayable",
      "type": "function"
    },
    {
      "inputs": [
        {
          "internalType": "address",
          "name": "_playerTwo",
          "type": "address"
        },
        {
          "internalType": "uint16",
          "name": "_startsAt",
          "type": "uint16"
        },
        {
          "internalType": "uint16",
          "name": "_totalTime",
          "type": "uint16"
        },
        {
          "internalType": "uint16",
          "name": "_timeoutTime",
          "type": "uint16"
        },
        {
          "internalType": "uint256",
          "name": "_wageSize",
          "type": "uint256"
        },
        {
          "internalType": "string",
          "name": "_currentGameBoard",
          "type": "string"
        },
        {
          "internalType": "uint8",
          "name": "_p1color",
          "type": "uint8"
        },
        {
          "internalType": "uint8",
          "name": "_p2color",
          "type": "uint8"
        }
      ],
      "name": "initializeGame",
      "outputs": [
        {
          "internalType": "uint256",
          "name": "justCreatedGameId",
          "type": "uint256"
        }
      ],
      "stateMutability": "payable",
      "type": "function",
      "payable": true
    },
    {
      "inputs": [],
      "name": "getLastGameId",
      "outputs": [
        {
          "internalType": "uint256",
          "name": "",
          "type": "uint256"
        }
      ],
      "stateMutability": "view",
      "type": "function",
      "constant": true
    },
    {
      "inputs": [
        {
          "internalType": "uint256",
          "name": "gId",
          "type": "uint256"
        }
      ],
      "name": "getGame",
      "outputs": [
        {
          "components": [
            {
              "internalType": "address",
              "name": "playerOne",
              "type": "address"
            },
            {
              "internalType": "address",
              "name": "playerTwo",
              "type": "address"
            },
            {
              "internalType": "enum GameContract.gameState",
              "name": "gState",
              "type": "uint8"
            },
            {
              "internalType": "string",
              "name": "currentGameBoard",
              "type": "string"
            },
            {
              "internalType": "address",
              "name": "lastMover",
              "type": "address"
            },
            {
              "components": [
                {
                  "internalType": "uint16",
                  "name": "startsAt",
                  "type": "uint16"
                },
                {
                  "internalType": "bool",
                  "name": "openInvite",
                  "type": "bool"
                },
                {
                  "internalType": "uint16",
                  "name": "totalTime",
                  "type": "uint16"
                },
                {
                  "internalType": "uint16",
                  "name": "timeoutTime",
                  "type": "uint16"
                },
                {
                  "internalType": "uint256",
                  "name": "wageSize",
                  "type": "uint256"
                },
                {
                  "internalType": "uint8",
                  "name": "p1color",
                  "type": "uint8"
                },
                {
                  "internalType": "uint8",
                  "name": "p2color",
                  "type": "uint8"
                }
              ],
              "internalType": "struct GameContract.gameSettings",
              "name": "settings",
              "type": "tuple"
            },
            {
              "internalType": "uint256",
              "name": "gameBalance",
              "type": "uint256"
            },
            {
              "internalType": "bool",
              "name": "player2accepted",
              "type": "bool"
            }
          ],
          "internalType": "struct GameContract.gameData",
          "name": "",
          "type": "tuple"
        }
      ],
      "stateMutability": "view",
      "type": "function",
      "constant": true
    },
    {
      "inputs": [],
      "name": "checkAndReturnCurrentGame",
      "outputs": [
        {
          "components": [
            {
              "internalType": "address",
              "name": "playerOne",
              "type": "address"
            },
            {
              "internalType": "address",
              "name": "playerTwo",
              "type": "address"
            },
            {
              "internalType": "enum GameContract.gameState",
              "name": "gState",
              "type": "uint8"
            },
            {
              "internalType": "string",
              "name": "currentGameBoard",
              "type": "string"
            },
            {
              "internalType": "address",
              "name": "lastMover",
              "type": "address"
            },
            {
              "components": [
                {
                  "internalType": "uint16",
                  "name": "startsAt",
                  "type": "uint16"
                },
                {
                  "internalType": "bool",
                  "name": "openInvite",
                  "type": "bool"
                },
                {
                  "internalType": "uint16",
                  "name": "totalTime",
                  "type": "uint16"
                },
                {
                  "internalType": "uint16",
                  "name": "timeoutTime",
                  "type": "uint16"
                },
                {
                  "internalType": "uint256",
                  "name": "wageSize",
                  "type": "uint256"
                },
                {
                  "internalType": "uint8",
                  "name": "p1color",
                  "type": "uint8"
                },
                {
                  "internalType": "uint8",
                  "name": "p2color",
                  "type": "uint8"
                }
              ],
              "internalType": "struct GameContract.gameSettings",
              "name": "settings",
              "type": "tuple"
            },
            {
              "internalType": "uint256",
              "name": "gameBalance",
              "type": "uint256"
            },
            {
              "internalType": "bool",
              "name": "player2accepted",
              "type": "bool"
            }
          ],
          "internalType": "struct GameContract.gameData",
          "name": "game",
          "type": "tuple"
        }
      ],
      "stateMutability": "view",
      "type": "function",
      "constant": true
    },
    {
      "inputs": [],
      "name": "timeOutforAccept",
      "outputs": [],
      "stateMutability": "nonpayable",
      "type": "function"
    },
    {
      "inputs": [
        {
          "internalType": "bool",
          "name": "_accepted",
          "type": "bool"
        }
      ],
      "name": "playerTwoAccepted",
      "outputs": [],
      "stateMutability": "payable",
      "type": "function",
      "payable": true
    },
    {
      "inputs": [
        {
          "internalType": "string",
          "name": "_submittedMove",
          "type": "string"
        }
      ],
      "name": "submitMove",
      "outputs": [],
      "stateMutability": "nonpayable",
      "type": "function"
    },
    {
      "inputs": [],
      "name": "resignGame",
      "outputs": [],
      "stateMutability": "nonpayable",
      "type": "function"
    }
  ],
  "bytecode": "0x608060405234801561001057600080fd5b5033600160006101000a81548173ffffffffffffffffffffffffffffffffffffffff021916908373ffffffffffffffffffffffffffffffffffffffff1602179055507349a3e9f02e8b0a6076f8568361926d54d17730cb600260006101000a81548173ffffffffffffffffffffffffffffffffffffffff021916908373ffffffffffffffffffffffffffffffffffffffff160217905550600160038190555061357a806100be6000396000f3fe6080604052600436106100915760003560e01c80638c79a38c116100595780638c79a38c1461015c578063a2f77bcc14610178578063a35b6ec7146101b5578063a7c58af1146101e0578063f5a1f5b41461021057610091565b80630800cb7e14610096578063117a5b90146100ad5780631ea8c3be146100f15780635c0c3bb41461011a5780637ab2942b14610131575b600080fd5b3480156100a257600080fd5b506100ab610239565b005b3480156100b957600080fd5b506100d460048036038101906100cf91906128f6565b61045e565b6040516100e8989796959493929190612fca565b60405180910390f35b3480156100fd57600080fd5b50610118600480360381019061011391906128b5565b610681565b005b34801561012657600080fd5b5061012f610997565b005b34801561013d57600080fd5b50610146610999565b60405161015391906130ec565b60405180910390f35b6101766004803603810190610171919061288c565b610ccd565b005b34801561018457600080fd5b5061019f600480360381019061019a91906128f6565b61115f565b6040516101ac91906130ec565b60405180910390f35b3480156101c157600080fd5b506101ca611456565b6040516101d79190613130565b60405180910390f35b6101fa60048036038101906101f591906127c2565b611463565b6040516102079190613130565b60405180910390f35b34801561021c57600080fd5b5061023760048036038101906102329190612799565b6118dd565b005b600060046000600560003373ffffffffffffffffffffffffffffffffffffffff1673ffffffffffffffffffffffffffffffffffffffff16815260200190815260200160002054815260200190815260200160002090506102d7600560003373ffffffffffffffffffffffffffffffffffffffff1673ffffffffffffffffffffffffffffffffffffffff16815260200190815260200160002054611a5e565b1561045b576000600560008360000160009054906101000a900473ffffffffffffffffffffffffffffffffffffffff1673ffffffffffffffffffffffffffffffffffffffff1673ffffffffffffffffffffffffffffffffffffffff168152602001908152602001600020819055506000600560008360010160009054906101000a900473ffffffffffffffffffffffffffffffffffffffff1673ffffffffffffffffffffffffffffffffffffffff1673ffffffffffffffffffffffffffffffffffffffff168152602001908152602001600020819055506103f6600560003373ffffffffffffffffffffffffffffffffffffffff1673ffffffffffffffffffffffffffffffffffffffff16815260200190815260200160002054611e1f565b73ffffffffffffffffffffffffffffffffffffffff163373ffffffffffffffffffffffffffffffffffffffff167f2ebf0de5f8a94f0cb6835b17c86eb1fff68d7f0bb4857bfb28953adad5b7d44a336040516104529190612faf565b60405180910390a35b50565b60046020528060005260406000206000915090508060000160009054906101000a900473ffffffffffffffffffffffffffffffffffffffff16908060010160009054906101000a900473ffffffffffffffffffffffffffffffffffffffff16908060010160149054906101000a900460ff1690806002018054600181600116156101000203166002900480601f0160208091040260200160405190810160405280929190818152602001828054600181600116156101000203166002900480156105695780601f1061053e57610100808354040283529160200191610569565b820191906000526020600020905b81548152906001019060200180831161054c57829003601f168201915b5050505050908060030160009054906101000a900473ffffffffffffffffffffffffffffffffffffffff1690806004016040518060e00160405290816000820160009054906101000a900461ffff1661ffff1661ffff1681526020016000820160029054906101000a900460ff161515151581526020016000820160039054906101000a900461ffff1661ffff1661ffff1681526020016000820160059054906101000a900461ffff1661ffff1661ffff168152602001600182015481526020016002820160009054906101000a900460ff1660ff1660ff1681526020016002820160019054906101000a900460ff1660ff1660ff1681525050908060070154908060080160009054906101000a900460ff16905088565b600081905060046000600560003373ffffffffffffffffffffffffffffffffffffffff1673ffffffffffffffffffffffffffffffffffffffff16815260200190815260200160002054815260200190815260200160002060080160009054906101000a900460ff16610728576040517f08c379a000000000000000000000000000000000000000000000000000000000815260040161071f906130cc565b60405180910390fd5b600060046000600560003373ffffffffffffffffffffffffffffffffffffffff1673ffffffffffffffffffffffffffffffffffffffff16815260200190815260200160002054815260200190815260200160002090506000816002018054600181600116156101000203166002900480601f0160208091040260200160405190810160405280929190818152602001828054600181600116156101000203166002900480156108185780601f106107ed57610100808354040283529160200191610818565b820191906000526020600020905b8154815290600101906020018083116107fb57829003601f168201915b50505050509050610867600560003373ffffffffffffffffffffffffffffffffffffffff1673ffffffffffffffffffffffffffffffffffffffff16815260200190815260200160002054611a5e565b156108c957338260030160006101000a81548173ffffffffffffffffffffffffffffffffffffffff021916908373ffffffffffffffffffffffffffffffffffffffff160217905550828260020190805190602001906108c7929190612532565b505b6000610913600560003373ffffffffffffffffffffffffffffffffffffffff1673ffffffffffffffffffffffffffffffffffffffff16815260200190815260200160002054611e1f565b9050816040516109239190612f98565b60405180910390208173ffffffffffffffffffffffffffffffffffffffff163373ffffffffffffffffffffffffffffffffffffffff167f690465fbd03d88b4bf1d25b6891620b17664d17d8458b4e9507c5e95c8ccfe7386604051610988919061310e565b60405180910390a45050505050565b565b6109a16125c0565b60046000600560003373ffffffffffffffffffffffffffffffffffffffff1673ffffffffffffffffffffffffffffffffffffffff168152602001908152602001600020548152602001908152602001600020604051806101000160405290816000820160009054906101000a900473ffffffffffffffffffffffffffffffffffffffff1673ffffffffffffffffffffffffffffffffffffffff1673ffffffffffffffffffffffffffffffffffffffff1681526020016001820160009054906101000a900473ffffffffffffffffffffffffffffffffffffffff1673ffffffffffffffffffffffffffffffffffffffff1673ffffffffffffffffffffffffffffffffffffffff1681526020016001820160149054906101000a900460ff166004811115610ac957fe5b6004811115610ad457fe5b8152602001600282018054600181600116156101000203166002900480601f016020809104026020016040519081016040528092919081815260200182805460018160011615610100020316600290048015610b715780601f10610b4657610100808354040283529160200191610b71565b820191906000526020600020905b815481529060010190602001808311610b5457829003601f168201915b505050505081526020016003820160009054906101000a900473ffffffffffffffffffffffffffffffffffffffff1673ffffffffffffffffffffffffffffffffffffffff1673ffffffffffffffffffffffffffffffffffffffff168152602001600482016040518060e00160405290816000820160009054906101000a900461ffff1661ffff1661ffff1681526020016000820160029054906101000a900460ff161515151581526020016000820160039054906101000a900461ffff1661ffff1661ffff1681526020016000820160059054906101000a900461ffff1661ffff1661ffff168152602001600182015481526020016002820160009054906101000a900460ff1660ff1660ff1681526020016002820160019054906101000a900460ff1660ff1660ff16815250508152602001600782015481526020016008820160009054906101000a900460ff161515151581525050905090565b80610f9257600060046000600560003373ffffffffffffffffffffffffffffffffffffffff1673ffffffffffffffffffffffffffffffffffffffff16815260200190815260200160002054815260200190815260200160002090503373ffffffffffffffffffffffffffffffffffffffff168160010160009054906101000a900473ffffffffffffffffffffffffffffffffffffffff1673ffffffffffffffffffffffffffffffffffffffff1614610d8457600080fd5b60008160080160006101000a81548160ff02191690831515021790555060048160010160146101000a81548160ff02191690836004811115610dc257fe5b02179055506000600560008360000160009054906101000a900473ffffffffffffffffffffffffffffffffffffffff1673ffffffffffffffffffffffffffffffffffffffff1673ffffffffffffffffffffffffffffffffffffffff168152602001908152602001600020819055506000600560008360010160009054906101000a900473ffffffffffffffffffffffffffffffffffffffff1673ffffffffffffffffffffffffffffffffffffffff1673ffffffffffffffffffffffffffffffffffffffff168152602001908152602001600020819055506000600560003373ffffffffffffffffffffffffffffffffffffffff1673ffffffffffffffffffffffffffffffffffffffff168152602001908152602001600020819055508060010160009054906101000a900473ffffffffffffffffffffffffffffffffffffffff1673ffffffffffffffffffffffffffffffffffffffff168160000160009054906101000a900473ffffffffffffffffffffffffffffffffffffffff1673ffffffffffffffffffffffffffffffffffffffff167f8f46d051ff9b2597fea8c60146bef33969de64edef522f8e1e927f117cb408b66000604051610f849190613051565b60405180910390a35061115c565b600060046000600560003373ffffffffffffffffffffffffffffffffffffffff1673ffffffffffffffffffffffffffffffffffffffff168152602001908152602001600020548152602001908152602001600020905080600401600101543414610ffb57600080fd5b3373ffffffffffffffffffffffffffffffffffffffff168160010160009054906101000a900473ffffffffffffffffffffffffffffffffffffffff1673ffffffffffffffffffffffffffffffffffffffff161461105757600080fd5b60018160080160006101000a81548160ff02191690831515021790555060028160010160146101000a81548160ff0219169083600481111561109557fe5b02179055503481600701600082825401925050819055508060010160009054906101000a900473ffffffffffffffffffffffffffffffffffffffff1673ffffffffffffffffffffffffffffffffffffffff168160000160009054906101000a900473ffffffffffffffffffffffffffffffffffffffff1673ffffffffffffffffffffffffffffffffffffffff167f8f46d051ff9b2597fea8c60146bef33969de64edef522f8e1e927f117cb408b660016040516111529190613051565b60405180910390a3505b50565b6111676125c0565b60046000838152602001908152602001600020604051806101000160405290816000820160009054906101000a900473ffffffffffffffffffffffffffffffffffffffff1673ffffffffffffffffffffffffffffffffffffffff1673ffffffffffffffffffffffffffffffffffffffff1681526020016001820160009054906101000a900473ffffffffffffffffffffffffffffffffffffffff1673ffffffffffffffffffffffffffffffffffffffff1673ffffffffffffffffffffffffffffffffffffffff1681526020016001820160149054906101000a900460ff16600481111561125057fe5b600481111561125b57fe5b8152602001600282018054600181600116156101000203166002900480601f0160208091040260200160405190810160405280929190818152602001828054600181600116156101000203166002900480156112f85780601f106112cd576101008083540402835291602001916112f8565b820191906000526020600020905b8154815290600101906020018083116112db57829003601f168201915b505050505081526020016003820160009054906101000a900473ffffffffffffffffffffffffffffffffffffffff1673ffffffffffffffffffffffffffffffffffffffff1673ffffffffffffffffffffffffffffffffffffffff168152602001600482016040518060e00160405290816000820160009054906101000a900461ffff1661ffff1661ffff1681526020016000820160029054906101000a900460ff161515151581526020016000820160039054906101000a900461ffff1661ffff1661ffff1681526020016000820160059054906101000a900461ffff1661ffff1661ffff168152602001600182015481526020016002820160009054906101000a900460ff1660ff1660ff1681526020016002820160019054906101000a900460ff1660ff1660ff16815250508152602001600782015481526020016008820160009054906101000a900460ff1615151515815250509050919050565b6000600160035403905090565b6000806040518061010001604052803373ffffffffffffffffffffffffffffffffffffffff1681526020018b73ffffffffffffffffffffffffffffffffffffffff168152602001600160048111156114b757fe5b8152602001868152602001600073ffffffffffffffffffffffffffffffffffffffff1681526020016040518060e001604052808c61ffff16815260200184151581526020018b61ffff1681526020018a61ffff1681526020018981526020018760ff1681526020018660ff1681525081526020013481526020016000151581525060046000600354815260200190815260200160002060008201518160000160006101000a81548173ffffffffffffffffffffffffffffffffffffffff021916908373ffffffffffffffffffffffffffffffffffffffff16021790555060208201518160010160006101000a81548173ffffffffffffffffffffffffffffffffffffffff021916908373ffffffffffffffffffffffffffffffffffffffff16021790555060408201518160010160146101000a81548160ff021916908360048111156115ff57fe5b02179055506060820151816002019080519060200190611620929190612532565b5060808201518160030160006101000a81548173ffffffffffffffffffffffffffffffffffffffff021916908373ffffffffffffffffffffffffffffffffffffffff16021790555060a08201518160040160008201518160000160006101000a81548161ffff021916908361ffff16021790555060208201518160000160026101000a81548160ff02191690831515021790555060408201518160000160036101000a81548161ffff021916908361ffff16021790555060608201518160000160056101000a81548161ffff021916908361ffff1602179055506080820151816001015560a08201518160020160006101000a81548160ff021916908360ff16021790555060c08201518160020160016101000a81548160ff021916908360ff160217905550505060c0820151816007015560e08201518160080160006101000a81548160ff02191690831515021790555090505061177e336121a9565b801561178f575061178e8a6121a9565b5b6117ce576040517f08c379a00000000000000000000000000000000000000000000000000000000081526004016117c5906130ac565b60405180910390fd5b600354600560003373ffffffffffffffffffffffffffffffffffffffff1673ffffffffffffffffffffffffffffffffffffffff16815260200190815260200160002081905550600354600560008c73ffffffffffffffffffffffffffffffffffffffff1673ffffffffffffffffffffffffffffffffffffffff1681526020019081526020016000208190555060035491508973ffffffffffffffffffffffffffffffffffffffff163373ffffffffffffffffffffffffffffffffffffffff167f924d7492e89e2320415cf3dc9b3c1844a2ff30bca5eb7c40c2aa288c916b394960405160405180910390a360036000815480929190600101919050555060035491505098975050505050505050565b600160009054906101000a900473ffffffffffffffffffffffffffffffffffffffff1673ffffffffffffffffffffffffffffffffffffffff163373ffffffffffffffffffffffffffffffffffffffff1614806119865750600260009054906101000a900473ffffffffffffffffffffffffffffffffffffffff1673ffffffffffffffffffffffffffffffffffffffff163373ffffffffffffffffffffffffffffffffffffffff16145b806119dc575060008054906101000a900473ffffffffffffffffffffffffffffffffffffffff1673ffffffffffffffffffffffffffffffffffffffff163373ffffffffffffffffffffffffffffffffffffffff16145b611a1b576040517f08c379a0000000000000000000000000000000000000000000000000000000008152600401611a129061308c565b60405180910390fd5b806000806101000a81548173ffffffffffffffffffffffffffffffffffffffff021916908373ffffffffffffffffffffffffffffffffffffffff16021790555050565b60008060046000848152602001908152602001600020604051806101000160405290816000820160009054906101000a900473ffffffffffffffffffffffffffffffffffffffff1673ffffffffffffffffffffffffffffffffffffffff1673ffffffffffffffffffffffffffffffffffffffff1681526020016001820160009054906101000a900473ffffffffffffffffffffffffffffffffffffffff1673ffffffffffffffffffffffffffffffffffffffff1673ffffffffffffffffffffffffffffffffffffffff1681526020016001820160149054906101000a900460ff166004811115611b4a57fe5b6004811115611b5557fe5b8152602001600282018054600181600116156101000203166002900480601f016020809104026020016040519081016040528092919081815260200182805460018160011615610100020316600290048015611bf25780601f10611bc757610100808354040283529160200191611bf2565b820191906000526020600020905b815481529060010190602001808311611bd557829003601f168201915b505050505081526020016003820160009054906101000a900473ffffffffffffffffffffffffffffffffffffffff1673ffffffffffffffffffffffffffffffffffffffff1673ffffffffffffffffffffffffffffffffffffffff168152602001600482016040518060e00160405290816000820160009054906101000a900461ffff1661ffff1661ffff1681526020016000820160029054906101000a900460ff161515151581526020016000820160039054906101000a900461ffff1661ffff1661ffff1681526020016000820160059054906101000a900461ffff1661ffff1661ffff168152602001600182015481526020016002820160009054906101000a900460ff1660ff1660ff1681526020016002820160019054906101000a900460ff1660ff1660ff16815250508152602001600782015481526020016008820160009054906101000a900460ff1615151515815250509050600060026004811115611d5a57fe5b82604001516004811115611d6a57fe5b1480611d90575060016004811115611d7e57fe5b82604001516004811115611d8e57fe5b145b90506000826080015173ffffffffffffffffffffffffffffffffffffffff163373ffffffffffffffffffffffffffffffffffffffff1614159050818015611dd45750805b611e13576040517f08c379a0000000000000000000000000000000000000000000000000000000008152600401611e0a9061306c565b60405180910390fd5b60019350505050919050565b60008060046000848152602001908152602001600020604051806101000160405290816000820160009054906101000a900473ffffffffffffffffffffffffffffffffffffffff1673ffffffffffffffffffffffffffffffffffffffff1673ffffffffffffffffffffffffffffffffffffffff1681526020016001820160009054906101000a900473ffffffffffffffffffffffffffffffffffffffff1673ffffffffffffffffffffffffffffffffffffffff1673ffffffffffffffffffffffffffffffffffffffff1681526020016001820160149054906101000a900460ff166004811115611f0b57fe5b6004811115611f1657fe5b8152602001600282018054600181600116156101000203166002900480601f016020809104026020016040519081016040528092919081815260200182805460018160011615610100020316600290048015611fb35780601f10611f8857610100808354040283529160200191611fb3565b820191906000526020600020905b815481529060010190602001808311611f9657829003601f168201915b505050505081526020016003820160009054906101000a900473ffffffffffffffffffffffffffffffffffffffff1673ffffffffffffffffffffffffffffffffffffffff1673ffffffffffffffffffffffffffffffffffffffff168152602001600482016040518060e00160405290816000820160009054906101000a900461ffff1661ffff1661ffff1681526020016000820160029054906101000a900460ff161515151581526020016000820160039054906101000a900461ffff1661ffff1661ffff1681526020016000820160059054906101000a900461ffff1661ffff1661ffff168152602001600182015481526020016002820160009054906101000a900460ff1660ff1660ff1681526020016002820160019054906101000a900460ff1660ff1660ff16815250508152602001600782015481526020016008820160009054906101000a900460ff161515151581525050905082600560003373ffffffffffffffffffffffffffffffffffffffff1673ffffffffffffffffffffffffffffffffffffffff168152602001908152602001600020541461215757600080fd5b3373ffffffffffffffffffffffffffffffffffffffff16816000015173ffffffffffffffffffffffffffffffffffffffff16141561219b57806020015191506121a3565b806000015191505b50919050565b60008060046000600560008673ffffffffffffffffffffffffffffffffffffffff1673ffffffffffffffffffffffffffffffffffffffff168152602001908152602001600020548152602001908152602001600020604051806101000160405290816000820160009054906101000a900473ffffffffffffffffffffffffffffffffffffffff1673ffffffffffffffffffffffffffffffffffffffff1673ffffffffffffffffffffffffffffffffffffffff1681526020016001820160009054906101000a900473ffffffffffffffffffffffffffffffffffffffff1673ffffffffffffffffffffffffffffffffffffffff1673ffffffffffffffffffffffffffffffffffffffff1681526020016001820160149054906101000a900460ff1660048111156122d457fe5b60048111156122df57fe5b8152602001600282018054600181600116156101000203166002900480601f01602080910402602001604051908101604052809291908181526020018280546001816001161561010002031660029004801561237c5780601f106123515761010080835404028352916020019161237c565b820191906000526020600020905b81548152906001019060200180831161235f57829003601f168201915b505050505081526020016003820160009054906101000a900473ffffffffffffffffffffffffffffffffffffffff1673ffffffffffffffffffffffffffffffffffffffff1673ffffffffffffffffffffffffffffffffffffffff168152602001600482016040518060e00160405290816000820160009054906101000a900461ffff1661ffff1661ffff1681526020016000820160029054906101000a900460ff161515151581526020016000820160039054906101000a900461ffff1661ffff1661ffff1681526020016000820160059054906101000a900461ffff1661ffff1661ffff168152602001600182015481526020016002820160009054906101000a900460ff1660ff1660ff1681526020016002820160019054906101000a900460ff1660ff1660ff16815250508152602001600782015481526020016008820160009054906101000a900460ff1615151515815250509050600360048111156124e257fe5b816040015160048111156124f257fe5b148061251857506000600481111561250657fe5b8160400151600481111561251657fe5b145b1561252757600191505061252d565b60009150505b919050565b828054600181600116156101000203166002900490600052602060002090601f01602090048101928261256857600085556125af565b82601f1061258157805160ff19168380011785556125af565b828001600101855582156125af579182015b828111156125ae578251825591602001919060010190612593565b5b5090506125bc919061265a565b5090565b604051806101000160405280600073ffffffffffffffffffffffffffffffffffffffff168152602001600073ffffffffffffffffffffffffffffffffffffffff1681526020016000600481111561261357fe5b815260200160608152602001600073ffffffffffffffffffffffffffffffffffffffff168152602001612644612677565b8152602001600081526020016000151581525090565b5b8082111561267357600081600090555060010161265b565b5090565b6040518060e00160405280600061ffff168152602001600015158152602001600061ffff168152602001600061ffff16815260200160008152602001600060ff168152602001600060ff1681525090565b60006126db6126d68461317c565b61314b565b9050828152602081018484840111156126f357600080fd5b6126fe848285613316565b509392505050565b600081359050612715816134d1565b92915050565b60008135905061272a816134e8565b92915050565b600082601f83011261274157600080fd5b81356127518482602086016126c8565b91505092915050565b600081359050612769816134ff565b92915050565b60008135905061277e81613516565b92915050565b6000813590506127938161352d565b92915050565b6000602082840312156127ab57600080fd5b60006127b984828501612706565b91505092915050565b600080600080600080600080610100898b0312156127df57600080fd5b60006127ed8b828c01612706565b98505060206127fe8b828c0161275a565b975050604061280f8b828c0161275a565b96505060606128208b828c0161275a565b95505060806128318b828c0161276f565b94505060a089013567ffffffffffffffff81111561284e57600080fd5b61285a8b828c01612730565b93505060c061286b8b828c01612784565b92505060e061287c8b828c01612784565b9150509295985092959890939650565b60006020828403121561289e57600080fd5b60006128ac8482850161271b565b91505092915050565b6000602082840312156128c757600080fd5b600082013567ffffffffffffffff8111156128e157600080fd5b6128ed84828501612730565b91505092915050565b60006020828403121561290857600080fd5b60006129168482850161276f565b91505092915050565b612928816132ce565b82525050565b61293781613258565b82525050565b61294681613258565b82525050565b6129558161326a565b82525050565b6129648161326a565b82525050565b612973816132e0565b82525050565b612982816132e0565b82525050565b6000612993826131c1565b61299d81856131cc565b93506129ad818560208601613325565b6129b68161345e565b840191505092915050565b60006129cc826131c1565b6129d681856131dd565b93506129e6818560208601613325565b6129ef8161345e565b840191505092915050565b6000612a05826131c1565b612a0f81856131ee565b9350612a1f818560208601613325565b80840191505092915050565b600081546001811660008114612a485760018114612a6e57612ab2565b607f6002830416612a5981876131cc565b955060ff198316865260208601935050612ab2565b60028204612a7c81876131cc565b9550612a87856131ac565b60005b82811015612aa957815481890152600182019150602081019050612a8a565b80880195505050505b505092915050565b6000612ac76018836131dd565b91507f47616d652053746174653a20556e617661696c61626c652e00000000000000006000830152602082019050919050565b6000612b07600c836131dd565b91507f4e6f7420616e204f776e657200000000000000000000000000000000000000006000830152602082019050919050565b6000612b47602a836131dd565b91507f4f6e65206f662074686520706c61796572732068617320612067616d6520696e60008301527f2070726f67726573732e000000000000000000000000000000000000000000006020830152604082019050919050565b6000612bad601b836131dd565b91507f506c617965723220646964206e6f7420616363657074207965742e00000000006000830152602082019050919050565b60006101c083016000830151612bf9600086018261292e565b506020830151612c0c602086018261292e565b506040830151612c1f604086018261296a565b5060608301518482036060860152612c378282612988565b9150506080830151612c4c608086018261292e565b5060a0830151612c5f60a0860182612d7f565b5060c0830151612c73610180860182612f6b565b5060e0830151612c876101a086018261294c565b508091505092915050565b60006101c083016000808401549050612caa81613358565b612cb7600087018261292e565b5060018401549050612cc881613358565b612cd5602087018261292e565b50612cdf816133f4565b612cec604087018261296a565b50600284018583036060870152612d038382612a2b565b92505060038401549050612d1681613358565b612d23608087018261292e565b5060048401612d3560a0870182612e9b565b5060078401549050612d46816133a6565b612d54610180870182612f6b565b5060088401549050612d6581613372565b612d736101a087018261294c565b50819250505092915050565b60e082016000820151612d956000850182612f5c565b506020820151612da8602085018261294c565b506040820151612dbb6040850182612f5c565b506060820151612dce6060850182612f5c565b506080820151612de16080850182612f6b565b5060a0820151612df460a0850182612f89565b5060c0820151612e0760c0850182612f89565b50505050565b60e082016000820151612e236000850182612f5c565b506020820151612e36602085018261294c565b506040820151612e496040850182612f5c565b506060820151612e5c6060850182612f5c565b506080820151612e6f6080850182612f6b565b5060a0820151612e8260a0850182612f89565b5060c0820151612e9560c0850182612f89565b50505050565b60e082016000808301549050612eb08161338c565b612ebd6000860182612f5c565b50612ec78161340e565b612ed4602086018261294c565b50612ede81613428565b612eeb6040860182612f5c565b50612ef581613442565b612f026060860182612f5c565b5060018301549050612f13816133a6565b612f206080860182612f6b565b5060028301549050612f31816133c0565b612f3e60a0860182612f89565b50612f48816133da565b612f5560c0860182612f89565b5050505050565b612f6581613289565b82525050565b612f74816132b7565b82525050565b612f83816132b7565b82525050565b612f92816132c1565b82525050565b6000612fa482846129fa565b915081905092915050565b6000602082019050612fc4600083018461291f565b92915050565b60006101c082019050612fe0600083018b61293d565b612fed602083018a61293d565b612ffa6040830189612979565b818103606083015261300c81886129c1565b905061301b608083018761293d565b61302860a0830186612e0d565b613036610180830185612f7a565b6130446101a083018461295b565b9998505050505050505050565b6000602082019050613066600083018461295b565b92915050565b6000602082019050818103600083015261308581612aba565b9050919050565b600060208201905081810360008301526130a581612afa565b9050919050565b600060208201905081810360008301526130c581612b3a565b9050919050565b600060208201905081810360008301526130e581612ba0565b9050919050565b600060208201905081810360008301526131068184612be0565b905092915050565b600060208201905081810360008301526131288184612c92565b905092915050565b60006020820190506131456000830184612f7a565b92915050565b6000604051905081810181811067ffffffffffffffff821117156131725761317161345c565b5b8060405250919050565b600067ffffffffffffffff8211156131975761319661345c565b5b601f19601f8301169050602081019050919050565b60008190508160005260206000209050919050565b600081519050919050565b600082825260208201905092915050565b600082825260208201905092915050565b600081905092915050565b600073ffffffffffffffffffffffffffffffffffffffff82169050919050565b600060ff82169050919050565b600060ff82169050919050565b600061ffff82169050919050565b6000819050919050565b600060ff82169050919050565b600061326382613297565b9050919050565b60008115159050919050565b6000819050613284826134bd565b919050565b600061ffff82169050919050565b600073ffffffffffffffffffffffffffffffffffffffff82169050919050565b6000819050919050565b600060ff82169050919050565b60006132d9826132f2565b9050919050565b60006132eb82613276565b9050919050565b60006132fd82613304565b9050919050565b600061330f82613297565b9050919050565b82818337600083830152505050565b60005b83811015613343578082015181840152602081019050613328565b83811115613352576000848401525b50505050565b600061336b6133668361346f565b6131f9565b9050919050565b60006133856133808361346f565b613219565b9050919050565b600061339f61339a8361346f565b613233565b9050919050565b60006133b96133b48361346f565b613241565b9050919050565b60006133d36133ce8361346f565b61324b565b9050919050565b60006133ed6133e8836134b0565b61324b565b9050919050565b60006134076134028361347c565b613226565b9050919050565b600061342161341c83613489565b613219565b9050919050565b600061343b61343683613496565b613233565b9050919050565b6000613455613450836134a3565b613233565b9050919050565bfe5b6000601f19601f8301169050919050565b60008160001c9050919050565b60008160a01c9050919050565b60008160101c9050919050565b60008160181c9050919050565b60008160281c9050919050565b60008160081c9050919050565b600581106134ce576134cd61345c565b5b50565b6134da81613258565b81146134e557600080fd5b50565b6134f18161326a565b81146134fc57600080fd5b50565b61350881613289565b811461351357600080fd5b50565b61351f816132b7565b811461352a57600080fd5b50565b613536816132c1565b811461354157600080fd5b5056fea264697066735822122047fcad7e3d04ae0232fe05cd87f3a85ca2ebc232f0788b4f9bf77d56768029cc64736f6c63430007060033",
  "immutableReferences": {},
  "source": "// SPDX-License-Identifier: MIT\n//pragma solidity >=0.4.22 <0.9.0;\npragma solidity >=0.7.0;\npragma experimental ABIEncoderV2;\n\ncontract GameContract {\n\n  address owner3;\n  address owner;\n  address owner2;\n  uint gameId;\n  \n//////// Constructor \n//compiler requires public\n  constructor() {\n    owner= msg.sender;\n    owner2= address(0x49A3e9f02E8b0a6076f8568361926D54d17730Cb);\n    gameId=1;\n  }\n\n   function setNewOwner(address _newOwner) isOwner external {\n     owner3= _newOwner;\n  }\n/////// Constructor END\n  \n  enum gameState {NoAssignedState, Staged, InProgress, Ended, Rejected }\n  \n  struct gameSettings {\n    uint16 startsAt;\n    bool openInvite;\n    uint16 totalTime;\n    uint16 timeoutTime;\n    uint wageSize;\n    uint8 p1color;\n    uint8 p2color; \n  }\n\n  struct gameData {\n    address playerOne;\n    address playerTwo;\n    gameState gState;\n    string currentGameBoard;\n    address lastMover;\n    gameSettings settings;\n    uint gameBalance;\n    bool player2accepted;\n  }\n  \n  mapping (uint => gameData) public games; \n  mapping (address => uint) myLastGame;\n  address[32] gameOwners;\n  address[32] gamePlayers;\n\n  event newGameCreatedEvent(address indexed _playerOne, address indexed _playerTwo);\n\n////// Modifiers Start \n  modifier isOwner() {\n    require (msg.sender == owner|| msg.sender == owner2 || msg.sender == owner3, \"Not an Owner\");\n    _; \n  }\n\n  function otherPlayer(uint _gameId) view internal returns (address other) {\n    gameData memory thisGame = games[_gameId];\n    require(myLastGame[msg.sender]== _gameId);\n    if (thisGame.playerOne == msg.sender){\n      other= thisGame.playerTwo;\n    } else {\n      other= thisGame.playerOne;\n    }\n  }  \n\n  function onMoveStateCheck(uint _gameid ) internal view returns(bool) {\n    //do not need it, do I?\n    gameData memory game=games[_gameid];\n    bool g= (  game.gState == gameState.InProgress || game.gState == gameState.Staged  );\n    bool notLastMover = !(msg.sender == game.lastMover); \n    require( g && notLastMover , \"Game State: Unavailable.\" );\n    return true;\n  }\n\n  function noOtherGameOnCreate(address player1) internal view returns(bool) {\n    gameData memory lastPlayer1Game = games[myLastGame[player1]]; \n\n    if( (lastPlayer1Game.gState == gameState.Ended) || (lastPlayer1Game.gState == gameState.NoAssignedState) ){\n      return true;\n    } else {\n      return false;\n    }\n  }\n////// Modifiers END\n  function initializeGame(address _playerTwo,\n                          uint16 _startsAt,\n                          uint16 _totalTime,\n                          uint16 _timeoutTime,\n                          uint _wageSize,\n                          string memory _currentGameBoard,\n                          uint8 _p1color ,\n                          uint8 _p2color) public payable returns(uint justCreatedGameId) {\n    bool openGame;\n  \n    games[gameId]= gameData({\n                            playerOne: msg.sender,\n                            playerTwo: _playerTwo,\n                            gState: gameState.Staged,\n                            currentGameBoard:_currentGameBoard,\n                            lastMover: address(0),\n                            settings: gameSettings ({ startsAt: _startsAt,\n                                              openInvite: openGame,\n                                              totalTime: _totalTime,\n                                              timeoutTime: _timeoutTime,\n                                              wageSize:  _wageSize, \n                                              p1color: _p1color,\n                                              p2color: _p2color}),\n                            gameBalance: msg.value,\n                            player2accepted: false\n                            });\n//playeTwo is always white\n\n    require((noOtherGameOnCreate(msg.sender) && noOtherGameOnCreate(_playerTwo)), \"One of the players has a game in progress.\");\n    myLastGame[msg.sender]= gameId;\n    myLastGame[_playerTwo]= gameId;\n    \n    justCreatedGameId = gameId;\n    \n    emit newGameCreatedEvent(msg.sender,_playerTwo);\n    gameId++;\n\n    return gameId;\n  }\n\n  function getLastGameId() public view returns(uint) {\n    return gameId-1; \n  }\n\n  function getGame(uint gId) public view returns(gameData memory )  {\n      return games[gId];\n  }\n \n  function checkAndReturnCurrentGame() public view returns (gameData memory game) {\n    game= games[myLastGame[msg.sender]];\n   }\n  \n  event player2Accepted(address indexed _player1, address indexed _player2, bool _accepted);\n  \n  function timeOutforAccept() public {}\n\n  function playerTwoAccepted(bool _accepted) public payable  {\n    if (! _accepted) {\n      gameData storage game =  games[myLastGame[msg.sender]];\n      require(game.playerTwo == msg.sender);\n      game.player2accepted = false;\n      game.gState = gameState.Rejected;\n      //or cancel? w\\ no refund?\n      myLastGame[game.playerOne]= 0;\n      myLastGame[game.playerTwo]= 0;\n      //uint tenpercent = \n      myLastGame[msg.sender] = 0; \n      //(bool success,) = msg.sender.call.value(//%palyer1deposit/gascost)()\n      //norefund for now.\n      emit player2Accepted(game.playerOne, game.playerTwo, false);\n    } else {\n      gameData storage game = games[myLastGame[msg.sender]];\n      require(msg.value == game.settings.wageSize);\n      require(game.playerTwo == msg.sender);\n      game.player2accepted = true;\n      game.gState = gameState.InProgress;\n      game.gameBalance += msg.value;\n\n      emit player2Accepted(game.playerOne, game.playerTwo, true);\n    }\n  }\n  \n  \n  \n  event newMoveInGame(address indexed submittedby, address indexed otherPlayer, string indexed prevState, gameData current);\n\n  function submitMove(string memory _submittedMove) public {\n    string memory submitted = _submittedMove;\n    require(games[myLastGame[msg.sender]].player2accepted, \"Player2 did not accept yet.\");\n    gameData storage game= games[myLastGame[msg.sender]]; \n    \n    string memory prevState= string(game.currentGameBoard);\n    if(onMoveStateCheck(myLastGame[msg.sender])) {\n      game.lastMover= msg.sender;\n      game.currentGameBoard = submitted; \n    }\n    address other = otherPlayer(myLastGame[msg.sender]); \n    emit newMoveInGame( msg.sender, other, string(prevState), game );\n  }\n\n\nevent playerResigned(address indexed submittedby, address indexed otherPlayer, address OtherPlayerNotLastMovedThatResigned);\n\n  function resignGame() public {\n    gameData storage game = games[myLastGame[msg.sender]];\n    \n    if ( onMoveStateCheck(myLastGame[msg.sender]) ) {\n\n      myLastGame[game.playerOne]= 0;\n      myLastGame[game.playerTwo] = 0;\n      //reverse order\n      emit playerResigned(msg.sender, otherPlayer(myLastGame[msg.sender]), msg.sender);    \n      \n     \n    }\n  \n  }\n\n}\n",
  "sourcePath": "/home/pbdesk2/Desktop/github/ChessWager/contracts/GameContract.sol",
  "compiler": {
    "name": "solc",
    "version": "0.7.6+commit.7338295f.Emscripten.clang"
  },
  "schemaVersion": "3.4.3",
  "updatedAt": "2021-09-29T12:17:50.709Z",
  "networkType": "ethereum",
  "devdoc": {
    "kind": "dev",
    "methods": {},
    "version": 1
  },
  "userdoc": {
    "kind": "user",
    "methods": {},
    "version": 1
  }
}